:400000000080002011000000CD080000CD08000080B500AF024A034B1B68136000F060FCBC760040FA46004010B5054C237833B9044B13B10448AFF300800123237010BD11
:400040006881FF1F00000000243F0000084B10B51BB108490848AFF300800848036803B910BD074B002BFBD0BDE81040184700BF000000006C81FF1F243F0000C880FF1FFC
:400080000000000080B500AFA02003F06BFA5D2003F07AFB00BF80BD80B500AF7F2003F061FA7F2003F070FB00BF80BD80B582B000AF0346FB717F2003F054FAFB7918461C
:4000C00003F062FB00BF0837BD4680BD80B582B000AF78607B68DBB2184603F043FA7F2003F052FB00BF0837BD4680BD80B582B000AF0346FB71FB797F33DBB2184603F09A
:4001000031FAFB797F33DBB2184603F03DFB00BF0837BD4680BD00BF80B584B000AF002000F05CFD0346FB81012000F057FD0346BB81022000F052FD03467B81032000F072
:400140004DFD03463B81052000F048FD0346FB80042000F043FD0346BB80234B1B68092B3BDCB7F90E3040F6A202934202DD1F4B01221A60B7F90C3040F6A202934202DD01
:400180001A4B01225A60B7F90A3040F6A202934202DD164B01229A60B7F9083040F6A202934202DD124B01225A60B7F9063040F6A202934202DD0E4B01229A60B7F9043089
:4001C00040F6A202934202DD094B01221A60064B1B680133044A136002E0064B01221A6000BF1037BD4680BDBC81FF1FA481FF1FB081FF1FC081FF1F80B500AF00F0DEFCA7
:4002000000BF80BD80B584B000AF62B64D4B00221A7000F0BBFC00F0C3FD03F0ABFD03F015FB03F06DFB484800F0FAFC474803F0B9F903F0F3F803F003FA002003F0C4FAB5
:400240000121002000F0F0FD0023FB60404B1B68012BFBD100F0ACF8B86000F081F87860BB68072B55D801A252F823F00B030000CF02000013030000A7020000ED020000DF
:40028000C3020000B50200008D0200007B68072B03D12820FFF72AFF3AE07B68052B37D1FFF7F0FE34E03220FFF700FF012003F08BFA2EE0C820FFF709FF012003F084FA50
:4002C00027E0FFF7DFFE002003F07EFA21E00123FB60FFF7E1FE322002F0BCFF2C20FFF7E5FE4FF4AF7002F0B5FF12E00223FB60FFF7D2FE322002F0ADFFCE20FFF7E6FE28
:400300004FF4AF7002F0A6FF03E0FFF7C5FE00E000BF0F4B00221A600E4B00221A600E4B00221A600C4B00225A600B4B00229A600A4B00221A60094B00225A60074B00226F
:400340009A6083E7C881FF1FF901000019010000C081FF1FBC81FF1FA481FF1FB081FF1F80B485B000AF0023FB60104B5B68BB600E4B9B687B600D4B1B683B600B4B5B68BD
:400380005B00FA681344FB60084B9B689B00FA681344FB60054B1B68FA681344FB6000BF18461437BD4680BC704700BFB081FF1F80B485B000AF0023FB60104B1B68BB60E7
:4003C0000E4B5B687B600D4B9B683B600B4B1B689B00FA681344FB60084B5B685B00FA681344FB60054B9B68FA681344FB60FB6818461437BD4680BC704700BFA481FF1F98
:4004000080B582B000AF786039603A680021786803F07FFD00BF0837BD4680BD80B584B000AFF860B9607A607A68B968F86803F065FD00BF1037BD4680BD00BF80B483B05E
:4004400000AF0346FB71FEE780B487B000AF7860396000233B6100237B6127E07B699B007A6813441B68BB60BB68FB73BB6823F0FF03BB6014E03B695B003A6813441B782A
:400480001A46BB68134419463B695B003A6813445B780B703B6901333B61FB7B013BFB73FB7B002BE7D17B6901337B617B692B2BD4D900BF1C37BD4680BC704780B582B086
:4004C00000AF3F4B04221A803E4B18221A703E4B3A221A803D4B18221A703D4B3B221A803C4B18221A703C4B81221A803B4B18221A703B4B00221A803A4B1B221A703A4B00
:4005000000221A80394B1B221A70394B06221A70384B52221A70384B384A1278D2B21A70374B40F619121A80364B41F251221A800023FB7019237B6014E0FB785B00DAB22F
:40054000314B1B78DBB203F00103DBB21343DBB203F00303FB704FF4F07003F051FC7B68013B7B607B68002B02D0FB78032BE4D17B68002B02D10320FFF760FF234B4FF4F7
:4005800080721A80214B07221A70214B00221A70204B48221A701D4B00221A701E4B00221A701E4B02221A701D4A1D4B1B78DBB243F03F03DBB2137000BF0837BD4680BD27
:4005C00080400040824000408440004086400040884000408A4000408C4000408E400040904000409240004094400040964000400043004000420040A14600400F010049F2
:400600002242004020420040254200400440004006400040084000400940004001400040A243004080B582B000AF244B1B78FB71234B1B78BB71234B1B787B71224AFB798E
:4006400003F00703DBB21370204AFB791B09DBB213701B4ABB7943F00303DBB21370194A7B7943F00303DBB21370194BE3221A70184B04221A70184B30221A70174B4022D0
:400680001A70174B40221A70164BF7221A70164B20221A70154B04221A700A2002F0FCFD084A7B791370064ABB791370104B44221A7000BF0837BD4680BD00BFCF010049DB
:4006C000F8460040F94600406E5800406F5800400D5100401D510040FD5100400159004003590040205B0040235B0040585B00407658004080B586B000AF72B6574B6122FF
:400700001A70FFF7DBFE554B01221A70544A544B1B78DBB243F00403DBB213700023FB7513E0FA7D13465B0013445B004D4A13443B613B691A683B699B889BB21946104690
:40074000FFF75EFEFB7D0133FB75FB7D072BE8D90023FB751CE0FA7D13469B0013445B00414A1344FB60FB681B68BB60FB685B687B60FB681A7A5B7A1B0213437B807B8878
:400780001A467968B868FFF749FEFB7D0133FB75FB7D012BDFD935494FF09040FFF754FE04213348FFF72CFE042232493248FFF735FE324B324A1A60324A324B1B78DBB2BE
:4007C00043F00203DBB213702F4A2F4B1B78DBB243F00203DBB213702C4A2C4B1B78DBB243F04003DBB21370294A294B1B78DBB243F01003DBB21370082226492648FFF769
:400800000DFE082225492648FFF708FE0A2225492548FFF703FE082224492548FFF7FEFD0A2224492448FFF7F9FD082223492448FFF7F4FD234A234B1B78DBB243F00803A5
:40084000DBB21370FFF7EEFE0E2210491E48FFF7E5FD00BF1837BD4680BD00BF00480040E8460040283F0000583F0000B000004800760040A00F004808760040D80801403A
:40088000040404840350014013500140A0430040C2430040680F004802510040700F0048C2510040780F0048F0510040840F0048125100408C0F004820510040980F00484B
:4008C0003251004022430040B043004080B500AF03F0E8FA03461B680C2B00D1FEE7FEE780B586B000AF224B7B61224B3B61204B7B6135E03B691B68FB603B695B68BB603A
:400900003B699B683B6000237B600CE0FB681A68BB681A60BB680433BB60FB680433FB607B6804337B607A683B689A42EED13B69DB683B6000237B6008E0BB6800221A6063
:40094000BB680433BB607B6804337B607A683B689A42F2D13B6910333B617B69013B7B617B69002BC6D103F0A3FAFFF74BFCFEE7010000004441000080B582B000AF194B12
:40098000194A1A60194A194B1B6843F40073136000237B600FE07B68032B04D8144A7B6852F8233000E0134B13497A6841F822307B6801337B607B682F2BECD90F4B1B7853
:4009C000DAB20F4B1A700F4B0B4A1A60FFF792FE02F018FA0C4B00221A6000BF0837BD4680BD00BF0CED00E00004FA0514ED00E000000000CD0800000080FF1FBC76004042
:400A0000C480FF1F08ED00E0C080FF1F80B500AF41F6FF734FF480420121022002F05AF903461A460A4B1A7041F6FF7341F6FF720121102002F080F903461A46054B1A70ED
:400A4000054802F0ABF9002002F0BAF900BF80BDD081FF1FD181FF1F150C000080B582B000AF414B1B78184602F040FA3F4B1B78184602F03BFA3E4B1B78FF2B05D102F063
:400A800041FB03461A463A4B1A70394B1878384B1A780623102102F063FB354B1B78354A92B245F6A031184602F09AFB2E4B1A782F4B1B781946104602F0B6FA2E4B1B782D
:400AC000FF2B05D102F01EFB03461A462A4B1A70294B1878284B1A780723102102F040FB254B1B78234A91B2244A92B2184602F077FB1E4B1A78204B1B781946104602F0EB
:400B000093FA194B1B780121184602F0A9F9174B1B780121184602F0A3F903F079F90346FB71174A164B1B78DBB243F02003DBB21370FB79184603F06FF9124A114B1B7840
:400B4000DBB243F00103DBB213700E4A0D4B1B78DBB243F00203DBB213700B4B01221A6000BF0837BD4680BDD081FF1FD181FF1FCC80FF1FD481FF1FCD80FF1FF481FF1F9E
:400B8000926400407564004080E200E080B500AF084B1B68002B04D1FFF738FF054B01221A6001F0A3FFFFF759FF034B1B7800BF80BD00BFCC81FF1F6664004080B400AFFB
:400BC000054A054B1B78DBB243F00403DBB2137000BFBD4680BC70477564004080B483B000AF0346FB80FB88C3F10703074A32F913309AB2064B1B881BB29BB2D31A9BB2B0
:400C00001BB218460C37BD4680BC7047F481FF1FBA82FF1F80B400AF00BFBD4680BC704780B582B000AF786000F03CF8786800F009F8072000F018F800F028F800BF0837B3
:400C4000BD4680BD80B485B000AF7860054B1B68FB60FB6858337A681A6000BF1437BD4680BC704708ED00E080B483B000AF0346FB71054AFB795B01DBB2137000BF0C37FB
:400C8000BD4680BC704700BF06E400E080B400AF034B40221A6000BFBD4680BC704700BF00E100E080B400AF034B40221A6000BFBD4680BC704700BF80E100E080B500AFCD
:400CC000214A214B1B78DBB203F00103DBB213701E4A1E4B1B78DBB223F00303DBB213701B4A1B4B1B78DBB223F03003DBB21370174A174B1B78DBB243F03003DBB2137042
:400D0000134A134B1B78DBB223F00F03DBB213700F4A0F4B1B78DBB243F00F03DBB213700C4A0C4B1B78DBB243F00103DBB21370C72000F057F8C72000F066F8002000F0FC
:400D400041F800BF80BD00BF244F0040264F00402F4F0040254F004080B400AF0D4A0D4B1B78DBB243F00803DBB213700A4A0A4B1B78DBB243F00803DBB21370074A074BEB
:400D80001B78DBB243F00103DBB2137000BFBD4680BC7047A3430040B3430040244F004080B500AF064B1B78002B04D1FFF786FF034B01221A70FFF7CFFF00BF80BD00BF4B
:400DC000E481FF1F80B483B000AF0346FB71044AFB79137000BF0C37BD4680BC704700BF274F004080B485B000AF0346FB71FB79FB81044AFB89138000BF1437BD4680BC88
:400E0000704700BF284F004080B483B000AF0346FB71044BFA7992B21A8000BF0C37BD4680BC70472A4F004080B582B000AF03460A46FB711346BB71094B1B78002B04D1E2
:400E400000F010F8064B01221A70BA79FB791146184600F0D9F800BF0837BD4680BD00BFE581FF1F80B582B000AF02F0D1FF0346FB71544A534B1B78DBB243F00103DBB231
:400E80001370514A504B1B78DBB243F00103DBB213704E4B01221A704D4B02221A704D4A4C4B1B78DBB203F07F03DBB21370002002F0F2F9484A484B1B78DBB223F0060355
:400EC000DBB21370454A454B1B78DBB223F02003DBB21370404A404B1B78DBB243F00103DBB21370012002F0D7F9282002F0D4F93B4A3B4B1B78DBB203F07F03DBB2137047
:400F0000374A374B1B78DBB223F04003DBB21370314A314B1B78DBB243F00203DBB21370022002F0B9F92C4A2B4B1B78DBB243F00403DBB213702B4B00221A702A4B0022F4
:400F40001A70FB79184602F067FF0721172002F0DFF92649172002F0B3F90721182002F0D7F92349182002F0ABF90721152002F0CFF92049152002F0A3F90721012002F076
:400F8000C7F91D49012002F09BF90721022002F0BFF91A49022002F093F90721032002F0B7F91749032002F08BF907210C2002F0AFF914490C2002F083F900BF0837BD46A1
:400FC00080BD00BFA5430040B54300409D60004009600040106000409443004012600040F851004084600040856000405D1A000045130000511A000069190000B1190000DE
:40100000FD190000691A000080B582B000AF03460A46FB711346BB712E4AFB7913702E4B00221A702D4B00221A702D4B00221A702C4B00221A702C4B00221A702B4B0022BD
:401040001A702B4B00221A702A4B4FF400021A60284B4FF080721A60264B4FF400121A60244B02221A60234B04221A60214B08221A60BB79002B02D0012B09D011E01E4A78
:401080001D4B1B78DBB223F00103DBB2137011E0194A194B1B78DBB243F00103DBB2137008E0154A144B1B78DBB243F00103DBB2137000BF114B03221A70114B80221A7003
:4010C000012002F09DFE0F4B04221A7000BF0837BD4680BD1D82FF1F2082FF1F3C82FF1F3F82FF1F3482FF1F3E82FF1F4182FF1F1C82FF1F00E100E0096000402860004041
:40110000086000401260004080B400AF0F4B00221A700F4B00221A700E4B00221A700E4B00221A700D4B00221A700D4B00221A700C4B00221A700C4B03221A700B4B802253
:401140001A7000BFBD4680BC704700BF2082FF1F3C82FF1F3F82FF1F3482FF1F3E82FF1F4182FF1F1C82FF1F286000400860004080B582B000AF0023FB71314B1B79DBB2F5
:40118000184600F067F80346BB712D4B1B78DBB25BB2002B15DA2A4B5B78DBB2212B00D048E0284B07221A80BA791346DB009B1A254A1344234A536000F03EFA0346FB7120
:4011C00038E01F4B5B78DBB2202B02D0222B1AD030E01C4B07221A80BA791346DB009B1A194A1344174A5360BB79BA7917498A5CD2B242F00102D1B2144AD15400F09AFAA5
:401200000346FB7116E0BB790D4A9278D2B291B20F4A22F81310BB79BA790C498A5CD2B242F00202D1B2094AD15400F021FB0346FB7100BFFB7918460837BD4680BD00BF2A
:40124000006000402882FF1FD080FF1F0482FF1F1882FF1F80B485B000AF0346FB710023FB73FF23BB7317E0FB7B104AD35C7B737A7B0F4913465B0013449B000B440A332B
:401280001B78DBB2FA799A4203D1FB7BBB730223FB73FB7B0133FB73FB7B012BE4D9BB7B18461437BD4680BC704700BF0C82FF1F4482FF1F80B485B000AF78600B46FB706D
:4012C0001346BB707B68DB7803F00303FB737B689B785BB2002B1ADAFB7B032B0AD0BB7803F001031449FA78CA54BB7843F00103BB701BE0BB789B08DBB203F001030F49D4
:40130000FA78CA54BB7843F00403BB700EE0FB7B032B0BD0BB785B08DBB203F001030849FA78CA54BB7843F00203BB70BB7818461437BD4680BC70470882FF1F0C82FF1F61
:401340001082FF1F80B582B000AF374B1B78BB71BB7903F01003002B62D00123FB7197F90630002B12DABB7903F00F03012B02D00023FB711CE000F061F82C4B1B78DBB2C0
:401380005BB2002B14DA0023FB7111E0BB7903F04003002B02D000F095F809E0BB7903F02003002B02D000F0B3F801E00023FB71FB79002B34D01C4B1B78BB7197F90630D9
:4013C000002B2DDB1A4B1B78DAB21A4B1B78DBB21343BB71184ABB791370174B1B78DBB2BA799A421CD1114B1B78FB710E4B1B78DBB223F07F03BB71BB79002B0AD10A4B74
:401400000A4A1278D2B21A70074B1B78DBB203F00F03FB71054B1B78DBB2FA799A42E2D100BF0837BD4680BD286000403D82FF1FB282FF1F4082FF1F2960004080B582B026
:4014400000AF1D4B1B78FB711B4AFB7913701A4B1B78FB7197F90730002B03DA174AFB79137025E0022000F045FA154B1B78DBB203F06003202B08D0402B0BD0002B0ED1D0
:4014800000F0F8FA0346FB710CE002F0C9FC0346FB7107E001F000FB0346FB7102E00023FB7100BFFB79002B02D1044B03221A7000BF0837BD4680BD286000403D82FF1F32
:4014C0000060004080B500AF104B1B78DBB2062B19D801A252F823F00715000007150000F514000007150000FB140000071500000115000000F0F8F806E000F0A7F903E0F4
:4015000000F0D2F900E000BF00BF80BD2082FF1F80B500AF124B1B78DBB2062B1DD801A252F823F05B1500005B150000411500005B150000471500005B1500004D1500003A
:4015400000F0D8F80AE000F027F907E0032000F0D1F9044B03221A7000E000BF00BF80BD2082FF1F3D82FF1F80B483B000AF0023FB71294B1B78DBB29AB2284B1B889BB2CF
:4015800013449AB2254B1A8015E02549FB79254A52681278D2B2CA54224B5B680133214A5360FB790133FB711E4B1B889BB2013B9AB21C4B1A801B4B1B889BB2002B02D087
:4015C000FB79072BE1D9144B1B78DBB2082B02D0FB79002B0FD0144B1B78DBB283F07F03DB43DAB2104B1A70104B0F221A70104B02221A7005E00D4B02221A700C4B022201
:401600001A700C4AFB791370034AFB79137000BF0C37BD4680BC70471C82FF1F1E82FF1F006000402882FF1FB282FF1F3D82FF1F2082FF1F4082FF1F80B582B000AF164B6F
:401640001B889BB2002B02D100F02EF81EE0134B02221A70124B00221A7000F06BF9114BDB79DBB29BB21B029AB20E4B9B79DBB29BB21343FB80084B1B889BB2FA889A4253
:4016800002D2054AFB881380FFF76EFF012318460837BD4680BD00BF2882FF1F2082FF1FB282FF1F0060004080B400AF094B02221A70094B80221A70084B0F221A70084B8E
:4016C00000221A70074B00221A7001231846BD4680BC70472082FF1FB282FF1F3D82FF1F1C82FF1F4082FF1F80B500AFFFF73CFF00BF80BD80B500AF0A4B1B78DBB29AB287
:40170000094B1B889BB213449AB2074B1A80074B00221A70012000F0EDF8054B03221A7000BF80BD1C82FF1F1E82FF1F2082FF1F3D82FF1F80B582B000AF124B04221A70AD
:40174000114B80221A7000F0F5F8104BDB79DBB29BB21B029AB20D4B9B79DBB29BB21343FB800B4B1B889BB2FA889A4202D2084AFB881380074B0B221A7001231846083751
:40178000BD4680BD2082FF1FB282FF1F006000402882FF1F3D82FF1F80B483B000AF0023BB71234B1B78DBB203F00F03DBB2023BFB71FB799AB21F4B1B889BB213449AB2A7
:4017C0001C4B1A8018E01C4B5B681C49BA798A5CD2B21A70184B5B680133174A5360BB790133BB71FB79013BFB71134B1B889BB2013B9AB2104B1A800F4B1B889BB2002BDC
:4018000002D0FB79002BDED10D4AFB7913700D4B1B78DBB283F07F03DB43DAB2094B1A70094B0B221A7000BF0C37BD4680BC7047296000401E82FF1F2882FF1F0060004053
:401840004082FF1FB282FF1F3D82FF1F80B500AF054B00221A70012000F04CF8034B03221A7000BF80BD00BF2082FF1F3D82FF1F80B400AF084B06221A70084B06221A70E2
:40188000074B80221A70074B00221A7001231846BD4680BC704700BF2082FF1F3D82FF1FB282FF1F4082FF1F80B500AF0D4B1B78DBB2002B0AD00C4A0A4B1B78DBB263F027
:4018C0007F03DBB21370074B00221A70074B00221A70012000F00EF8054B03221A7000BF80BD00BF3E82FF1F086000402082FF1F3D82FF1F80B483B000AF0346FB710B4B45
:401900009B68002B0CD0094B9B68FA791A70074B9B68074A128892B25A80044B00229A6000BF0C37BD4680BC704700BF2882FF1F1E82FF1F80B400AF094B00221A80094BFC
:401940009B68002B07D0074B9B6800221A70054B9B6800225A8000BFBD4680BC704700BF1E82FF1F2882FF1F80B400AF0D4B01221A700D4B9B7C0D4B1B7BDBB203F003034D
:40198000012B08D0094BDB7BDBB283F07F03DB43DAB2064BDA73054B01225A7300BFBD4680BC70470B600040FC5F00404482FF1F80B400AF0E4B02221A700E4B93F8223070
:4019C0000D4B1B7EDBB203F00303012B08D00A4BDB7EDBB283F07F03DB43DAB2064BDA76054B01225A7600BFBD4680BC704700BF0B600040FC5F00404482FF1F80B400AF2D
:401A0000104B04221A70104B93F832300F4B93F82430DBB203F00303012B0AD00B4B93F82730DBB283F07F03DB43DAB2074B83F82720064B012283F8252000BFBD4680BCE4
:401A4000704700BF0B600040FC5F00404482FF1F80B400AF00BFBD4680BC704780B500AFFFF752FB00BF80BD80B500AF01F0BAF900BF80BD80B586B000AF0023FB759D4BF2
:401A80001B78FB7100233B619B4B00221A8097F90730002B80F20481964B5B78DBB20A2B00F21B8201A252F823F000BFF71B0000DB1E0000DB1E0000DB1E0000DB1E000023
:401AC000DB1E0000D91A0000DB1E00006B1C0000DB1E0000811C0000864BDB78DBB2012B0ED100F049FEB860BB685B68824A5360814B12221A80FFF79FFD0346FB75EEE1C0
:401B00007C4BDB78DBB2022B25D17A4B9B78DBB2184600F009FEB860BB68002B00F0DF81BB685B68744A5360734B5B6803331B78DBB29BB21B029AB26F4B5B6802331B7842
:401B4000DBB29BB213439AB26B4B1A80FFF774FD0346FB75C3E1674BDB78DBB2032B45D10023FB73654B3B6109E03B691B78BB71BB793A6913443B61FB7B0133FB735D4B4C
:401B80009B78DBB2FA7B9A4204D23B691B78DBB2002BEAD1574B9B78DBB2EE2B01D1584B3B61544B9B78DBB2002B0BD0514B9B78DAB2544B1B7C9A4204D1534800F0ACF9B1
:401BC000514B3B613B691B78DBB2002B00F087813B691B78DBB29AB2474B1A80464A3B695360FFF729FD0346FB7578E102F018F90346FB7573E1FB7903F00303002B20D0DD
:401C0000022B00D030E03C4B02221A80394B1B79DBB203F07F023D4913465B0013449B000B4402331B78DAB2394B1A70384B00225A70314B364A5A60FFF7FEFC0346FB758E
:401C400012E02D4B02221A80324B1B78DAB2304B1A702F4B00225A70274B2D4A5A60FFF7EBFC0346FB7500BF40E1234B01221A80214B294A5A60FFF7DFFC0346FB7535E1B8
:401C80001D4B01221A801B4B1B79DBB21A46234B1344194A5360FFF7CFFC0346FB7525E1144B5B78DBB2013B0A2B00F21A8101A252F823F0BF1D0000E31E00004D1E0000B8
:401CC000E31E0000E11C0000E31E0000E31E0000E31E0000251D0000E31E00007B1D0000044B9B78DAB20E4B1A70FFF7C1FD0346FB75FBE0006000402882FF1FD83F000070
:401D0000E0400000803F0000C482FF1F4482FF1FE881FF1F4182FF1F3F82FF1FB082FF1F3E82FF1F744B9B787B717B79002B06D07B79013BDBB2184600F0F6FCB8607B794B
:401D4000002B02D0BB68002B03D17B79002B40F0CA806A4B1B78DBB27A799A4208D0674A7B791370664B01221A70012000F0DCF9FFF77EFD0346FB75B5E000F055FE034678
:401D8000002B00F0B2805C4B1B793B715A4B1B79DAB25C4B1A703B795B4AD35CDAB23B795A49CB5CDBB29A4204D0554B01221A7000F08CFBFFF75CFD0346FB7595E0FB7975
:401DC00003F00303012B20D0012B0CD3022B00D03BE0494B9B78DBB2002B31D100F078FD0346FB752CE0444B9B78DBB2012B29D1474B1B78DBB223F00203DAB2444B1A705C
:401E0000FFF736FD0346FB751CE03B4B1B79DBB2012B19D8384B9B78DBB2DB43DBB2364A1279D2B2114610463A4A125CD2B21340DAB2384B5A54FFF71BFD0346FB7503E0C6
:401E400000BF53E000BF51E000BF4FE0FB7903F00303012B20D0012B0CD3022B00D03BE0254B9B78DBB2002B31D100F0BDFC0346FB752CE0204B9B78DBB2012B29D1244B9B
:401E80001B78DBB243F00203DAB2214B1A70FFF7EFFC0346FB751CE0174B1B79DBB2012B19D8154B9B78DBB2DB43DBB2124A1279D2B211461046174A125CD2B21340DAB21D
:401EC000144B5A54FFF7D4FC0346FB7503E000BF0CE000BF0AE000BF08E000BF06E000BF04E000BF02E000BF00E000BFFB7D18461837BD4680BD00BF006000403F82FF1F8E
:401F00003C82FF1F3482FF1F2482FF1FB082FF1F4182FF1FB482FF1FB0B58AB000AF7860324B07F114041D460FCD0FC42B682370002387F826307B68002B52D07B6822226E
:401F40001A707B68013303221A7007F10C03184601F002FA022387F827303EE097F827307A68134497F8262007F128010A4412F81C2C1209D2B207F128010A4412F8142C99
:401F80001A7097F8273001337A68134400221A7097F8273002337A68134497F8262007F128010A4412F81C2C02F00F0207F128010A4412F8142C1A7097F8273003337A686A
:401FC000134400221A7097F82630013387F8263097F82730043387F8273097F82730212BBCD900BF2837BD46B0BD00BF6C3F000090B482B000AF0123FB7180E0464AFB7925
:402000001B0113440C221A70FA79444913465B0013449B000B4405331B78DBB2002B1CD0FA793E4913465B0013449B000B4404331B78DBB25BB2002B07DA394AFB791B019F
:40204000134402330C221A700EE0354AFB791B011344023308221A7006E0314AFB791B011344023380221A702B48F979FA792B4C13465B0013449B00234406331B889BB231
:40208000DAB20B01034406331A702348F979FA79224C13465B0013449B00234406331B889BB21B0A9BB2DAB20B01034407331A701948F979FA79194C13465B0013449B0024
:4020C000234406331B889BB2DAB20B01034404331A701148F979FA79104C13465B0013449B00234406331B889BB21B0A9BB2DAB20B01034405331A70FB790133FB71FB7945
:40210000082B7FF67BAF074BFF221A7000BF0837BD4690BC704700BF706000404482FF1FFC5F00400A60004080B58AB000AF0346FB7100237B84002387F8273050E097F827
:402140002720B34913465B0013449B000B4400221A7097F82720AE4913465B0013449B000B44023300221A7097F82720A84913465B0013449B000B44033300221A7097F8AB
:402180002720A34913465B0013449B000B44083300221A8097F827209D4913465B0013449B000B440A3300221A7097F82720984913465B0013449B000B44013300221A70DA
:4021C00097F82720924913465B0013449B000B44053300221A7097F82730013387F8273097F82730082BAAD9FB79002B16D0002387F825300EE097F82530864A0021D15465
:4022000097F82530844A0021D15497F82530013387F8253097F82530012BECD97F4B1B78DBB2002B00F04A810023FB767B4B1B78DBB2013BDBB2184600F076FA78617B6957
:402240005B683B613B6907331B7803F04003002B08D0734B1B78DBB243F00103DAB2704B1A7007E06E4B1B78DBB223F00103DAB26B4B1A707B6908337B617B691B7887F8DB
:402280002730012387F82530B6E07B695B68FB61002387F82630A3E097F82520FB699B7803F07F039A4240F0938097F82520584913465B0013449B000B4408331B889AB248
:4022C000FB699B889A420CD297F82520FB6998884F4913465B0013449B000B44083302461A80FB691B781A464A4B9B5CDAB2FB695B789A426CD197F82520FB699878444907
:4023000013465B0013449B000B44043302461A7097F82520FB69D8783D4913465B0013449B000B4402461A70FB69DB7803F00303FB73FB699B785BB2002B1CDA97F8252033
:40234000FB7B012B01D1072000E00D20304913465B0013449B000B44053302461A7097F825202B4913465B0013449B000B44013301221A701BE097F82520FB7B012B01D1DC
:40238000052000E00920224913465B0013449B000B44053302461A7097F825201C4913465B0013449B000B44013300221A70FB699B790A2B03D0FB699B79022B08D1FA7E01
:4023C00097F825301946F869FEF774FF0346FB76FB690833FB6197F82630013387F8263097F8262097F827309A42FFF455AF97F82530013387F8253097F82530082B7FF628
:4024000044AF7B695B68FB61002387F8253020E04482FF1FB082FF1F2482FF1F3F82FF1F4182FF1FFB699B7803F07F02FB691878244913465B0013449B000B440A33024631
:402440001A70FB690833FB6197F82530013387F8253097F8252097F827309A42E2D300F09DF90246184B1A6000237B84012387F827301DE097F82720124913465B001344A0
:402480009B000B4406337A8C1A8097F827200D4913465B0013449B000B4408331B889AB27B8C13447B8497F82730013387F8273097F82730082BDDD9FFF79AFD00BF283747
:4024C000BD4680BD4482FF1F3882FF1F90B585B000AF8F4B1B78DBB2002B00F015818C4B1B78DBB2013BDBB2184600F01DF978607B6808337B607B681B78FB707B685B6890
:40250000BB60844B1B78BB700023FB73F7E0BB681B78BA789A4240F0EC80BB787E4AD35CDAB2BB685B789A4240F0E380BB689B7803F07F037B70BB68DB7803F003033B7060
:402540007A78764913465B0013449B000B44033300221A707A78BB689878704913465B0013449B000B44043302461A707A78BB68D8786A4913465B0013449B000B440246A2
:402580001A707A78BB689888644913465B0013449B000B44083302461A80BB689B785BB2002B1ADA7A783B78012B01D1072000E00D205A4913465B0013449B000B44053394
:4025C00002461A707A78554913465B0013449B000B44013301221A7019E07A783B78012B01D1052000E009204C4913465B0013449B000B44053302461A707A78474913466A
:402600005B0013449B000B44013300221A70444A7B781B011344023301221A70404879787A783E4C13465B0013449B00234408331B889BB21B0A9BB2DAB20B0103441A7040
:40264000374879787A78354C13465B0013449B00234408331B889BB2DAB20B01034401331A70304879787A782C4C13465B0013449B00234406331B889BB2DAB20B010344BA
:4026800006331A70274879787A78244C13465B0013449B00234406331B889BB21B0A9BB2DAB20B01034407331A701E4879787A781A4C13465B0013449B00234406331B88B2
:4026C0009BB2DAB20B01034404331A70154879787A78124C13465B0013449B00234406331B889BB21B0A9BB2DAB20B01034405331A70BB680833BB60FB7B0133FB73FA7B00
:40270000FB789A42FFF403AF00BF1437BD4690BD3F82FF1F3482FF1FB082FF1F4482FF1FFC5F00407060004080B485B000AF0346FB710F4B1B78DBB20E4ADB0013445B6825
:40274000FB60FB681033FB60FB681B78FA799A4202D30023FB6005E0FB79DB00FA6813445B68FB60FB6818461437BD4680BC70471D82FF1FD840000080B400AF054B1B78BD
:40278000DBB2054ADB0013445B681846BD4680BC704700BF1D82FF1FD840000080B584B000AF104B1B78DBB2013BDBB21846FFF7BBFFB860BB68002B0DD0BB685B681B7939
:4027C000FB71FB790233DB00BA681344BB60BB685B68FB6001E00023FB60FB6818461037BD4680BD3F82FF1F80B582B000AF0023FB71344B1B79DBB203F07F03BB71BB7974
:40280000002B5AD0BB79082B57D8BA79B9792E480B465B000B449B00034402331B78DBB243F00103D8B2284913465B0013449B000B44023302461A70BA79234913465B001F
:4028400013449B000B44033300221A70BA79B9791D480B465B000B449B00034401331B78DBB243F00203D8B2174913465B0013449B000B44013302461A70BA791249134636
:402880005B0013449B000B4404331B78DBB25BB2002B07DA0D4ABB791B01134402338D221A7006E0094ABB791B011344023389221A70FEF7DDFF0346FB71FB7918460837BF
:4028C000BD4680BD006000404482FF1FFC5F004080B582B000AF0023FB71504B1B79DBB203F07F03BB71BB79002B00F09280BB79082B00F28E80BA79B97949480B465B000D
:402900000B449B00034402331B78DBB223F00103D8B2434913465B0013449B000B44023302461A70BA793E4913465B0013449B000B44033300221A703A49BB793948BA79EC
:40294000120102441278D2B202F07F02D2B21B010B441A70BA79B97931480B465B000B449B00034401331B78DBB223F00203D8B22B4913465B0013449B000B44013302466E
:402980001A70BA79264913465B0013449B000B4404331B78DBB25BB2002B1BDABA79204913465B0013449B000B4401331B78DBB2012B07D11B4ABB791B01134402330C221A
:4029C0001A7022E0174ABB791B01134402330D221A701AE0BA79124913465B0013449B000B4401331B78DBB2012B07D10D4ABB791B011344023308221A7006E0094ABB792C
:402A00001B011344023309221A70FEF731FF0346FB71FB7918460837BD4680BD006000404482FF1FFC5F004080B584B000AF0023FB73154B1B79BB73144B1B78DBB2013B69
:402A4000DBB21846FFF770FEB860BB685B681B79FB71BA7BFB799A4202D9BB7B022B0ED8BB7BBA7B0A498A5CD1B20A4AD154BB7B054A9278D1B2064AD1540123FB73FB7B31
:402A800018461037BD4680BD006000403F82FF1FB082FF1F2482FF1F80B582B000AF0023FB710F4B1B78DBB25BB2002B12DA0C4B5B78DBB2012B00D00CE00A4B0A4A5A6059
:402AC000094B1B789AB2074B1A80FEF7B5FD0346FB7100BFFB7918460837BD4680BD00BF006000402882FF1FF440000080B500AF064B1B78002B04D100F00AF8034B0122C5
:402B00001A7000F01BF800BF80BD00BFEA81FF1F80B500AF074A074B1B78DBB243F00603DBB213700C2000F06BF8034B00221A8000BF80BD01590040C082FF1F80B582B0EB
:402B400000AF01F065F90346FB71254A244B1B78DBB243F00103DBB21370224A214B1B78DBB243F00103DBB213701F4B1B78BB71BB7943F00203BB71BB7943F00103BB71C6
:402B8000194ABB791370194B18221A70184A184B1B78DBB243F04003DBB21370144A144B1B78DBB223F00303DBB21370114BCE221A70114B02221A70104A104B1B78DBB2AD
:402BC00043F00803DBB213700A2000F065FBFB79184601F021F900BF0837BD4680BD00BFAB430040BB4300400359004006590040055900400059004014460040275B0040F9
:402C000080B584B000AF0346FB71FB790A2B07D00C2B02D0082B06D008E0C223FB730BE08223FB7308E04223FB7305E0C223FB73002000F003FB00BF054AFB7B1370FB7980
:402C4000184600F007F800BF1037BD4680BD00BF0259004080B584B000AF0346FB71FB790A2B08D00C2B02D0082B08D00BE04FF48053FB600DE04FF48063FB6009E04FF40F
:402C80008073FB6005E00023FB60002000F0D6FA00BF0C4B00221A80FB6842F2107202FB03F303F6C413084A82FB0312D212DB17D31A064A1360064B00221A8000BF103758
:402CC000BD4680BDB882FF1FAD8BDB68BC82FF1FBA82FF1F90B585B002AF0446084611461A462346FB710346BB710B46BB8013467B80104B01221A700E4B1878BA79F979D1
:402D00000023019300230093012300F0ABF9094B1B787A88B988184600F04AF9054B1B780221184600F012F9024B1B7818460C37BD4690BDEA80FF1F90B585B002AF044686
:402D4000084611461A462346FB710346BB710B46BB8013467B80104B00221A700E4B1878BA79F9790023019300230093002300F079F9094B1B787A88B988184600F018F914
:402D8000054B1B780221184600F0E0F8024B1B7818460C37BD4690BDEB80FF1F80B485B000AF7860054B1B68FB60FB6840337A681A6000BF1437BD4680BC704708ED00E068
:402DC00080B483B000AF0346FB71054AFB795B01DBB2137000BF0C37BD4680BC704700BF00E400E080B400AF054B1B78DBB203F040039B09DBB21846BD4680BC704700BF91
:402E00008F45004080B483B000AF134B7F221A70124B80221A707F23FB710CE0FB79DB0003F1804303F5F043FA79013AD2B21A70FB79013BFB71FB79002BEFD1FB79DB00A5
:402E400003F1804303F5F04300221A7000BF0C37BD4680BC704700BFED80FF1FEC80FF1F80B485B000AF03460A46FB711346BB710123FB60FB79172B2FD8BB79002B0ED0DD
:402E8000FB791A01184B1344FA791101164A0A441278D2B242F02002D2B21A700DE0FB791A01114B1344FA7911010F4A0A441278D2B222F02002D2B21A70FB791A010A4B97
:402EC0001344FA791101084A0A441278D2B242F00102D2B21A700023FB60FB6818461437BD4680BC704700BF1070004080B485B000AF0346FB710123FB60FB79172B1DD80F
:402F0000FB791A01104B1344FA7911010E4A0A441279D2B242F00402D2B21A71FB791A01094B1344FA791101074A0A441278D2B242F00102D2B21A700023FB60FB681846E1
:402F40001437BD4680BC70471070004080B485B000AF03460A46FB711346BB710123FB60FB79172B1BD8FB791A01104B13441B78DBB223F00E03FB72FB791A010B4B134458
:402F8000BA795200D2B252B202F00E0251B297F90B200A4352B2D2B21A700023FB60FB6818461437BD4680BC704700BF1070004080B485B000AF0346FB710B46BB80134634
:402FC0007B800123FB60BB8841F6FF72934202D14FF40053BB807B8841F6FF72934202D14FF400537B80FB79172B17D8FB79DB0003F1804303F5EC430433BB60BB68BA8886
:403000001A80FB79DB0003F1804303F5EC430633BB60BB687A881A800023FB60FB6818461437BD4680BC704780B485B000AF03460A46FB711346BB710123FB60FB79172B5F
:4030400007D8FB791A01064B1344BA795A720023FB60FB6818461437BD4680BC704700BF1070004090B484B000AF0446084611461A462346FB710346BB710B467B711346E6
:403080003B710123FB60FB79172B34D8FB79DB0003F1804303F5EC43BA7902F07F02D1B27A79D201D2B20A43D2B21A70FB79DB0003F1804303F5EC433A7E1201D1B23A79FA
:4030C00002F00F02D2B20A43D2B25A70FB79DB0003F1804303F5EC433A7F02F00F02D2B29A70FB79DB0003F1804303F5EC430022DA700023FB60FB6818461037BD4690BCC9
:40310000704700BF80B582B000AFFF23FB7100F07FFE0346BB71104B1B78182B12D90F4B1B78FB710C4B1B78013BDAB20A4B1A70FB79DB0003F1804303F5F0431B78DAB23D
:40314000064B1A70BB79184600F066FEFB7918460837BD4680BD00BFEC80FF1FED80FF1F90B484B000AF0446084611461A462346FB710346BB800B46BB711346FB70012335
:40318000FB6097F90730002B23DBBB8823F47F6323F00F039BB2002B1BD1FB79DB0003F1804303F5F043BB60BB68BA881A80FB79DB0003F1804303F5F043BA799A70FB79D2
:4031C000DB0003F1804303F5F043FA78DA700023FB60FB6818461037BD4690BC704700BF80B485B000AF0346FB710B46BB8013467B800123FB6097F90730002B17DBFB7987
:40320000DB0003F1804303F5F0430433BB60BB68BA881A80FB79DB0003F1804303F5F0430633BB60BB687A881A800023FB60FB6818461437BD4680BC704700BF80B483B096
:4032400000AF0346FB7101BE00BF0C37BD4680BC704700BF80B582B000AF786008E00C4B1B68184600F0CCFD7B68A3F500437B607B68B3F5004FF2D8064B1B687A6802FBBD
:4032800003F3184600F0BCFD00BF0837BD4680BD0081FF1FF880FF1F80B582B000AF0346FB80FB88054A127802FB03F3184600F0A7FD00BF0837BD4680BD00BFFC80FF1FEC
:4032C00080B584B000AF03463960FB710F4B1B68FB60FB791F2B02D90020FFF7AFFFFB7903F01F0310339B00FA6813441B68BB60FB7903F01F0310339B00FA6813443A6853
:403300001A60BB6818461037BD4680BD08ED00E080B582B000AF03460A46FB711346BB71BB79072B02D90020FFF788FFFB791F2B02D90020FFF782FFFB7903F01F0303F10B
:40334000604303F56443BA795201D2B21A7000BF0837BD4680BD00BF80B483B000AF7860264B1B78DBB21A467B681A60244B1B78DBB21B027A6812681A437B681A60214B10
:403380001B78DBB21B047A6812681A437B681A601D4B1B78DBB21B067A6812681A437B681A607B680433194A1278D2B21A60184B1B78DBB21A027B680433796804310968B4
:4033C0000A431A60134B1B78DBB21A047B6804337968043109680A431A600F4B1B78DBB21A067B6804337968043109680A431A6000BF0C37BD4680BC704700BF03010049FC
:4034000004010049EC460040020100490101004900010049050100490601004980B500AF064B1B78002B04D100F00AF8034B01221A7000F063F800BF80BD00BFEB81FF1F07
:4034400080B582B000AF284A274B1B78DBB243F00203DBB21370254B1B78DBB223F07003FB71224AFB7943F01003DBB21370204A1F4B1B78DBB223F03003DBB213701C4A82
:403480001B4B1B78DBB243F03003DBB21370184A174B1B78DBB223F00F03DBB21370144A134B1B78DBB243F00F03DBB21370FF2000F048F8142000F055F8002000F062F89C
:4034C0000C4A0C4B1B78DBB243F00103DBB21370094A094B1B78DBB243F00103DBB2137000BF0837BD4680BD004F0040024F00400B4F0040A3430040014F004080B400AF19
:403500000D4A0D4B1B78DBB243F00103DBB213700A4A0A4B1B78DBB243F00103DBB21370074A074B1B78DBB243F00103DBB2137000BFBD4680BC7047A3430040B34300404A
:40354000004F004080B483B000AF0346FB71044BFA7992B21A8000BF0C37BD4680BC7047044F004080B483B000AF0346FB71044BFA7992B21A8000BF0C37BD4680BC704763
:40358000064F004080B483B000AF0346FB71044AFB79137000BF0C37BD4680BC704700BF034F004080B582B000AF786000F03CF8786800F009F8072000F018F800F028F803
:4035C00000BF0837BD4680BD80B485B000AF7860054B1B68FB60FB685C337A681A6000BF1437BD4680BC704708ED00E080B483B000AF0346FB71054AFB795B01DBB2137052
:4036000000BF0C37BD4680BC704700BF07E400E080B400AF034B80221A6000BFBD4680BC704700BF00E100E080B400AF034B80221A6000BFBD4680BC704700BF80E100E084
:4036400080B500AF064B1B78002B04D100F00AF8034B01221A7000F063F800BF80BD00BFEC81FF1F80B582B000AF284A274B1B78DBB243F00203DBB21370254B1B78DBB212
:4036800023F07003FB71224AFB7943F01003DBB21370204A1F4B1B78DBB223F03003DBB213701C4A1B4B1B78DBB243F03003DBB21370184A174B1B78DBB223F00F03DBB2A0
:4036C0001370144A134B1B78DBB243F00F03DBB21370FF2000F048F8002000F055F8002000F062F80C4A0C4B1B78DBB243F00203DBB21370094A094B1B78DBB243F00103ED
:40370000DBB2137000BF0837BD4680BD0C4F00400E4F0040174F0040A34300400D4F004080B400AF0D4A0D4B1B78DBB243F00203DBB213700A4A0A4B1B78DBB243F00203A0
:40374000DBB21370074A074B1B78DBB243F00103DBB2137000BFBD4680BC7047A3430040B34300400C4F004080B483B000AF0346FB71044BFA7992B21A8000BF0C37BD4613
:4037800080BC7047104F004080B483B000AF0346FB71044BFA7992B21A8000BF0C37BD4680BC7047124F004080B483B000AF0346FB71044AFB79137000BF0C37BD4680BC22
:4037C000704700BF0F4F004080B485B000AF0346FB710B4B1B78DBB223F00203FB730849FB795B00DBB203F00203DAB2FB7B1343DBB20B7000BF1437BD4680BC704700BF28
:403800002051004080B400AF00BFBD4680BC704780B582B000AF0F2000F03EF800F02EF800F0F6FA0346FB71074A074B1B78DBB243F01003DBB21370FB79184600F0ECFA68
:4038400000BF0837BD4680BD9D64004080B500AF00F0DCF84FF4004000F006F9064B1B78002B04D1FFF7CEFF034B01221A70FFF7CFFF00BF80BD00BFED81FF1F80B400AF1F
:40388000044B1B78DBB203F00F03DBB21846BD4680BC70476D64004080B483B000AF0346FB71044AFB79137000BF0C37BD4680BC704700BF8D64004080B400AF00BFBD4605
:4038C00080BC704780B582B000AF0F2000F03EF800F02EF800F09CFA0346FB71074A074B1B78DBB243F01003DBB21370FB79184600F092FA00BF0837BD4680BD9C64004034
:4039000080B500AF00F04AF94FF4004000F074F9064B1B78002B04D1FFF7CEFF034B01221A70FFF7CFFF00BF80BD00BFEE81FF1F80B400AF044B1B78DBB203F00F03DBB2FE
:403940001846BD4680BC70476C64004080B483B000AF0346FB71044AFB79137000BF0C37BD4680BC704700BF8C64004080B582B000AF1C4B1B78DBB223F00703FB71194A63
:40398000FB791370174B1B78DBB223F00303FB71144AFB79137000F0A3F84FF4004000F07FF84FF4004000F05FF8002000F040F800F04EF84FF4004000F082F800F028FAF8
:4039C0000346BB71084A084B1B78DBB243F01003DBB21370BB79184600F01EFA00BF0837BD4680BD776400409964004080B400AF054A054B1B78DBB263F07F03DBB2137080
:403A000000BFBD4680BC70477764004080B500AF064B1B78002B04D1FFF7A8FF034B01221A70FFF7E3FF00BF80BD00BFEF81FF1F80B483B000AF0346FB71044AFB79137025
:403A400000BF0C37BD4680BC704700BF8964004080B400AF034B1B78DBB21846BD4680BC704700BF6964004080B483B000AF0346FB80044AFB88138000BF0C37BD4680BC72
:403A8000704700BF1068004080B400AF034B1B889BB21846BD4680BC704700BF9068004080B483B000AF0346FB80044AFB88138000BF0C37BD4680BC704700BF506800407F
:403AC00080B483B000AF0346FB80044AFB88138000BF0C37BD4680BC704700BF7068004080B500AF01E0FFF7CFFFFFF7B1FF034603F04003002BF6D100BF80BD80B582B0B6
:403B000000AF1C4B1B78DBB223F00703FB71194AFB791370174B1B78DBB223F00303FB71144AFB79137000F0A3F84FF4004000F07FF84FF4004000F05FF8002000F040F889
:403B400000F04EF84FF4004000F082F800F060F90346BB71084A084B1B78DBB243F01003DBB21370BB79184600F056F900BF0837BD4680BD7E6400409F64004080B400AFF2
:403B8000054A054B1B78DBB263F07F03DBB2137000BFBD4680BC70477E64004080B500AF064B1B78002B04D1FFF7A8FF034B01221A70FFF7E3FF00BF80BD00BFF081FF1F08
:403BC00080B483B000AF0346FB71044AFB79137000BF0C37BD4680BC704700BF8F64004080B400AF034B1B78DBB21846BD4680BC704700BF6F64004080B483B000AF0346F5
:403C0000FB80044AFB88138000BF0C37BD4680BC704700BF1C68004080B400AF034B1B889BB21846BD4680BC704700BF9C68004080B483B000AF0346FB80044AFB88138074
:403C400000BF0C37BD4680BC704700BF5C68004080B483B000AF0346FB80044AFB88138000BF0C37BD4680BC704700BF7C68004080B500AF01E0FFF7CFFFFFF7B1FF0346F8
:403C800003F04003002BF6D100BF80BD80B500AF224A224B1B78DBB203F00103DBB213701F4A1F4B1B78DBB223F00303DBB213701C4A1C4B1B78DBB223F03003DBB213709D
:403CC000184A184B1B78DBB243F03003DBB21370144A144B1B78DBB223F00F03DBB21370104A104B1B78DBB243F00F03DBB213700D4A0D4B1B78DBB243F00103DBB2137017
:403D000044F61F6000F058F844F61F6000F066F8002000F041F800BF80BD00BF184F00401A4F0040234F0040194F004080B400AF0D4A0D4B1B78DBB243F00403DBB21370D9
:403D40000A4A0A4B1B78DBB243F00403DBB21370074A074B1B78DBB243F00103DBB2137000BFBD4680BC7047A3430040B3430040184F004080B500AF064B1B78002B04D1A6
:403D8000FFF784FF034B01221A70FFF7CFFF00BF80BD00BFF181FF1F80B483B000AF0346FB71044AFB79137000BF0C37BD4680BC704700BF1B4F004080B485B000AF0346AE
:403DC000FB80FB88FB81044AFB89138000BF1437BD4680BC704700BF1C4F004080B483B000AF0346FB80044AFB88138000BF0C37BD4680BC704700BF1E4F004000000000D8
:403E00000230800803D000BF01380046FCD17047EFF3108072B6704780F31088704700BF80B582B000AF0023BB711B4B1B78DBB203F00303012B02D0022B04D012E0164B2B
:403E40001B79FB7111E0144B1B79DBB203F07F02124913465B0013449B000B440A331B78FB7102E00023FB7100BFFB79022B0ED80B4B1A68FB7913441B78022B04D1FDF7EE
:403E800077F90346BB7102E00023BB7100BFBB7918460837BD4680BD006000404482FF1F3882FF1F014B1868704700BF6481FF1F0E4B70B51E460E4C0025E41AA410A54281
:403EC00004D056F8253098470135F8E700F028F9084B094C1E46E41AA4100025A54204D056F8253098470135F8E770BD2C4100002C4100002C4100003441000010B5431E02
:403F00000A44914204D011F8014B03F8014FF8E710BD03460244934202D003F8011BFAE77047000000000000004F00403000405100403000000001400010001401400004F1
:403F400080180140800300400140000A004C0140000210500140100000180140D80E0048800000500140580F00481000303132333435363738394142434445460000000021
:403F80001201000202000008B40432F2010001028001000009024300020101C032090400000102020103052400100104240202052406000105240100010705810308000AC4
:403FC00009040100020A000004070582024000000705030240000000040309042C0343007900700072006500730073002000530065006D00690063006F006E00640075008F
:40400000630074006F007200100355005300420055004100520054003803430044004300200043006F006D006D0075006E00690063006100740069006F006E0020004900AB
:404040006E007400650072006600610063006500260343004400430020004400610074006100200049006E0074006500720066006100630065000000020300000000810331
:40408000080002000100820240000A000100030240000A00020A000001000000943F0000030000007C40000000000000000000000000000000000000000000009440000064
:4040C00001000000803F00000000000000000000010000009840000001000000C040000012034D005300460054003100300030000100000028000000000104000100000017
:404100000000000000014359555342000000303030303100000000000000000043000000F8B500BFF8BC08BC9E4670474D00000079090000F8B500BFF8BC08BC9E467047F7
:404140002900000058410000C880FF1FA0000000800100000000000000000000FFFF000000C2010000000800C201000000080000A1200000000002000000FFFF807F0000A2
:40418000030000000087930360EA00003C0000000000307500000000000000000000000000000000000000000000000000000000000000001C410000000000000000000057
:4041C000000000000000000000000000000000000000000000000000000000000000000000000000000000000000000000000000000000000481FF1F00000000000000001C
:40420000000000000000000000000000000000000000000000000000000000000000000000000000000000000000000000000000000000000000000000000000000000007E
:40424000000000000000000000000000000000000000000000000000000000000000000000000000000000000000000000000000000000000000000000000000000000003E
:4042800000000000000000000000000000000000000000000000000000000000000000000000000000000000000000000000000000000000000000000000000000000000FE
:4042C00000000000000000000000000000000000000000000000000000000000000000000000000000000000000000000000000000000000000000000000000000000000BE
:020000040003F7
:0200000480007A
:4000000001450040084F00400D520040015B004006640040026500402B0001402C0101402E02014046030140300401404A0501402B060140430701406208014050090140FB
:400040004D0A0140450B0140490C0140470D0140600E0140360F01403A1401405215014027160140541701401A1801404C190140511A01404E1B01400B4001401941014000
:400080001542014012430140024401400D4501400B4601400D4701401B48014013490140134C01400E4D014006500140045101407E0201200A360D201636195022362540A7
:4000C0002E36006201A208040904100811081810192060406150781079307C4027848207896F8B388C0F8D0F8F6F870F8B7200020205040406021208140216041C021E1444
:4001000030083210340636013A205608580459045B045C105D905F018204860888048F029002961098019B019E02A008A304A601B104B41FB502B701B820BE10D804D904C1
:40014000DC11DF01000401020682075408020A210C800D1A0E04144016091709180419021A211F202503270528402B302C802E042F013102330434403714380239203A016E
:400180003B063D023E883F2458806002C0FCC2FDC4F0CAD3CC73CEF7D608D80800400280040808010C0212021420161018101A201C04220826042A012C802E4032FF3E04ED
:4001C00056025735580459045B0C5C105D105F01840C863092019430960C983C9C289E14A002A41CAC14AE28B001B202B43CBE04D804D904DC10DF01000404020601071875
:400200000AA50C080D020E0A0F4411081282140415641644170518881A041B181D0829112B202C042E80310233043501370538023A043E023F465D1066106C086D406E02C7
:400240006F5074807502760977087F0286218B0890049402952097049B059E029F58A102A320A480A508A880B404C0F4C2FFC4FDCA37CCC3CED3D620D820DE10E228E6029E
:40028000EA80EE04073C09300B040D010F02112213051501178219301B081D011F02211C252C27102F4031033340353C37803B025608580459045B045C015D905F018701AB
:4002C00089028F049601A502B302B401B501B704B908BF04D207D306D804D904DB04DC11DD10DF010008024403840402068008040C080E480F4212801350150416441C088B
:400300001D101E0822572304240225082680270428022B502C042E442F80325535103680370438843A203D503E083F0245084610588060026D106E206F12780479048020C7
:4003400087219084914493409402951096A099029A689D109E94A008A330A504A606A703AA80B404C01EC2F4C47BCAFBCC7FCEFED608D808E001E2080001040A06050C2052
:40038000140F18071A0822302A022C042E013020320C340336105401580C59045B0C5C115D105F01830187088B088D049101970899109F02A108A508B103B304B508B71043
:4003C000BF54D280D804D904DB04DC91DF01014003040546081C0B500E241040110412401502160217101D461E44200221012224288029082C042D442E80302831023280AE
:400400003440351037043820398A3F40400843205E4070017F0280018480850287108A0291049340971099129AC09B14A020A210A322A880A904AB40AE04B201B304C0B37B
:40044000C26EC4DCCA73CC7FCE1FD610DE10E404E622EA060002059407600F0F159E1606176019731A021DFD1F02253027C929CF2A012B30300433FF340236013E103F0413
:400480004023410149FF4AFF4BFF4DA04F0150185608580459045A045B045D905F016040628064406540668068406A806C406D206E80810C84018C088D088F0491029B038D
:4004C000A003A20CA30CA403B002B101B201B302B408B508B604B704B80ABE14BF54C023C101C532C6C4C70EC81FC9FFCAFFCBFFCDAFCE07CF01D018D40FD804D904DA0434
:40050000DB04DF05E040E280E440E540E680E840EA80EC40ED20EE800180031005010E2810A0152019821A041B041C021D2121042291272029022A202B042C082F103070CF
:4005400032813628375039423DC841A0422045E0462048A050405108521058105A855F406108621064026640680269806A407A208204870889048A01912093209401962022
:4005800097089B509CE09D409F24A008A144A218A401AB10B048B208B311B402B504C015C260C44CCA61CC75CE59D07ED61FD816DE02E820EA02EC200010010202600304E2
:4005C000040F0504070208100A200B010C0C0E031023121C18101A201D021E801F0C21022314240A260528052A0A2C073080310832403306340F3501363037103A803B08B6
:400600005608580459045B045D905F018157847F8501870289378CA38E5C8F07900E92F095619601970298C59A3A9B089CFE9E01A504A896A960AA68AB04B370B6FFB70FFC
:40064000B908BE40D418D604D804D904DB04DD30DF010002032A050406200711080109800B040C020E2912021318160819211A021B681F802115228023142540271029016A
:400680002C082F10328036083720390A3A103D883E214201434058A05C01618062106540678887409622973098019B489C409D249F14A002A21EA302A440A7C0B004B10103
:4006C000B202B304B402B748C0AFC2FBC447CA61CC68CEF7D68CD8BCE001E81001400511070808FD0A020CCF0D110E300F041094126013401430152016C9191C1A0F20733D
:400700002302249E2660271D290D2B102D012F043140331D350336FF37203E403F41540F580459045B045F01817C84C1861287028B1D8CC08E24900192F299D19A079B080C
:400740009E08A101A304A4B7A640A884A9ADAA10AB10AC77ADD1AF04B0F0B1E0B303B40FB51DB902D40FD804D904DB04DF010008030204800520080109800A040C010E04F7
:400780000F901212131015021708188019101A041B021D8020082101222623082504269D280429202A102B422C022F98322035023714380839023B103C823D085842590436
:4007C0005A205D815F24868890089502960A971099829B209D30A003A404A603A702B180B308B402C0C5C27BC437CAFDCCE4CED7D6FFE408E602EA80EC40EE04030204C5E0
:40080000063A08FE0A010CA30D020E5C17031A011C0E1EF0207F230428962A68310134FF350237043E103F104023410649FF4AFF4BFF4DA04F0150185280580459045A0435
:400840005B045F016040628064406540668068406A806C406D206E808303900899089B049C039D0EA001A30CA403A60CB004B101B201B308B408B504B602B702B888BE1432
:40088000BF54C023C106C52CC630C74EC83BC9FFCAFFCBFFCDAFCE07CF01D018D40FD804D904DA04DB04DF05E040E280E440E540E680E840EA80EC40ED20EE800008012048
:4008C00003020A0A0E400F021040131014401502162018081C101E481F40204621202640276829022F4032043510374038423E024014430445204704480849104C084D02E2
:400900004F06562A5D105E8A6608670470017E028912C007C293C43ACA81CC32CE89D066D224D6F0D860DE1001010306060307070C0311071507180219011A011B06200160
:4009400022022403250728032C032D052F02330134013504360237024005460449FF4A074BFF4C404D204EF04F0550085608580459045A045B045C115D935F01604061A8A1
:400980006240632087018D01950199019D01A501AF01B501D804D904DC11DF01000C0140032004040510068008100E080F401005110412401340150416401B9021102208C8
:4009C0002301270829482A402D4C2E802F01300531103304341035503604370438043B023C083F404801508253025880628069106A80801282408380848185048880891038
:400A00009104934094209528970199109AC09B049C109F08A320A404A688A712AB11AD10C075C252C43FCA5ACC77CE53D208D608D808E004E208E404E608E801EA04EC2092
:400A4000580459045C115F018101830285039103950399029B01A703AF03B102B301C034C106C50BC60EC70CC815C9FFCAFFCBFFCEF0CF44D00CD401D604D804D904DA04DE
:400A8000DB04DC11DD33DF01E6C0EA40EB020140021003200510069008180B400C010E080F4011041240150416402010220229402A402B202D042E802F01300131103304BF
:400AC000340835503604370439043B023C083F404022414043024B245008514058025A085B60608080108208870488808B088C288D088F2091449208936094209588991098
:400B00009AC09B449C109D08A320A408A682AA20AB40B001B204B602C075C25EC43CCA5ACC77CE53D003D204D60FD801E002E220E401E680EE02810282C3841386048C10D8
:400B40008F03962C9E82A241A813AA08AC41AE82B0E0B101B20FB4E0B610B702BA08BE11BF40D804D904DC03DF01000201040301061007480A200B010E900F0210021110EE
:400B80001240144017101A281B421D601E801F04210122402401260927182C202E222F02340236083760388039023E543F014440450247184E044F8256105C40670184405C
:400BC0008D108E02908091809240940195029680970898029A409CA09D409F04A002A708B340C07DC2B5C45BCAF0CCF0CEF9D0E0D230D610D810E240E411E880EA40EC203B
:400C0000EE02010803020413050F066C090F0A350CCA0D050E340F0A12801413152016E4174019D01AC81D031F0C2180231029D02C032D042E042F0130F032A833C0340F6B
:400C40003530370F39283A2A3F04580459045C335F018004843088108C088D14907C911C92819302947C9682970398FF99099B109E0CA020A110A510A683A70CA8CFA90C35
:400C8000AA30AB11AC04AE08B0B0B23FB51FB640BA2ABE40D602D713D804D904DB04DC33DD30DF01020803220641072809200A200B800E6A120215801620171219111A207E
:400CC0001B2A1E7D2002212022A4270429012A402B082F683110328835013620370439943A013B013C805A405B405E016D146F0174207602772A82088604870289028A04B8
:400D00008B4091809301951496149A609B109D109E029F65A040A203A421A502A708A840A920B0A0B620B740C0F7C2FEC4F1CAEDCCEECE1FD680E080E484E801EC20EE04FD
:400D40001104168030203308350836403B823E80C430CCF0CE70301032023608378051085F206220666087088B02910497809F40A420A640A708AB41B108CCF0D420D6A0CD
:400D8000D8C0E640EC80EE201208178081028740910497809B029C109E609FE0A420A508A668A704AB04B420B602C4C0E080E210EC201B041D0284208B20910494109B02E4
:400DC0009C109E609F60A420A50AA660A704A810C630E240EC807980DC0101200A205602864295809608A704AB04B204C002C208D604EA011B042720814092209580960809
:400E00009920A640A704C608C8010A080B400E8041024401922096089920A304A640AF20C20ED00600100740208065016A406E407120822088108A40910494109B029C1087
:400E40009E609F40A304A508A620AE40C060C840D880DAC0DC20E220EE4052205F0263088220850491049B02A304A921AA60AD08B040D420D680D840E440E680EA60EE80E8
:400E800008100C405602700877408340922099089C01AF40B12AB704C203D604DC01DE04E801EA06EC04750878408202884099089E02A808AA10B051DC01DE04E001EA052C
:400EC000EC04100B11011A0A1B011C091D0100AB01FF0203100A000000000110006702000046042100080010000002080061010600060000000704600104000000020000A1
:400F00000100006100210000011802070046042022000008000054002504030006C0E0000AFFFFFF62A0F0410C0000000000080004040404339300010000000000004002EB
:400F40000010301000101012000000000000000000000000000000000B0100000000000003010301090101000000000000E3E3000070700070000000400006000000003044
:400F8000F0000000C00B0B00000404000800140A0A00080000000000007B7B00380000000001000000000000000000000000000000000000000000000000000000000000FC
:400FC00000000000000000000000000000000000000000000000000000000000000000000000000000000000000000000000000000000000000000000000000000000000F1
:4010000000000000000000000000000000000000000000000000000000000000000000000000000000000000000000000000000000000000000000000000000000000000B0
:401040000000000000000000000000000000000000000000000000000000000000000000000000000000000000000000000000000000000000000000000000000000000070
:401080000000000000000000000000000000000000000000000000000000000000000000000000000000000000000000000000000000000000000000000000000000000030
:0200000490006A
:0400000000004005B7
:0200000490105A
:04000000BC90ACAF55
:0200000490303A
:02000000516E3F
:0200000490402A
:4000000000000000000000000000000000000000000000000000000000000000000000000000000000000000000000000000000000000000000000000000000000000000C0
:400040000000000000000000000000000000000000000000000000000000000000000000000000000000000000000000000000000000000000000000000000000000000080
:400080000000000000000000000000000000000000000000000000000000000000000000000000000000000000000000000000000000000000000000000000000000000040
:4000C0000000000000000000000000000000000000000000000000000000000000000000000000000000000000000000000000000000000000000000000000000000000000
:0200000490501A
:0C00000000012E16106900012E3361D79C
:00000001FF