:400000000080002011000000E9060000E906000080B500AF024A034B1B68136000F06EFBBC760040FA46004010B5054C237833B9044B13B10448AFF300800123237010BDD0
:40004000B081FF1F00000000FC370000084B10B51BB108490848AFF300800848036803B910BD074B002BFBD0BDE81040184700BF00000000B481FF1FFC370000C880FF1FCC
:400080000000000080B582B000AF0023FB7197F907309BB2184600F0A5FC0346BB80BB8840F6FC12934203D9012003F0D5FA02E0002003F0D1FA00BF0837BD4680BD00BF3C
:4000C00080B500AF62B600F021FD104803F076FA00F06AFC00F080FC002003F0BDFA0121002000F057FD002003F0D4FA084800F015F800F033F8074B1B78012BF9D10648B7
:4001000000F00CF8034B00221A70F2E785000000D080FF1FDC81FF1F6482FF1F80B582B000AF786000BF01F07DF90346002BFAD07B683F3300221A707B683E3321221A7012
:40014000786803F052FB03469BB21946786801F005F900BF0837BD4680BD00BF80B582B000AF2B4B1B78002B0AD100F0B7FE0346002B49D001F09EF8254B01221A7043E080
:4001800001F03EF90346002B3ED001F05DF90346FB71FB790D2B02D0FB790A2B10D11D4B1B881A461C4B002199541B491B4803F014FB184B00221A80194B01221A7023E0B5
:4001C000FB79082B02D0FB797F2B0AD1114B1B88002B06D00F4B1B88013B9AB20D4B1A8012E00C4B1B883E2B03D9212001F0ECF80AE0084B1B885A1C91B2064A11801946F6
:40020000054AFB795354FFE700BF0837BD4680BDDE81FF1FE081FF1F0482FF1F6482FF1FDC81FF1F80B582B000AF786039603A680021786803F0C9FA00BF0837BD4680BDF3
:4002400080B584B000AFF860B9607A607A68B968F86803F0AFFA00BF1037BD4680BD00BF80B483B000AF0346FB71FEE780B487B000AF7860396000233B6100237B6127E017
:400280007B699B007A6813441B68BB60BB68FB73BB6823F0FF03BB6014E03B695B003A6813441B781A46BB68134419463B695B003A6813445B780B703B6901333B61FB7B1C
:4002C000013BFB73FB7B002BE7D17B6901337B617B692B2BD4D900BF1C37BD4680BC704780B582B000AF3C4B04221A803B4B18221A703B4B3A221A803A4B18221A703A4B27
:400300003B221A80394B18221A70394B81221A80384B18221A70384B00221A80374B1B221A70374B06221A70364B52221A70364B364A1278D2B21A70354B40F619121A8027
:40034000344B41F251221A800023FB7019237B6014E0FB785B00DAB22F4B1B78DBB203F00103DBB21343DBB203F00303FB704FF4F07003F0A1F97B68013B7B607B68002B2E
:4003800002D0FB78032BE4D17B68002B02D10320FFF766FF214B4FF480721A801F4B07221A701F4B00221A701E4B48221A701B4B00221A701C4B00221A701C4B02221A70B1
:4003C0001B4A1B4B1B78DBB243F01F03DBB2137000BF0837BD4680BD80400040824000408440004086400040884000408A4000408C4000408E400040904000409240004015
:400400000043004000420040A14600400F0100492242004020420040254200400440004006400040084000400940004001400040A243004080B582B000AF244B1B78FB7105
:40044000234B1B78BB71234B1B787B71224AFB7903F00703DBB21370204AFB791B09DBB213701B4ABB7943F00303DBB21370194A7B7943F00303DBB21370194BE0221A70F1
:40048000184BF4221A70184B40221A70174B40221A70174BE0221A70164B4F221A70164B20221A70154B40221A700A2002F0C4FF084A7B791370064ABB791370104B442269
:4004C0001A7000BF0837BD4680BD00BFCF010049F8460040F94600406E5800406F5800400D5100401D510040095900400B590040005B0040285B00402B5B0040585B0040A9
:400500007658004080B586B000AF72B6584B61221A70FFF7E5FE564B01221A70554A554B1B78DBB243F00403DBB213700023FB7513E0FA7D13465B0013445B004E4A134499
:400540003B613B691A683B699B889BB219461046FFF768FEFB7D0133FB75FB7D062BE8D90023FB751CE0FA7D13469B0013445B00424A1344FB60FB681B68BB60FB685B68FD
:400580007B60FB681A7A5B7A1B0213437B807B881A467968B868FFF753FEFB7D0133FB75FB7D002BDFD036494FF09040FFF75EFE04213448FFF736FE042233493348FFF74F
:4005C0003FFE334B334A1A60334B344A1A60344A334B1B78DBB243F00203DBB21370314A304B1B78DBB243F00203DBB213702E4A2D4B1B78DBB243F04003DBB213702B4A06
:400600002A4B1B78DBB243F01003DBB21370082227492848FFF714FE082227492748FFF70FFE0A2226492748FFF70AFE082226492648FFF705FE0A2225492648FFF700FEAD
:40064000082225492548FFF7FBFD254A244B1B78DBB243F00803DBB21370FFF7EBFE0E2211492048FFF7ECFD00BF1837BD4680BD00480040E8460040003800002C380000AB
:40068000B000004800760040E00F0048087600405804014004040084D8140140040404840350014013500140A0430040C2430040A80F004802510040B00F0048C251004025
:4006C000B80F0048F0510040C40F004812510040CC0F004820510040D80F00483251004022430040B043004080B500AF03F036F803461B680C2B00D1FEE7FEE780B586B000
:4007000000AF224B7B61224B3B61204B7B6135E03B691B68FB603B695B68BB603B699B683B6000237B600CE0FB681A68BB681A60BB680433BB60FB680433FB607B68043326
:400740007B607A683B689A42EED13B69DB683B6000237B6008E0BB6800221A60BB680433BB607B6804337B607A683B689A42F2D13B6910333B617B69013B7B617B69002B3B
:40078000C6D102F0F1FFFFF79BFCFEE701000000103A000080B582B000AF194B194A1A60194A194B1B6843F40073136000237B600FE07B68032B04D8144A7B6852F823308D
:4007C00000E0134B13497A6841F822307B6801337B607B682F2BECD90F4B1B78DAB20F4B1A700F4B0B4A1A60FFF78CFE02F0FCFB0C4B00221A6000BF0837BD4680BD00BF1F
:400800000CED00E00004FA0514ED00E000000000E90600000080FF1FBC760040C480FF1F08ED00E0C080FF1F80B500AF41F6FF734FF480420121022002F03EFB03461A46BD
:400840000A4B1A7041F6FF7341F6FF720121102002F064FB03461A46054B1A70054802F08FFB002002F09EFB00BF80BDE881FF1FE981FF1F1D0A000080B582B000AF414BDA
:400880001B78184602F024FC3F4B1B78184602F01FFC3E4B1B78FF2B05D102F025FD03461A463A4B1A70394B1878384B1A780623102102F047FD354B1B78354A92B245F6FB
:4008C000A231184602F07EFD2E4B1A782F4B1B781946104602F09AFC2E4B1B78FF2B05D102F002FD03461A462A4B1A70294B1878284B1A780723102102F024FD254B1B78E6
:40090000234A91B2244A92B2184602F05BFD1E4B1A78204B1B781946104602F077FC194B1B780121184602F08DFB174B1B780121184602F087FB02F0C7FE0346FB71174AF3
:40094000164B1B78DBB243F02003DBB21370FB79184602F0BDFE124A114B1B78DBB243F00103DBB213700E4A0D4B1B78DBB243F00203DBB213700B4B01221A6000BF0837E9
:40098000BD4680BDE881FF1FE981FF1F1081FF1FEC81FF1F1181FF1FE482FF1F9B6500407864004080E200E080B500AF084B1B68002B04D1FFF738FF054B01221A6002F016
:4009C00077F9FFF759FF034B1B7800BF80BD00BFE481FF1F6865004080B500AF02F01CFA00BF80BD80B483B000AF0346FB80FB88C3F10703074A32F913309AB2064B1B880B
:400A00001BB29BB2D31A9BB21BB218460C37BD4680BC7047E482FF1FAA83FF1F80B400AF00BFBD4680BC704780B500AF214A214B1B78DBB203F00103DBB213701E4A1E4BE4
:400A40001B78DBB223F00303DBB213701B4A1B4B1B78DBB223F03003DBB21370174A174B1B78DBB243F03003DBB21370134A134B1B78DBB223F00F03DBB213700F4A0F4BD0
:400A80001B78DBB243F00F03DBB213700C4A0C4B1B78DBB243F00103DBB21370632000F057F8632000F066F8002000F041F800BF80BD00BF184F00401A4F0040234F004014
:400AC000194F004080B400AF0D4A0D4B1B78DBB243F00403DBB213700A4A0A4B1B78DBB243F00403DBB21370074A074B1B78DBB243F00103DBB2137000BFBD4680BC704780
:400B0000A3430040B3430040184F004080B500AF064B1B78002B04D1FFF786FF034B01221A70FFF7CFFF00BF80BD00BFFC81FF1F80B483B000AF0346FB71044AFB7913704A
:400B400000BF0C37BD4680BC704700BF1B4F004080B485B000AF0346FB71FB79FB81044AFB89138000BF1437BD4680BC704700BF1C4F004080B483B000AF0346FB71044B6E
:400B8000FA7992B21A8000BF0C37BD4680BC70471E4F004080B582B000AF03460A46FB711346BB71094B1B78002B04D100F010F8064B01221A70BA79FB791146184600F076
:400BC000D9F800BF0837BD4680BD00BFFD81FF1F80B582B000AF02F077FD0346FB71544A534B1B78DBB243F00103DBB21370514A504B1B78DBB243F00103DBB213704E4B81
:400C000001221A704D4B02221A704D4A4C4B1B78DBB203F07F03DBB21370002002F00CFC484A484B1B78DBB223F00603DBB21370454A454B1B78DBB223F02003DBB21370DE
:400C4000404A404B1B78DBB243F00103DBB21370012002F0F1FB282002F0EEFB3B4A3B4B1B78DBB203F07F03DBB21370374A374B1B78DBB223F04003DBB21370314A314BA6
:400C80001B78DBB243F00203DBB21370022002F0D3FB2C4A2B4B1B78DBB243F00403DBB213702B4B00221A702A4B00221A70FB79184602F00DFD0721172002F0F9FB2649CF
:400CC000172002F0CDFB0721182002F0F1FB2349182002F0C5FB0721152002F0E9FB2049152002F0BDFB0721012002F0E1FB1D49012002F0B5FB0721022002F0D9FB1A4941
:400D0000022002F0ADFB0721032002F0D1FB1749032002F0A5FB07210C2002F0C9FB14490C2002F09DFB00BF0837BD4680BD00BFA5430040B54300409D6000400960004079
:400D4000106000409443004012600040F85100408460004085600040211C000009150000151C00002D1B0000751B0000C11B00002D1C000080B582B000AF03460A46FB7184
:400D80001346BB712E4AFB7913702E4B00221A702D4B00221A702D4B00221A702C4B00221A702C4B00221A702B4B00221A702B4B00221A702A4B4FF400021A60284B4FF062
:400DC00080721A60264B4FF400121A60244B02221A60234B04221A60214B08221A60BB79002B02D0012B09D011E01E4A1D4B1B78DBB223F00103DBB2137011E0194A194B26
:400E00001B78DBB243F00103DBB2137008E0154A144B1B78DBB243F00103DBB2137000BF114B03221A70114B80221A70012002F043FC0F4B04221A7000BF0837BD4680BD52
:400E40000D83FF1F1083FF1F2C83FF1F2F83FF1F2483FF1F2E83FF1F3183FF1F0C83FF1F00E100E00960004028600040086000401260004080B400AF0F4B00221A700F4B94
:400E800000221A700E4B00221A700E4B00221A700D4B00221A700D4B00221A700C4B00221A700C4B03221A700B4B80221A7000BFBD4680BC704700BF1083FF1F2C83FF1FF7
:400EC0002F83FF1F2483FF1F2E83FF1F3183FF1F0C83FF1F286000400860004080B400AF034B1B78DBB21846BD4680BC704700BF2F83FF1F80B483B000AF0346FB71FA792D
:400F0000064913465B0013449B000B4401331B78DBB218460C37BD4680BC70473483FF1F80B485B000AF0346FB710023FB81FB79002B1CD0FB79082B19D8104AFB791B0134
:400F400013441B78DBB29BB203F00F03FB81FB891B029AB20949FB791B010B4401331B78DBB29BB21343FB81FB89023BFB81FB8918461437BD4680BC704700BFFC5F0040E1
:400F8000B0B485B000AF03463960FB711346BB80FB79002B6DD0FB79082B6AD8B988FA79364813465B0013449B00034406331B889BB2C3F5007399420CD9FA792F491346CB
:400FC0005B0013449B000B4406331B889BB2C3F50073BB802A4CF979BB881B0A9BB2D8B2FA79264D13465B0013449B002B4403331B78DBB20343DAB20B0123441A70204A15
:40100000FB79B988C9B21B01134401330A461A703B68002B13D00023FB810CE01948FB79FA8939680A4412781B01034408331A70FB890133FB81FA89BB889A42EED3FA79C0
:401040000E4913465B0013449B000B44013300221A700B48F979FA79084C13465B0013449B00234405331B78DAB20B01034402331A7000BF1437BD46B0BC70473483FF1F3D
:40108000FC5F00407060004080B584B000AF03463960FB711346BB803B68002B30D0FB79002B2DD0FB79082B2AD8FB791846FFF737FF03461A46BB88934205D9FB79184609
:4010C000FFF72EFF034600E0BB88BB800023FB810DE0FB893A6813440D49FA7912010A4408321278D2B21A70FB890133FB81FA89BB889A42EDD3FB79184600F00BF801E0E5
:401100000023BB80BB8818461037BD4680BD00BF7060004090B482B000AF0346FB71FB79002B1CD0FB79082B19D8FA790E4913465B0013449B000B44013300221A700B486B
:40114000F979FA79084C13465B0013449B00234405331B78DAB20B01034402331A7000BF0837BD4690BC70473483FF1FFC5F004080B582B000AF0023FB71314B1B79DBB20A
:40118000184600F067F80346BB712D4B1B78DBB25BB2002B15DA2A4B5B78DBB2212B00D048E0284B07221A80BA791346DB009B1A254A1344234A536000F020FB0346FB713D
:4011C00038E01F4B5B78DBB2202B02D0222B1AD030E01C4B07221A80BA791346DB009B1A194A1344174A5360BB79BA7917498A5CD2B242F00102D1B2144AD15400F07CFBC2
:401200000346FB7116E0BB790D4A9278D2B291B20F4A22F81310BB79BA790C498A5CD2B242F00202D1B2094AD15400F003FC0346FB7100BFFB7918460837BD4680BD00BF47
:40124000006000401883FF1F1481FF1FF482FF1F0883FF1F80B485B000AF0346FB710023FB73FF23BB7317E0FB7B104AD35C7B737A7B0F4913465B0013449B000B440A3314
:401280001B78DBB2FA799A4203D1FB7BBB730223FB73FB7B0133FB73FB7B012BE4D9BB7B18461437BD4680BC704700BFFC82FF1F3483FF1F80B582B000AF0023BB71224B66
:4012C00000221A70214B00221A70204B00225A700023FB7110E0FB791D4AD35C7B717B79002B06D07B79082B03D87B791846FFF711FFFB790133FB71FB79012BEBD9154B37
:401300001B78DBB2002B18D0114B1B78DBB2002B13D0114B1B78DBB2002B0ED00D4B1B78DBB2082B09D80A4B1B78DBB2082B04D8094B1B78DBB2082B01D90123BB71BB7956
:4013400018460837BD4680BDFE81FF1FF482FF1F0083FF1FF882FF1FFC82FF1F80B584B000AF78600B467B80144B1B781A46144B9B5CFB73FA7B134913465B0013449B00C1
:401380000B4408331B889BB27A889A420CD9FA7B0C4913465B0013449B000B4408331B887B80002002F03CF87A88FB7B79681846FFF7E6FD00BF1037BD4680BDFE81FF1F9F
:4013C000F882FF1F3483FF1F80B584B000AF0346FB71FB79FB73084B1B781A46074B9B5CDBB207F10F0101221846FFF7C9FD00BF1037BD4680BD00BFFE81FF1FF882FF1F36
:4014000080B500AF054B1B781A46054B9B5CDBB21846FFF76FFD0346184680BDFE81FF1F0083FF1F80B500AF054B1B781A46054B9B5CDBB21846FFF75DFD0346184680BD42
:40144000FE81FF1FF882FF1F80B582B000AF084B1B781A46074B9B5CFB71B91DFB7901221846FFF711FEBB7918460837BD4680BDFE81FF1F0083FF1F80B485B000AF786017
:401480000B46FB701346BB707B68DB7803F00303FB737B689B785BB2002B1ADAFB7B032B0AD0BB7803F001031449FA78CA54BB7843F00103BB701BE0BB789B08DBB203F0B2
:4014C00001030F49FA78CA54BB7843F00403BB700EE0FB7B032B0BD0BB785B08DBB203F001030849FA78CA54BB7843F00203BB70BB7818461437BD4680BC7047F882FF1F00
:40150000FC82FF1F0083FF1F80B582B000AF374B1B78BB71BB7903F01003002B62D00123FB7197F90630002B12DABB7903F00F03012B02D00023FB711CE000F061F82C4B91
:401540001B78DBB25BB2002B14DA0023FB7111E0BB7903F04003002B02D000F095F809E0BB7903F02003002B02D000F0B3F801E00023FB71FB79002B34D01C4B1B78BB71BD
:4015800097F90630002B2DDB1A4B1B78DAB21A4B1B78DBB21343BB71184ABB791370174B1B78DBB2BA799A421CD1114B1B78FB710E4B1B78DBB223F07F03BB71BB79002B1C
:4015C0000AD10A4B0A4A1278D2B21A70074B1B78DBB203F00F03FB71054B1B78DBB2FA799A42E2D100BF0837BD4680BD286000402D83FF1FA283FF1F3083FF1F29600040C9
:4016000080B582B000AF1D4B1B78FB711B4AFB7913701A4B1B78FB7197F90730002B03DA174AFB79137025E0022000F045FA154B1B78DBB203F06003202B08D0402B0BD0B1
:40164000002B0ED100F0F8FA0346FB710CE002F043F80346FB7107E001F000FB0346FB7102E00023FB7100BFFB79002B02D1044B03221A7000BF0837BD4680BD28600040CD
:401680002D83FF1F0060004080B500AF104B1B78DBB2062B19D801A252F823F0CB160000CB160000B9160000CB160000BF160000CB160000C516000000F0F8F806E000F082
:4016C000A7F903E000F0D2F900E000BF00BF80BD1083FF1F80B500AF124B1B78DBB2062B1DD801A252F823F01F1700001F170000051700001F1700000B1700001F170000C3
:401700001117000000F0D8F80AE000F027F907E0032000F0D1F9044B03221A7000E000BF00BF80BD1083FF1F2D83FF1F80B483B000AF0023FB71294B1B78DBB29AB2284BF3
:401740001B889BB213449AB2254B1A8015E02549FB79254A52681278D2B2CA54224B5B680133214A5360FB790133FB711E4B1B889BB2013B9AB21C4B1A801B4B1B889BB2D2
:40178000002B02D0FB79072BE1D9144B1B78DBB2082B02D0FB79002B0FD0144B1B78DBB283F07F03DB43DAB2104B1A70104B0F221A70104B02221A7005E00D4B02221A70BD
:4017C0000C4B02221A700C4AFB791370034AFB79137000BF0C37BD4680BC70470C83FF1F0E83FF1F006000401883FF1FA283FF1F2D83FF1F1083FF1F3083FF1F80B582B0AC
:4018000000AF164B1B889BB2002B02D100F02EF81EE0134B02221A70124B00221A7000F06BF9114BDB79DBB29BB21B029AB20E4B9B79DBB29BB21343FB80084B1B889BB2DF
:40184000FA889A4202D2054AFB881380FFF76EFF012318460837BD4680BD00BF1883FF1F1083FF1FA283FF1F0060004080B400AF094B02221A70094B80221A70084B0F2278
:401880001A70084B00221A70074B00221A7001231846BD4680BC70471083FF1FA283FF1F2D83FF1F0C83FF1F3083FF1F80B500AFFFF73CFF00BF80BD80B500AF0A4B1B780C
:4018C000DBB29AB2094B1B889BB213449AB2074B1A80074B00221A70012000F0EDF8054B03221A7000BF80BD0C83FF1F0E83FF1F1083FF1F2D83FF1F80B582B000AF124BFF
:4019000004221A70114B80221A7000F0F5F8104BDB79DBB29BB21B029AB20D4B9B79DBB29BB21343FB800B4B1B889BB2FA889A4202D2084AFB881380074B0B221A7001237C
:4019400018460837BD4680BD1083FF1FA283FF1F006000401883FF1F2D83FF1F80B483B000AF0023BB71234B1B78DBB203F00F03DBB2023BFB71FB799AB21F4B1B889BB227
:4019800013449AB21C4B1A8018E01C4B5B681C49BA798A5CD2B21A70184B5B680133174A5360BB790133BB71FB79013BFB71134B1B889BB2013B9AB2104B1A800F4B1B88EF
:4019C0009BB2002B02D0FB79002BDED10D4AFB7913700D4B1B78DBB283F07F03DB43DAB2094B1A70094B0B221A7000BF0C37BD4680BC7047296000400E83FF1F1883FF1FD8
:401A0000006000403083FF1FA283FF1F2D83FF1F80B500AF054B00221A70012000F04CF8034B03221A7000BF80BD00BF1083FF1F2D83FF1F80B400AF084B06221A70084B7D
:401A400006221A70074B80221A70074B00221A7001231846BD4680BC704700BF1083FF1F2D83FF1FA283FF1F3083FF1F80B500AF0D4B1B78DBB2002B0AD00C4A0A4B1B78CF
:401A8000DBB263F07F03DBB21370074B00221A70074B00221A70012000F00EF8054B03221A7000BF80BD00BF2E83FF1F086000401083FF1F2D83FF1F80B483B000AF034692
:401AC000FB710B4B9B68002B0CD0094B9B68FA791A70074B9B68074A128892B25A80044B00229A6000BF0C37BD4680BC704700BF1883FF1F0E83FF1F80B400AF094B002285
:401B00001A80094B9B68002B07D0074B9B6800221A70054B9B6800225A8000BFBD4680BC704700BF0E83FF1F1883FF1F80B400AF0D4B01221A700D4B9B7C0D4B1B7BDBB2B4
:401B400003F00303012B08D0094BDB7BDBB283F07F03DB43DAB2064BDA73054B01225A7300BFBD4680BC70470B600040FC5F00403483FF1F80B400AF0E4B02221A700E4BA1
:401B800093F822300D4B1B7EDBB203F00303012B08D00A4BDB7EDBB283F07F03DB43DAB2064BDA76054B01225A7600BFBD4680BC704700BF0B600040FC5F00403483FF1F80
:401BC00080B400AF104B04221A70104B93F832300F4B93F82430DBB203F00303012B0AD00B4B93F82730DBB283F07F03DB43DAB2074B83F82720064B012283F8252000BF7F
:401C0000BD4680BC704700BF0B600040FC5F00403483FF1F80B400AF00BFBD4680BC704780B500AFFFF726F900BF80BD80B500AF01F0CAF900BF80BD80B586B000AF002376
:401C4000FB759D4B1B78FB7100233B619B4B00221A8097F90730002B80F20481964B5B78DBB20A2B00F21B8201A252F823F000BFBB1D00009F2000009F2000009F200000EA
:401C80009F2000009F2000009D1C00009F2000002F1E00009F200000451E0000864BDB78DBB2012B0ED100F049FEB860BB685B68824A5360814B12221A80FFF79FFD0346DA
:401CC000FB75EEE17C4BDB78DBB2022B25D17A4B9B78DBB2184600F009FEB860BB68002B00F0DF81BB685B68744A5360734B5B6803331B78DBB29BB21B029AB26F4B5B680A
:401D000002331B78DBB29BB213439AB26B4B1A80FFF774FD0346FB75C3E1674BDB78DBB2032B45D10023FB73654B3B6109E03B691B78BB71BB793A6913443B61FB7B0133D8
:401D4000FB735D4B9B78DBB2FA7B9A4204D23B691B78DBB2002BEAD1574B9B78DBB2EE2B01D1584B3B61544B9B78DBB2002B0BD0514B9B78DAB2544B1B7C9A4204D153486E
:401D800000F0ACF9514B3B613B691B78DBB2002B00F087813B691B78DBB29AB2474B1A80464A3B695360FFF729FD0346FB7578E101F092FC0346FB7573E1FB7903F0030325
:401DC000002B20D0022B00D030E03C4B02221A80394B1B79DBB203F07F023D4913465B0013449B000B4402331B78DAB2394B1A70384B00225A70314B364A5A60FFF7FEFC6B
:401E00000346FB7512E02D4B02221A80324B1B78DAB2304B1A702F4B00225A70274B2D4A5A60FFF7EBFC0346FB7500BF40E1234B01221A80214B294A5A60FFF7DFFC0346C3
:401E4000FB7535E11D4B01221A801B4B1B79DBB21A46234B1344194A5360FFF7CFFC0346FB7525E1144B5B78DBB2013B0A2B00F21A8101A252F823F0831F0000A72000004F
:401E800011200000A7200000A51E0000A7200000A7200000A7200000E91E0000A72000003F1F0000044B9B78DAB20E4B1A70FFF7C1FD0346FB75FBE0006000401883FF1F74
:401EC000A4380000AC3900004C380000B483FF1F3483FF1F0082FF1F3183FF1F2F83FF1FA083FF1F2E83FF1F744B9B787B717B79002B06D07B79013BDBB2184600F0F6FC71
:401F0000B8607B79002B02D0BB68002B03D17B79002B40F0CA806A4B1B78DBB27A799A4208D0674A7B791370664B01221A70012000F0DCF9FFF77EFD0346FB75B5E000F046
:401F400055FE0346002B00F0B2805C4B1B793B715A4B1B79DAB25C4B1A703B795B4AD35CDAB23B795A49CB5CDBB29A4204D0554B01221A7000F08CFBFFF75CFD0346FB7500
:401F800095E0FB7903F00303012B20D0012B0CD3022B00D03BE0494B9B78DBB2002B31D100F078FD0346FB752CE0444B9B78DBB2012B29D1474B1B78DBB223F00203DAB2CA
:401FC000444B1A70FFF736FD0346FB751CE03B4B1B79DBB2012B19D8384B9B78DBB2DB43DBB2364A1279D2B2114610463A4A125CD2B21340DAB2384B5A54FFF71BFD03463F
:40200000FB7503E000BF53E000BF51E000BF4FE0FB7903F00303012B20D0012B0CD3022B00D03BE0254B9B78DBB2002B31D100F0BDFC0346FB752CE0204B9B78DBB2012BEF
:4020400029D1244B1B78DBB243F00203DAB2214B1A70FFF7EFFC0346FB751CE0174B1B79DBB2012B19D8154B9B78DBB2DB43DBB2124A1279D2B211461046174A125CD2B2D1
:402080001340DAB2144B5A54FFF7D4FC0346FB7503E000BF0CE000BF0AE000BF08E000BF06E000BF04E000BF02E000BF00E000BFFB7D18461837BD4680BD00BF00600040CC
:4020C0002F83FF1F2C83FF1F2483FF1F1483FF1FA083FF1F3183FF1FA483FF1FB0B58AB000AF7860324B07F114041D460FCD0FC42B682370002387F826307B68002B52D05E
:402100007B6822221A707B68013303221A7007F10C03184601F0F0F9022387F827303EE097F827307A68134497F8262007F128010A4412F81C2C1209D2B207F128010A440D
:4021400012F8142C1A7097F8273001337A68134400221A7097F8273002337A68134497F8262007F128010A4412F81C2C02F00F0207F128010A4412F8142C1A7097F8273076
:4021800003337A68134400221A7097F82630013387F8263097F82730043387F8273097F82730212BBCD900BF2837BD46B0BD00BF3838000090B482B000AF0123FB7180E08A
:4021C000464AFB791B0113440C221A70FA79444913465B0013449B000B4405331B78DBB2002B1CD0FA793E4913465B0013449B000B4404331B78DBB25BB2002B07DA394A6A
:40220000FB791B01134402330C221A700EE0354AFB791B011344023308221A7006E0314AFB791B011344023380221A702B48F979FA792B4C13465B0013449B0023440633CF
:402240001B889BB2DAB20B01034406331A702348F979FA79224C13465B0013449B00234406331B889BB21B0A9BB2DAB20B01034407331A701948F979FA79194C13465B0064
:4022800013449B00234406331B889BB2DAB20B01034404331A701148F979FA79104C13465B0013449B00234406331B889BB21B0A9BB2DAB20B01034405331A70FB79013371
:4022C000FB71FB79082B7FF67BAF074BFF221A7000BF0837BD4690BC704700BF706000403483FF1FFC5F00400A60004080B58AB000AF0346FB7100237B84002387F8273054
:4023000050E097F82720B34913465B0013449B000B4400221A7097F82720AE4913465B0013449B000B44023300221A7097F82720A84913465B0013449B000B440333002243
:402340001A7097F82720A34913465B0013449B000B44083300221A8097F827209D4913465B0013449B000B440A3300221A7097F82720984913465B0013449B000B440133AB
:4023800000221A7097F82720924913465B0013449B000B44053300221A7097F82730013387F8273097F82730082BAAD9FB79002B16D0002387F825300EE097F82530864A3D
:4023C0000021D15497F82530844A0021D15497F82530013387F8253097F82530012BECD97F4B1B78DBB2002B00F04A810023FB767B4B1B78DBB2013BDBB2184600F076FA0D
:4024000078617B695B683B613B6907331B7803F04003002B08D0734B1B78DBB243F00103DAB2704B1A7007E06E4B1B78DBB223F00103DAB26B4B1A707B6908337B617B696E
:402440001B7887F82730012387F82530B6E07B695B68FB61002387F82630A3E097F82520FB699B7803F07F039A4240F0938097F82520584913465B0013449B000B44083363
:402480001B889AB2FB699B889A420CD297F82520FB6998884F4913465B0013449B000B44083302461A80FB691B781A464A4B9B5CDAB2FB695B789A426CD197F82520FB69F3
:4024C0009878444913465B0013449B000B44043302461A7097F82520FB69D8783D4913465B0013449B000B4402461A70FB69DB7803F00303FB73FB699B785BB2002B1CDAA9
:4025000097F82520FB7B012B01D1072000E00D20304913465B0013449B000B44053302461A7097F825202B4913465B0013449B000B44013301221A701BE097F82520FB7B44
:40254000012B01D1052000E00920224913465B0013449B000B44053302461A7097F825201C4913465B0013449B000B44013300221A70FB699B790A2B03D0FB699B79022B92
:4025800008D1FA7E97F825301946F869FEF774FF0346FB76FB690833FB6197F82630013387F8263097F8262097F827309A42FFF455AF97F82530013387F8253097F82530BD
:4025C000082B7FF644AF7B695B68FB61002387F8253020E03483FF1FA083FF1F1483FF1F2F83FF1F3183FF1FFB699B7803F07F02FB691878244913465B0013449B000B4498
:402600000A3302461A70FB690833FB6197F82530013387F8253097F8252097F827309A42E2D300F09DF90246184B1A6000237B84012387F827301DE097F82720124913460B
:402640005B0013449B000B4406337A8C1A8097F827200D4913465B0013449B000B4408331B889AB27B8C13447B8497F82730013387F8273097F82730082BDDD9FFF79AFDF1
:4026800000BF2837BD4680BD3483FF1F2883FF1F90B585B000AF8F4B1B78DBB2002B00F015818C4B1B78DBB2013BDBB2184600F01DF978607B6808337B607B681B78FB7074
:4026C0007B685B68BB60844B1B78BB700023FB73F7E0BB681B78BA789A4240F0EC80BB787E4AD35CDAB2BB685B789A4240F0E380BB689B7803F07F037B70BB68DB7803F0AA
:4027000003033B707A78764913465B0013449B000B44033300221A707A78BB689878704913465B0013449B000B44043302461A707A78BB68D8786A4913465B0013449B00C6
:402740000B4402461A707A78BB689888644913465B0013449B000B44083302461A80BB689B785BB2002B1ADA7A783B78012B01D1072000E00D205A4913465B0013449B00C2
:402780000B44053302461A707A78554913465B0013449B000B44013301221A7019E07A783B78012B01D1052000E009204C4913465B0013449B000B44053302461A707A780A
:4027C000474913465B0013449B000B44013300221A70444A7B781B011344023301221A70404879787A783E4C13465B0013449B00234408331B889BB21B0A9BB2DAB20B0167
:4028000003441A70374879787A78354C13465B0013449B00234408331B889BB2DAB20B01034401331A70304879787A782C4C13465B0013449B00234406331B889BB2DAB27A
:402840000B01034406331A70274879787A78244C13465B0013449B00234406331B889BB21B0A9BB2DAB20B01034407331A701E4879787A781A4C13465B0013449B00234479
:4028800006331B889BB2DAB20B01034404331A70154879787A78124C13465B0013449B00234406331B889BB21B0A9BB2DAB20B01034405331A70BB680833BB60FB7B013345
:4028C000FB73FA7BFB789A42FFF403AF00BF1437BD4690BD2F83FF1F2483FF1FA083FF1F3483FF1FFC5F00407060004080B485B000AF0346FB710F4B1B78DBB20E4ADB00D7
:4029000013445B68FB60FB681033FB60FB681B78FA799A4202D30023FB6005E0FB79DB00FA6813445B68FB60FB6818461437BD4680BC70470D83FF1FA439000080B400AF0E
:40294000054B1B78DBB2054ADB0013445B681846BD4680BC704700BF0D83FF1FA439000080B584B000AF104B1B78DBB2013BDBB21846FFF7BBFFB860BB68002B0DD0BB6835
:402980005B681B79FB71FB790233DB00BA681344BB60BB685B68FB6001E00023FB60FB6818461037BD4680BD2F83FF1F80B582B000AF0023FB71344B1B79DBB203F07F03CA
:4029C000BB71BB79002B5AD0BB79082B57D8BA79B9792E480B465B000B449B00034402331B78DBB243F00103D8B2284913465B0013449B000B44023302461A70BA792349B2
:402A000013465B0013449B000B44033300221A70BA79B9791D480B465B000B449B00034401331B78DBB243F00203D8B2174913465B0013449B000B44013302461A70BA7974
:402A4000124913465B0013449B000B4404331B78DBB25BB2002B07DA0D4ABB791B01134402338D221A7006E0094ABB791B011344023389221A70FEF7DDFF0346FB71FB79E6
:402A800018460837BD4680BD006000403483FF1FFC5F004080B582B000AF0023FB71504B1B79DBB203F07F03BB71BB79002B00F09280BB79082B00F28E80BA79B979494869
:402AC0000B465B000B449B00034402331B78DBB223F00103D8B2434913465B0013449B000B44023302461A70BA793E4913465B0013449B000B44033300221A703A49BB7933
:402B00003948BA79120102441278D2B202F07F02D2B21B010B441A70BA79B97931480B465B000B449B00034401331B78DBB223F00203D8B22B4913465B0013449B000B4474
:402B4000013302461A70BA79264913465B0013449B000B4404331B78DBB25BB2002B1BDABA79204913465B0013449B000B4401331B78DBB2012B07D11B4ABB791B0113443F
:402B800002330C221A7022E0174ABB791B01134402330D221A701AE0BA79124913465B0013449B000B4401331B78DBB2012B07D10D4ABB791B011344023308221A7006E08E
:402BC000094ABB791B011344023309221A70FEF731FF0346FB71FB7918460837BD4680BD006000403483FF1FFC5F004080B584B000AF0023FB73154B1B79BB73144B1B78F9
:402C0000DBB2013BDBB21846FFF770FEB860BB685B681B79FB71BA7BFB799A4202D9BB7B022B0ED8BB7BBA7B0A498A5CD1B20A4AD154BB7B054A9278D1B2064AD15401238A
:402C4000FB73FB7B18461037BD4680BD006000402F83FF1FA083FF1F1483FF1F80B582B000AF0023FB710F4B1B78DBB25BB2002B12DA0C4B5B78DBB2012B00D00CE00A4BEE
:402C80000A4A5A60094B1B789AB2074B1A80FEF7B5FD0346FB7100BFFB7918460837BD4680BD00BF006000401883FF1FC039000080B500AF064B1B78002B04D100F00AF8B0
:402CC000034B01221A7000F01BF800BF80BD00BF0282FF1F80B500AF074A074B1B78DBB243F00603DBB213700C2000F06BF8034B00221A8000BF80BD09590040B083FF1F0E
:402D000080B582B000AF00F0DFFC0346FB71254A244B1B78DBB243F00203DBB21370224A214B1B78DBB243F00203DBB213701F4B1B78BB71BB7943F00203BB71BB7943F04F
:402D40000103BB71194ABB791370194B18221A70184A184B1B78DBB243F04003DBB21370144A144B1B78DBB223F00303DBB21370114BC8221A70114B02221A70104A104BE1
:402D80001B78DBB243F00803DBB213700A2000F053FBFB79184600F09BFC00BF0837BD4680BD00BFAB430040BB4300400B5900400E5900400D59004008590040164600404D
:402DC0002F5B004080B584B000AF0346FB71FB790A2B07D00C2B02D0082B06D008E0C223FB730BE08223FB7308E04223FB7305E0C223FB73002000F013FB00BF054AFB7BDC
:402E00001370FB79184600F017F800BF1037BD4680BD00BF0A59004080B400AF054A054B1B78DBB243F00103DBB2137000BFBD4680BC70470859004080B584B000AF0346F6
:402E4000FB71FB790A2B08D00C2B02D0082B08D00BE04FF48053FB600DE04FF48063FB6009E04FF48073FB6005E00023FB60002000F0D6FA00BF0C4B00221A80FB6842F261
:402E8000107202FB03F303F6C413084A82FB0312D212DB17D31A064A1360064B00221A8000BF1037BD4680BDA883FF1FAD8BDB68AC83FF1FAA83FF1F90B585B002AF04463F
:402EC000084611461A462346FB710346BB710B46BB8013467B80104B01221A700E4B1878BA79F9790023019300230093012300F0ABF9094B1B787A88B988184600F04AF92D
:402F0000054B1B780221184600F012F9024B1B7818460C37BD4690BD2E81FF1F90B585B002AF0446084611461A462346FB710346BB710B46BB8013467B80104B00221A70E9
:402F40000E4B1878BA79F9790023019300230093002300F079F9094B1B787A88B988184600F018F9054B1B780221184600F0E0F8024B1B7818460C37BD4690BD2F81FF1F7D
:402F800080B485B000AF7860054B1B68FB60FB6840337A681A6000BF1437BD4680BC704708ED00E080B483B000AF0346FB71054AFB795B01DBB2137000BF0C37BD4680BCB1
:402FC000704700BF00E400E080B400AF054B1B78DBB203F040039B09DBB21846BD4680BC704700BF8F45004080B483B000AF134B7F221A70124B80221A707F23FB710CE094
:40300000FB79DB0003F1804303F5F043FA79013AD2B21A70FB79013BFB71FB79002BEFD1FB79DB0003F1804303F5F04300221A7000BF0C37BD4680BC704700BF3181FF1FC4
:403040003081FF1F80B485B000AF03460A46FB711346BB710123FB60FB79172B2FD8BB79002B0ED0FB791A01184B1344FA791101164A0A441278D2B242F02002D2B21A707A
:403080000DE0FB791A01114B1344FA7911010F4A0A441278D2B222F02002D2B21A70FB791A010A4B1344FA791101084A0A441278D2B242F00102D2B21A700023FB60FB68D3
:4030C00018461437BD4680BC704700BF1070004080B485B000AF0346FB710123FB60FB79172B1DD8FB791A01104B1344FA7911010E4A0A441279D2B242F00402D2B21A71F9
:40310000FB791A01094B1344FA791101074A0A441278D2B242F00102D2B21A700023FB60FB6818461437BD4680BC70471070004080B485B000AF03460A46FB711346BB71FE
:403140000123FB60FB79172B1BD8FB791A01104B13441B78DBB223F00E03FB72FB791A010B4B1344BA795200D2B252B202F00E0251B297F90B200A4352B2D2B21A700023AA
:40318000FB60FB6818461437BD4680BC704700BF1070004080B485B000AF0346FB710B46BB8013467B800123FB60BB8841F6FF72934202D14FF40053BB807B8841F6FF72F8
:4031C000934202D14FF400537B80FB79172B17D8FB79DB0003F1804303F5EC430433BB60BB68BA881A80FB79DB0003F1804303F5EC430633BB60BB687A881A800023FB60B5
:40320000FB6818461437BD4680BC704780B485B000AF03460A46FB711346BB710123FB60FB79172B07D8FB791A01064B1344BA795A720023FB60FB6818461437BD4680BCD7
:40324000704700BF1070004090B484B000AF0446084611461A462346FB710346BB710B467B7113463B710123FB60FB79172B34D8FB79DB0003F1804303F5EC43BA7902F083
:403280007F02D1B27A79D201D2B20A43D2B21A70FB79DB0003F1804303F5EC433A7E1201D1B23A7902F00F02D2B20A43D2B25A70FB79DB0003F1804303F5EC433A7F02F03D
:4032C0000F02D2B29A70FB79DB0003F1804303F5EC430022DA700023FB60FB6818461037BD4690BC704700BF80B582B000AFFF23FB7100F0E9F90346BB71104B1B78182B2F
:4033000012D90F4B1B78FB710C4B1B78013BDAB20A4B1A70FB79DB0003F1804303F5F0431B78DAB2064B1A70BB79184600F0D0F9FB7918460837BD4680BD00BF3081FF1F63
:403340003181FF1F90B484B000AF0446084611461A462346FB710346BB800B46BB711346FB700123FB6097F90730002B23DBBB8823F47F6323F00F039BB2002B1BD1FB79C5
:40338000DB0003F1804303F5F043BB60BB68BA881A80FB79DB0003F1804303F5F043BA799A70FB79DB0003F1804303F5F043FA78DA700023FB60FB6818461037BD4690BC06
:4033C000704700BF80B485B000AF0346FB710B46BB8013467B800123FB6097F90730002B17DBFB79DB0003F1804303F5F0430433BB60BB68BA881A80FB79DB0003F18043BF
:4034000003F5F0430633BB60BB687A881A800023FB60FB6818461437BD4680BC704700BF80B483B000AF0346FB7101BE00BF0C37BD4680BC704700BF80B582B000AF03466F
:40344000FB80FB88054A127802FB03F3184600F033F900BF0837BD4680BD00BF4081FF1F80B584B000AF03463960FB710F4B1B68FB60FB791F2B02D90020FFF7D1FFFB799B
:4034800003F01F0310339B00FA6813441B68BB60FB7903F01F0310339B00FA6813443A681A60BB6818461037BD4680BD08ED00E080B582B000AF03460A46FB711346BB7109
:4034C000BB79072B02D90020FFF7AAFFFB791F2B02D90020FFF7A4FFFB7903F01F0303F1604303F56443BA795201D2B21A7000BF0837BD4680BD00BF80B483B000AF78603C
:40350000264B1B78DBB21A467B681A60244B1B78DBB21B027A6812681A437B681A60214B1B78DBB21B047A6812681A437B681A601D4B1B78DBB21B067A6812681A437B6875
:403540001A607B680433194A1278D2B21A60184B1B78DBB21A027B6804337968043109680A431A60134B1B78DBB21A047B6804337968043109680A431A600F4B1B78DBB247
:403580001A067B6804337968043109680A431A6000BF0C37BD4680BC704700BF0301004904010049EC460040020100490101004900010049050100490601004980B582B0D8
:4035C00000AF786000F03CF8786800F009F8072000F018F800F028F800BF0837BD4680BD80B485B000AF7860054B1B68FB60FB685C337A681A6000BF1437BD4680BC70476E
:4036000008ED00E080B483B000AF0346FB71054AFB795B01DBB2137000BF0C37BD4680BC704700BF07E400E080B400AF034B80221A6000BFBD4680BC704700BF00E100E0B7
:4036400080B400AF034B80221A6000BFBD4680BC704700BF80E100E080B485B000AF0346FB710B4B1B78DBB223F00203FB730849FB795B00DBB203F00203DAB2FB7B134382
:40368000DBB20B7000BF1437BD4680BC704700BF2051004080B483B000AF0346FB71044AFB79137000BF0C37BD4680BC704700BF7D640040000000000230800803D000BF5E
:4036C00001380046FCD17047EFF3108072B6704780F31088704700BF80B582B000AF0023BB711B4B1B78DBB203F00303012B02D0022B04D012E0164B1B79FB7111E0144B6F
:403700001B79DBB203F07F02124913465B0013449B000B440A331B78FB7102E00023FB7100BFFB79022B0ED80B4B1A68FB7913441B78022B04D1FDF71BFD0346BB7102E016
:403740000023BB7100BFBB7918460837BD4680BD006000403483FF1F2883FF1F014B1868704700BFA881FF1F0E4B70B51E460E4C0025E41AA410A54204D056F82530984713
:403780000135F8E700F032F9084B094C1E46E41AA4100025A54204D056F8253098470135F8E770BDF8390000F8390000F8390000003A000010B5431E0A44914204D011F886
:4037C000014B03F8014FF8E710BD03460244934202D003F8011BFAE77047034611F8012B03F8012B002AF9D17047034613F8012B002AFBD1181A01387047000000000000B9
:40380000004F0040240040510040300000000140001000140140000800400140000A004C01400002105001401000000000500140980F00481000000030313233343536372F
:403840003839414243444546000000001201000202000008B40432F2010001028001000009024300020101C0320904000001020201030524001001042402020524060001D2
:4038800005240100010705810308000A09040100020A000004070582024000000705030240000000040309042C0343007900700072006500730073002000530065006D008B
:4038C000690063006F006E0064007500630074006F007200100355005300420055004100520054003803430044004300200043006F006D006D0075006E0069006300610094
:40390000740069006F006E00200049006E007400650072006600610063006500260343004400430020004400610074006100200049006E0074006500720066006100630043
:40394000650000000203000000008103080002000100820240000A000100030240000A00020A00000100000060380000030000004839000000000000000000000000000007
:40398000000000000000000060390000010000004C38000000000000000000000100000064390000010000008C39000012034D0053004600540031003000300001000000A4
:4039C0002800000000010400010000000000000000014359555342000000303030303100000000000000000043000000F8B500BFF8BC08BC9E4670474D0000009507000076
:403A0000F8B500BFF8BC08BC9E46704729000000203A0000C880FF1FE800000028020000000000000A000000435333303120323031360A00000000000000000000000000E5
:403A400000000000000000000000000000000000000000000000000000000000000000000000000000000000FFFF000000C2010000000800C201000000080000A1200000F1
:403A8000000002000000FFFF807F0000030000000087930360EA00003C000000000030750000000000000000000000000000000000000000000000000000000000000000BC
:403AC000E8390000000000000000000000000000000000000000000000000000000000000000000000000000000000000000000000000000000000000000000000000000A5
:403B00004881FF1F0000000000000000000000000000000000000000000000000000000000000000000000000000000000000000000000000000000000000000000000009E
:403B40000000000000000000000000000000000000000000000000000000000000000000000000000000000000000000000000000000000000000000000000000000000045
:403B80000000000000000000000000000000000000000000000000000000000000000000000000000000000000000000000000000000000000000000000000000000000005
:403BC00000000000000000000000000000000000000000000000000000000000000000000000000000000000000000000000000000000000000000000000000000000000C5
:403C00000000000000000000000000000000000000000000000000000000000000000000000000000000000000000000000000000000000000000000000000000000000084
:020000040003F7
:0200000480007A
:4000000001450040064F00400A520040015B0040056400400365004045000140300101405002014050030140490401404B050140560601404D0701403F0801405C0901407E
:400040004D0A01404D0B01403C0C0140560D01403A0E01403A0F01405914014048150140331601404417014037180140481901402B1A0140481B0140114001401D41014010
:40008000184201401843014005440140124501400E4601400B4701400F48014010490140104C0140064D014003500140035101407E0201200A4B0D20164B1940224B00A049
:4000C0000160086009A41108182819286004610C7C402F84800F846F89728E388F0F856F860F8B0700080201040C0602070408600E0F122015021620180C1A011B081C07FD
:400100001D022010240B260427022A402B012C103040310232103301340F35083620370438083E413F01540F580459045B045F01830E85C28704896E8F01940495AE9602BB
:40014000980299C09A0C9B089C029D089E04A002A205A710A902AB04B11EB206B401B5E0B608B701B920BA08D804D904DF01000601800208081009010A200B010E2A108ECA
:4001800013081702180419441AA01E2A1F042160220A25112746280429042F1430203208334034103580370839083C043D223E8059405A115B04821288018A10C00FC2EF14
:4001C000C41FCA66CC7ECEF2D60FE206E604020F049E0660070108FD09020A020B040C300EC911041302149415021660170418CF1A30247329022B0C330134FF3508370647
:400200003B803E105608580459045B045D905F01800181208202831084108503870C881089108B208D108E208F209204950796049801990C9A0A9B039C029D059E119F0A50
:40024000A010A10FA401A50AA602A705A804AC10AD10AF60B008B230B340B404B50FB603B730BA80BB80BE10D804D904DF010008010202040302040C0584074809200A523A
:400280000C100D100E201020110212011320170419C21A121B101F10210423192420251026082701280129042A012F083010314033043608370139803A043B193D203F04A1
:4002C0005C205D406680670480048101820183088E129004918092809308950897209B449C109D809E809F08A120A210A4AAA910AB01AE01AF08C0FFC26FC42FCA2BCCCECF
:40030000CE6FD630D830E208E680E804EE0804C5063A070F087F090C0B020C960D100E68132014A31507165C180E190C1AF01B011F5024FE2601290B2B042D082E012F01AB
:4003400030FF31403320350F371038203E113F40540F580459045B045F05800C81968201836889C58B3A8E0F9040910E93F0961098079B019C0B9DFE9E049F01A260A57FBC
:40038000A80CAA02AC08ADA3AE01AF5CB020B20FB418B5FFB640BE40BF10D804D904DF0100040180032406820A200B080C600D020E20121213081402151218081B021C22A1
:4003C0001D122008211022102362261029802A102C202F11308432023324344235103680370139203B483C203D103E023F0159085A805B126124780480808310902492802A
:4004000093099520964099809B4D9F20A202A310A48EA70AA820AC01B020B540C097C2F6C4D5CA5CCCBFCEAED60FD806DE02E410E8C0EA03EC0100600130020403C9099E69
:400440000A800B600DCF0E070F301057119413601461160218371C041DFD1F0220012202230F25732A08328033FF3470360F38203F044065410149FF4AFF4BFF4DA04F01F9
:400480005018580459045A045F016040628064406540668068406A806C406D206E80910195019D01B101B902BF01C065C101C50EC6C2C734C83DC9FFCAFFCBFFCDAFCE0712
:4004C000CF01D018D804D904DA04DC11DF01E040E280E440E540E680E840EA80EC40ED20EE8001810302042006820A280E840F111244130417111E051F182340271029802D
:400500002A042B042E032F103082332436C03701388039013A403B043C203D103E803F114340474049044A084B404E084F60508A51216680670280408180821083049020F7
:40054000930195029640972299109B459D049E80A010A310A48AA520A680A708A804AC01AD08C0D9C2F6C45ECACECC9FCEBBD018D23CE205E420E60DEC80EE020208040201
:4005800008100C011202141015011A081E042F0330063210330134083502360138083E54520353025804590C5B045C195D105F01812184018561870688018B108F08910830
:4005C00092019310950699079B609C019D04A001A102A761A946AA01AB21AC01AD67B001B120B307B518B746BB08D602D712D804D904DB04DC31DD30DF010314050206049A
:40060000072109020A010D100E500F01100111111B011C041D041E401F40202021242241241025042728288029202A802B202E40308A3210340136013708380139083A5011
:400640003C803E8048044A0859085D105E2061026202680469406A086E106F027088720879807A017F0280108315870188808A088B018D849001912193119486955896AB5C
:40068000970699089A549B049C019D209E209F10A002A201A320A440A60AB180C0F6C2F9C40BCA1FCC4FCE0FD602DE10E420EC80EE02050207040B400F201120134017600D
:4006C0001F1021082301250D290D3170330C3503377039283F45580459045C315F0180AC82438320843186C68720883189108A4E911C93229530970C99099A8C9B109C305D
:400700009D409E409F03A52CA608A711A914AA53B00FB11FB2F0B48AB540B720BA2ABF50C023C106C5E0C7CBC832C9FFCAFFCBFFCEF0CF44D00CD608D804D904DA04DB0406
:40074000DC33DD93DF01E6C0EA40EB020314051508010A010D200F021111120216281D151F1020012121222023102650274029152F1830023108328034043505362037406F
:400780003A503B043D083E283F0644044504480849104C084D02570B5D806701820486108E1091219486955A96BB970299089A509B049D229F10A002A108A281A320A440F0
:4007C000A64AA702A880AB20AD02B510B640C076C2C9C46BCA67CCFBCEEED060D220D610D810E201E418020107041301210231043301350236013F105608580459045B04AF
:400800005C015D905F0188028C02920494029801A204A402A801AC01B004B202B401BE05C032C106C205C404C5C0C6E0C80AC9FFCAFFCBFFCC62CDA0CEF0CF41D00CD608EC
:40084000D804D904DA04DB04DC13DD93DF01E640E702E910EA30EB10ED10EE10EF12008001200402062008200AA80B800C400E010F08108011401228140115011714190874
:400880001B211E022502272828402B042D02300132023314340239113A203B023F044105432048884B80511059105A405C805E10625064026704680279087A208010884840
:4008C0008C508D10903094049510960397029B049C209D029E509F18A108A280A304A402A510A64BA703AA40AF32B210B540B704C033C2CEC4FFCA85CC87CE45D007D20C5C
:40090000D63CD83CE208E401E68004030503073C080309080B220FC010031115132A153F17801C011E0220022201253F27402A032D042E032F1130023201330F37F03B80EC
:4009400054185604580459045B045C315D305F0183068B018F069001930695069906A902AB04AD06B304B401B501B702BE10D401D604D804D904DB04DC11DD30DF01031423
:400980000680071408010A010E51104011101202144218901F20214C228024202580270428202A402C012D102E902F013002320834023602371439883A103D603E015A02CC
:4009C0005D025E805F186004638266026E206F01784079407A0180408202834087018D80C076C2B9C49BCA3ACCE3CEBED6F1D88DE0010004010103020D0312061303150250
:400A000017011D031E0129032D03300233023404350136013E104053410149FF4AFF4BFF4DA04F0150185280580459045A045B045C105F01604062806440654066806840E7
:400A40006A806C406D206E8083028B058C0192019401980199019C01A001AC01AD02B101B304B401B702BF41C053C101C54CC620C73EC83BC9FFCAFFCBFFCDAFCE07CF01A7
:400A8000D018D40FD804D904DA04DB04DC01DF05E040E280E440E540E680E840EA80EC40ED20EE800102048009020B010C490F081402150119821A041C0422042308264103
:400AC000272028022B042D8030493720388039013F324108420143404508474049404B404F475502560457105E865F106604670472407F10800883088A048C049080910195
:400B0000920193209640984399409D80A108A304A408A502A710C088C2F9C490CA1CCC2BCEA9D05AD218D6F0D860DE40E201E640EC20EE02000C01280202035005380A407B
:400B40000D600E0F0F18103011181360143018171B021C081D781E01200B21012204230424402705280C29502A012B282D052E40300F3104321033013420350236403778F1
:400B800038283E443F055280540F580459045B045F01D804D904DC11DF01014002080511070108020A200B040D020E040F21104812041510174A1C401D491F21241026800F
:400BC000278A28022B062D902E012F203049351036803701388039413C403E043F015C105E045F8277408401850186088704908091109225932195019640970698409910A2
:400C00009B019E04A306A680AC40AE04AF20C0D3C2FEC4FACAFCCCBBCED9D6F0E20AEA08EE0807021A0122022B0130023302350136014006464049FF4A074BFF4C404D20AB
:400C40004EF04F0550085401580459045A045B0C5C115D135F01604061A8624063208004868388CF8A308CFF903C92C2943C96C19A0C9C10A020A408A830AC04AE08B04050
:400C8000B2B0B43FB802BA28D804D904DC13DF0100A002400320050106020710088009210A200D020E29108A12101504170519221A201D011E011F012610271028022D04E4
:400CC0002E022F093101331434023602371039183A023D103E094F1456205D807F0285068601919092109310948296219706988099849A509B049D229E209F10A09AA1203F
:400D0000A202A322A440A502A610AE10AF40C0BFC2FFC43FCAF8CCA7CEE7D220D610DE10580459045C115F01820283048601870188018B108C029080910292409410950465
:400D40009620980899019E089F02A004A604A708A820AA10AC40AD08AE80B11FB2FFB902BA02BE04BF01D602D739D804D904DB0CDC13DD10DF01000102010314040105010A
:400D80000719080109020A010B400C440E690F2010041591160317041CA0250228412B102C062E022F2031013314358137143A013C203D013E083F405E1065046C416D1177
:400DC0006E486F287580760877097F02814088028A0191809211948299059B149E0A9F01A210A302A440A502A604A708B521C0FFC2F9C4F2CAFBCCF7CEF1D620D840DE1079
:400E0000E080EC20EE0213081680300231803410360839043A203E80822083808720C430CCF0CE70E260E6200320040831083380378051885C0860046620860888029208BE
:400E400095049B289C109D01A380A402A580A608A901AE04C030CC70D680D8C0E210E820EE1013805340544059045C0262208E029208940495049B289C189D039E209F807C
:400E8000A580A804B102B720C440D460D6C0D840EC8019011C8081808408884092089404950497809B209C089D039E20A440A580A602A802A904AA20AC10B308C630E69026
:400EC000EEC0784080018C80DC01E00801800A2022025840824086018B108D0190019880B040C002C208C802D401E402E601E801820284409001928096019710988099010C
:400F00009C40A202B580B610EA02EE020A010B200F10900192809601973098809901AF10C20E02020502208092089404950499019B209D029E20A602AF40C060C840EA10E2
:400F40005A085F20650180048E209208940499019B209E20AD04B040D660D880E220EE401F1034015A805C016101630264809001928098809901C601CC01D401D603D8039C
:400F80008B01A701AF10B001E001EC04100B1A031C0A00AB01FF100A0B01000000000000010103000A010B010300000000E0E000001C1C001C000000400006000000000014
:400FC000C0000000000B0B0000F4F4000800140A0A00080000000000007B7B00380000000001000000000000000000000000000000000000000000000000000000000000CC
:4010000000000000000000000000000000000000000000000000000000000000000000000000000000000000000000000000000000000000000000000000000000000000B0
:401040000000000000000000000000000000000000000000000000000000000000000000000000000000000000000000000000000000000000000000000000000000000070
:401080000000000000000000000000000000000000000000000000000000000000000000000000000000000000000000000000000000000000000000000000000000000030
:4010C00000000000000000000000000000000000000000000000000000000000000000000000000000000000000000000000000000000000000000000000000000000000F0
:0200000490006A
:0400000000004005B7
:0200000490105A
:04000000BC90ACAF55
:0200000490303A
:02000000569F09
:0200000490402A
:4000000000000000000000000000000000000000000000000000000000000000000000000000000000000000000000000000000000000000000000000000000000000000C0
:400040000000000000000000000000000000000000000000000000000000000000000000000000000000000000000000000000000000000000000000000000000000000080
:400080000000000000000000000000000000000000000000000000000000000000000000000000000000000000000000000000000000000000000000000000000000000040
:4000C0000000000000000000000000000000000000000000000000000000000000000000000000000000000000000000000000000000000000000000000000000000000000
:0200000490501A
:0C00000000012E16106900012E30670868
:00000001FF