:400000000080002011000000F5060000F506000080B500AF024A034B1B68136000F074FBBC760040FA46004010B5054C237833B9044B13B10448AFF300800123237010BDB2
:40004000B081FF1F000000007C380000084B10B51BB108490848AFF300800848036803B910BD074B002BFBD0BDE81040184700BF00000000B481FF1F7C380000C880FF1FCA
:400080000000000080B582B000AF0023FB7197F907309BB2184600F0ABFC0346BB80BB8840F6AB52934209D9012003F0DBFA012003F024FB002003F003FB08E0002003F0B9
:4000C000D1FA002003F01AFB012003F0F9FA00BF0837BD4680BD00BF80B500AF62B600F01BFD104803F070FA00F064FC00F07AFC002003F0B7FA0121002000F051FD002036
:4001000003F0CEFA084800F015F800F033F8074B1B78012BF9D1064800F00CF8034B00221A70F2E785000000D080FF1FDC81FF1F6482FF1F80B582B000AF786000BF01F09C
:4001400077F90346002BFAD07B683F3300221A707B683E3321221A70786803F086FB03469BB21946786801F0FFF800BF0837BD4680BD00BF80B582B000AF2B4B1B78002B57
:400180000AD100F0B1FE0346002B49D001F098F8254B01221A7043E001F038F90346002B3ED001F057F90346FB71FB790D2B02D0FB790A2B10D11D4B1B881A461C4B0021E2
:4001C00099541B491B4803F048FB184B00221A80194B01221A7023E0FB79082B02D0FB797F2B0AD1114B1B88002B06D00F4B1B88013B9AB20D4B1A8012E00C4B1B883E2BA4
:4002000003D9212001F0E6F80AE0084B1B885A1C91B2064A11801946054AFB795354FFE700BF0837BD4680BDDE81FF1FE081FF1F0482FF1F6482FF1FDC81FF1F80B582B0E5
:4002400000AF786039603A680021786803F0FDFA00BF0837BD4680BD80B584B000AFF860B9607A607A68B968F86803F0E3FA00BF1037BD4680BD00BF80B483B000AF034699
:40028000FB71FEE780B487B000AF7860396000233B6100237B6127E07B699B007A6813441B68BB60BB68FB73BB6823F0FF03BB6014E03B695B003A6813441B781A46BB6861
:4002C000134419463B695B003A6813445B780B703B6901333B61FB7B013BFB73FB7B002BE7D17B6901337B617B692B2BD4D900BF1C37BD4680BC704780B582B000AF3C4B95
:4003000004221A803B4B18221A703B4B3A221A803A4B18221A703A4B3B221A80394B18221A70394B81221A80384B18221A70384B00221A80374B1B221A70374B06221A7066
:40034000364B52221A70364B364A1278D2B21A70354B40F619121A80344B41F251221A800023FB7019237B6014E0FB785B00DAB22F4B1B78DBB203F00103DBB21343DBB237
:4003800003F00303FB704FF4F07003F0D5F97B68013B7B607B68002B02D0FB78032BE4D17B68002B02D10320FFF766FF214B4FF480721A801F4B07221A701F4B00221A7078
:4003C0001E4B48221A701B4B00221A701C4B00221A701C4B02221A701B4A1B4B1B78DBB243F01F03DBB2137000BF0837BD4680BD80400040824000408440004086400040CC
:40040000884000408A4000408C4000408E40004090400040924000400043004000420040A14600400F0100492242004020420040254200400440004006400040084000406A
:400440000940004001400040A243004080B582B000AF244B1B78FB71234B1B78BB71234B1B787B71224AFB7903F00703DBB21370204AFB791B09DBB213701B4ABB7943F0E4
:400480000303DBB21370194A7B7943F00303DBB21370194BE0221A70184BF4221A70184B40221A70174B40221A70174BE0221A70164B4F221A70164B20221A70154B4022BD
:4004C0001A700A2002F0BEFF084A7B791370064ABB791370104B44221A7000BF0837BD4680BD00BFCF010049F8460040F94600406E5800406F5800400D5100401D51004012
:40050000095900400B590040005B0040285B00402B5B0040585B00407658004080B586B000AF72B6574B61221A70FFF7E5FE554B01221A70544A544B1B78DBB243F00403A2
:40054000DBB213700023FB7513E0FA7D13465B0013445B004D4A13443B613B691A683B699B889BB219461046FFF768FEFB7D0133FB75FB7D062BE8D90023FB751CE0FA7DA7
:4005800013469B0013445B00414A1344FB60FB681B68BB60FB685B687B60FB681A7A5B7A1B0213437B807B881A467968B868FFF753FEFB7D0133FB75FB7D002BDFD0354985
:4005C0004FF09040FFF75EFE04213348FFF736FE042232493248FFF73FFE324B324A1A60324A324B1B78DBB243F00203DBB213702F4A2F4B1B78DBB243F00203DBB2137053
:400600002C4A2C4B1B78DBB243F04003DBB21370294A294B1B78DBB243F01003DBB21370082226492648FFF717FE082225492648FFF712FE0A2225492548FFF70DFE08227A
:4006400024492548FFF708FE0A2224492448FFF703FE082223492448FFF7FEFD234A234B1B78DBB243F00803DBB21370FFF7EEFE0E2210491E48FFF7EFFD00BF1837BD46A8
:4006800080BD00BF00480040E846004080380000AC380000B000004800760040C40F00480876004058160140040400440350014013500140A0430040C24300408C0F0048A7
:4006C00002510040940F0048C25100409C0F0048F0510040A80F004812510040B00F004820510040BC0F00483251004022430040B043004080B500AF03F070F803461B68A2
:400700000C2B00D1FEE7FEE780B586B000AF224B7B61224B3B61204B7B6135E03B691B68FB603B695B68BB603B699B683B6000237B600CE0FB681A68BB681A60BB68043313
:40074000BB60FB680433FB607B6804337B607A683B689A42EED13B69DB683B6000237B6008E0BB6800221A60BB680433BB607B6804337B607A683B689A42F2D13B691033B8
:400780003B617B69013B7B617B69002BC6D103F02BF8FFF7A1FCFEE701000000903A000080B582B000AF194B194A1A60194A194B1B6843F40073136000237B600FE07B6814
:4007C000032B04D8144A7B6852F8233000E0134B13497A6841F822307B6801337B607B682F2BECD90F4B1B78DAB20F4B1A700F4B0B4A1A60FFF792FE02F0FCFB0C4B0022A8
:400800001A6000BF0837BD4680BD00BF0CED00E00004FA0514ED00E000000000F50600000080FF1FBC760040C480FF1F08ED00E0C080FF1F80B500AF41F6FF734FF4804252
:400840000121022002F03EFB03461A460A4B1A7041F6FF7341F6FF720121102002F064FB03461A46054B1A70054802F08FFB002002F09EFB00BF80BDE881FF1FE981FF1F8B
:40088000290A000080B582B000AF414B1B78184602F024FC3F4B1B78184602F01FFC3E4B1B78FF2B05D102F025FD03461A463A4B1A70394B1878384B1A780623102102F07B
:4008C00047FD354B1B78354A92B245F6A231184602F07EFD2E4B1A782F4B1B781946104602F09AFC2E4B1B78FF2B05D102F002FD03461A462A4B1A70294B1878284B1A7802
:400900000723102102F024FD254B1B78234A91B2244A92B2184602F05BFD1E4B1A78204B1B781946104602F077FC194B1B780121184602F08DFB174B1B780121184602F0D1
:4009400087FB02F001FF0346FB71174A164B1B78DBB243F02003DBB21370FB79184602F0F7FE124A114B1B78DBB243F00103DBB213700E4A0D4B1B78DBB243F00203DBB299
:4009800013700B4B01221A6000BF0837BD4680BDE881FF1FE981FF1F1081FF1FEC81FF1F1181FF1FE482FF1F9A6500407B65004080E200E080B500AF084B1B68002B04D1AB
:4009C000FFF738FF054B01221A6002F077F9FFF759FF034B1B7800BF80BD00BFE481FF1F6B64004080B500AF02F01CFA00BF80BD80B483B000AF0346FB80FB88C3F10703FC
:400A0000074A32F913309AB2064B1B881BB29BB2D31A9BB21BB218460C37BD4680BC7047E482FF1FAA83FF1F80B400AF00BFBD4680BC704780B500AF214A214B1B78DBB2BD
:400A400003F00103DBB213701E4A1E4B1B78DBB223F00303DBB213701B4A1B4B1B78DBB223F03003DBB21370174A174B1B78DBB243F03003DBB21370134A134B1B78DBB2E0
:400A800023F00F03DBB213700F4A0F4B1B78DBB243F00F03DBB213700C4A0C4B1B78DBB243F00103DBB21370632000F057F8632000F066F8002000F041F800BF80BD00BF2E
:400AC000184F00401A4F0040234F0040194F004080B400AF0D4A0D4B1B78DBB243F00403DBB213700A4A0A4B1B78DBB243F00403DBB21370074A074B1B78DBB243F0010343
:400B0000DBB2137000BFBD4680BC7047A3430040B3430040184F004080B500AF064B1B78002B04D1FFF786FF034B01221A70FFF7CFFF00BF80BD00BFFC81FF1F80B483B02E
:400B400000AF0346FB71044AFB79137000BF0C37BD4680BC704700BF1B4F004080B485B000AF0346FB71FB79FB81044AFB89138000BF1437BD4680BC704700BF1C4F0040DF
:400B800080B483B000AF0346FB71044BFA7992B21A8000BF0C37BD4680BC70471E4F004080B582B000AF03460A46FB711346BB71094B1B78002B04D100F010F8064B012232
:400BC0001A70BA79FB791146184600F0D9F800BF0837BD4680BD00BFFD81FF1F80B582B000AF02F0B1FD0346FB71544A534B1B78DBB243F00103DBB21370514A504B1B78DE
:400C0000DBB243F00103DBB213704E4B01221A704D4B02221A704D4A4C4B1B78DBB203F07F03DBB21370002002F00CFC484A484B1B78DBB223F00603DBB21370454A454BD7
:400C40001B78DBB223F02003DBB21370404A404B1B78DBB243F00103DBB21370012002F0F1FB282002F0EEFB3B4A3B4B1B78DBB203F07F03DBB21370374A374B1B78DBB29D
:400C800023F04003DBB21370314A314B1B78DBB243F00203DBB21370022002F0D3FB2C4A2B4B1B78DBB243F00403DBB213702B4B00221A702A4B00221A70FB79184602F030
:400CC00047FD0721172002F0F9FB2649172002F0CDFB0721182002F0F1FB2349182002F0C5FB0721152002F0E9FB2049152002F0BDFB0721012002F0E1FB1D49012002F06C
:400D0000B5FB0721022002F0D9FB1A49022002F0ADFB0721032002F0D1FB1749032002F0A5FB07210C2002F0C9FB14490C2002F09DFB00BF0837BD4680BD00BFA543004074
:400D4000B54300409D60004009600040106000409443004012600040F851004084600040856000402D1C000015150000211C0000391B0000811B0000CD1B0000391C00002D
:400D800080B582B000AF03460A46FB711346BB712E4AFB7913702E4B00221A702D4B00221A702D4B00221A702C4B00221A702C4B00221A702B4B00221A702B4B00221A702D
:400DC0002A4B4FF400021A60284B4FF080721A60264B4FF400121A60244B02221A60234B04221A60214B08221A60BB79002B02D0012B09D011E01E4A1D4B1B78DBB223F00C
:400E00000103DBB2137011E0194A194B1B78DBB243F00103DBB2137008E0154A144B1B78DBB243F00103DBB2137000BF114B03221A70114B80221A70012002F07DFC0F4B3A
:400E400004221A7000BF0837BD4680BD0D83FF1F1083FF1F2C83FF1F2F83FF1F2483FF1F2E83FF1F3183FF1F0C83FF1F00E100E009600040286000400860004012600040E9
:400E800080B400AF0F4B00221A700F4B00221A700E4B00221A700E4B00221A700D4B00221A700D4B00221A700C4B00221A700C4B03221A700B4B80221A7000BFBD4680BCA8
:400EC000704700BF1083FF1F2C83FF1F2F83FF1F2483FF1F2E83FF1F3183FF1F0C83FF1F286000400860004080B400AF034B1B78DBB21846BD4680BC704700BF2F83FF1F77
:400F000080B483B000AF0346FB71FA79064913465B0013449B000B4401331B78DBB218460C37BD4680BC70473483FF1F80B485B000AF0346FB710023FB81FB79002B1CD078
:400F4000FB79082B19D8104AFB791B0113441B78DBB29BB203F00F03FB81FB891B029AB20949FB791B010B4401331B78DBB29BB21343FB81FB89023BFB81FB8918461437AF
:400F8000BD4680BC704700BFFC5F0040B0B485B000AF03463960FB711346BB80FB79002B6DD0FB79082B6AD8B988FA79364813465B0013449B00034406331B889BB2C3F5F2
:400FC000007399420CD9FA792F4913465B0013449B000B4406331B889BB2C3F50073BB802A4CF979BB881B0A9BB2D8B2FA79264D13465B0013449B002B4403331B78DBB2D7
:401000000343DAB20B0123441A70204AFB79B988C9B21B01134401330A461A703B68002B13D00023FB810CE01948FB79FA8939680A4412781B01034408331A70FB890133D9
:40104000FB81FA89BB889A42EED3FA790E4913465B0013449B000B44013300221A700B48F979FA79084C13465B0013449B00234405331B78DAB20B01034402331A7000BF31
:401080001437BD46B0BC70473483FF1FFC5F00407060004080B584B000AF03463960FB711346BB803B68002B30D0FB79002B2DD0FB79082B2AD8FB791846FFF737FF0346EB
:4010C0001A46BB88934205D9FB791846FFF72EFF034600E0BB88BB800023FB810DE0FB893A6813440D49FA7912010A4408321278D2B21A70FB890133FB81FA89BB889A4223
:40110000EDD3FB79184600F00BF801E00023BB80BB8818461037BD4680BD00BF7060004090B482B000AF0346FB71FB79002B1CD0FB79082B19D8FA790E4913465B00134422
:401140009B000B44013300221A700B48F979FA79084C13465B0013449B00234405331B78DAB20B01034402331A7000BF0837BD4690BC70473483FF1FFC5F004080B582B0C8
:4011800000AF0023FB71314B1B79DBB2184600F067F80346BB712D4B1B78DBB25BB2002B15DA2A4B5B78DBB2212B00D048E0284B07221A80BA791346DB009B1A254A134442
:4011C000234A536000F020FB0346FB7138E01F4B5B78DBB2202B02D0222B1AD030E01C4B07221A80BA791346DB009B1A194A1344174A5360BB79BA7917498A5CD2B242F052
:401200000102D1B2144AD15400F07CFB0346FB7116E0BB790D4A9278D2B291B20F4A22F81310BB79BA790C498A5CD2B242F00202D1B2094AD15400F003FC0346FB7100BFE7
:40124000FB7918460837BD4680BD00BF006000401883FF1F1481FF1FF482FF1F0883FF1F80B485B000AF0346FB710023FB73FF23BB7317E0FB7B104AD35C7B737A7B0F4936
:4012800013465B0013449B000B440A331B78DBB2FA799A4203D1FB7BBB730223FB73FB7B0133FB73FB7B012BE4D9BB7B18461437BD4680BC704700BFFC82FF1F3483FF1F06
:4012C00080B582B000AF0023BB71224B00221A70214B00221A70204B00225A700023FB7110E0FB791D4AD35C7B717B79002B06D07B79082B03D87B791846FFF711FFFB79C9
:401300000133FB71FB79012BEBD9154B1B78DBB2002B18D0114B1B78DBB2002B13D0114B1B78DBB2002B0ED00D4B1B78DBB2082B09D80A4B1B78DBB2082B04D8094B1B7810
:40134000DBB2082B01D90123BB71BB7918460837BD4680BDFE81FF1FF482FF1F0083FF1FF882FF1FFC82FF1F80B584B000AF78600B467B80144B1B781A46144B9B5CFB731A
:40138000FA7B134913465B0013449B000B4408331B889BB27A889A420CD9FA7B0C4913465B0013449B000B4408331B887B80002002F03CF87A88FB7B79681846FFF7E6FD0B
:4013C00000BF1037BD4680BDFE81FF1FF882FF1F3483FF1F80B584B000AF0346FB71FB79FB73084B1B781A46074B9B5CDBB207F10F0101221846FFF7C9FD00BF1037BD4684
:4014000080BD00BFFE81FF1FF882FF1F80B500AF054B1B781A46054B9B5CDBB21846FFF76FFD0346184680BDFE81FF1F0083FF1F80B500AF054B1B781A46054B9B5CDBB2A3
:401440001846FFF75DFD0346184680BDFE81FF1FF882FF1F80B582B000AF084B1B781A46074B9B5CFB71B91DFB7901221846FFF711FEBB7918460837BD4680BDFE81FF1F16
:401480000083FF1F80B485B000AF78600B46FB701346BB707B68DB7803F00303FB737B689B785BB2002B1ADAFB7B032B0AD0BB7803F001031449FA78CA54BB7843F001039D
:4014C000BB701BE0BB789B08DBB203F001030F49FA78CA54BB7843F00403BB700EE0FB7B032B0BD0BB785B08DBB203F001030849FA78CA54BB7843F00203BB70BB7818465D
:401500001437BD4680BC7047F882FF1FFC82FF1F0083FF1F80B582B000AF374B1B78BB71BB7903F01003002B62D00123FB7197F90630002B12DABB7903F00F03012B02D003
:401540000023FB711CE000F061F82C4B1B78DBB25BB2002B14DA0023FB7111E0BB7903F04003002B02D000F095F809E0BB7903F02003002B02D000F0B3F801E00023FB713B
:40158000FB79002B34D01C4B1B78BB7197F90630002B2DDB1A4B1B78DAB21A4B1B78DBB21343BB71184ABB791370174B1B78DBB2BA799A421CD1114B1B78FB710E4B1B7800
:4015C000DBB223F07F03BB71BB79002B0AD10A4B0A4A1278D2B21A70074B1B78DBB203F00F03FB71054B1B78DBB2FA799A42E2D100BF0837BD4680BD286000402D83FF1FF9
:40160000A283FF1F3083FF1F2960004080B582B000AF1D4B1B78FB711B4AFB7913701A4B1B78FB7197F90730002B03DA174AFB79137025E0022000F045FA154B1B78DBB293
:4016400003F06003202B08D0402B0BD0002B0ED100F0F8FA0346FB710CE002F07DF80346FB7107E001F000FB0346FB7102E00023FB7100BFFB79002B02D1044B03221A70DA
:4016800000BF0837BD4680BD286000402D83FF1F0060004080B500AF104B1B78DBB2062B19D801A252F823F0D7160000D7160000C5160000D7160000CB160000D7160000C5
:4016C000D116000000F0F8F806E000F0A7F903E000F0D2F900E000BF00BF80BD1083FF1F80B500AF124B1B78DBB2062B1DD801A252F823F02B1700002B1700001117000090
:401700002B170000171700002B1700001D17000000F0D8F80AE000F027F907E0032000F0D1F9044B03221A7000E000BF00BF80BD1083FF1F2D83FF1F80B483B000AF0023F4
:40174000FB71294B1B78DBB29AB2284B1B889BB213449AB2254B1A8015E02549FB79254A52681278D2B2CA54224B5B680133214A5360FB790133FB711E4B1B889BB2013BB6
:401780009AB21C4B1A801B4B1B889BB2002B02D0FB79072BE1D9144B1B78DBB2082B02D0FB79002B0FD0144B1B78DBB283F07F03DB43DAB2104B1A70104B0F221A70104BB3
:4017C00002221A7005E00D4B02221A700C4B02221A700C4AFB791370034AFB79137000BF0C37BD4680BC70470C83FF1F0E83FF1F006000401883FF1FA283FF1F2D83FF1FFC
:401800001083FF1F3083FF1F80B582B000AF164B1B889BB2002B02D100F02EF81EE0134B02221A70124B00221A7000F06BF9114BDB79DBB29BB21B029AB20E4B9B79DBB257
:401840009BB21343FB80084B1B889BB2FA889A4202D2054AFB881380FFF76EFF012318460837BD4680BD00BF1883FF1F1083FF1FA283FF1F0060004080B400AF094B0222A5
:401880001A70094B80221A70084B0F221A70084B00221A70074B00221A7001231846BD4680BC70471083FF1FA283FF1F2D83FF1F0C83FF1F3083FF1F80B500AFFFF73CFF46
:4018C00000BF80BD80B500AF0A4B1B78DBB29AB2094B1B889BB213449AB2074B1A80074B00221A70012000F0EDF8054B03221A7000BF80BD0C83FF1F0E83FF1F1083FF1F78
:401900002D83FF1F80B582B000AF124B04221A70114B80221A7000F0F5F8104BDB79DBB29BB21B029AB20D4B9B79DBB29BB21343FB800B4B1B889BB2FA889A4202D2084A7E
:40194000FB881380074B0B221A70012318460837BD4680BD1083FF1FA283FF1F006000401883FF1F2D83FF1F80B483B000AF0023BB71234B1B78DBB203F00F03DBB2023B6A
:40198000FB71FB799AB21F4B1B889BB213449AB21C4B1A8018E01C4B5B681C49BA798A5CD2B21A70184B5B680133174A5360BB790133BB71FB79013BFB71134B1B889BB2E3
:4019C000013B9AB2104B1A800F4B1B889BB2002B02D0FB79002BDED10D4AFB7913700D4B1B78DBB283F07F03DB43DAB2094B1A70094B0B221A7000BF0C37BD4680BC70478F
:401A0000296000400E83FF1F1883FF1F006000403083FF1FA283FF1F2D83FF1F80B500AF054B00221A70012000F04CF8034B03221A7000BF80BD00BF1083FF1F2D83FF1F87
:401A400080B400AF084B06221A70084B06221A70074B80221A70074B00221A7001231846BD4680BC704700BF1083FF1F2D83FF1FA283FF1F3083FF1F80B500AF0D4B1B7864
:401A8000DBB2002B0AD00C4A0A4B1B78DBB263F07F03DBB21370074B00221A70074B00221A70012000F00EF8054B03221A7000BF80BD00BF2E83FF1F086000401083FF1FEF
:401AC0002D83FF1F80B483B000AF0346FB710B4B9B68002B0CD0094B9B68FA791A70074B9B68074A128892B25A80044B00229A6000BF0C37BD4680BC704700BF1883FF1F60
:401B00000E83FF1F80B400AF094B00221A80094B9B68002B07D0074B9B6800221A70054B9B6800225A8000BFBD4680BC704700BF0E83FF1F1883FF1F80B400AF0D4B012220
:401B40001A700D4B9B7C0D4B1B7BDBB203F00303012B08D0094BDB7BDBB283F07F03DB43DAB2064BDA73054B01225A7300BFBD4680BC70470B600040FC5F00403483FF1F70
:401B800080B400AF0E4B02221A700E4B93F822300D4B1B7EDBB203F00303012B08D00A4BDB7EDBB283F07F03DB43DAB2064BDA76054B01225A7600BFBD4680BC704700BF58
:401BC0000B600040FC5F00403483FF1F80B400AF104B04221A70104B93F832300F4B93F82430DBB203F00303012B0AD00B4B93F82730DBB283F07F03DB43DAB2074B83F89E
:401C00002720064B012283F8252000BFBD4680BC704700BF0B600040FC5F00403483FF1F80B400AF00BFBD4680BC704780B500AFFFF726F900BF80BD80B500AF01F0CAF975
:401C400000BF80BD80B586B000AF0023FB759D4B1B78FB7100233B619B4B00221A8097F90730002B80F20481964B5B78DBB20A2B00F21B8201A252F823F000BFC71D0000E2
:401C8000AB200000AB200000AB200000AB200000AB200000A91C0000AB2000003B1E0000AB200000511E0000864BDB78DBB2012B0ED100F049FEB860BB685B68824A53609A
:401CC000814B12221A80FFF79FFD0346FB75EEE17C4BDB78DBB2022B25D17A4B9B78DBB2184600F009FEB860BB68002B00F0DF81BB685B68744A5360734B5B6803331B7855
:401D0000DBB29BB21B029AB26F4B5B6802331B78DBB29BB213439AB26B4B1A80FFF774FD0346FB75C3E1674BDB78DBB2032B45D10023FB73654B3B6109E03B691B78BB718C
:401D4000BB793A6913443B61FB7B0133FB735D4B9B78DBB2FA7B9A4204D23B691B78DBB2002BEAD1574B9B78DBB2EE2B01D1584B3B61544B9B78DBB2002B0BD0514B9B7808
:401D8000DAB2544B1B7C9A4204D1534800F0ACF9514B3B613B691B78DBB2002B00F087813B691B78DBB29AB2474B1A80464A3B695360FFF729FD0346FB7578E101F0CCFC57
:401DC0000346FB7573E1FB7903F00303002B20D0022B00D030E03C4B02221A80394B1B79DBB203F07F023D4913465B0013449B000B4402331B78DAB2394B1A70384B002261
:401E00005A70314B364A5A60FFF7FEFC0346FB7512E02D4B02221A80324B1B78DAB2304B1A702F4B00225A70274B2D4A5A60FFF7EBFC0346FB7500BF40E1234B01221A8006
:401E4000214B294A5A60FFF7DFFC0346FB7535E11D4B01221A801B4B1B79DBB21A46234B1344194A5360FFF7CFFC0346FB7525E1144B5B78DBB2013B0A2B00F21A8101A262
:401E800052F823F08F1F0000B32000001D200000B3200000B11E0000B3200000B3200000B3200000F51E0000B32000004B1F0000044B9B78DAB20E4B1A70FFF7C1FD0346CE
:401EC000FB75FBE0006000401883FF1F243900002C3A0000CC380000B483FF1F3483FF1F0082FF1F3183FF1F2F83FF1FA083FF1F2E83FF1F744B9B787B717B79002B06D048
:401F00007B79013BDBB2184600F0F6FCB8607B79002B02D0BB68002B03D17B79002B40F0CA806A4B1B78DBB27A799A4208D0674A7B791370664B01221A70012000F0DCF9F8
:401F4000FFF77EFD0346FB75B5E000F055FE0346002B00F0B2805C4B1B793B715A4B1B79DAB25C4B1A703B795B4AD35CDAB23B795A49CB5CDBB29A4204D0554B01221A70D0
:401F800000F08CFBFFF75CFD0346FB7595E0FB7903F00303012B20D0012B0CD3022B00D03BE0494B9B78DBB2002B31D100F078FD0346FB752CE0444B9B78DBB2012B29D1A1
:401FC000474B1B78DBB223F00203DAB2444B1A70FFF736FD0346FB751CE03B4B1B79DBB2012B19D8384B9B78DBB2DB43DBB2364A1279D2B2114610463A4A125CD2B21340FD
:40200000DAB2384B5A54FFF71BFD0346FB7503E000BF53E000BF51E000BF4FE0FB7903F00303012B20D0012B0CD3022B00D03BE0254B9B78DBB2002B31D100F0BDFC03468E
:40204000FB752CE0204B9B78DBB2012B29D1244B1B78DBB243F00203DAB2214B1A70FFF7EFFC0346FB751CE0174B1B79DBB2012B19D8154B9B78DBB2DB43DBB2124A1279A2
:40208000D2B211461046174A125CD2B21340DAB2144B5A54FFF7D4FC0346FB7503E000BF0CE000BF0AE000BF08E000BF06E000BF04E000BF02E000BF00E000BFFB7D184636
:4020C0001837BD4680BD00BF006000402F83FF1F2C83FF1F2483FF1F1483FF1FA083FF1F3183FF1FA483FF1FB0B58AB000AF7860324B07F114041D460FCD0FC42B68237098
:40210000002387F826307B68002B52D07B6822221A707B68013303221A7007F10C03184601F0F0F9022387F827303EE097F827307A68134497F8262007F128010A4412F83B
:402140001C2C1209D2B207F128010A4412F8142C1A7097F8273001337A68134400221A7097F8273002337A68134497F8262007F128010A4412F81C2C02F00F0207F1280128
:402180000A4412F8142C1A7097F8273003337A68134400221A7097F82630013387F8263097F82730043387F8273097F82730212BBCD900BF2837BD46B0BD00BFB838000017
:4021C00090B482B000AF0123FB7180E0464AFB791B0113440C221A70FA79444913465B0013449B000B4405331B78DBB2002B1CD0FA793E4913465B0013449B000B44043311
:402200001B78DBB25BB2002B07DA394AFB791B01134402330C221A700EE0354AFB791B011344023308221A7006E0314AFB791B011344023380221A702B48F979FA792B4C59
:4022400013465B0013449B00234406331B889BB2DAB20B01034406331A702348F979FA79224C13465B0013449B00234406331B889BB21B0A9BB2DAB20B01034407331A707D
:402280001948F979FA79194C13465B0013449B00234406331B889BB2DAB20B01034404331A701148F979FA79104C13465B0013449B00234406331B889BB21B0A9BB2DAB2CF
:4022C0000B01034405331A70FB790133FB71FB79082B7FF67BAF074BFF221A7000BF0837BD4690BC704700BF706000403483FF1FFC5F00400A60004080B58AB000AF03461E
:40230000FB7100237B84002387F8273050E097F82720B34913465B0013449B000B4400221A7097F82720AE4913465B0013449B000B44023300221A7097F82720A8491346B0
:402340005B0013449B000B44033300221A7097F82720A34913465B0013449B000B44083300221A8097F827209D4913465B0013449B000B440A3300221A7097F827209849E0
:4023800013465B0013449B000B44013300221A7097F82720924913465B0013449B000B44053300221A7097F82730013387F8273097F82730082BAAD9FB79002B16D000238A
:4023C00087F825300EE097F82530864A0021D15497F82530844A0021D15497F82530013387F8253097F82530012BECD97F4B1B78DBB2002B00F04A810023FB767B4B1B78AB
:40240000DBB2013BDBB2184600F076FA78617B695B683B613B6907331B7803F04003002B08D0734B1B78DBB243F00103DAB2704B1A7007E06E4B1B78DBB223F00103DAB279
:402440006B4B1A707B6908337B617B691B7887F82730012387F82530B6E07B695B68FB61002387F82630A3E097F82520FB699B7803F07F039A4240F0938097F82520584974
:4024800013465B0013449B000B4408331B889AB2FB699B889A420CD297F82520FB6998884F4913465B0013449B000B44083302461A80FB691B781A464A4B9B5CDAB2FB69E7
:4024C0005B789A426CD197F82520FB699878444913465B0013449B000B44043302461A7097F82520FB69D8783D4913465B0013449B000B4402461A70FB69DB7803F0030398
:40250000FB73FB699B785BB2002B1CDA97F82520FB7B012B01D1072000E00D20304913465B0013449B000B44053302461A7097F825202B4913465B0013449B000B44013323
:4025400001221A701BE097F82520FB7B012B01D1052000E00920224913465B0013449B000B44053302461A7097F825201C4913465B0013449B000B44013300221A70FB6961
:402580009B790A2B03D0FB699B79022B08D1FA7E97F825301946F869FEF774FF0346FB76FB690833FB6197F82630013387F8263097F8262097F827309A42FFF455AF97F83D
:4025C0002530013387F8253097F82530082B7FF644AF7B695B68FB61002387F8253020E03483FF1FA083FF1F1483FF1F2F83FF1F3183FF1FFB699B7803F07F02FB691878B9
:40260000244913465B0013449B000B440A3302461A70FB690833FB6197F82530013387F8253097F8252097F827309A42E2D300F09DF90246184B1A6000237B84012387F887
:4026400027301DE097F82720124913465B0013449B000B4406337A8C1A8097F827200D4913465B0013449B000B4408331B889AB27B8C13447B8497F82730013387F827306F
:4026800097F82730082BDDD9FFF79AFD00BF2837BD4680BD3483FF1F2883FF1F90B585B000AF8F4B1B78DBB2002B00F015818C4B1B78DBB2013BDBB2184600F01DF97860F2
:4026C0007B6808337B607B681B78FB707B685B68BB60844B1B78BB700023FB73F7E0BB681B78BA789A4240F0EC80BB787E4AD35CDAB2BB685B789A4240F0E380BB689B7899
:4027000003F07F037B70BB68DB7803F003033B707A78764913465B0013449B000B44033300221A707A78BB689878704913465B0013449B000B44043302461A707A78BB68A6
:40274000D8786A4913465B0013449B000B4402461A707A78BB689888644913465B0013449B000B44083302461A80BB689B785BB2002B1ADA7A783B78012B01D1072000E08F
:402780000D205A4913465B0013449B000B44053302461A707A78554913465B0013449B000B44013301221A7019E07A783B78012B01D1052000E009204C4913465B0013447A
:4027C0009B000B44053302461A707A78474913465B0013449B000B44013300221A70444A7B781B011344023301221A70404879787A783E4C13465B0013449B00234408337B
:402800001B889BB21B0A9BB2DAB20B0103441A70374879787A78354C13465B0013449B00234408331B889BB2DAB20B01034401331A70304879787A782C4C13465B00134437
:402840009B00234406331B889BB2DAB20B01034406331A70274879787A78244C13465B0013449B00234406331B889BB21B0A9BB2DAB20B01034407331A701E4879787A7835
:402880001A4C13465B0013449B00234406331B889BB2DAB20B01034404331A70154879787A78124C13465B0013449B00234406331B889BB21B0A9BB2DAB20B01034405337F
:4028C0001A70BB680833BB60FB7B0133FB73FA7BFB789A42FFF403AF00BF1437BD4690BD2F83FF1F2483FF1FA083FF1F3483FF1FFC5F00407060004080B485B000AF034643
:40290000FB710F4B1B78DBB20E4ADB0013445B68FB60FB681033FB60FB681B78FA799A4202D30023FB6005E0FB79DB00FA6813445B68FB60FB6818461437BD4680BC704763
:402940000D83FF1F243A000080B400AF054B1B78DBB2054ADB0013445B681846BD4680BC704700BF0D83FF1F243A000080B584B000AF104B1B78DBB2013BDBB21846FFF7E5
:40298000BBFFB860BB68002B0DD0BB685B681B79FB71FB790233DB00BA681344BB60BB685B68FB6001E00023FB60FB6818461037BD4680BD2F83FF1F80B582B000AF00232B
:4029C000FB71344B1B79DBB203F07F03BB71BB79002B5AD0BB79082B57D8BA79B9792E480B465B000B449B00034402331B78DBB243F00103D8B2284913465B0013449B0026
:402A00000B44023302461A70BA79234913465B0013449B000B44033300221A70BA79B9791D480B465B000B449B00034401331B78DBB243F00203D8B2174913465B001344A2
:402A40009B000B44013302461A70BA79124913465B0013449B000B4404331B78DBB25BB2002B07DA0D4ABB791B01134402338D221A7006E0094ABB791B0113440233892247
:402A80001A70FEF7DDFF0346FB71FB7918460837BD4680BD006000403483FF1FFC5F004080B582B000AF0023FB71504B1B79DBB203F07F03BB71BB79002B00F09280BB790E
:402AC000082B00F28E80BA79B97949480B465B000B449B00034402331B78DBB223F00103D8B2434913465B0013449B000B44023302461A70BA793E4913465B0013449B00F2
:402B00000B44033300221A703A49BB793948BA79120102441278D2B202F07F02D2B21B010B441A70BA79B97931480B465B000B449B00034401331B78DBB223F00203D8B2F5
:402B40002B4913465B0013449B000B44013302461A70BA79264913465B0013449B000B4404331B78DBB25BB2002B1BDABA79204913465B0013449B000B4401331B78DBB2E6
:402B8000012B07D11B4ABB791B01134402330C221A7022E0174ABB791B01134402330D221A701AE0BA79124913465B0013449B000B4401331B78DBB2012B07D10D4ABB79C0
:402BC0001B011344023308221A7006E0094ABB791B011344023309221A70FEF731FF0346FB71FB7918460837BD4680BD006000403483FF1FFC5F004080B584B000AF002339
:402C0000FB73154B1B79BB73144B1B78DBB2013BDBB21846FFF770FEB860BB685B681B79FB71BA7BFB799A4202D9BB7B022B0ED8BB7BBA7B0A498A5CD1B20A4AD154BB7B7D
:402C4000054A9278D1B2064AD1540123FB73FB7B18461037BD4680BD006000402F83FF1FA083FF1F1483FF1F80B582B000AF0023FB710F4B1B78DBB25BB2002B12DA0C4B16
:402C80005B78DBB2012B00D00CE00A4B0A4A5A60094B1B789AB2074B1A80FEF7B5FD0346FB7100BFFB7918460837BD4680BD00BF006000401883FF1F403A000080B500AF68
:402CC000064B1B78002B04D100F00AF8034B01221A7000F01BF800BF80BD00BF0282FF1F80B500AF074A074B1B78DBB243F00603DBB213700C2000F06BF8034B00221A8027
:402D000000BF80BD09590040B083FF1F80B582B000AF00F019FD0346FB71254A244B1B78DBB243F00203DBB21370224A214B1B78DBB243F00203DBB213701F4B1B78BB7124
:402D4000BB7943F00203BB71BB7943F00103BB71194ABB791370194B18221A70184A184B1B78DBB243F04003DBB21370144A144B1B78DBB223F00303DBB21370114BC8222B
:402D80001A70114B02221A70104A104B1B78DBB243F00803DBB213700A2000F053FBFB79184600F0D5FC00BF0837BD4680BD00BFAB430040BB4300400B5900400E590040AD
:402DC0000D59004008590040164600402F5B004080B584B000AF0346FB71FB790A2B07D00C2B02D0082B06D008E0C223FB730BE08223FB7308E04223FB7305E0C223FB739B
:402E0000002000F013FB00BF054AFB7B1370FB79184600F017F800BF1037BD4680BD00BF0A59004080B400AF054A054B1B78DBB243F00103DBB2137000BFBD4680BC704756
:402E40000859004080B584B000AF0346FB71FB790A2B08D00C2B02D0082B08D00BE04FF48053FB600DE04FF48063FB6009E04FF48073FB6005E00023FB60002000F0D6FAC8
:402E800000BF0C4B00221A80FB6842F2107202FB03F303F6C413084A82FB0312D212DB17D31A064A1360064B00221A8000BF1037BD4680BDA883FF1FAD8BDB68AC83FF1F96
:402EC000AA83FF1F90B585B002AF0446084611461A462346FB710346BB710B46BB8013467B80104B01221A700E4B1878BA79F9790023019300230093012300F0ABF9094BD4
:402F00001B787A88B988184600F04AF9054B1B780221184600F012F9024B1B7818460C37BD4690BD2E81FF1F90B585B002AF0446084611461A462346FB710346BB710B4618
:402F4000BB8013467B80104B00221A700E4B1878BA79F9790023019300230093002300F079F9094B1B787A88B988184600F018F9054B1B780221184600F0E0F8024B1B78A6
:402F800018460C37BD4690BD2F81FF1F80B485B000AF7860054B1B68FB60FB6840337A681A6000BF1437BD4680BC704708ED00E080B483B000AF0346FB71054AFB795B0143
:402FC000DBB2137000BF0C37BD4680BC704700BF00E400E080B400AF054B1B78DBB203F040039B09DBB21846BD4680BC704700BF8F45004080B483B000AF134B7F221A70C6
:40300000124B80221A707F23FB710CE0FB79DB0003F1804303F5F043FA79013AD2B21A70FB79013BFB71FB79002BEFD1FB79DB0003F1804303F5F04300221A7000BF0C37C6
:40304000BD4680BC704700BF3181FF1F3081FF1F80B485B000AF03460A46FB711346BB710123FB60FB79172B2FD8BB79002B0ED0FB791A01184B1344FA791101164A0A4465
:403080001278D2B242F02002D2B21A700DE0FB791A01114B1344FA7911010F4A0A441278D2B222F02002D2B21A70FB791A010A4B1344FA791101084A0A441278D2B242F055
:4030C0000102D2B21A700023FB60FB6818461437BD4680BC704700BF1070004080B485B000AF0346FB710123FB60FB79172B1DD8FB791A01104B1344FA7911010E4A0A445D
:403100001279D2B242F00402D2B21A71FB791A01094B1344FA791101074A0A441278D2B242F00102D2B21A700023FB60FB6818461437BD4680BC70471070004080B485B0E1
:4031400000AF03460A46FB711346BB710123FB60FB79172B1BD8FB791A01104B13441B78DBB223F00E03FB72FB791A010B4B1344BA795200D2B252B202F00E0251B297F91E
:403180000B200A4352B2D2B21A700023FB60FB6818461437BD4680BC704700BF1070004080B485B000AF0346FB710B46BB8013467B800123FB60BB8841F6FF72934202D1C7
:4031C0004FF40053BB807B8841F6FF72934202D14FF400537B80FB79172B17D8FB79DB0003F1804303F5EC430433BB60BB68BA881A80FB79DB0003F1804303F5EC43063391
:40320000BB60BB687A881A800023FB60FB6818461437BD4680BC704780B485B000AF03460A46FB711346BB710123FB60FB79172B07D8FB791A01064B1344BA795A72002325
:40324000FB60FB6818461437BD4680BC704700BF1070004090B484B000AF0446084611461A462346FB710346BB710B467B7113463B710123FB60FB79172B34D8FB79DB00E0
:4032800003F1804303F5EC43BA7902F07F02D1B27A79D201D2B20A43D2B21A70FB79DB0003F1804303F5EC433A7E1201D1B23A7902F00F02D2B20A43D2B25A70FB79DB00C3
:4032C00003F1804303F5EC433A7F02F00F02D2B29A70FB79DB0003F1804303F5EC430022DA700023FB60FB6818461037BD4690BC704700BF80B582B000AFFF23FB7100F02E
:4033000023FA0346BB71104B1B78182B12D90F4B1B78FB710C4B1B78013BDAB20A4B1A70FB79DB0003F1804303F5F0431B78DAB2064B1A70BB79184600F00AFAFB79184672
:403340000837BD4680BD00BF3081FF1F3181FF1F90B484B000AF0446084611461A462346FB710346BB800B46BB711346FB700123FB6097F90730002B23DBBB8823F47F63B5
:4033800023F00F039BB2002B1BD1FB79DB0003F1804303F5F043BB60BB68BA881A80FB79DB0003F1804303F5F043BA799A70FB79DB0003F1804303F5F043FA78DA700023BB
:4033C000FB60FB6818461037BD4690BC704700BF80B485B000AF0346FB710B46BB8013467B800123FB6097F90730002B17DBFB79DB0003F1804303F5F0430433BB60BB68EF
:40340000BA881A80FB79DB0003F1804303F5F0430633BB60BB687A881A800023FB60FB6818461437BD4680BC704700BF80B483B000AF0346FB7101BE00BF0C37BD4680BC62
:40344000704700BF80B582B000AF0346FB80FB88054A127802FB03F3184600F06DF900BF0837BD4680BD00BF4081FF1F80B584B000AF03463960FB710F4B1B68FB60FB790B
:403480001F2B02D90020FFF7D1FFFB7903F01F0310339B00FA6813441B68BB60FB7903F01F0310339B00FA6813443A681A60BB6818461037BD4680BD08ED00E080B582B0C3
:4034C00000AF03460A46FB711346BB71BB79072B02D90020FFF7AAFFFB791F2B02D90020FFF7A4FFFB7903F01F0303F1604303F56443BA795201D2B21A7000BF0837BD46ED
:4035000080BD00BF80B483B000AF7860264B1B78DBB21A467B681A60244B1B78DBB21B027A6812681A437B681A60214B1B78DBB21B047A6812681A437B681A601D4B1B78D5
:40354000DBB21B067A6812681A437B681A607B680433194A1278D2B21A60184B1B78DBB21A027B6804337968043109680A431A60134B1B78DBB21A047B68043379680431AF
:4035800009680A431A600F4B1B78DBB21A067B6804337968043109680A431A6000BF0C37BD4680BC704700BF0301004904010049EC4600400201004901010049000100492C
:4035C000050100490601004980B582B000AF786000F03CF8786800F009F8072000F018F800F028F800BF0837BD4680BD80B485B000AF7860054B1B68FB60FB685C337A68E2
:403600001A6000BF1437BD4680BC704708ED00E080B483B000AF0346FB71054AFB795B01DBB2137000BF0C37BD4680BC704700BF07E400E080B400AF034B80221A6000BFB3
:40364000BD4680BC704700BF00E100E080B400AF034B80221A6000BFBD4680BC704700BF80E100E080B485B000AF0346FB710B4B1B78DBB223F00203FB730849FB795B00E9
:40368000DBB203F00203DAB2FB7B1343DBB20B7000BF1437BD4680BC704700BF2051004080B483B000AF0346FB71044AFB79137000BF0C37BD4680BC704700BF79640040D1
:4036C00080B485B000AF0346FB710B4B1B78DBB223F00403FB730849FB799B00DBB203F00403DAB2FB7B1343DBB20B7000BF1437BD4680BC704700BF0051004080B485B0FF
:4037000000AF0346FB710B4B1B78DBB223F00803FB730849FB79DB00DBB203F00803DAB2FB7B1343DBB20B7000BF1437BD4680BC704700BF005100400230800803D000BFFC
:4037400001380046FCD17047EFF3108072B6704780F31088704700BF80B582B000AF0023BB711B4B1B78DBB203F00303012B02D0022B04D012E0164B1B79FB7111E0144BEE
:403780001B79DBB203F07F02124913465B0013449B000B440A331B78FB7102E00023FB7100BFFB79022B0ED80B4B1A68FB7913441B78022B04D1FDF7E1FC0346BB7102E0D1
:4037C0000023BB7100BFBB7918460837BD4680BD006000403483FF1F2883FF1F014B1868704700BFA881FF1F0E4B70B51E460E4C0025E41AA410A54204D056F82530984793
:403800000135F8E700F032F9084B094C1E46E41AA4100025A54204D056F8253098470135F8E770BD783A0000783A0000783A0000803A000010B5431E0A44914204D011F802
:40384000014B03F8014FF8E710BD03460244934202D003F8011BFAE77047034611F8012B03F8012B002AF9D17047034613F8012B002AFBD1181A0138704700000000000038
:40388000004F0040240040510040300000000140001000140140000800400140000A004C014000021050014010000000005001407C0F0048100000003031323334353637CB
:4038C0003839414243444546000000001201000202000008B40432F2010001028001000009024300020101C032090400000102020103052400100104240202052406000152
:4039000005240100010705810308000A09040100020A000004070582024000000705030240000000040309042C0343007900700072006500730073002000530065006D000A
:40394000690063006F006E0064007500630074006F007200100355005300420055004100520054003803430044004300200043006F006D006D0075006E0069006300610013
:40398000740069006F006E00200049006E007400650072006600610063006500260343004400430020004400610074006100200049006E00740065007200660061006300C3
:4039C000650000000203000000008103080002000100820240000A000100030240000A00020A000001000000E038000003000000C839000000000000000000000000000087
:403A00000000000000000000E039000001000000CC380000000000000000000001000000E4390000010000000C3A000012034D005300460054003100300030000100000022
:403A40002800000000010400010000000000000000014359555342000000303030303100000000000000000043000000F8B500BFF8BC08BC9E4670474D000000A1070000E9
:403A8000F8B500BFF8BC08BC9E46704729000000A03A0000C880FF1FE800000028020000000000000A000000435333303120323031360A00000000000000000000000000E5
:403AC00000000000000000000000000000000000000000000000000000000000000000000000000000000000FFFF000000C2010000000800C201000000080000A120000071
:403B0000000002000000FFFF807F0000030000000087930360EA00003C0000000000307500000000000000000000000000000000000000000000000000000000000000003B
:403B4000683A0000000000000000000000000000000000000000000000000000000000000000000000000000000000000000000000000000000000000000000000000000A3
:403B80004881FF1F0000000000000000000000000000000000000000000000000000000000000000000000000000000000000000000000000000000000000000000000001E
:403BC00000000000000000000000000000000000000000000000000000000000000000000000000000000000000000000000000000000000000000000000000000000000C5
:403C00000000000000000000000000000000000000000000000000000000000000000000000000000000000000000000000000000000000000000000000000000000000084
:403C40000000000000000000000000000000000000000000000000000000000000000000000000000000000000000000000000000000000000000000000000000000000044
:403C80000000000000000000000000000000000000000000000000000000000000000000000000000000000000000000000000000000000000000000000000000000000004
:020000040003F7
:0200000480007A
:4000000001450040064F00400A520040015B004005640040036500404E000140370101405002014048030140400401404E0501405706014056070140390801404F09014085
:40004000330A0140520B01405A0C0140430D0140480E01403C0F01405E140140461501402C1601404B170140401801404A1901401A1A01404D1B0140124001401B41014009
:40008000154201400F43014004440140104501400746014009470140184801400B490140164C0140044D014005500140035101407E0201200A1B0D2016361940223600A0B1
:4000C0000160089409301108182019206004610C7C402F84840F876F88728A0F8F38866F870F8A07000C01060202042006100C070F01110C12401408160118101AA01C0BE2
:400100001D0C1E04200C2201250A260F28102A202C102E202F103080310E3230331034403501360F39023A085608580459045B045D905F0180078530860887C9881089FD7B
:400140008AA08B028C018D738E02901091CF9220933094079A079C109D9E9E609F60A204A404A70FA821A994AA12AB60B040B230B3FFB40FB680BA08BF04D804D904DF01AA
:4001800000800108028005400680072808820A180E460F20100111041208130215141702182019481A081B011E562080210122082308272028012B112D102E1C314032023A
:4001C00035403682370239023A403C883D043E803F20584062408108C0FDC2FFC47FCA6ACC99CE79D608D808E010E229E60401B70340047305C00724089E09840A600B10A1
:400200000CFD0D010E020FF21094126013071430157716C919C11B12230828CF2A302E0F310F33F036FF3E40580459045B045F018102830484288502865087048803898037
:400240008B108C388DC08F2090609218940695049702987899B09B409C059DC09F10A050A228A301A406A502A70CA818AA60ABF0AD70B101B207B306B478B508B7F0B80884
:40028000BB08D608D804D904DB04DD90DF010088030804800528070809040A840B010D040F80100412801308176019081A041B381F80202021442248234625042601276066
:4002C00028142A822F803140320833203528360139A03A013B043C203D083F81588060026D106E808050834189109020921099409A889C029F02A040A108A280A404A710B9
:40030000A880AB10B040C0E7C23FC4CECA8FCCEECEFFD608D808E202E604E890EC20010402400431060C0702080D09100A300B090C3D0D041240150816021730181C190137
:400340001D081F10210122802429250826142710281429012A292C402D01303C310332803304340335183640372039083B203E40540F580459045B045F0185968768890EB7
:400380008BF08D7F91A3935C9DC59F3AA301A5FEA701B5FFBF10D804D904DC01DF0101200352051008200A400B200C880F0812881348140A1620188019041B5220082110D9
:4003C00022C023902404280429452C042E122F2031083240332035413702380439A03B013C883E10460247C059825A246420650881028320848285048A40902091089210D4
:40040000934094809520960299489A089B229C849E029F08A040A108A249A320A404AC10AE01B601C04FC2EEC4EFCACFCC9ECE7FD60FE228E402E609EA10047F080E0AF0CD
:400440000CFE0E01149616681A0124C5263A28A32A5C34FF3E104051410249FF4AFF4BFF4DA04F015018580459045A045C105F016040628064406540668068406A806C40DF
:400480006D206E808004850887048B0C8C018D02950C9B039C019E06A401B001B101B304B404B508B602B702B802BE11BF54C054C102C532C6C4C70EC81FC9FFCAFFCBFF42
:4004C000CDAFCE07CF01D018D40FD804D904DA04DB04DF05E040E280E440E540E680E840EA80EC40ED20EE8000800140038004A0052807010B010C140D0410201738190159
:400500001A041B821F10206022102302281029012A022B102C882D04302032083408351038403A083B103E203F0842084302460A48204A124B014E024F80510852A05820C6
:400540005A845B025C205E206108622079408410858090A09108931095849662972199189A289B209C889DA09F18A0C0A201A350A408A704AC40AE24B510C0E9C261C464CA
:40058000CAE0CC66CE6ED035D218D60FD806DE08E020EA08050108010D0111011204150116031A041B0221022F04320433013402350636013E043F044034410642054402B5
:4005C000450E460C480549FF4AFF4BFF4C624DA04EF04F41500C56025711580C59045A045B045C915D335F016640670269106A306B106D106E106F12D608D804D904DB04BF
:40060000DC11DD90DF0100080201032005100A010B100C800D020E210F08101411011D101F8424102610280429012A012B202F8130903611370839803B103C803E0444407E
:40064000452047084E054F0856805A0C5B505C10600A68026C186D146F01762A7F02892090409206942095159601971898409B089C1E9D219EAA9F01A044A122A209A40ACF
:40068000A510A782AC04B312B508C045C275C40ECA97CCECCE5CD0E0D230D62CD80CDE10E020EA40032C071009030B040F10114113821503170819101F1023C325102B826B
:4006C0002F41310F35E037103B023F5040314102450B46E0470C481949FF4AFF4BFF4EF04F44500C54015604580459045A045B045C315D335F0166C06A406B02D401D804AC
:40070000D904DB0CDC11DD10DF01000802020A010B100E010F18101411011415150121212260282A2B402C142D09308A3210331034013501360238A039023A043C083E01B1
:400740003F18402041404310460447204B045204531059045A805B225E8060807A407B807F0280808404860187808A018B0890C0918092249514972C986099049B089C0AF8
:400780009D209EAE9F01A0C0A102A209A348A402A510A620B608C005C2E5C4FECAEFCC8FCEEFD00ED61FD801DE10EA10EE40003C010402C104300567081009060C200D074C
:4007C0000F60100412081308160C171018FF19211C7C1E821F21210622C3236124CF25022630280829612B062C042D082F1030B03140327033183507363F372039023AA243
:400800003B20580459045C335F01830885D387048D8A8F14940199D39B0C9D209F45A002A503A704A802B002B130B201B3C0B50FB802B90ABB20BE05BF04C003C504C9FFF6
:40084000CA07CBFFCC40CD20CEF0CF05D008D804D904DA04DC30DD03DF01E040E1A8E240E3200501062A082009200B200C020D080E0511201301144A1708184019041C808E
:400880001D011E271F0820182121250A270A2A042C062E0930803120344A3620388439023C803E26401048105080514058045B0882048F01908492209516970C98409C0AE1
:4008C0009D209E809F03A20CA340A496A610B320B640C0F0C2F4C4FACAF2CCFCCEFBD002E080E202E810EC2000030109020C03D004100514066009100A800BAC0CC00DDC16
:400900000E300F22100412011408160217031810190C1AE01B711EC01F202230240F25102740280F2C052E0A30F0331F35E0360F3A023B205608580459045B045C335D90CD
:400940005F0183018401870288088C0194049B04A401A802AF04B004B208B302B402B501B601B704BE15BF40D418D604D804D904DB04DC03DD30DF0100680214038004101D
:4009800006200701081A0B010C400D080E02108211141504172018C01BC01C801E0A1F08200421082210251026882A042D102EA030903108321035803690388039023A1037
:4009C0003B053F0A59205A805F02630A658067888110844087408B088C10C0EFC22FC46FCA12CC2ECECFD68CD8BCE012E220E604040307010C020D010E011003110115019F
:400A0000180319011E031F0122032A032D013001330134024034410549FF4AFF4BFF4DA04F015018580459045A045C115F016040628064406540668068406A806C406D208B
:400A40006E80810283018B048F08900296089E019F04A101A502A904AD02AE06B004B102B208B304B402B508B601B701B902BE10BF45C064C105C520C6C4C73EC83EC9FF1D
:400A8000CAFFCBFFCDAFCE07CF01D018D280D804D904DA04DB04DF01E040E280E440E540E680E840EA80EC40ED20EE8000400104088209200E800F221088160219111E8851
:400AC0001F482020250A2618270228022C022D082F48308831203201374038483A043D803F22410A45024A034E0A4F0254025540561A7740808C841089048A018C02904076
:400B0000950499089C029D119E1E9F02A080A120A201A310A408A540A614A701B448B501C005C2BBC48ACAF8CC1FCEBAD083D238E008E201E601EE0201010F0411081302EF
:400B4000190E1F0A2101310133083502370439023F54540F580459045B045C015F05850189188B048D168F08971E99189B029F21A340A50EA910AB02B140B320B51EB7011C
:400B8000BF40D280D40FD804D904DB04DC01DF0102040604080A09200C880D200F0810881104140A1504211422492308266027A0282029282B402E023004328033103611E9
:400BC0003780388039283D803F0259085B615D105E885F02661872407C20813082208340851087018C808F409080950496C2980499289B119C889F08A080A281A310A40805
:400C0000A608A704A820A940C042C2EEC4EECA87CCBECE9ED6FFD860DE20E010E284E484E610EC01EE060001020208031003140318011A021E0323012C022E0132013301E7
:400C400034025608580459045B045C115D905F01808282018301850186208A408B048C028D028E8191809208934094939520971099089A049D049E83A140A210A380A48B6D
:400C8000A702A8A3AB08AC87AD10AF20B001B202B3FFB480B67CB880B902BE40BF05D804D904DC01DF010020014102200410050109040A010B440D010E010F281054120156
:400CC000158018021AA91B401E041F0820202202241025042604281629012B942C40306A3220334035013644389039023A093B553FA95C806702780279017A408104824059
:400D000086048A048E0A904095819621971298809C149D01A208A510A702A880AA10B750C05FC2FFC48FCA8FCCDFCEFFD610D810E002E280E485E650EE0217011E01260460
:400D400027022E02300231023204340137015602573D580459045B0C5C115D105F01D203D302D804D904DB04DC11DD10DF010080028003100412064009840A440E400F28FF
:400D800010221240158219111A641B1C208021412280234029112A082E042F0830083290331035013680380239043B413D0C3F41400241405A106040682A6B406D206E1063
:400DC0006F027040718072087B028140830889018F109052948095829C029D019E089F40A104A42AA510A716AF08B540B780C05DC27FC49DCA67CC9ECEDBD604D801DE0843
:400E0000E008E230EA40EC4013021680314032023402364038023B803E80800187408A018D04C430CCF0CE70E210E620000204083240330437205D046008660275407704FA
:400E400082808602920294089B029C029D44A441A642B041B404C030CC70D680D8C0E240E620132052805440824085408A209202950496809B029C089D449E029F20A28034
:400E8000A440A640B402C440D460E69019041C8062028920920295049B029C089D049E02A220A440A640C630D840784083208602DC010120090423805202840888408F80AD
:400EC0009C40A202A720C002C208C802D401E001E60899209C80A104A408A720B480EA0808800B400C0899209C80A104A408A720C20E0120074023106B046F0488088B1052
:400F00008E028F449202950499049C089D20A220A602AA02AB02AE40C060C840DAC0EC80EE6052205A02650492029904A220AD04D420D640D880EE401F203708570858084E
:400F40005C04620267808008830886028B08A720AF40B524C601CC01D402D603D803E401EA08EE0287409780B404EC02100311011A031C021D0100AB01FF100A0B01000051
:400F800000000000010103000A010901030C0C0000E0E000001C1C001C0000004000060000000000C0000000000B0B0000F4F4000800140A0A00080000000000007B7B00B6
:400FC00038000000000100000000000000000000000000000000000000000000000000000000000000000000000000000000000000000000000000000000000000000000B8
:4010000000000000000000000000000000000000000000000000000000000000000000000000000000000000000000000000000000000000000000000000000000000000B0
:401040000000000000000000000000000000000000000000000000000000000000000000000000000000000000000000000000000000000000000000000000000000000070
:401080000000000000000000000000000000000000000000000000000000000000000000000000000000000000000000000000000000000000000000000000000000000030
:4010C00000000000000000000000000000000000000000000000000000000000000000000000000000000000000000000000000000000000000000000000000000000000F0
:0200000490006A
:0400000000004005B7
:0200000490105A
:04000000BC90ACAF55
:0200000490303A
:020000008AFF75
:0200000490402A
:4000000000000000000000000000000000000000000000000000000000000000000000000000000000000000000000000000000000000000000000000000000000000000C0
:400040000000000000000000000000000000000000000000000000000000000000000000000000000000000000000000000000000000000000000000000000000000000080
:400080000000000000000000000000000000000000000000000000000000000000000000000000000000000000000000000000000000000000000000000000000000000040
:4000C0000000000000000000000000000000000000000000000000000000000000000000000000000000000000000000000000000000000000000000000000000000000000
:0200000490501A
:0C00000000012E16106900012E309B68D4
:00000001FF