:400000000080002011000000F9050000F905000080B500AF024A034B1B68136000F0F6FABC760040FA46004010B5054C237833B9044B13B10448AFF300800123237010BD2B
:400040005081FF1F0000000058170000084B10B51BB108490848AFF300800848036803B910BD074B002BFBD0BDE81040184700BF000000005481FF1F58170000C880FF1F14
:400080000000000080B582B000AF0023FB7197F907309BB2184600F02DFC0346BB80BB8840F69812934209D9012001F099FA012001F0E2FA002001F0C1FA08E0002001F05A
:4000C0008FFA002001F0D8FA012001F0B7FA00BF0837BD4680BD00BF80B500AF62B600F09DFC0D4801F06AF900F0E6FB00F0FCFB002001F075FAFF2001F030F901F09AF8B2
:4001000001F0AAF9962001F039F9A22001F048FA002001F083FAFEE78500000080B582B000AF786039603A680021786801F00BFB00BF0837BD4680BD80B584B000AFF86096
:40014000B9607A607A68B968F86801F0F1FA00BF1037BD4680BD00BF80B483B000AF0346FB71FEE780B487B000AF7860396000233B6100237B6127E07B699B007A68134490
:400180001B68BB60BB68FB73BB6823F0FF03BB6014E03B695B003A6813441B781A46BB68134419463B695B003A6813445B780B703B6901333B61FB7B013BFB73FB7B002B8A
:4001C000E7D17B6901337B617B692A2BD4D900BF1C37BD4680BC704780B582B000AF404B04221A803F4B18221A703F4B3A221A803E4B18221A703E4B3B221A803D4B1822A7
:400200001A703D4B81221A803C4B18221A703C4B00221A803B4B1B221A703B4B40F2E7321A803A4B1B221A70394B06221A70394B52221A70384B394A1278D2B21A70384B04
:4002400040F619121A80374B41F251221A800023FB7019237B6014E0FB785B00DAB2324B1B78DBB203F00103DBB21343DBB203F00303FB704FF4F07001F01EFA7B68013B9B
:400280007B607B68002B02D0FB78032BE4D17B68002B02D10320FFF75FFF244B4FF480721A80224B07221A70214B00221A70214B48221A701D4B00221A701F4B00221A70D5
:4002C0001E4B02221A701E4A1D4B1B78DBB243F03F03DBB2137000BF0837BD4680BD00BF80400040824000408440004086400040884000408A4000408C4000408E4000403D
:40030000904000409240004094400040964000400043004000420040A14600400F010049224200402042004025420040044000400640004008400040094000400140004063
:40034000A243004080B582B000AF244B1B78FB71234B1B78BB71234B1B787B71224AFB7903F00703DBB21370204AFB791B09DBB213701B4ABB7943F00303DBB21370194A76
:400380007B7943F00303DBB21370194BE0221A70184BF4221A70184B40221A70174B40221A70174BE0221A70164B4F221A70164B20221A70154B40221A700A2000F026FF6E
:4003C000084A7B791370064ABB791370104B44221A7000BF0837BD4680BD00BFCF010049F8460040F94600406E5800406F5800400D5100401D510040095900400B59004030
:40040000005B0040285B00402B5B0040585B00407658004080B586B000AF72B6584B61221A70FFF7D9FE564B01221A70554A554B1B78DBB243F00403DBB213700023FB754E
:4004400013E0FA7D13465B0013445B004E4A13443B613B691A683B699B889BB219461046FFF75CFEFB7D0133FB75FB7D062BE8D90023FB751CE0FA7D13469B0013445B00B0
:40048000424A1344FB60FB681B68BB60FB685B687B60FB681A7A5B7A1B0213437B807B881A467968B868FFF747FEFB7D0133FB75FB7D002BDFD036494FF09040FFF752FEE1
:4004C00004213448FFF72AFE042233493348FFF733FE334B334A1A60334B344A1A60344A334B1B78DBB243F00203DBB21370314A304B1B78DBB243F00203DBB213702E4AD4
:400500002D4B1B78DBB243F04003DBB213702B4A2A4B1B78DBB243F01003DBB21370082227492848FFF708FE082227492748FFF703FE0A2226492748FFF7FEFD08222649A3
:400540002648FFF7F9FD0A2225492648FFF7F4FD082225492548FFF7EFFD254A244B1B78DBB243F00803DBB21370FFF7EBFE0E2211492048FFF7E0FD00BF1837BD4680BD0D
:4005800000480040E84600405C17000088170000AC000048007600400810004808760040580401400404004458140140040404840350014013500140A0430040C2430040A5
:4005C000D00F004802510040D80F0048C2510040E00F0048F0510040EC0F004812510040F40F004820510040001000483251004022430040B043004080B500AF01F06CF8F9
:4006000003461B680C2B00D1FEE7FEE780B586B000AF224B7B61224B3B61204B7B6135E03B691B68FB603B695B68BB603B699B683B6000237B600CE0FB681A68BB681A60A2
:40064000BB680433BB60FB680433FB607B6804337B607A683B689A42EED13B69DB683B6000237B6008E0BB6800221A60BB680433BB607B6804337B607A683B689A42F2D146
:400680003B6910333B617B69013B7B617B69002BC6D101F027F8FFF71FFDFEE701000000B817000080B582B000AF194B194A1A60194A194B1B6843F40073136000237B6082
:4006C0000FE07B68032B04D8144A7B6852F8233000E0134B13497A6841F822307B6801337B607B682F2BECD90F4B1B78DAB20F4B1A700F4B0B4A1A60FFF78CFE00F05EFBF6
:400700000C4B00221A6000BF0837BD4680BD00BF0CED00E00004FA0514ED00E000000000F90500000080FF1FBC760040C480FF1F08ED00E0C080FF1F80B500AF41F6FF73DC
:400740004FF480420121022000F0B0FA03461A460A4B1A7041F6FF7341F6FF720121102000F0D6FA03461A46054B1A70054800F001FB002000F010FB00BF80BD7081FF1FC9
:400780007181FF1F2D09000080B582B000AF414B1B78184600F086FB3F4B1B78184600F081FB3E4B1B78FF2B05D100F087FC03461A463A4B1A70394B1878384B1A7806236F
:4007C000102100F0A9FC354B1B78354A92B245F6A231184600F0E0FC2E4B1A782F4B1B781946104600F0FCFB2E4B1B78FF2B05D100F064FC03461A462A4B1A70294B187869
:40080000284B1A780723102100F086FC254B1B78234A91B2244A92B2184600F0BDFC1E4B1A78204B1B781946104600F0D9FB194B1B780121184600F0EFFA174B1B780121A1
:40084000184600F0E9FA00F03FFF0346FB71174A164B1B78DBB243F02003DBB21370FB79184600F035FF124A114B1B78DBB243F00103DBB213700E4A0D4B1B78DBB243F004
:400880000203DBB213700B4B01221A6000BF0837BD4680BD7081FF1F7181FF1FCC80FF1F7481FF1FCD80FF1F8881FF1F986400407764004080E200E080B500AF084B1B6871
:4008C000002B04D1FFF738FF054B01221A6000F0E9F8FFF759FF034B1B7800BF80BD00BF6C81FF1F6B64004080B500AF00F08EF900BF80BD80B483B000AF0346FB80FB8855
:40090000C3F10703074A32F913309AB2064B1B881BB29BB2D31A9BB21BB218460C37BD4680BC70478881FF1F9A81FF1F80B400AF00BFBD4680BC704780B500AF214A214B8F
:400940001B78DBB203F00103DBB213701E4A1E4B1B78DBB223F00303DBB213701B4A1B4B1B78DBB223F03003DBB21370174A174B1B78DBB243F03003DBB21370134A134BE1
:400980001B78DBB223F00F03DBB213700F4A0F4B1B78DBB243F00F03DBB213700C4A0C4B1B78DBB243F00103DBB21370632000F057F8632000F066F8002000F041F800BF0B
:4009C00080BD00BF244F0040264F00402F4F0040254F004080B400AF0D4A0D4B1B78DBB243F00803DBB213700A4A0A4B1B78DBB243F00803DBB21370074A074B1B78DBB247
:400A000043F00103DBB2137000BFBD4680BC7047A3430040B3430040244F004080B500AF064B1B78002B04D1FFF786FF034B01221A70FFF7CFFF00BF80BD00BF8481FF1FCB
:400A400080B483B000AF0346FB71044AFB79137000BF0C37BD4680BC704700BF274F004080B485B000AF0346FB71FB79FB81044AFB89138000BF1437BD4680BC704700BF18
:400A8000284F004080B483B000AF0346FB71044BFA7992B21A8000BF0C37BD4680BC70472A4F004080B500AF064B1B78002B04D100F00AF8034B01221A7000F01BF800BFEC
:400AC00080BD00BF8581FF1F80B500AF074A074B1B78DBB243F00603DBB213700C2000F06BF8034B00221A8000BF80BD09590040A081FF1F80B582B000AF00F0E5FD03464C
:400B0000FB71254A244B1B78DBB243F00203DBB21370224A214B1B78DBB243F00203DBB213701F4B1B78BB71BB7943F00203BB71BB7943F00103BB71194ABB791370194BED
:400B400018221A70184A184B1B78DBB243F04003DBB21370144A144B1B78DBB223F00303DBB21370114BC8221A70114B02221A70104A104B1B78DBB243F00803DBB2137043
:400B80000A2000F043FBFB79184600F0A1FD00BF0837BD4680BD00BFAB430040BB4300400B5900400E5900400D59004008590040164600402F5B004080B584B000AF0346BB
:400BC000FB71FB790A2B07D00C2B02D0082B06D008E0C223FB730BE08223FB7308E04223FB7305E0C223FB73002000F003FB00BF054AFB7B1370FB79184600F017F800BF26
:400C00001037BD4680BD00BF0A59004080B400AF054A054B1B78DBB243F00103DBB2137000BFBD4680BC70470859004080B584B000AF0346FB71FB790A2B08D00C2B02D035
:400C4000082B08D00BE04FF48053FB600DE04FF48063FB6009E04FF48073FB6005E00023FB60002000F0C6FA00BF0C4B00221A80FB6842F2107202FB03F303F6C413084AF2
:400C800082FB0312D212DB17D31A064A1360064B00221A8000BF1037BD4680BD9881FF1FAD8BDB689C81FF1F9A81FF1F90B585B002AF0446084611461A462346FB7103460B
:400CC000BB710B46BB8013467B80104B01221A700E4B1878BA79F9790023019300230093012300F09BF9094B1B787A88B988184600F03AF9054B1B780221184600F002F943
:400D0000024B1B7818460C37BD4690BDCE80FF1F90B585B002AF0446084611461A462346FB710346BB710B46BB8013467B80104B00221A700E4B1878BA79F9790023019386
:400D400000230093002300F069F9094B1B787A88B988184600F008F9054B1B780221184600F0D0F8024B1B7818460C37BD4690BDCF80FF1F80B485B000AF7860054B1B68B2
:400D8000FB60FB6840337A681A6000BF1437BD4680BC704708ED00E080B483B000AF0346FB71054AFB795B01DBB2137000BF0C37BD4680BC704700BF00E400E080B483B0F5
:400DC00000AF134B7F221A70124B80221A707F23FB710CE0FB79DB0003F1804303F5F043FA79013AD2B21A70FB79013BFB71FB79002BEFD1FB79DB0003F1804303F5F0439F
:400E000000221A7000BF0C37BD4680BC704700BFD180FF1FD080FF1F80B485B000AF03460A46FB711346BB710123FB60FB79172B2FD8BB79002B0ED0FB791A01184B13440E
:400E4000FA791101164A0A441278D2B242F02002D2B21A700DE0FB791A01114B1344FA7911010F4A0A441278D2B222F02002D2B21A70FB791A010A4B1344FA791101084A12
:400E80000A441278D2B242F00102D2B21A700023FB60FB6818461437BD4680BC704700BF1070004080B485B000AF0346FB710123FB60FB79172B1DD8FB791A01104B13445C
:400EC000FA7911010E4A0A441279D2B242F00402D2B21A71FB791A01094B1344FA791101074A0A441278D2B242F00102D2B21A700023FB60FB6818461437BD4680BC704742
:400F00001070004080B485B000AF03460A46FB711346BB710123FB60FB79172B1BD8FB791A01104B13441B78DBB223F00E03FB72FB791A010B4B1344BA795200D2B252B2EC
:400F400002F00E0251B297F90B200A4352B2D2B21A700023FB60FB6818461437BD4680BC704700BF1070004080B485B000AF0346FB710B46BB8013467B800123FB60BB88E4
:400F800041F6FF72934202D14FF40053BB807B8841F6FF72934202D14FF400537B80FB79172B17D8FB79DB0003F1804303F5EC430433BB60BB68BA881A80FB79DB0003F1C6
:400FC000804303F5EC430633BB60BB687A881A800023FB60FB6818461437BD4680BC704780B485B000AF03460A46FB711346BB710123FB60FB79172B07D8FB791A01064BDE
:401000001344BA795A720023FB60FB6818461437BD4680BC704700BF1070004090B484B000AF0446084611461A462346FB710346BB710B467B7113463B710123FB60FB7966
:40104000172B34D8FB79DB0003F1804303F5EC43BA7902F07F02D1B27A79D201D2B20A43D2B21A70FB79DB0003F1804303F5EC433A7E1201D1B23A7902F00F02D2B20A4325
:40108000D2B25A70FB79DB0003F1804303F5EC433A7F02F00F02D2B29A70FB79DB0003F1804303F5EC430022DA700023FB60FB6818461037BD4690BC704700BF80B582B020
:4010C00000AFFF23FB7100F0FFFA0346BB71104B1B78182B12D90F4B1B78FB710C4B1B78013BDAB20A4B1A70FB79DB0003F1804303F5F0431B78DAB2064B1A70BB79184692
:4011000000F0E6FAFB7918460837BD4680BD00BFD080FF1FD180FF1F90B484B000AF0446084611461A462346FB710346BB800B46BB711346FB700123FB6097F90730002B71
:4011400023DBBB8823F47F6323F00F039BB2002B1BD1FB79DB0003F1804303F5F043BB60BB68BA881A80FB79DB0003F1804303F5F043BA799A70FB79DB0003F1804303F5F5
:40118000F043FA78DA700023FB60FB6818461037BD4690BC704700BF80B485B000AF0346FB710B46BB8013467B800123FB6097F90730002B17DBFB79DB0003F1804303F5E7
:4011C000F0430433BB60BB68BA881A80FB79DB0003F1804303F5F0430633BB60BB687A881A800023FB60FB6818461437BD4680BC704700BF80B483B000AF0346FB7101BE5E
:4012000000BF0C37BD4680BC704700BF80B582B000AF0346FB80FB88054A127802FB03F3184600F049FA00BF0837BD4680BD00BFE080FF1F80B500AF064B1B78002B04D1FA
:4012400000F00AF8034B01221A7000F063F800BF80BD00BF8681FF1F80B582B000AF284A274B1B78DBB243F00203DBB21370254B1B78DBB223F07003FB71224AFB7943F05F
:401280001003DBB21370204A1F4B1B78DBB223F03003DBB213701C4A1B4B1B78DBB243F03003DBB21370184A174B1B78DBB223F00F03DBB21370144A134B1B78DBB243F037
:4012C0000F03DBB21370FF2000F048F8002000F055F8002000F062F80C4A0C4B1B78DBB243F00103DBB21370094A094B1B78DBB243F00103DBB2137000BF0837BD4680BD56
:40130000004F0040024F00400B4F0040A3430040014F004080B400AF0D4A0D4B1B78DBB243F00103DBB213700A4A0A4B1B78DBB243F00103DBB21370074A074B1B78DBB271
:4013400043F00103DBB2137000BFBD4680BC7047A3430040B3430040004F004080B483B000AF0346FB71044BFA7992B21A8000BF0C37BD4680BC7047044F004080B483B029
:4013800000AF0346FB71044BFA7992B21A8000BF0C37BD4680BC7047064F004080B483B000AF0346FB71044AFB79137000BF0C37BD4680BC704700BF034F004080B582B0DC
:4013C00000AF786000F03CF8786800F009F8072000F018F800F028F800BF0837BD4680BD80B485B000AF7860054B1B68FB60FB685C337A681A6000BF1437BD4680BC704790
:4014000008ED00E080B483B000AF0346FB71054AFB795B01DBB2137000BF0C37BD4680BC704700BF07E400E080B400AF034B80221A6000BFBD4680BC704700BF00E100E0D9
:4014400080B400AF034B80221A6000BFBD4680BC704700BF80E100E080B500AF064B1B78002B04D100F00AF8034B01221A7000F063F800BF80BD00BF8781FF1F80B582B022
:4014800000AF284A274B1B78DBB243F00203DBB21370254B1B78DBB223F07003FB71224AFB7943F01003DBB21370204A1F4B1B78DBB223F03003DBB213701C4A1B4B1B78D0
:4014C000DBB243F03003DBB21370184A174B1B78DBB223F00F03DBB21370144A134B1B78DBB243F00F03DBB21370FF2000F048F8002000F055F8002000F062F80C4A0C4BDC
:401500001B78DBB243F00203DBB21370094A094B1B78DBB243F00103DBB2137000BF0837BD4680BD0C4F00400E4F0040174F0040A34300400D4F004080B400AF0D4A0D4BC5
:401540001B78DBB243F00203DBB213700A4A0A4B1B78DBB243F00203DBB21370074A074B1B78DBB243F00103DBB2137000BFBD4680BC7047A3430040B34300400C4F00403C
:4015800080B483B000AF0346FB71044BFA7992B21A8000BF0C37BD4680BC7047104F004080B483B000AF0346FB71044BFA7992B21A8000BF0C37BD4680BC7047124F004025
:4015C00080B483B000AF0346FB71044AFB79137000BF0C37BD4680BC704700BF0F4F004080B485B000AF0346FB710B4B1B78DBB223F00203FB730849FB795B00DBB203F01D
:401600000203DAB2FB7B1343DBB20B7000BF1437BD4680BC704700BF2051004080B483B000AF0346FB71044AFB79137000BF0C37BD4680BC704700BF7D64004080B485B084
:4016400000AF0346FB710B4B1B78DBB223F00403FB730849FB799B00DBB203F00403DAB2FB7B1343DBB20B7000BF1437BD4680BC704700BF0051004080B485B000AF034610
:40168000FB710B4B1B78DBB223F00803FB730849FB79DB00DBB203F00803DAB2FB7B1343DBB20B7000BF1437BD4680BC704700BF00510040000000000230800803D000BF95
:4016C00001380046FCD17047EFF3108072B6704780F31088704700BF014B1868704700BF4881FF1F0E4B70B51E460E4C0025E41AA410A54204D056F8253098470135F8E787
:4017000000F048F8084B094C1E46E41AA4100025A54204D056F8253098470135F8E770BDA0170000A0170000A0170000A817000010B5431E0A44914204D011F8014B03F8C8
:40174000014FF8E710BD03460244934202D003F8011BFAE77047000000000000004F0040300040510040300000000140001000140140000800400140000A004C0140000200
:40178000105001401000000000500140C00F004810004300F8B500BFF8BC08BC9E4670474D000000A5060000F8B500BFF8BC08BC9E46704729000000C8170000C880FF1F19
:4017C000880000005800000000000000FFFFFFFF807F0000030000000087930360EA00003C00000000003075000000000000000000000000000000000000000000000000C3
:4018000000000000000000009217000000000000000000000000000000000000000000000000000000000000000000000000000000000000000000000000000000000000FF
:401840000000000000000000E880FF1F00000000000000000000000000000000000000000000000000000000000000000000000000000000000000000000000000000000E2
:401880000000000000000000000000000000000000000000000000000000000000000000000000000000000000000000000000000000000000000000000000000000000028
:4018C00000000000000000000000000000000000000000000000000000000000000000000000000000000000000000000000000000000000000000000000000000000000E8
:4019000000000000000000000000000000000000000000000000000000000000000000000000000000000000000000000000000000000000000000000000000000000000A7
:401940000000000000000000000000000000000000000000000000000000000000000000000000000000000000000000000000000000000000000000000000000000000067
:020000040003F7
:0200000480007A
:4000000001450040084F00400A520040015B004005640040036500403B000140380101403D0201404E0301403A0401404C0501406E06014057070140230801404B090140AC
:40004000550A01404F0B01405F0C0140550D0140380E0140370F0140491401405B15014041160140461701403C1801404E190140361A01404C1B01400E4001401E410140BE
:4000800014420140194301400B4501400946014007470140104801400F490140154C0140094D014005500140035101407E0201200A270D20161B1950224B25402E4B00C022
:4000C00001A0089409501108182019286004611C7C402F848338846F850F88078F72846F870F890F000F010803010403060C081009200A200B1F0C0A0E050F80100C110CDA
:400100001203130115071640181019101A201B201C051D0C1E0A1F02210B2280230424072740282029102A102B202C102D102E202F20303031403240333034803580360FD4
:40014000370F3A023B085608580459045B045D905F01D804D904DC11DF010080021003880520070A08080A800B060E8C0F201058120214201608188019141A401BC820407A
:40018000210422C22314280229142B402E0A328533203580364C370238403A103B123C083D023F0259405B1060086301850189808A088C688E02C0CFC27FC46FCACFCCDFEC
:4001C000CECDD60CD80CE208E60203041504190123042F033301350237043F4052805804590C5B045C115F018110836085088604870189208A018B108C018D108F20920206
:4002000095109720990C9B029D0C9E109F01A10BA210A304A408A780A802A907AE01AF0FB006B10FB208B340B401B530B610B780BB20BE54D418D604D804D904DB04DC09A0
:40024000DD30DF010064058006010708081109400A080E040F22100A110112181420160819601B06208021582201265828042A442B402C012F42310832A0361439AA3E01C5
:40028000580459015A086140634474027C8080088312884089408B608C028D01910992449310960A970298209A049B089C529D809E089F12A280A341A440A720A901AA0407
:4002C000AB11AC04AD60B208C0C7C2E9C46FCA9FCC6ECE8FD601D80DDE10E22AE609EE030302050809020A040F10110214031608170118011C081D02200323042B082D021E
:400300003004311032083306340135083602370138A03E143F10540F580459045B045F0581088301851089078D0C8F01910C930298019B0F9E01A001A90BAB04AF30B11088
:40034000B201B320B70FBE04BF01D40FD804D904DB04DF010020081009090A4C0B010C010E090F8010801680184019081A011B101E2020282101230125042604274128045D
:4003800029912F06300131083280371139843B123DAA411043104D804E0159185B425D015EA461046220781879017B508484850491A09242931094449502960997829920F6
:4003C0009C829E59A2C8A344A410A604AB10AE21AF04C002C2C7C418CA3DCCABCEFFD6FFD806DE04E220E440E602EA020608070F09730D9E0F60105411CF12A0133014F7FD
:400400001594176019FD1A071B021CA11E5220C02234247728312AC22D302FC932F033FF340F3F044062410449FF4AFF4BFF4DA04F015018580459045A045B045F016040F9
:40044000628064406540668068406A806C406D206E808096826889948A018B608CFE8E018F0F919E9360940E957396F0987F9CC59DCF9E3A9F30A0A3A1FDA25CA302AD302A
:40048000AFC9B0FFB5FFBE01BF10C062C104C50EC6C2C743C83DC9FFCAFFCBFFCDAFCE07CF01D018D203D302D804D904DA04DB04DD10DF01E040E280E440E540E680E840D8
:4004C000EA80EC40ED20EE800020024107100A0A0B100D800E64128015201620170119011E241F04230427102A412B402E4032853618370138403A903B903DA03E244048FC
:400500004408468049244D2050805108522053026640670268046B026C0679207A0880828302850188108A0191209242931094049608978A980899209B019C829D059EC8A0
:40054000A010A280A340A480A558A620A702AA01AB04AC04AF02B080B210B608C02BC2F7C478CA19CCEBCE7CD0A5D224E210E401E60AEA05EC20020806010A040B020C02A0
:400580000F0110401280142016101A021C0420802240240128082C102E2030FF310237013A083E015602573E580459045B0E5C135D105F01D804D904DC11DF0100140202CE
:4005C00004140509060909200B020D200EA21002110117551E401F042642274029012A202E282F013120320235083602381439013D513F045D0460086120630467806D5033
:400600006E266F1176017704780279017A407E2082208402860488028A218E40938094349601974A984199049C1AA010A302A620A804AA10AC01AE10B104B580C0F7C2F3F2
:40064000C4F9CA75CCC5CEF7D640D880DE40E210ECC0004C01080211032204200C500D150E0C0F2A1203141C164217C0180919031A101B3C1D041F1120102480253F27405A
:400680002814293F2B80301F322033F034C0350F38203B083E0440324101450C46E0470B481949FF4AFF4BFF4EF04F44500C580459045A045C335D035F0166C06A406B0289
:4006C00085028A01910195029608980299019D02A002A501A804A902AD04B001B101B204B302B408B602B704B880BE44BF44D401D804D904DB0EDC30DD10DF01021203401D
:4007000004200A640C100D0410A81502171019041A441E101F5220082120220824022501272029202B202D102E402F243120328835203650370539403B013F0441584340FC
:400740004810500852105D807E208001871088408A048B408F1091E29228930594109510960597029B059C0A9F20A0A0A108A2D2A320A414A501A608AD03B108B202B34091
:40078000B640C04DC26EC45ECA76CCFECE49D00ED610DE40E220E444EE021A021E022A01300232013E014024410642034405450E460C480549FF4AFF4BFF4C624DA04EF0DD
:4007C0004F41500C5608580459045A045B045C105D935F016640670269106A306B106D106E106F1286C088038A148B138C138E0C8F0890139204940A953196149746996C5E
:400800009A089B039D319E809F0EA240A615A74CAA20AC40AE80B20FB330B410B50FB6E0B74AB908BA08BBA0BE50BF04C003C604C9FFCA07CBFFCC40CD20CEF0CF05D008A6
:40084000D608D804D904DA04DB04DC33DD93DF01E040E1A8E240E3200028020208200AA40B010E020F0810221288160819841A081D021F042144225028202C102F09310C07
:400880003250340938A03C103D0141044440451147084D904F2850F0511054405A405F406001628066806701680369408010841288408B4C8D048E08910193849411951063
:4008C0009601970298019B059C4A9D809E809F20A114A251A328A403A680A710A802AE01B104B201B621C007C2CFC44FCA72CCCECEACD0E2D230D618D818E010E28AE66829
:40090000EE80580459045C115F01800481088310843C850286C188CF89048A308E0C8F10900491079208936094FF95619706987C99069A829EC39F08A008A321A410A5063D
:40094000A761A830A967AC20AD21B0B0B140B23FB320B507B670B718B820B902BA0ABB20BE10D602D711D804D904DB04DC33DD30DF01001004050706080E0A060B0E0C4220
:400980000F241091168117181C081D011E801F4425142601270628122C402D902E0430043201350136803714381039093C023EA858015A015F206E206F2176097718840405
:4009C0008740889089018B088C0C8D01C0F2C2FDC4FDCAFACCF3CEF7D620E020E240E48003040A080C030D020E041B032403250828012F083008310132043308340135047B
:400A00003602370238A03E103F444016410249FF4AFF4BFF4DA04F015018540F580459045A045B045F056040628064406540668068406A806C406D206E80C013C102C5027F
:400A4000C6C3C74EC83DC9FFCAFFCBFFCDAFCE07CF01D018D804D904DA04DC11DF01E040E280E440E540E680E840EA80EC40ED20EE8000900420050107080D010E480F1055
:400A8000102411201504160819981B01204021102214230229082A402D042E402F203030342035113680370838403A013E083F1040024140420443104422471049104C2043
:400AC000544255285641581059405A085B025DC061287804800285508B108C048E848F01903091829204940495409620971299019A08A110A320A701A810A924AA08B120B1
:400B0000B240B402C053C270C466CA5ACCD4CE69D07CD204D60FD806DE02E006E402E608E808EA04EC20EE010A010CA30DD10E5C0F08109611D11268130414FE157C16015F
:400B4000180E19AD1AF01B101CC51E3A2302247F250127042F1D330335E036FF371D39203E40580459045F0187088B808F80930794039537980199049A029D609F04A157E2
:400B8000A561A702A901AB02AD80AE03B10FB370B401B602B780B908BE50BF40D280D40FD804D904DB04DC01DF0101280322041007010A240B020C200D980E6010401148E5
:400BC000131014401502170819901F40204021402205241025D0270828102A102B412C202E402F40312032853610370938103B443D80580159905B08734081018302840103
:400C0000850889089122924493049444960898109A109B019C029E48A290A340A5D0B004B404C0C7C2F7C42FCADFCCEFCE1ED60FE20CE401EE020004030106010708080443
:400C400011021314140415021704180419041B021E04200426022D022E042F0430013101331034023506360437083B205608580459045B045C015D905F01800185038801FB
:400C80008903920193039401980199039E019F03AB03AD01AE01AF02B102B401B501D401D604D804D904DB04DC11DD30DF0100100340041005010710080A09200B020D247C
:400CC0000E01100214021680170419201C041D011F412211242025012628270928022A202F023121334036283701381439083C203E103F0545404740584159045A105C8C4B
:400D00005F10634067058080810482108520874088088A019244943496899742984399049A219B549D01A012A201A302A520B010B104C07AC2EFC4B1CA1CCCEDCEC6D63F65
:400D4000D831E280E406E830EE020103110315031903230329032D012F0233023701580459045C115F018008822083028501862089028A018E028F0291029210942497028E
:400D80009A089B019E049F08A020A304A422A502A821A902AC20B102B304B420B508B61FB701B880BE40BF40D608D804D904DB04DC11DD90DF010081040105490601070445
:400DC000080A09200A010C400D080E461108140A16AA17081C081E011F8022442410252E2680270828082A802B802C402E283129354937103A023C903D803E823F045F4071
:400E0000658083108680874489028B088D888F80924494109689980A99019A019B049E80A140A201A404A524A901AB40AF10B004B308B501C0F9C2FFC4F4CAEDCCF7CEF121
:400E4000D610D810E240E6C0EA10EC20EE8011041680302031083408364039013B203E808608C430CCF0CE70E640032006203010320237806320644065808020820284085D
:400E800085098B109104950197209A089C08A420A508A640A720AF20C030CC70D680D8C0E2D0E610EC1017805280544060086408660888108D0191049A089C509D809F8072
:400EC000A640A710AA20C480D460D8C0E82019011C8066087208831084408F10900191049A089C409D81A440A640A710A801AA80B040C630D880DC20E220E610EA80EE201F
:400F000001800B2022015301842085028740C002C208C802D401830197829C20A502AE01B310B580EA04EE0208200B400D0297809C20A502C20E03020408208080048580E6
:400F40009001910499019B109D80AE40C060C840E210E480EE405B106001650185049001910499019B10AF02B040D480D640D880E440E8101F40340155085A025F0261108B
:400F80006410811086018B0290089780AF40B404C601CC01D402D603D803E004E808700489089008A508B011DC01E404E804EC04100B11011A031C0B1D0100AB01FF100AD0
:400FC0000B010000000000000B0103000B000B01030C0C0000E0E000001C1C001C0000004000060000000000C0000000000B0B0000F4F4000800140A0A0008000000000054
:40100000007B7B0038000000000100000000000000000000000000000000000000000000000000000000000000000000000000000000000000000000000000000000000081
:401040000000000000000000000000000000000000000000000000000000000000000000000000000000000000000000000000000000000000000000000000000000000070
:401080000000000000000000000000000000000000000000000000000000000000000000000000000000000000000000000000000000000000000000000000000000000030
:4010C00000000000000000000000000000000000000000000000000000000000000000000000000000000000000000000000000000000000000000000000000000000000F0
:4011000000000000000000000000000000000000000000000000000000000000000000000000000000000000000000000000000000000000000000000000000000000000AF
:0200000490006A
:0400000000004005B7
:0200000490105A
:04000000BC90ACAF55
:0200000490303A
:02000000125597
:0200000490402A
:4000000000000000000000000000000000000000000000000000000000000000000000000000000000000000000000000000000000000000000000000000000000000000C0
:400040000000000000000000000000000000000000000000000000000000000000000000000000000000000000000000000000000000000000000000000000000000000080
:400080000000000000000000000000000000000000000000000000000000000000000000000000000000000000000000000000000000000000000000000000000000000040
:4000C0000000000000000000000000000000000000000000000000000000000000000000000000000000000000000000000000000000000000000000000000000000000000
:0200000490501A
:0C00000000012E16106900012E2422BE03
:00000001FF