:4000000000800020110000002D0C00002D0C000080B500AF024A034B1B68136000F010FEBC760040FA46004010B5054C237833B9044B13B10448AFF300800123237010BD97
:400040004886FF1F0000000084420000084B10B51BB108490848AFF300800848036803B910BD074B002BFBD0BDE81040184700BF000000004C86FF1F84420000C880FF1F6C
:400080000000000080B500AFA02003F01BFC5D2003F02AFD00BF80BD80B500AF7F2003F011FC7F2003F020FD00BF80BD80B582B000AF0346FB717F2003F004FCFB791846A2
:4000C00003F012FD00BF0837BD4680BD80B582B000AF78607B68DBB2184603F0F3FB7F2003F002FD00BF0837BD4680BD80B582B000AF0346FB71FB797F33DBB2184603F085
:40010000E1FBFB797F33DBB2184603F0EDFC00BF0837BD4680BD00BF80B584B000AF324B1B680C2B59DC002000F008FF0346FB81012000F003FF0346BB81022000F0FEFEF3
:4001400003467B81032000F0F9FE03463B81052000F0F4FE0346FB80042000F0EFFE0346BB80B7F90E3040F6A202934202DD1F4B01221A60B7F90C3040F6A202934202DDDE
:400180001A4B01225A60B7F90A3040F6A202934202DD164B01229A60B7F9083040F6A202934202DD124B01225A60B7F9063040F6A202934202DD0E4B01229A60B7F9043089
:4001C00040F6A202934202DD094B01221A60064B1B680133044A136002E0064B01221A6000BF1037BD4680BD40AAFF1F28AAFF1F34AAFF1F44AAFF1F80B500AF00F08EFE41
:4002000000BF80BD80B590B000AF012003F08CFC03F0B4FA03F0C4FBFFF73EFF0023FB6201237B6110233B610023FB6318E0854AFB6B52F833307B60824AFB6BDB00134493
:400240005B683B607B68BB603B68FB60002003F06BFC3B683B617B687B61FB6B0133FB63FB6B042BE3DD0123FB600123BB602820FFF73CFF00F082F962B6734B00221A703B
:4002800000F034FE00F03CFF03F024FF03F08EFC03F0E6FC6D4800F073FE6D4803F032FB012003F041FC0121002000F06DFF40F2CC63BB620023BB63664B1B687B620023BC
:4002C0007B6300233B632820FFF710FF624B1B68012BFBD172B600F0F1F8386200F0C6F8F8613B6A072B4AD801A252F823F000BF5F030000690300007F0300003703000006
:4003000073030000530300004503000011030000FB69072B09D13B6B012B02D1FFF7BCFE2CE02820FFF7E2FE28E0FB69052B25D1FFF7A8FE22E04620FFF7B8FE012003F050
:40034000F3FB1CE0B420FFF7C1FE012003F0ECFB15E0FFF797FE002003F0E6FB0FE0FFF79BFE0123BB630AE0FFF796FE0123BB6305E0FFF791FE0123BB6300E000BFBB6BB4
:40038000012B45D13B6B002B42D1344A7B6B52F82330BB61BB69012B11D0022B1CD0002B28D1FFF779FE4FF4C87003F003F94120FFF77CFE4FF4FA7003F0FCF81AE0FFF760
:4003C0006BFE4FF4C87003F0F5F8FFF75BFE4FF4C87003F0EFF80DE0FFF75EFE4FF4C87003F0E8F8B420FFF771FE4FF4FA7003F0E1F800BF7B6B01337B637B6B5A1C7B6A5E
:400400009A4203DDFFF748FE01233B630023BB63114B00221A60124B00221A60114B00221A60104B00225A600E4B00229A600E4B00221A600C4B00225A600B4B00229A6092
:4004400062B643E78485FF1F4CAAFF1FF901000019010000C4F1FF1F44AAFF1FC8F1FF1F40AAFF1F28AAFF1F34AAFF1F80B485B000AF0023FB60104B5B68BB600E4B9B6816
:400480007B600D4B1B683B600B4B5B685B00FA681344FB60084B9B689B00FA681344FB60054B1B68FA681344FB60FB6818461437BD4680BC704700BF34AAFF1F80B485B051
:4004C00000AF0023FB60104B1B68BB600E4B5B687B600D4B9B683B600B4B1B689B00FA681344FB60084B5B685B00FA681344FB60054B9B68FA681344FB60FB681846143769
:40050000BD4680BC704700BF28AAFF1F80B485B000AFF860B9607A603B60FB685A1C7B689A4205D13A68BB689A4201D1032320E0FB685A1E7B689A4205D13A68BB689A4200
:4005400001D1022315E07A68FB689A4206D1BB685A1C3B689A4201D101230AE07A68FB689A4206D1BB685A1E3B689A4201D10023FFE718461437BD4680BC704780B586B0A8
:4005800000AF704B00221A606F4B1B686F4A13606C4B1B686E4ADB0013445B68FB60694B1B686B4A52F83330BB60664B1B680133674ADB0013445B687B60624B1B68013389
:4005C000634A52F833303B603B687A68B968F868FFF79CFF0346FB7500233B61A7E0594B1B685B4ADB0013445B68FB60554B1B68574A52F83330BB60524B1B680133544AD6
:40060000DB0013445B687B604E4B1B680133504A52F833303B60FB7D002B1CD17A68FB689A4206DD474B1B684A4A022142F823106DE07A68FB689A4206DA424B1B68454AFE
:40064000002142F8231062E03E4B1B68414A012142F823105BE0FB7D012B1CD17A68FB689A4206DD374B1B683A4A002142F823104DE07A68FB689A4206DA324B1B68354AF0
:40068000022142F8231042E02E4B1B68314A012142F823103BE0FB7D022B1CD13A68BB689A4206DD274B1B682A4A002142F823102DE03A68BB689A4206DA224B1B68254A6D
:4006C000022142F8231022E01E4B1B68214A012142F823101BE03A68BB689A4206DD194B1B681C4A022142F8231010E03A68BB689A4206DA134B1B68164A002142F82310E6
:4007000005E0104B1B68134A012142F823103B687A68B968F868FFF7F9FE0346FB75094B1B680133074A13603B6901333B61074B1B685A1E3B699A423FF751AF00BF18370A
:40074000BD4680BDC4F1FF1F98F1FF1FF0CDFF1F68010020C8F1FF1F80B582B000AF786039603A680021786803F083FD00BF0837BD4680BD80B584B000AFF860B9607A6046
:400780007A68B968F86803F069FD00BF1037BD4680BD00BF80B483B000AF0346FB71FEE780B487B000AF7860396000233B6100237B6127E07B699B007A6813441B68BB6022
:4007C000BB68FB73BB6823F0FF03BB6014E03B695B003A6813441B781A46BB68134419463B695B003A6813445B780B703B6901333B61FB7B013BFB73FB7B002BE7D17B6946
:4008000001337B617B692B2BD4D900BF1C37BD4680BC704780B582B000AF3F4B04221A803E4B18221A703E4B3A221A803D4B18221A703D4B3B221A803C4B18221A703C4BF0
:4008400081221A803B4B18221A703B4B00221A803A4B1B221A703A4B00221A80394B1B221A70394B06221A70384B52221A70384B384A1278D2B21A70374B40F619121A8006
:40088000364B41F251221A800023FB7019237B6014E0FB785B00DAB2314B1B78DBB203F00103DBB21343DBB203F00303FB704FF4F07003F055FC7B68013B7B607B68002B2E
:4008C00002D0FB78032BE4D17B68002B02D10320FFF760FF234B4FF480721A80214B07221A70214B00221A70204B48221A701D4B00221A701E4B00221A701E4B02221A7064
:400900001D4A1D4B1B78DBB243F03F03DBB2137000BF0837BD4680BD80400040824000408440004086400040884000408A4000408C4000408E4000409040004092400040AB
:4009400094400040964000400043004000420040A14600400F0100492242004020420040254200400440004006400040084000400940004001400040A243004080B582B0B3
:4009800000AF244B1B78FB71234B1B78BB71234B1B787B71224AFB7903F00703DBB21370204AFB791B09DBB213701B4ABB7943F00303DBB21370194A7B7943F00303DBB202
:4009C0001370194BE3221A70184B04221A70184B30221A70174B40221A70174B40221A70164BF7221A70164B20221A70154B04221A700A2002F000FE084A7B791370064A1F
:400A0000BB791370104B44221A7000BF0837BD4680BD00BFCF010049F8460040F94600406E5800406F5800400D5100401D510040FD5100400159004003590040205B0040C9
:400A4000235B0040585B00407658004080B586B000AF72B6584B61221A70FFF7DBFE564B01221A70554A554B1B78DBB243F00403DBB213700023FB7513E0FA7D13465B004E
:400A800013445B004E4A13443B613B691A683B699B889BB219461046FFF75EFEFB7D0133FB75FB7D072BE8D90023FB751CE0FA7D13469B0013445B00424A1344FB60FB68E4
:400AC0001B68BB60FB685B687B60FB681A7A5B7A1B0213437B807B881A467968B868FFF749FEFB7D0133FB75FB7D012BDFD936494FF09040FFF754FE04213448FFF72CFE6D
:400B0000042233493348FFF735FE334B334A1A60334B324A1A60334A324B1B78DBB243F00203DBB21370304A2F4B1B78DBB243F00203DBB213702D4A2C4B1B78DBB243F087
:400B40004003DBB213702A4A294B1B78DBB243F01003DBB21370082226492748FFF70AFE082226492648FFF705FE0A2225492648FFF700FE082225492548FFF7FBFD0A22A3
:400B800024492548FFF7F6FD082224492448FFF7F1FD244A234B1B78DBB243F00803DBB21370FFF7EBFE0E2210491F48FFF7E2FD00BF1837BD4680BD00480040E846004059
:400BC00088420000B8420000B000004800760040200F004808760040580A014004040044580C01400350014013500140A0430040C2430040E80E004802510040F00E004803
:400C0000C2510040F80E0048F0510040040F0048125100400C0F004820510040180F00483251004022430040B043004080B500AF03F0E8FA03461B680C2B00D1FEE7FEE71F
:400C400080B586B000AF224B7B61224B3B61204B7B6135E03B691B68FB603B695B68BB603B699B683B6000237B600CE0FB681A68BB681A60BB680433BB60FB680433FB6090
:400C80007B6804337B607A683B689A42EED13B69DB683B6000237B6008E0BB6800221A60BB680433BB607B6804337B607A683B689A42F2D13B6910333B617B69013B7B61EB
:400CC0007B69002BC6D103F0A3FAFFF79BFAFEE701000000A444000080B582B000AF194B194A1A60194A194B1B6843F40073136000237B600FE07B68032B04D8144A7B688C
:400D000052F8233000E0134B13497A6841F822307B6801337B607B682F2BECD90F4B1B78DAB20F4B1A700F4B0B4A1A60FFF78EFE02F018FA0C4B00221A6000BF0837BD461B
:400D400080BD00BF0CED00E00004FA0514ED00E0000000002D0C00000080FF1FBC760040C480FF1F08ED00E0C080FF1F80B500AF41F6FF734FF480420121022002F05AF9C1
:400D800003461A460A4B1A7041F6FF7341F6FF720121102002F080F903461A46054B1A70054802F0ABF9002002F0BAF900BF80BDA0F1FF1FA1F1FF1F750F000080B582B02C
:400DC00000AF414B1B78184602F040FA3F4B1B78184602F03BFA3E4B1B78FF2B05D102F041FB03461A463A4B1A70394B1878384B1A780623102102F063FB354B1B78354A92
:400E000092B245F6A031184602F09AFB2E4B1A782F4B1B781946104602F0B6FA2E4B1B78FF2B05D102F01EFB03461A462A4B1A70294B1878284B1A780723102102F040FBBE
:400E4000254B1B78234A91B2244A92B2184602F077FB1E4B1A78204B1B781946104602F093FA194B1B780121184602F0A9F9174B1B780121184602F0A3F903F079F9034662
:400E8000FB71174A164B1B78DBB243F02003DBB21370FB79184603F06FF9124A114B1B78DBB243F00103DBB213700E4A0D4B1B78DBB243F00203DBB213700B4B01221A6027
:400EC00000BF0837BD4680BDA0F1FF1FA1F1FF1FAC85FF1FA4F1FF1FAD85FF1FA8200020956400407664004080E200E080B500AF084B1B68002B04D1FFF738FF054B01222C
:400F00001A6001F0A3FFFFF759FF034B1B7800BF80BD00BF9CF1FF1F6264004080B400AF054A054B1B78DBB243F00403DBB2137000BFBD4680BC70477664004080B483B0E7
:400F400000AF0346FB80FB88C3F10703074A32F913309AB2064B1B881BB29BB2D31A9BB21BB218460C37BD4680BC7047A82000206E21002080B400AF00BFBD4680BC7047D7
:400F800080B582B000AF786000F03CF8786800F009F8072000F018F800F028F800BF0837BD4680BD80B485B000AF7860054B1B68FB60FB6858337A681A6000BF1437BD4664
:400FC00080BC704708ED00E080B483B000AF0346FB71054AFB795B01DBB2137000BF0C37BD4680BC704700BF06E400E080B400AF034B40221A6000BFBD4680BC704700BF2D
:4010000000E100E080B400AF034B40221A6000BFBD4680BC704700BF80E100E080B500AF214A214B1B78DBB203F00103DBB213701E4A1E4B1B78DBB223F00303DBB2137031
:401040001B4A1B4B1B78DBB223F03003DBB21370174A174B1B78DBB243F03003DBB21370134A134B1B78DBB223F00F03DBB213700F4A0F4B1B78DBB243F00F03DBB213709E
:401080000C4A0C4B1B78DBB243F00103DBB21370272000F057F8272000F066F8002000F041F800BF80BD00BF244F0040264F00402F4F0040254F004080B400AF0D4A0D4B91
:4010C0001B78DBB243F00803DBB213700A4A0A4B1B78DBB243F00803DBB21370074A074B1B78DBB243F00103DBB2137000BFBD4680BC7047A3430040B3430040244F00409D
:4011000080B500AF064B1B78002B04D1FFF786FF034B01221A70FFF7CFFF00BF80BD00BFB4F1FF1F80B483B000AF0346FB71044AFB79137000BF0C37BD4680BC704700BF68
:40114000274F004080B485B000AF0346FB71FB79FB81044AFB89138000BF1437BD4680BC704700BF284F004080B483B000AF0346FB71044BFA7992B21A8000BF0C37BD46B1
:4011800080BC70472A4F004080B582B000AF03460A46FB711346BB71094B1B78002B04D100F010F8064B01221A70BA79FB791146184600F0D9F800BF0837BD4680BD00BFEC
:4011C000B5F1FF1F80B582B000AF02F0D1FF0346FB71544A534B1B78DBB243F00103DBB21370514A504B1B78DBB243F00103DBB213704E4B01221A704D4B02221A704D4A3B
:401200004C4B1B78DBB203F07F03DBB21370002002F0F2F9484A484B1B78DBB223F00603DBB21370454A454B1B78DBB223F02003DBB21370404A404B1B78DBB243F0010313
:40124000DBB21370012002F0D7F9282002F0D4F93B4A3B4B1B78DBB203F07F03DBB21370374A374B1B78DBB223F04003DBB21370314A314B1B78DBB243F00203DBB21370DC
:40128000022002F0B9F92C4A2B4B1B78DBB243F00403DBB213702B4B00221A702A4B00221A70FB79184602F067FF0721172002F0DFF92649172002F0B3F90721182002F0E6
:4012C000D7F92349182002F0ABF90721152002F0CFF92049152002F0A3F90721012002F0C7F91D49012002F09BF90721022002F0BFF91A49022002F093F90721032002F065
:40130000B7F91749032002F08BF907210C2002F0AFF914490C2002F083F900BF0837BD4680BD00BFA5430040B54300409D6000400960004010600040944300401260004063
:40134000F85100408460004085600040BD1D0000A5160000B11D0000C91C0000111D00005D1D0000C91D000080B582B000AF03460A46FB711346BB712E4AFB7913702E4B3D
:4013800000221A702D4B00221A702D4B00221A702C4B00221A702C4B00221A702B4B00221A702B4B00221A702A4B4FF400021A60284B4FF080721A60264B4FF400121A601D
:4013C000244B02221A60234B04221A60214B08221A60BB79002B02D0012B09D011E01E4A1D4B1B78DBB223F00103DBB2137011E0194A194B1B78DBB243F00103DBB2137065
:4014000008E0154A144B1B78DBB243F00103DBB2137000BF114B03221A70114B80221A70012002F09DFE0F4B04221A7000BF0837BD4680BDD1200020D4200020F020002002
:40144000F3200020E8200020F2200020F5200020D020002000E100E00960004028600040086000401260004080B400AF0F4B00221A700F4B00221A700E4B00221A700E4BC1
:4014800000221A700D4B00221A700D4B00221A700C4B00221A700C4B03221A700B4B80221A7000BFBD4680BC704700BFD4200020F0200020F3200020E8200020F2200020A8
:4014C000F5200020D0200020286000400860004080B582B000AF0023FB71314B1B79DBB2184600F067F80346BB712D4B1B78DBB25BB2002B15DA2A4B5B78DBB2212B00D023
:4015000048E0284B07221A80BA791346DB009B1A254A1344234A536000F03EFA0346FB7138E01F4B5B78DBB2202B02D0222B1AD030E01C4B07221A80BA791346DB009B1AE2
:40154000194A1344174A5360BB79BA7917498A5CD2B242F00102D1B2144AD15400F09AFA0346FB7116E0BB790D4A9278D2B291B20F4A22F81310BB79BA790C498A5CD2B2EA
:4015800042F00202D1B2094AD15400F021FB0346FB7100BFFB7918460837BD4680BD00BF00600040DC200020B085FF1FB8200020CC20002080B485B000AF0346FB71002367
:4015C000FB73FF23BB7317E0FB7B104AD35C7B737A7B0F4913465B0013449B000B440A331B78DBB2FA799A4203D1FB7BBB730223FB73FB7B0133FB73FB7B012BE4D9BB7BA3
:4016000018461437BD4680BC704700BFC0200020F820002080B485B000AF78600B46FB701346BB707B68DB7803F00303FB737B689B785BB2002B1ADAFB7B032B0AD0BB7874
:4016400003F001031449FA78CA54BB7843F00103BB701BE0BB789B08DBB203F001030F49FA78CA54BB7843F00403BB700EE0FB7B032B0BD0BB785B08DBB203F00103084944
:40168000FA78CA54BB7843F00203BB70BB7818461437BD4680BC7047BC200020C0200020C420002080B582B000AF374B1B78BB71BB7903F01003002B62D00123FB7197F924
:4016C0000630002B12DABB7903F00F03012B02D00023FB711CE000F061F82C4B1B78DBB25BB2002B14DA0023FB7111E0BB7903F04003002B02D000F095F809E0BB7903F061
:401700002003002B02D000F0B3F801E00023FB71FB79002B34D01C4B1B78BB7197F90630002B2DDB1A4B1B78DAB21A4B1B78DBB21343BB71184ABB791370174B1B78DBB296
:40174000BA799A421CD1114B1B78FB710E4B1B78DBB223F07F03BB71BB79002B0AD10A4B0A4A1278D2B21A70074B1B78DBB203F00F03FB71054B1B78DBB2FA799A42E2D108
:4017800000BF0837BD4680BD28600040F120002066210020F42000202960004080B582B000AF1D4B1B78FB711B4AFB7913701A4B1B78FB7197F90730002B03DA174AFB796D
:4017C000137025E0022000F045FA154B1B78DBB203F06003202B08D0402B0BD0002B0ED100F0F8FA0346FB710CE002F0C9FC0346FB7107E001F000FB0346FB7102E000234B
:40180000FB7100BFFB79002B02D1044B03221A7000BF0837BD4680BD28600040F12000200060004080B500AF104B1B78DBB2062B19D801A252F823F06718000067180000B7
:4018400055180000671800005B180000671800006118000000F0F8F806E000F0A7F903E000F0D2F900E000BF00BF80BDD420002080B500AF124B1B78DBB2062B1DD801A244
:4018800052F823F0BB180000BB180000A1180000BB180000A7180000BB180000AD18000000F0D8F80AE000F027F907E0032000F0D1F9044B03221A7000E000BF00BF80BD2B
:4018C000D4200020F120002080B483B000AF0023FB71294B1B78DBB29AB2284B1B889BB213449AB2254B1A8015E02549FB79254A52681278D2B2CA54224B5B680133214A13
:401900005360FB790133FB711E4B1B889BB2013B9AB21C4B1A801B4B1B889BB2002B02D0FB79072BE1D9144B1B78DBB2082B02D0FB79002B0FD0144B1B78DBB283F07F03D5
:40194000DB43DAB2104B1A70104B0F221A70104B02221A7005E00D4B02221A700C4B02221A700C4AFB791370034AFB79137000BF0C37BD4680BC7047D0200020D22000201E
:4019800000600040DC20002066210020F1200020D4200020F420002080B582B000AF164B1B889BB2002B02D100F02EF81EE0134B02221A70124B00221A7000F06BF9114B0D
:4019C000DB79DBB29BB21B029AB20E4B9B79DBB29BB21343FB80084B1B889BB2FA889A4202D2054AFB881380FFF76EFF012318460837BD4680BD00BFDC200020D42000200B
:401A0000662100200060004080B400AF094B02221A70094B80221A70084B0F221A70084B00221A70074B00221A7001231846BD4680BC7047D420002066210020F12000208B
:401A4000D0200020F420002080B500AFFFF73CFF00BF80BD80B500AF0A4B1B78DBB29AB2094B1B889BB213449AB2074B1A80074B00221A70012000F0EDF8054B03221A70A6
:401A800000BF80BDD0200020D2200020D4200020F120002080B582B000AF124B04221A70114B80221A7000F0F5F8104BDB79DBB29BB21B029AB20D4B9B79DBB29BB21343AD
:401AC000FB800B4B1B889BB2FA889A4202D2084AFB881380074B0B221A70012318460837BD4680BDD42000206621002000600040DC200020F120002080B483B000AF0023A0
:401B0000BB71234B1B78DBB203F00F03DBB2023BFB71FB799AB21F4B1B889BB213449AB21C4B1A8018E01C4B5B681C49BA798A5CD2B21A70184B5B680133174A5360BB79A2
:401B40000133BB71FB79013BFB71134B1B889BB2013B9AB2104B1A800F4B1B889BB2002B02D0FB79002BDED10D4AFB7913700D4B1B78DBB283F07F03DB43DAB2094B1A7046
:401B8000094B0B221A7000BF0C37BD4680BC704729600040D2200020DC20002000600040F420002066210020F120002080B500AF054B00221A70012000F04CF8034B0322D7
:401BC0001A7000BF80BD00BFD4200020F120002080B400AF084B06221A70084B06221A70074B80221A70074B00221A7001231846BD4680BC704700BFD4200020F120002076
:401C000066210020F420002080B500AF0D4B1B78DBB2002B0AD00C4A0A4B1B78DBB263F07F03DBB21370074B00221A70074B00221A70012000F00EF8054B03221A7000BFE7
:401C400080BD00BFF220002008600040D4200020F120002080B483B000AF0346FB710B4B9B68002B0CD0094B9B68FA791A70074B9B68074A128892B25A80044B00229A6001
:401C800000BF0C37BD4680BC704700BFDC200020D220002080B400AF094B00221A80094B9B68002B07D0074B9B6800221A70054B9B6800225A8000BFBD4680BC704700BF2F
:401CC000D2200020DC20002080B400AF0D4B01221A700D4B9B7C0D4B1B7BDBB203F00303012B08D0094BDB7BDBB283F07F03DB43DAB2064BDA73054B01225A7300BFBD4671
:401D000080BC70470B600040FC5F0040F820002080B400AF0E4B02221A700E4B93F822300D4B1B7EDBB203F00303012B08D00A4BDB7EDBB283F07F03DB43DAB2064BDA761C
:401D4000054B01225A7600BFBD4680BC704700BF0B600040FC5F0040F820002080B400AF104B04221A70104B93F832300F4B93F82430DBB203F00303012B0AD00B4B93F852
:401D80002730DBB283F07F03DB43DAB2074B83F82720064B012283F8252000BFBD4680BC704700BF0B600040FC5F0040F820002080B400AF00BFBD4680BC704780B500AFEA
:401DC000FFF752FB00BF80BD80B500AF01F0BAF900BF80BD80B586B000AF0023FB759D4B1B78FB7100233B619B4B00221A8097F90730002B80F20481964B5B78DBB20A2BCC
:401E000000F21B8201A252F823F000BF571F00003B2200003B2200003B2200003B2200003B220000391E00003B220000CB1F00003B220000E11F0000864BDB78DBB2012B35
:401E40000ED100F049FEB860BB685B68824A5360814B12221A80FFF79FFD0346FB75EEE17C4BDB78DBB2022B25D17A4B9B78DBB2184600F009FEB860BB68002B00F0DF81E1
:401E8000BB685B68744A5360734B5B6803331B78DBB29BB21B029AB26F4B5B6802331B78DBB29BB213439AB26B4B1A80FFF774FD0346FB75C3E1674BDB78DBB2032B45D193
:401EC0000023FB73654B3B6109E03B691B78BB71BB793A6913443B61FB7B0133FB735D4B9B78DBB2FA7B9A4204D23B691B78DBB2002BEAD1574B9B78DBB2EE2B01D1584BEE
:401F00003B61544B9B78DBB2002B0BD0514B9B78DAB2544B1B7C9A4204D1534800F0ACF9514B3B613B691B78DBB2002B00F087813B691B78DBB29AB2474B1A80464A3B69DF
:401F40005360FFF729FD0346FB7578E102F018F90346FB7573E1FB7903F00303002B20D0022B00D030E03C4B02221A80394B1B79DBB203F07F023D4913465B0013449B0051
:401F80000B4402331B78DAB2394B1A70384B00225A70314B364A5A60FFF7FEFC0346FB7512E02D4B02221A80324B1B78DAB2304B1A702F4B00225A70274B2D4A5A60FFF7DA
:401FC000EBFC0346FB7500BF40E1234B01221A80214B294A5A60FFF7DFFC0346FB7535E11D4B01221A801B4B1B79DBB21A46234B1344194A5360FFF7CFFC0346FB7525E196
:40200000144B5B78DBB2013B0A2B00F21A8101A252F823F01F21000043220000AD21000043220000412000004322000043220000432200008520000043220000DB20000076
:40204000044B9B78DAB20E4B1A70FFF7C1FD0346FB75FBE000600040DC2000203843000040440000E042000078210020F8200020B8F1FF1FF5200020F320002064210020A5
:40208000F2200020744B9B787B717B79002B06D07B79013BDBB2184600F0F6FCB8607B79002B02D0BB68002B03D17B79002B40F0CA806A4B1B78DBB27A799A4208D0674A4D
:4020C0007B791370664B01221A70012000F0DCF9FFF77EFD0346FB75B5E000F055FE0346002B00F0B2805C4B1B793B715A4B1B79DAB25C4B1A703B795B4AD35CDAB23B79E8
:402100005A49CB5CDBB29A4204D0554B01221A7000F08CFBFFF75CFD0346FB7595E0FB7903F00303012B20D0012B0CD3022B00D03BE0494B9B78DBB2002B31D100F078FDE5
:402140000346FB752CE0444B9B78DBB2012B29D1474B1B78DBB223F00203DAB2444B1A70FFF736FD0346FB751CE03B4B1B79DBB2012B19D8384B9B78DBB2DB43DBB2364AE6
:402180001279D2B2114610463A4A125CD2B21340DAB2384B5A54FFF71BFD0346FB7503E000BF53E000BF51E000BF4FE0FB7903F00303012B20D0012B0CD3022B00D03BE0B7
:4021C000254B9B78DBB2002B31D100F0BDFC0346FB752CE0204B9B78DBB2012B29D1244B1B78DBB243F00203DAB2214B1A70FFF7EFFC0346FB751CE0174B1B79DBB2012B75
:4022000019D8154B9B78DBB2DB43DBB2124A1279D2B211461046174A125CD2B21340DAB2144B5A54FFF7D4FC0346FB7503E000BF0CE000BF0AE000BF08E000BF06E000BFEA
:4022400004E000BF02E000BF00E000BFFB7D18461837BD4680BD00BF00600040F3200020F0200020E8200020D820002064210020F520002068210020B0B58AB000AF78606B
:40228000324B07F114041D460FCD0FC42B682370002387F826307B68002B52D07B6822221A707B68013303221A7007F10C03184601F002FA022387F827303EE097F8273069
:4022C0007A68134497F8262007F128010A4412F81C2C1209D2B207F128010A4412F8142C1A7097F8273001337A68134400221A7097F8273002337A68134497F8262007F10D
:4023000028010A4412F81C2C02F00F0207F128010A4412F8142C1A7097F8273003337A68134400221A7097F82630013387F8263097F82730043387F8273097F82730212B7A
:40234000BCD900BF2837BD46B0BD00BFCC42000090B482B000AF0123FB7180E0464AFB791B0113440C221A70FA79444913465B0013449B000B4405331B78DBB2002B1CD0C5
:40238000FA793E4913465B0013449B000B4404331B78DBB25BB2002B07DA394AFB791B01134402330C221A700EE0354AFB791B011344023308221A7006E0314AFB791B0139
:4023C0001344023380221A702B48F979FA792B4C13465B0013449B00234406331B889BB2DAB20B01034406331A702348F979FA79224C13465B0013449B00234406331B88D7
:402400009BB21B0A9BB2DAB20B01034407331A701948F979FA79194C13465B0013449B00234406331B889BB2DAB20B01034404331A701148F979FA79104C13465B00134414
:402440009B00234406331B889BB21B0A9BB2DAB20B01034405331A70FB790133FB71FB79082B7FF67BAF074BFF221A7000BF0837BD4690BC704700BF70600040F8200020BC
:40248000FC5F00400A60004080B58AB000AF0346FB7100237B84002387F8273050E097F82720B34913465B0013449B000B4400221A7097F82720AE4913465B0013449B00D3
:4024C0000B44023300221A7097F82720A84913465B0013449B000B44033300221A7097F82720A34913465B0013449B000B44083300221A8097F827209D4913465B00134499
:402500009B000B440A3300221A7097F82720984913465B0013449B000B44013300221A7097F82720924913465B0013449B000B44053300221A7097F82730013387F82730C2
:4025400097F82730082BAAD9FB79002B16D0002387F825300EE097F82530864A0021D15497F82530844A0021D15497F82530013387F8253097F82530012BECD97F4B1B7845
:40258000DBB2002B00F04A810023FB767B4B1B78DBB2013BDBB2184600F076FA78617B695B683B613B6907331B7803F04003002B08D0734B1B78DBB243F00103DAB2704B85
:4025C0001A7007E06E4B1B78DBB223F00103DAB26B4B1A707B6908337B617B691B7887F82730012387F82530B6E07B695B68FB61002387F82630A3E097F82520FB699B780F
:4026000003F07F039A4240F0938097F82520584913465B0013449B000B4408331B889AB2FB699B889A420CD297F82520FB6998884F4913465B0013449B000B4408330246C9
:402640001A80FB691B781A464A4B9B5CDAB2FB695B789A426CD197F82520FB699878444913465B0013449B000B44043302461A7097F82520FB69D8783D4913465B00134415
:402680009B000B4402461A70FB69DB7803F00303FB73FB699B785BB2002B1CDA97F82520FB7B012B01D1072000E00D20304913465B0013449B000B44053302461A7097F818
:4026C00025202B4913465B0013449B000B44013301221A701BE097F82520FB7B012B01D1052000E00920224913465B0013449B000B44053302461A7097F825201C491346DE
:402700005B0013449B000B44013300221A70FB699B790A2B03D0FB699B79022B08D1FA7E97F825301946F869FEF774FF0346FB76FB690833FB6197F82630013387F82630F8
:4027400097F8262097F827309A42FFF455AF97F82530013387F8253097F82530082B7FF644AF7B695B68FB61002387F8253020E0F820002064210020D8200020F32000203E
:40278000F5200020FB699B7803F07F02FB691878244913465B0013449B000B440A3302461A70FB690833FB6197F82530013387F8253097F8252097F827309A42E2D300F072
:4027C0009DF90246184B1A6000237B84012387F827301DE097F82720124913465B0013449B000B4406337A8C1A8097F827200D4913465B0013449B000B4408331B889AB2BB
:402800007B8C13447B8497F82730013387F8273097F82730082BDDD9FFF79AFD00BF2837BD4680BDF8200020EC20002090B585B000AF8F4B1B78DBB2002B00F015818C4B82
:402840001B78DBB2013BDBB2184600F01DF978607B6808337B607B681B78FB707B685B68BB60844B1B78BB700023FB73F7E0BB681B78BA789A4240F0EC80BB787E4AD35C19
:40288000DAB2BB685B789A4240F0E380BB689B7803F07F037B70BB68DB7803F003033B707A78764913465B0013449B000B44033300221A707A78BB689878704913465B005D
:4028C00013449B000B44043302461A707A78BB68D8786A4913465B0013449B000B4402461A707A78BB689888644913465B0013449B000B44083302461A80BB689B785BB278
:40290000002B1ADA7A783B78012B01D1072000E00D205A4913465B0013449B000B44053302461A707A78554913465B0013449B000B44013301221A7019E07A783B78012BCF
:4029400001D1052000E009204C4913465B0013449B000B44053302461A707A78474913465B0013449B000B44013300221A70444A7B781B011344023301221A70404879781D
:402980007A783E4C13465B0013449B00234408331B889BB21B0A9BB2DAB20B0103441A70374879787A78354C13465B0013449B00234408331B889BB2DAB20B01034401335A
:4029C0001A70304879787A782C4C13465B0013449B00234406331B889BB2DAB20B01034406331A70274879787A78244C13465B0013449B00234406331B889BB21B0A9BB238
:402A0000DAB20B01034407331A701E4879787A781A4C13465B0013449B00234406331B889BB2DAB20B01034404331A70154879787A78124C13465B0013449B00234406338A
:402A40001B889BB21B0A9BB2DAB20B01034405331A70BB680833BB60FB7B0133FB73FA7BFB789A42FFF403AF00BF1437BD4690BDF3200020E820002064210020F8200020C7
:402A8000FC5F00407060004080B485B000AF0346FB710F4B1B78DBB20E4ADB0013445B68FB60FB681033FB60FB681B78FA799A4202D30023FB6005E0FB79DB00FA681344F6
:402AC0005B68FB60FB6818461437BD4680BC7047D12000203844000080B400AF054B1B78DBB2054ADB0013445B681846BD4680BC704700BFD12000203844000080B584B089
:402B000000AF104B1B78DBB2013BDBB21846FFF7BBFFB860BB68002B0DD0BB685B681B79FB71FB790233DB00BA681344BB60BB685B68FB6001E00023FB60FB6818461037AB
:402B4000BD4680BDF320002080B582B000AF0023FB71344B1B79DBB203F07F03BB71BB79002B5AD0BB79082B57D8BA79B9792E480B465B000B449B00034402331B78DBB2D0
:402B800043F00103D8B2284913465B0013449B000B44023302461A70BA79234913465B0013449B000B44033300221A70BA79B9791D480B465B000B449B00034401331B7803
:402BC000DBB243F00203D8B2174913465B0013449B000B44013302461A70BA79124913465B0013449B000B4404331B78DBB25BB2002B07DA0D4ABB791B01134402338D2256
:402C00001A7006E0094ABB791B011344023389221A70FEF7DDFF0346FB71FB7918460837BD4680BD00600040F8200020FC5F004080B582B000AF0023FB71504B1B79DBB215
:402C400003F07F03BB71BB79002B00F09280BB79082B00F28E80BA79B97949480B465B000B449B00034402331B78DBB223F00103D8B2434913465B0013449B000B4402336C
:402C800002461A70BA793E4913465B0013449B000B44033300221A703A49BB793948BA79120102441278D2B202F07F02D2B21B010B441A70BA79B97931480B465B000B441A
:402CC0009B00034401331B78DBB223F00203D8B22B4913465B0013449B000B44013302461A70BA79264913465B0013449B000B4404331B78DBB25BB2002B1BDABA792049D6
:402D000013465B0013449B000B4401331B78DBB2012B07D11B4ABB791B01134402330C221A7022E0174ABB791B01134402330D221A701AE0BA79124913465B0013449B0027
:402D40000B4401331B78DBB2012B07D10D4ABB791B011344023308221A7006E0094ABB791B011344023309221A70FEF731FF0346FB71FB7918460837BD4680BD0060004030
:402D8000F8200020FC5F004080B584B000AF0023FB73154B1B79BB73144B1B78DBB2013BDBB21846FFF770FEB860BB685B681B79FB71BA7BFB799A4202D9BB7B022B0ED8C4
:402DC000BB7BBA7B0A498A5CD1B20A4AD154BB7B054A9278D1B2064AD1540123FB73FB7B18461037BD4680BD00600040F320002064210020D820002080B582B000AF0023F6
:402E0000FB710F4B1B78DBB25BB2002B12DA0C4B5B78DBB2012B00D00CE00A4B0A4A5A60094B1B789AB2074B1A80FEF7B5FD0346FB7100BFFB7918460837BD4680BD00BF3C
:402E400000600040DC2000205444000080B500AF064B1B78002B04D100F00AF8034B01221A7000F01BF800BF80BD00BFBAF1FF1F80B500AF074A074B1B78DBB243F00603DF
:402E8000DBB213700C2000F06BF8034B00221A8000BF80BD015900407421002080B582B000AF01F065F90346FB71254A244B1B78DBB243F00103DBB21370224A214B1B7864
:402EC000DBB243F00103DBB213701F4B1B78BB71BB7943F00203BB71BB7943F00103BB71194ABB791370194B18221A70184A184B1B78DBB243F04003DBB21370144A144B3C
:402F00001B78DBB223F00303DBB21370114BCE221A70114B02221A70104A104B1B78DBB243F00803DBB213700A2000F065FBFB79184601F021F900BF0837BD4680BD00BFF1
:402F4000AB430040BB4300400359004006590040055900400059004014460040275B004080B584B000AF0346FB71FB790A2B07D00C2B02D0082B06D008E0C223FB730BE092
:402F80008223FB7308E04223FB7305E0C223FB73002000F003FB00BF054AFB7B1370FB79184600F007F800BF1037BD4680BD00BF0259004080B584B000AF0346FB71FB7954
:402FC0000A2B08D00C2B02D0082B08D00BE04FF48053FB600DE04FF48063FB6009E04FF48073FB6005E00023FB60002000F0D6FA00BF0C4B00221A80FB6842F2107202FB41
:4030000003F303F6C413084A82FB0312D212DB17D31A064A1360064B00221A8000BF1037BD4680BD6C210020AD8BDB68702100206E21002090B585B002AF0446084611466B
:403040001A462346FB710346BB710B46BB8013467B80104B01221A700E4B1878BA79F9790023019300230093012300F0ABF9094B1B787A88B988184600F04AF9054B1B786D
:403080000221184600F012F9024B1B7818460C37BD4690BDCA85FF1F90B585B002AF0446084611461A462346FB710346BB710B46BB8013467B80104B00221A700E4B1878C2
:4030C000BA79F9790023019300230093002300F079F9094B1B787A88B988184600F018F9054B1B780221184600F0E0F8024B1B7818460C37BD4690BDCB85FF1F80B485B0DC
:4031000000AF7860054B1B68FB60FB6840337A681A6000BF1437BD4680BC704708ED00E080B483B000AF0346FB71054AFB795B01DBB2137000BF0C37BD4680BC704700BF22
:4031400000E400E080B400AF054B1B78DBB203F040039B09DBB21846BD4680BC704700BF8F45004080B483B000AF134B7F221A70124B80221A707F23FB710CE0FB79DB0039
:4031800003F1804303F5F043FA79013AD2B21A70FB79013BFB71FB79002BEFD1FB79DB0003F1804303F5F04300221A7000BF0C37BD4680BC704700BFCD85FF1FCC85FF1F83
:4031C00080B485B000AF03460A46FB711346BB710123FB60FB79172B2FD8BB79002B0ED0FB791A01184B1344FA791101164A0A441278D2B242F02002D2B21A700DE0FB7967
:403200001A01114B1344FA7911010F4A0A441278D2B222F02002D2B21A70FB791A010A4B1344FA791101084A0A441278D2B242F00102D2B21A700023FB60FB681846143709
:40324000BD4680BC704700BF1070004080B485B000AF0346FB710123FB60FB79172B1DD8FB791A01104B1344FA7911010E4A0A441279D2B242F00402D2B21A71FB791A0191
:40328000094B1344FA791101074A0A441278D2B242F00102D2B21A700023FB60FB6818461437BD4680BC70471070004080B485B000AF03460A46FB711346BB710123FB608D
:4032C000FB79172B1BD8FB791A01104B13441B78DBB223F00E03FB72FB791A010B4B1344BA795200D2B252B202F00E0251B297F90B200A4352B2D2B21A700023FB60FB68EA
:4033000018461437BD4680BC704700BF1070004080B485B000AF0346FB710B46BB8013467B800123FB60BB8841F6FF72934202D14FF40053BB807B8841F6FF72934202D18C
:403340004FF400537B80FB79172B17D8FB79DB0003F1804303F5EC430433BB60BB68BA881A80FB79DB0003F1804303F5EC430633BB60BB687A881A800023FB60FB6818461A
:403380001437BD4680BC704780B485B000AF03460A46FB711346BB710123FB60FB79172B07D8FB791A01064B1344BA795A720023FB60FB6818461437BD4680BC704700BFA1
:4033C0001070004090B484B000AF0446084611461A462346FB710346BB710B467B7113463B710123FB60FB79172B34D8FB79DB0003F1804303F5EC43BA7902F07F02D1B274
:403400007A79D201D2B20A43D2B21A70FB79DB0003F1804303F5EC433A7E1201D1B23A7902F00F02D2B20A43D2B25A70FB79DB0003F1804303F5EC433A7F02F00F02D2B22A
:403440009A70FB79DB0003F1804303F5EC430022DA700023FB60FB6818461037BD4690BC704700BF80B582B000AFFF23FB7100F07FFE0346BB71104B1B78182B12D90F4B62
:403480001B78FB710C4B1B78013BDAB20A4B1A70FB79DB0003F1804303F5F0431B78DAB2064B1A70BB79184600F066FEFB7918460837BD4680BD00BFCC85FF1FCD85FF1F7C
:4034C00090B484B000AF0446084611461A462346FB710346BB800B46BB711346FB700123FB6097F90730002B23DBBB8823F47F6323F00F039BB2002B1BD1FB79DB0003F145
:40350000804303F5F043BB60BB68BA881A80FB79DB0003F1804303F5F043BA799A70FB79DB0003F1804303F5F043FA78DA700023FB60FB6818461037BD4690BC704700BFDD
:4035400080B485B000AF0346FB710B46BB8013467B800123FB6097F90730002B17DBFB79DB0003F1804303F5F0430433BB60BB68BA881A80FB79DB0003F1804303F5F04388
:403580000633BB60BB687A881A800023FB60FB6818461437BD4680BC704700BF80B483B000AF0346FB7101BE00BF0C37BD4680BC704700BF80B582B000AF786008E00C4B4B
:4035C0001B68184600F0CCFD7B68A3F500437B607B68B3F5004FF2D8064B1B687A6802FB03F3184600F0BCFD00BF0837BD4680BDE085FF1FD885FF1F80B582B000AF0346A9
:40360000FB80FB88054A127802FB03F3184600F0A7FD00BF0837BD4680BD00BFDC85FF1F80B584B000AF03463960FB710F4B1B68FB60FB791F2B02D90020FFF7AFFFFB79E3
:4036400003F01F0310339B00FA6813441B68BB60FB7903F01F0310339B00FA6813443A681A60BB6818461037BD4680BD08ED00E080B582B000AF03460A46FB711346BB7147
:40368000BB79072B02D90020FFF788FFFB791F2B02D90020FFF782FFFB7903F01F0303F1604303F56443BA795201D2B21A7000BF0837BD4680BD00BF80B483B000AF7860BE
:4036C000264B1B78DBB21A467B681A60244B1B78DBB21B027A6812681A437B681A60214B1B78DBB21B047A6812681A437B681A601D4B1B78DBB21B067A6812681A437B68B4
:403700001A607B680433194A1278D2B21A60184B1B78DBB21A027B6804337968043109680A431A60134B1B78DBB21A047B6804337968043109680A431A600F4B1B78DBB285
:403740001A067B6804337968043109680A431A6000BF0C37BD4680BC704700BF0301004904010049EC460040020100490101004900010049050100490601004980B500AF99
:40378000064B1B78002B04D100F00AF8034B01221A7000F063F800BF80BD00BFBBF1FF1F80B582B000AF284A274B1B78DBB243F00203DBB21370254B1B78DBB223F07003F0
:4037C000FB71224AFB7943F01003DBB21370204A1F4B1B78DBB223F03003DBB213701C4A1B4B1B78DBB243F03003DBB21370184A174B1B78DBB223F00F03DBB21370144A04
:40380000134B1B78DBB243F00F03DBB21370FF2000F048F8142000F055F8002000F062F80C4A0C4B1B78DBB243F00103DBB21370094A094B1B78DBB243F00103DBB2137069
:4038400000BF0837BD4680BD004F0040024F00400B4F0040A3430040014F004080B400AF0D4A0D4B1B78DBB243F00103DBB213700A4A0A4B1B78DBB243F00103DBB2137091
:40388000074A074B1B78DBB243F00103DBB2137000BFBD4680BC7047A3430040B3430040004F004080B483B000AF0346FB71044BFA7992B21A8000BF0C37BD4680BC7047FB
:4038C000044F004080B483B000AF0346FB71044BFA7992B21A8000BF0C37BD4680BC7047064F004080B483B000AF0346FB71044AFB79137000BF0C37BD4680BC704700BF76
:40390000034F004080B582B000AF786000F03CF8786800F009F8072000F018F800F028F800BF0837BD4680BD80B485B000AF7860054B1B68FB60FB685C337A681A6000BF72
:403940001437BD4680BC704708ED00E080B483B000AF0346FB71054AFB795B01DBB2137000BF0C37BD4680BC704700BF07E400E080B400AF034B80221A6000BFBD4680BC6A
:40398000704700BF00E100E080B400AF034B80221A6000BFBD4680BC704700BF80E100E080B500AF064B1B78002B04D100F00AF8034B01221A7000F063F800BF80BD00BF13
:4039C000BCF1FF1F80B582B000AF284A274B1B78DBB243F00203DBB21370254B1B78DBB223F07003FB71224AFB7943F01003DBB21370204A1F4B1B78DBB223F03003DBB21B
:403A000013701C4A1B4B1B78DBB243F03003DBB21370184A174B1B78DBB223F00F03DBB21370144A134B1B78DBB243F00F03DBB21370FF2000F048F8002000F055F800208B
:403A400000F062F80C4A0C4B1B78DBB243F00203DBB21370094A094B1B78DBB243F00103DBB2137000BF0837BD4680BD0C4F00400E4F0040174F0040A34300400D4F0040FB
:403A800080B400AF0D4A0D4B1B78DBB243F00203DBB213700A4A0A4B1B78DBB243F00203DBB21370074A074B1B78DBB243F00103DBB2137000BFBD4680BC7047A343004016
:403AC000B34300400C4F004080B483B000AF0346FB71044BFA7992B21A8000BF0C37BD4680BC7047104F004080B483B000AF0346FB71044BFA7992B21A8000BF0C37BD4683
:403B000080BC7047124F004080B483B000AF0346FB71044AFB79137000BF0C37BD4680BC704700BF0F4F004080B485B000AF0346FB710B4B1B78DBB223F00203FB73084972
:403B4000FB795B00DBB203F00203DAB2FB7B1343DBB20B7000BF1437BD4680BC704700BF2051004080B400AF00BFBD4680BC704780B582B000AF0F2000F03EF800F02EF808
:403B800000F0F6FA0346FB71074A074B1B78DBB243F01003DBB21370FB79184600F0ECFA00BF0837BD4680BD9964004080B500AF00F0DCF84FF4004000F006F9064B1B7836
:403BC000002B04D1FFF7CEFF034B01221A70FFF7CFFF00BF80BD00BFBDF1FF1F80B400AF044B1B78DBB203F00F03DBB21846BD4680BC70476964004080B483B000AF034618
:403C0000FB71044AFB79137000BF0C37BD4680BC704700BF8964004080B400AF00BFBD4680BC704780B582B000AF0F2000F03EF800F02EF800F09CFA0346FB71074A074BF8
:403C40001B78DBB243F01003DBB21370FB79184600F092FA00BF0837BD4680BD9F64004080B500AF00F04AF94FF4004000F074F9064B1B78002B04D1FFF7CEFF034B0122F0
:403C80001A70FFF7CFFF00BF80BD00BFBEF1FF1F80B400AF044B1B78DBB203F00F03DBB21846BD4680BC70476F64004080B483B000AF0346FB71044AFB79137000BF0C37D1
:403CC000BD4680BC704700BF8F64004080B582B000AF1C4B1B78DBB223F00703FB71194AFB791370174B1B78DBB223F00303FB71144AFB79137000F0A3F84FF4004000F002
:403D00007FF84FF4004000F05FF8002000F040F800F04EF84FF4004000F082F800F028FA0346BB71084A084B1B78DBB243F01003DBB21370BB79184600F01EFA00BF08379D
:403D4000BD4680BD7A6400409A64004080B400AF054A054B1B78DBB263F07F03DBB2137000BFBD4680BC70477A64004080B500AF064B1B78002B04D1FFF7A8FF034B012277
:403D80001A70FFF7E3FF00BF80BD00BFBFF1FF1F80B483B000AF0346FB71044AFB79137000BF0C37BD4680BC704700BF8A64004080B400AF034B1B78DBB21846BD4680BC35
:403DC000704700BF6A64004080B483B000AF0346FB80044AFB88138000BF0C37BD4680BC704700BF1068004080B400AF034B1B889BB21846BD4680BC704700BF9068004026
:403E000080B483B000AF0346FB80044AFB88138000BF0C37BD4680BC704700BF5068004080B483B000AF0346FB80044AFB88138000BF0C37BD4680BC704700BF7068004088
:403E400080B500AF01E0FFF7CFFFFFF7B1FF034603F04003002BF6D100BF80BD80B582B000AF1C4B1B78DBB223F00703FB71194AFB791370174B1B78DBB223F00303FB711F
:403E8000144AFB79137000F0A3F84FF4004000F07FF84FF4004000F05FF8002000F040F800F04EF84FF4004000F082F800F060F90346BB71084A084B1B78DBB243F010033A
:403EC000DBB21370BB79184600F056F900BF0837BD4680BD7C6400409C64004080B400AF054A054B1B78DBB263F07F03DBB2137000BFBD4680BC70477C64004080B500AF03
:403F0000064B1B78002B04D1FFF7A8FF034B01221A70FFF7E3FF00BF80BD00BFC0F1FF1F80B483B000AF0346FB71044AFB79137000BF0C37BD4680BC704700BF8C640040AC
:403F400080B400AF034B1B78DBB21846BD4680BC704700BF6C64004080B483B000AF0346FB80044AFB88138000BF0C37BD4680BC704700BF1C68004080B400AF034B1B8840
:403F80009BB21846BD4680BC704700BF9C68004080B483B000AF0346FB80044AFB88138000BF0C37BD4680BC704700BF5C68004080B483B000AF0346FB80044AFB88138026
:403FC00000BF0C37BD4680BC704700BF7C68004080B500AF01E0FFF7CFFFFFF7B1FF034603F04003002BF6D100BF80BD80B500AF224A224B1B78DBB203F00103DBB2137066
:404000001F4A1F4B1B78DBB223F00303DBB213701C4A1C4B1B78DBB223F03003DBB21370184A184B1B78DBB243F03003DBB21370144A144B1B78DBB223F00F03DBB21370B4
:40404000104A104B1B78DBB243F00F03DBB213700D4A0D4B1B78DBB243F00103DBB2137044F61F6000F058F844F61F6000F066F8002000F041F800BF80BD00BF184F004055
:404080001A4F0040234F0040194F004080B400AF0D4A0D4B1B78DBB243F00403DBB213700A4A0A4B1B78DBB243F00403DBB21370074A074B1B78DBB243F00103DBB21370E4
:4040C00000BFBD4680BC7047A3430040B3430040184F004080B500AF064B1B78002B04D1FFF784FF034B01221A70FFF7CFFF00BF80BD00BFC1F1FF1F80B483B000AF03461E
:40410000FB71044AFB79137000BF0C37BD4680BC704700BF1B4F004080B485B000AF0346FB80FB88FB81044AFB89138000BF1437BD4680BC704700BF1C4F004080B483B05C
:4041400000AF0346FB80044AFB88138000BF0C37BD4680BC704700BF1E4F0040000000000230800803D000BF01380046FCD17047EFF3108072B6704780F31088704700BFE3
:4041800080B582B000AF0023BB711B4B1B78DBB203F00303012B02D0022B04D012E0164B1B79FB7111E0144B1B79DBB203F07F02124913465B0013449B000B440A331B78C4
:4041C000FB7102E00023FB7100BFFB79022B0ED80B4B1A68FB7913441B78022B04D1FDF777F90346BB7102E00023BB7100BFBB7918460837BD4680BD00600040F8200020B2
:40420000EC200020014B1868704700BF4486FF1F0E4B70B51E460E4C0025E41AA410A54204D056F8253098470135F8E700F028F9084B094C1E46E41AA4100025A54204D014
:4042400056F8253098470135F8E770BD8C4400008C4400008C4400009444000010B5431E0A44914204D011F8014B03F8014FF8E710BD03460244934202D003F8011BFAE79D
:404280007047000000000000004F0040300040510040300000000140001000140140800400190140000300400140000A004C0140000210500140100080180140580E0048AE
:4042C000800000500140D80E0048100030313233343536373839414243444546000000001201000202000008B40432F2010001028001000009024300020101C032090400FC
:40430000000102020103052400100104240202052406000105240100010705810308000A09040100020A000004070582024000000705030240000000040309042C0343004C
:404340007900700072006500730073002000530065006D00690063006F006E0064007500630074006F007200100355005300420055004100520054003803430044004300DA
:40438000200043006F006D006D0075006E00690063006100740069006F006E00200049006E00740065007200660061006300650026034300440043002000440061007400AA
:4043C0006100200049006E00740065007200660061006300650000000203000000008103080002000100820240000A000100030240000A00020A000001000000F4420000B6
:4044000003000000DC4300000000000000000000000000000000000000000000F443000001000000E0420000000000000000000001000000F843000001000000204400005F
:4044400012034D0053004600540031003000300001000000280000000001040001000000000000000001435955534200000030303030310000000000000000004300000072
:40448000F8B500BFF8BC08BC9E4670474D000000D90C0000F8B500BFF8BC08BC9E46704729000000B8440000C880FF1F80050000589B000000000000000000000A000000BF
:4044C000435333303120323031360A00000000000000000000000000000000000000000000000000000000000000000000000000000000000000000000000000000000009F
:40450000010000000100000001000000010000000100000001000000010000000100000001000000010000000100000001000000010000000100000001000000010000006B
:404540000100000001000000010000000100000000000000000000000000000000000000000000000100000000000000000000000000000000000000000000000000000036
:4045800000000000000000000000000000000000000000000100000001000000010000000100000001000000010000000000000001000000000000000100000001000000F2
:4045C00001000000010000000100000001000000010000000000000001000000000000000100000001000000000000000000000000000000000000000000000000000000B3
:404600000000000000000000000000000000000000000000000000000000000001000000000000000100000000000000010000000100000000000000010000000000000075
:40464000010000000100000001000000010000000100000000000000010000000000000001000000010000000100000000000000010000000000000001000000010000002E
:4046800000000000010000000000000000000000000000000100000000000000000000000000000001000000000000000100000000000000000000000000000001000000F5
:4046C00000000000010000000100000000000000010000000100000001000000000000000100000000000000010000000000000001000000000000000100000000000000B1
:404700000100000001000000010000000000000001000000010000000000000000000000000000000000000000000000010000000000000001000000000000000100000071
:404740000000000001000000000000000100000000000000000000000000000001000000010000000000000001000000010000000100000001000000010000000000000030
:4047800001000000000000000100000001000000010000000000000001000000000000000100000001000000010000000100000000000000000000000000000000000000F0
:4047C00000000000000000000000000001000000000000000000000000000000010000000000000001000000000000000000000000000000010000000100000001000000B3
:40480000010000000100000001000000010000000100000000000000010000000100000001000000000000000100000000000000010000000100000001000000000000006C
:404840000100000001000000000000000000000000000000000000000000000000000000000000000000000000000000010000000000000001000000000000000000000034
:4048800000000000000000000000000001000000010000000000000001000000010000000100000001000000010000000100000001000000000000000100000000000000EE
:4048C00001000000010000000100000001000000010000000000000001000000010000000000000000000000000000000000000000000000000000000000000001000000B0
:404900000000000000000000000000000000000000000000000000000000000000000000000000000100000001000000010000000100000001000000010000000100000070
:40494000010000000100000001000000010000000100000001000000010000000100000001000000010000000100000001000000010000000100000009000000050000001B
:404980000500000007000000010000000D000000050000000900000009000000FFFF000000C2010000000800C201000000080000A1200000000002000000FFFF807F000072
:4049C000030000000087930360EA00003C0000000000307500000000000000000000000000000000000000000000000000000000000000007C4400000000000000000000AC
:404A000000000000000000000000000000000000000000000000000000000000000000000000000000000000000000000000000000000000E485FF1F0000000000000000EF
:404A40000000000000000000000000000000000000000000000000000000000000000000000000000000000000000000000000000000000000000000000000000000000036
:404A800000000000000000000000000000000000000000000000000000000000000000000000000000000000000000000000000000000000000000000000000000000000F6
:404AC00000000000000000000000000000000000000000000000000000000000000000000000000000000000000000000000000000000000000000000000000000000000B6
:404B00000000000000000000000000000000000000000000000000000000000000000000000000000000000000000000000000000000000000000000000000000000000075
:020000040003F7
:0200000480007A
:4000000001450040084F00400C520040015B004006640040026500402A0001402F010140230201403A03014020040140440501403406014049070140680801404E09014014
:40004000540A0140440B0140430C0140490D0140650E0140380F0140311401404C150140221601404E17014020180140401901404F1A0140481B01400D4001401641014020
:400080001642014013430140064401400D4501400B4601400D47014017480140154901400B4C01400C4D014006500140045101407E0201200A4B0D20164B1950224B25406E
:4000C0002E4B00A101C10904100811081818191860106120782079307C4027848507890F8A6F8C6F8D728F0F8438870F0310040206010A040D010E080F0213041610170826
:400100001C011D021E021F01240125012602270228012A022D012F02300431083208331034033504361037033A203B805608580459045B045D905F01D804D904DC11DF01BB
:40014000000401800308051008080A020C090E05122816801740184C19841B0820022180222929842C082E8031803209340135103602374038403B013E0558105A806008F8
:40018000630168046980814088048D40C047C2F5C496CA3ACCBBCEC9D60CD80CE240010207080B010D010E011302171019041F0422022508311F3402360139023F015401B5
:4001C000580459045B0C5C115D105F018001840190019A01A201AA01AC01B601D804D904DC11DF0100050510068007010A440C090E05100811021202148017401A021C05B6
:400200001D101E0125032740280129182C092D082E042F4030083102348035103604370138013A803C203D043EC15D407F0290089540968598019C109D109E809F40A408C8
:40024000A602AC01C0DCC2FAC49BCAFECCF3CEF9D610DE10EC08EE02580459045C115F018201860488018B018C0290809240944096809A089E02A004A408A820AA10AC109A
:40028000AE20B101B4FFBE10D602D731D804D904DB0CDC10DD10DF010005040706A1070409090A040B800C680D080E450F01104012021480151517401E08248026022740D9
:4002C00028402B012C082E842F40302031083202360238063C043D103E015F1065406D156E407412760177057F028C048D04900C92019544968497809A409C909E809F01BA
:40030000A101A418A606A702AE41C0FCC2FEC4F9CAF9CC87CEE3D620D810DE10E240EA0800040201040A0605080709040A080F0210011104140F15101A301B011C2025089F
:400340002A022D0130203108320C3310340335033610370439803F4552075306580C59045B045C915D105F0180088A029204AA01B004B201B408B602BE10D608D804D904CB
:40038000DB04DC10DD90DF01010203080514064008020C020D200E010F101208171019011A0A1B081D141E011F01252426A0274028402B012D482F0131083202354036A1CB
:4003C000370838063A203D123E803F125A8060026D106F127F02840485088A018D118E088F08908091049240930194029540960497109A609C109D40A012A101A203A50CBE
:40040000A703AA40B601C07AC2F8C442CA59CCE3CE37D608D808DE10EA01003002C904FD05F70602109E11C0126013341473157718941A601B071DA11F5220CF22302308DB
:40044000253127C229542A0F2BA0330F35F036FF3E404065410249FF4AFF4BFF4DA04F0150185608580459045A045B045D905F016040628064406540668068406A806C402A
:400480006D206E808003810C820C870389029008940199089B04A70CA803B004B102B202B301B408B508B601B704B888BE50BF51C065C102C54EC6C3C702C81FC9FFCAFF66
:4004C000CBFFCDAFCE07CF01D018D40FD804D904DA04DB04DF01E040E280E440E540E680E840EA80EC40ED20EE8002800404074009080A400D080E881204150217201988AA
:400500001A441F80201022512404273029082F9833103408364A372038123A043C044310472049A64DA052A4580859015AA05C805E20602062046405680269408004810184
:400540008A088C048E01900291269334940C960E9780988099209A029B419C209D069E09A080A108A25EA349A544A620C038C27CC452CAE2CCF4CE47D024D23CD63FD830C0
:40058000E070E440EA1101D802030304040405B70708156F1A0C1B1F1C011D111F0221D923022E043001311F320833E03404360239083E115280540F580459045B045F05F4
:4005C000844085FE8680870188408A808C408E80902191A39210935C943C957F98859A489B019DC59E029F3AA025A208A50EA7F0A81DA996AA20AB68AE3DB03DB1FFB203D3
:40060000B4C0B980BA20BF41C001C540C9FFCA07CBFFCC40CD20CEF0CF05D008D804D904DA04DD03DF01E040E1A8E240E320010A0408060908100A010B080D080E8A134026
:40064000150216041740180219281A411D101E881F142109220A268128402F18311833403450364A380439023A043C0445404F02574058205A466104622073407A088E8026
:400680008F48912493149608978098809A029B01A080A210A504A880C0ECC2F3C4D1CA61CCFECE43D010D60FD806DE04E010E240E440EA08EE01020404040511070209B7DA
:4006C0000B0811D91302156F1C012203231F25D8260C270430013208331F340435E0360239203E115280540F580459045B045F0588FE895D8A018B208CA38D808E5C916131
:400700009310940E953C96F099659A019B08A096A144A268A309A47FA702A8C5A901AA3AAB7CB17CB2FFB303B580BE04BF10D602D712D804D904DB04DD30DF01002002025E
:4007400005040740081409040E0210401208130814101508168019081C041D041E4220082104220225102608271C284429082C402F2032023334360237083A203B803C20E0
:400780003D083E205A085D105E485F02661869246B0170807202731477407D2088048A109110940498409A989B029F08A010A204A504A60BAC40B104B201C033C286C43E1C
:4007C000CAC7CCC7CE6CD6F2D860DE20EE0205F708FD09A10A020B520F0711C0133414941531166017C21C301EC92154220F23A024732708289E29772A602CCF2E3032FF52
:4008000033F0370F3E044023410549FF4AFF4BFF4DA04F015018580459045A045F016040628064406540668068406A806C406D206E80830388018D088F049008910C9C03F8
:400840009D02A30CAC03AE0CB004B101B201B304B408B508B602B702B888BE14BF54C023C105C520C6C4C73EC83EC9FFCAFFCBFFCDAFCE07CF01D018D40FD804D904DA04E1
:40088000DB04DF01E040E280E440E540E680E840EA80EC40ED20EE80002005200708084409040E800F02128A1318160219081C101D081E881F4020222104228024202610EA
:4008C0002742284029282F40300432023601374039083B503F42401443104508471048014B404F42569A5D805E215F088010818089108B01C042C295C48FCA87CC93CE9E23
:40090000D066D218D6F0E02000030103050309030C010E021203130314021503160118011A021D03200328032D022F01300232013301350254185604580459045B045C110C
:400940005D305F01800784078B018C018E0692079401960698029A059C07B004B201B402B701D804D904DC11DF0101800280048205800620080109090A040B400D080E04FB
:400980000F411110130118201B011D011F2420182402268029802D802E20300131083280330436803704380439103A203B013C243F41580260886240801084808704880A81
:4009C0008C108D0190849204930194029A609C01A010A109A404A680A721A940AB08AC80B010B301B420B610C0B9C2FEC40ACA38CC5BCEF7D601D80DE210E488EA04EC2093
:400A0000EE0226012F01330134015608580459045B045C115D905F01C056C101C5ECC60BC807C9FFCAFFCBFFCEF0CF44D00CD401D604D804D904DA04DB04DC11DD33DF01A3
:400A4000E6C0EA40EB0201080281038004820508062109090A040C410D080E040F01130115041C041E04250827102A012B402E602F80304131083401371038063A203E04A6
:400A80003F814002482049034A0A5140588059015A185D4061026680814082088402864287208D028E409080910492489301940696849A209C509D029E809F08A010A10151
:400AC000A404A508AB40C0BDC2FEC428CAB1CCABCED7D008D20CD61FD811E011E20EE612EE020410060C08140F351203130819731B0C1C1020092210241C2573260227047E
:400B0000280C294A2A112B142D032F14301F330F3510376039803B083F50580459045C335F010090021006040720080509800E400F021002110412081628170218141901DB
:400B40001A011E4020482180220525402620272029A12EA82F143241360137223A023B543F8040444180484049204A024B40528082048348860187308A018B089164931442
:400B80009608978098059A029B01A082A341A544C067C29DC477CA7DCCA9CE1FD00DD20CEE02003C02C204FF054F08CF094F0A300C3C0D150EC10F2A1004114014081503DC
:400BC000170C1A0C1B801E831F8020202410283029082B222C042D042E082F11303F31403240330F353036B0378038083AA23F40580459045C335F018270830484708510D5
:400C0000860D870888028A0C8D088F1091089311980599089A389B129E20A805AA58B102B23CB318B468B501B603B704B880BA28BB08D608D804D904DB04DC03DD90DF01A6
:400C4000000401820308040105040708080509200A020E080F02108213141720180419A21AA01C011D041E0A1F1420022120220B2440250426202702280532983301362035
:400C8000370239643A103C403D083F015C80670188058B4091649314968097A898859B299DA09E10A086A280A309A504A60BAA40AE20B480B680C07FC2CFC44FCA0CCCAF16
:400CC000CEDED610D810E2A0E4C8E880EA20EC30128016803328364239083B403E8083208F20C430CCF0CE70E280302032043608378053105C025E2060046480920895086E
:400D000097409B20A280A642AE04AF28CCF0D420D6A0D8C0EE401208178058085C08600864088C08940497409B209C829F80A280A420A65AAD04AF10C4C0D6C0D8C0EA105C
:400D4000EE401B011C2084028701940497409B209C82A280A420A650A708AA02AB08C630E410E640EA80EC80734074048804DC01DE04E004001008085D8088088B4095027E
:400D80009740AD01C002C208D604E004E2011B0224108D8095029D80A702A810AF02C608C801E4020B410D01404044018C4095029701AB01B410C20ED006E002EA080308D1
:400DC0000740208086108C208F40940497409A089B209C80A010A280A301A420A610A708AA08AE40C060C840E610EEC05F20630266088004874088108C80940497409A08B6
:400E00009B209C80A010A301AA80B040D660D880E220E640EC2008100D805940750178409C01AF40C203D401DC01DE047B0285408B028D019D41B051B580DC01E403E8013C
:400E4000EA0CEC04100B11011A0A1B011C091D0100AB01FF0203100A0004000003020800E0060C0000001031403901068000020000000000002E1011001100000300040065
:400E8000203F0300410F8230E0070F08E010102622000802000051044506010002C00E0006FFFFFF62A0F0410C000000000000000404040033030001000000000000400246
:400EC0000010301000101012000000000000000000000000000000000B0100000000000003010301090109000000000000E3E30000707000700000004000060000000030BD
:400F0000F0000000C00B0B00000404000800140A0A00080000000000007B7B003800000000010000000000000000000000000000000000000000000000000000000000007C
:400F40000000000000000000000000000000000000000000000000000000000000000000000000000000000000000000000000000000000000000000000000000000000071
:400F80000000000000000000000000000000000000000000000000000000000000000000000000000000000000000000000000000000000000000000000000000000000031
:400FC00000000000000000000000000000000000000000000000000000000000000000000000000000000000000000000000000000000000000000000000000000000000F1
:4010000000000000000000000000000000000000000000000000000000000000000000000000000000000000000000000000000000000000000000000000000000000000B0
:0200000490006A
:0400000000004005B7
:0200000490105A
:04000000BC90ACAF55
:0200000490303A
:020000002431A9
:0200000490402A
:4000000000000000000000000000000000000000000000000000000000000000000000000000000000000000000000000000000000000000000000000000000000000000C0
:400040000000000000000000000000000000000000000000000000000000000000000000000000000000000000000000000000000000000000000000000000000000000080
:400080000000000000000000000000000000000000000000000000000000000000000000000000000000000000000000000000000000000000000000000000000000000040
:4000C0000000000000000000000000000000000000000000000000000000000000000000000000000000000000000000000000000000000000000000000000000000000000
:0200000490501A
:0C00000000012E16106900012E34349A05
:00000001FF