:400000000080002011000000D1060000D106000080B500AF024A034B1B68136000F08AFBBC760040FA46004010B5054C237833B9044B13B10448AFF300800123237010BDE4
:400040007081FF1F00000000D4460000084B10B51BB108490848AFF300800848036803B910BD074B002BFBD0BDE81040184700BF000000007481FF1FD4460000C880FF1F7E
:400080000000000080B500AF962003F013FA9E2003F0D4FA00BF80BD80B500AF002003F009FA002003F0CAFA00BF80BD80B5ADF59C4D8AB000AF62B63C4B00221A7000F07A
:4000C00025FD03F005FE00F08BFC00F0A1FC03F017FB03F081FB002003F0D0FA4FF4FA6003F060F803F042F903F004FAFFF7CAFF002307F59C4202F126021380002307F503
:400100009C4202F1240213804FF4FA6003F04AF8FFF7C2FF03F078FB034607F59C4202F12202138003F004FB034607F59C4202F12002138007F59C4303F12603B3F90020F8
:4001400007F59C4303F12003B3F9003007F51C5000F128001838164903F090FE07F59C4303F12403B3F9002007F59C4303F12203B3F9003007F1280028380E4903F07EFE28
:400180000121002000F006FD002003F01DFD07F51C5303F12803183B184600F00DF807F12803283B184600F007F8FEE79E81FF1FD84600000447000080B582B000AF786061
:4001C00000BF00F0FDFF0346002BFAD07B683F3300221A707B683E3321221A70786803F071FE03469BB21946786800F0B3FF00BF0837BD4680BD00BF80B582B000AF786050
:4002000039603A680021786803F02FFE00BF0837BD4680BD80B584B000AFF860B9607A607A68B968F86803F015FE00BF1037BD4680BD00BF80B483B000AF0346FB71FEE7A3
:4002400080B487B000AF7860396000233B6100237B6127E07B699B007A6813441B68BB60BB68FB73BB6823F0FF03BB6014E03B695B003A6813441B781A46BB68134419463C
:400280003B695B003A6813445B780B703B6901333B61FB7B013BFB73FB7B002BE7D17B6901337B617B692A2BD4D900BF1C37BD4680BC704780B582B000AF3F4B04221A80C9
:4002C0003E4B18221A703E4B3A221A803D4B18221A703D4B3B221A803C4B18221A703C4B81221A803B4B18221A703B4B00221A803A4B1B221A703A4B00221A80394B1B227E
:400300001A70394B06221A70384B52221A70384B384A1278D2B21A70374B40F619121A80364B41F251221A800023FB7019237B6014E0FB785B00DAB2314B1B78DBB203F01F
:400340000103DBB21343DBB203F00303FB704FF4F07003F001FD7B68013B7B607B68002B02D0FB78032BE4D17B68002B02D10320FFF760FF234B4FF480721A80214B0722B6
:400380001A70214B00221A70204B48221A701D4B00221A701E4B00221A701E4B02221A701D4A1D4B1B78DBB243F03F03DBB2137000BF0837BD4680BD804000408240004048
:4003C0008440004086400040884000408A4000408C4000408E400040904000409240004094400040964000400043004000420040A14600400F0100492242004020420040B0
:40040000254200400440004006400040084000400940004001400040A243004080B582B000AF244B1B78FB71234B1B78BB71234B1B787B71224AFB7903F00703DBB21370C9
:40044000204AFB791B09DBB213701B4ABB7943F00303DBB21370194A7B7943F00303DBB21370194BE0221A70184BF4221A70184B40221A70174B40221A70174BE0221A706A
:40048000164B4F221A70164B20221A70154B40221A700A2002F0A8FE084A7B791370064ABB791370104B44221A7000BF0837BD4680BD00BFCF010049F8460040F946004077
:4004C0006E5800406F5800400D5100401D510040095900400B590040005B0040285B00402B5B0040585B00407658004080B586B000AF72B6584B61221A70FFF7DBFE564BD6
:4005000001221A70554A554B1B78DBB243F00403DBB213700023FB7513E0FA7D13465B0013445B004E4A13443B613B691A683B699B889BB219461046FFF75EFEFB7D01338A
:40054000FB75FB7D062BE8D90023FB751CE0FA7D13469B0013445B00424A1344FB60FB681B68BB60FB685B687B60FB681A7A5B7A1B0213437B807B881A467968B868FFF721
:4005800049FEFB7D0133FB75FB7D002BDFD036494FF09040FFF754FE04213448FFF72CFE042233493348FFF735FE334B334A1A60334B344A1A60344A334B1B78DBB243F06F
:4005C0000203DBB21370314A304B1B78DBB243F00203DBB213702E4A2D4B1B78DBB243F04003DBB213702B4A2A4B1B78DBB243F01003DBB21370082227492848FFF70AFE8A
:40060000082227492748FFF705FE0A2226492748FFF700FE082226492648FFF7FBFD0A2225492648FFF7F6FD082225492548FFF7F1FD254A244B1B78DBB243F00803DBB222
:400640001370FFF7EBFE0E2211492048FFF7E2FD00BF1837BD4680BD00480040E8460040304700005C470000AC00004800760040F80F004808760040580401400404008413
:4006800058140140040404840350014013500140A0430040C2430040C00F004802510040C80F0048C2510040D00F0048F0510040DC0F004812510040E40F004820510040D7
:4006C000F00F00483251004022430040B043004080B500AF03F092FB03461B680C2B00D1FEE7FEE780B584B000AF78600F4B1A687B6813441A460E4BD31A802B09DC0B4B84
:400700001B68FB60094B1A687B681344074A136007E003F073FB02460C2313604FF0FF33FB60FB6818461037BD4680BDCC80FF1FD082FF1F80B586B000AF224B7B61224B17
:400740003B61204B7B6135E03B691B68FB603B695B68BB603B699B683B6000237B600CE0FB681A68BB681A60BB680433BB60FB680433FB607B6804337B607A683B689A420F
:40078000EED13B69DB683B6000237B6008E0BB6800221A60BB680433BB607B6804337B607A683B689A42F2D13B6910333B617B69013B7B617B69002BC6D103F025FBFFF797
:4007C00075FCFEE7010000007449000080B582B000AF194B194A1A60194A194B1B6843F40073136000237B600FE07B68032B04D8144A7B6852F8233000E0134B13497A68F3
:4008000041F822307B6801337B607B682F2BECD90F4B1B78DAB20F4B1A700F4B0B4A1A60FFF764FE02F096FA0C4B00221A6000BF0837BD4680BD00BF0CED00E00004FA050D
:4008400014ED00E000000000D10600000080FF1FBC760040C480FF1F08ED00E0C080FF1F80B500AF41F6FF734FF480420121022002F0D8F903461A460A4B1A7041F6FF7351
:4008800041F6FF720121102002F0FEF903461A46054B1A70054802F029FA002002F038FA00BF80BDA881FF1FA981FF1F1D0A000080B582B000AF414B1B78184602F0BEFA3D
:4008C0003F4B1B78184602F0B9FA3E4B1B78FF2B05D102F0BFFB03461A463A4B1A70394B1878384B1A780623102102F0E1FB354B1B78354A92B245F6A231184602F018FCBF
:400900002E4B1A782F4B1B781946104602F034FB2E4B1B78FF2B05D102F09CFB03461A462A4B1A70294B1878284B1A780723102102F0BEFB254B1B78234A91B2244A92B218
:40094000184602F0F5FB1E4B1A78204B1B781946104602F011FB194B1B780121184602F027FA174B1B780121184602F021FA03F0FBF90346FB71174A164B1B78DBB243F0CE
:400980002003DBB21370FB79184603F0F1F9124A114B1B78DBB243F00103DBB213700E4A0D4B1B78DBB243F00203DBB213700B4B01221A6000BF0837BD4680BDA881FF1FA6
:4009C000A981FF1FD080FF1FAC81FF1FD180FF1FD481FF1F986400407764004080E200E080B500AF084B1B68002B04D1FFF738FF054B01221A6002F011F8FFF759FF034B10
:400A00001B7800BF80BD00BFA481FF1F6B64004080B500AF02F0B6F800BF80BD80B400AF00BFBD4680BC704780B500AF214A214B1B78DBB203F00103DBB213701E4A1E4B4B
:400A40001B78DBB223F00303DBB213701B4A1B4B1B78DBB223F03003DBB21370174A174B1B78DBB243F03003DBB21370134A134B1B78DBB223F00F03DBB213700F4A0F4BD0
:400A80001B78DBB243F00F03DBB213700C4A0C4B1B78DBB243F00103DBB21370632000F057F8632000F066F8002000F041F800BF80BD00BF244F0040264F00402F4F0040F0
:400AC000254F004080B400AF0D4A0D4B1B78DBB243F00803DBB213700A4A0A4B1B78DBB243F00803DBB21370074A074B1B78DBB243F00103DBB2137000BFBD4680BC70476C
:400B0000A3430040B3430040244F004080B500AF064B1B78002B04D1FFF786FF034B01221A70FFF7CFFF00BF80BD00BFBC81FF1F80B483B000AF0346FB71044AFB7913707E
:400B400000BF0C37BD4680BC704700BF274F004080B485B000AF0346FB71FB79FB81044AFB89138000BF1437BD4680BC704700BF284F004080B483B000AF0346FB71044B56
:400B8000FA7992B21A8000BF0C37BD4680BC70472A4F004080B582B000AF03460A46FB711346BB71094B1B78002B04D100F010F8064B01221A70BA79FB791146184600F06A
:400BC000D9F800BF0837BD4680BD00BFBD81FF1F80B582B000AF03F0C7F80346FB71544A534B1B78DBB243F00103DBB21370514A504B1B78DBB243F00103DBB213704E4B75
:400C000001221A704D4B02221A704D4A4C4B1B78DBB203F07F03DBB21370002002F0E4FA484A484B1B78DBB223F00603DBB21370454A454B1B78DBB223F02003DBB2137008
:400C4000404A404B1B78DBB243F00103DBB21370012002F0C9FA282002F0C6FA3B4A3B4B1B78DBB203F07F03DBB21370374A374B1B78DBB223F04003DBB21370314A314BF8
:400C80001B78DBB243F00203DBB21370022002F0ABFA2C4A2B4B1B78DBB243F00403DBB213702B4B00221A702A4B00221A70FB79184603F05DF80721172002F0D1FA2649D5
:400CC000172002F0A5FA0721182002F0C9FA2349182002F09DFA0721152002F0C1FA2049152002F095FA0721012002F0B9FA1D49012002F08DFA0721022002F0B1FA1A4989
:400D0000022002F085FA0721032002F0A9FA1749032002F07DFA07210C2002F0A1FA14490C2002F075FA00BF0837BD4680BD00BFA5430040B54300409D6000400960004046
:400D4000106000409443004012600040F851004084600040856000408D190000751200008119000099180000E11800002D1900009919000080B582B000AF03460A46FB71A4
:400D80001346BB712E4AFB7913702E4B00221A702D4B00221A702D4B00221A702C4B00221A702C4B00221A702B4B00221A702B4B00221A702A4B4FF400021A60284B4FF062
:400DC00080721A60264B4FF400121A60244B02221A60234B04221A60214B08221A60BB79002B02D0012B09D011E01E4A1D4B1B78DBB223F00103DBB2137011E0194A194B26
:400E00001B78DBB243F00103DBB2137008E0154A144B1B78DBB243F00103DBB2137000BF114B03221A70114B80221A70012002F093FF0F4B04221A7000BF0837BD4680BDFF
:400E4000FD81FF1F0082FF1F1C82FF1F1F82FF1F1482FF1F1E82FF1F2182FF1FFC81FF1F00E100E00960004028600040086000401260004080B400AF0F4B00221A700F4B1E
:400E800000221A700E4B00221A700E4B00221A700D4B00221A700D4B00221A700C4B00221A700C4B03221A700B4B80221A7000BFBD4680BC704700BF0082FF1F1C82FF1F19
:400EC0001F82FF1F1482FF1F1E82FF1F2182FF1FFC81FF1F286000400860004080B483B000AF0346FB71FA79064913465B0013449B000B4401331B78DBB218460C37BD467B
:400F000080BC70472482FF1FB0B485B000AF03463960FB711346BB80FB79002B6DD0FB79082B6AD8B988FA79364813465B0013449B00034406331B889BB2C3F500739942BD
:400F40000CD9FA792F4913465B0013449B000B4406331B889BB2C3F50073BB802A4CF979BB881B0A9BB2D8B2FA79264D13465B0013449B002B4403331B78DBB20343DAB2D3
:400F80000B0123441A70204AFB79B988C9B21B01134401330A461A703B68002B13D00023FB810CE01948FB79FA8939680A4412781B01034408331A70FB890133FB81FA892D
:400FC000BB889A42EED3FA790E4913465B0013449B000B44013300221A700B48F979FA79084C13465B0013449B00234405331B78DAB20B01034402331A7000BF1437BD4663
:40100000B0BC70472482FF1FFC5F00407060004080B582B000AF0023FB71314B1B79DBB2184600F067F80346BB712D4B1B78DBB25BB2002B15DA2A4B5B78DBB2212B00D00A
:4010400048E0284B07221A80BA791346DB009B1A254A1344234A536000F086FA0346FB7138E01F4B5B78DBB2202B02D0222B1AD030E01C4B07221A80BA791346DB009B1A5F
:40108000194A1344174A5360BB79BA7917498A5CD2B242F00102D1B2144AD15400F0E2FA0346FB7116E0BB790D4A9278D2B291B20F4A22F81310BB79BA790C498A5CD2B267
:4010C00042F00202D1B2094AD15400F069FB0346FB7100BFFB7918460837BD4680BD00BF006000400882FF1FD480FF1FE481FF1FF881FF1F80B485B000AF0346FB71002323
:40110000FB73FF23BB7317E0FB7B104AD35C7B737A7B0F4913465B0013449B000B440A331B78DBB2FA799A4203D1FB7BBB730223FB73FB7B0133FB73FB7B012BE4D9BB7B67
:4011400018461437BD4680BC704700BFEC81FF1F2482FF1F80B584B000AF78600B467B80144B1B781A46144B9B5CFB73FA7B134913465B0013449B000B4408331B889BB27F
:401180007A889A420CD9FA7B0C4913465B0013449B000B4408331B887B80002001F0F6FF7A88FB7B79681846FFF7AEFE00BF1037BD4680BDBE81FF1FE881FF1F2482FF1F87
:4011C00080B500AF054B1B781A46054B9B5CDBB21846FFF783FE0346184680BDBE81FF1FE881FF1F80B485B000AF78600B46FB701346BB707B68DB7803F00303FB737B68A7
:401200009B785BB2002B1ADAFB7B032B0AD0BB7803F001031449FA78CA54BB7843F00103BB701BE0BB789B08DBB203F001030F49FA78CA54BB7843F00403BB700EE0FB7B0C
:40124000032B0BD0BB785B08DBB203F001030849FA78CA54BB7843F00203BB70BB7818461437BD4680BC7047E881FF1FEC81FF1FF081FF1F80B582B000AF374B1B78BB710A
:40128000BB7903F01003002B62D00123FB7197F90630002B12DABB7903F00F03012B02D00023FB711CE000F061F82C4B1B78DBB25BB2002B14DA0023FB7111E0BB7903F0BB
:4012C0004003002B02D000F095F809E0BB7903F02003002B02D000F0B3F801E00023FB71FB79002B34D01C4B1B78BB7197F90630002B2DDB1A4B1B78DAB21A4B1B78DBB22B
:401300001343BB71184ABB791370174B1B78DBB2BA799A421CD1114B1B78FB710E4B1B78DBB223F07F03BB71BB79002B0AD10A4B0A4A1278D2B21A70074B1B78DBB203F01F
:401340000F03FB71054B1B78DBB2FA799A42E2D100BF0837BD4680BD286000401D82FF1F9282FF1F2082FF1F2960004080B582B000AF1D4B1B78FB711B4AFB7913701A4BC1
:401380001B78FB7197F90730002B03DA174AFB79137025E0022000F045FA154B1B78DBB203F06003202B08D0402B0BD0002B0ED100F0F8FA0346FB710CE002F0DDFC0346D1
:4013C000FB7107E001F000FB0346FB7102E00023FB7100BFFB79002B02D1044B03221A7000BF0837BD4680BD286000401D82FF1F0060004080B500AF104B1B78DBB2062B66
:4014000019D801A252F823F0371400003714000025140000371400002B140000371400003114000000F0F8F806E000F0A7F903E000F0D2F900E000BF00BF80BD0082FF1FA3
:4014400080B500AF124B1B78DBB2062B1DD801A252F823F08B1400008B140000711400008B140000771400008B1400007D14000000F0D8F80AE000F027F907E0032000F014
:40148000D1F9044B03221A7000E000BF00BF80BD0082FF1F1D82FF1F80B483B000AF0023FB71294B1B78DBB29AB2284B1B889BB213449AB2254B1A8015E02549FB79254A91
:4014C00052681278D2B2CA54224B5B680133214A5360FB790133FB711E4B1B889BB2013B9AB21C4B1A801B4B1B889BB2002B02D0FB79072BE1D9144B1B78DBB2082B02D057
:40150000FB79002B0FD0144B1B78DBB283F07F03DB43DAB2104B1A70104B0F221A70104B02221A7005E00D4B02221A700C4B02221A700C4AFB791370034AFB79137000BFCB
:401540000C37BD4680BC7047FC81FF1FFE81FF1F006000400882FF1F9282FF1F1D82FF1F0082FF1F2082FF1F80B582B000AF164B1B889BB2002B02D100F02EF81EE0134B8C
:4015800002221A70124B00221A7000F06BF9114BDB79DBB29BB21B029AB20E4B9B79DBB29BB21343FB80084B1B889BB2FA889A4202D2054AFB881380FFF76EFF0123184656
:4015C0000837BD4680BD00BF0882FF1F0082FF1F9282FF1F0060004080B400AF094B02221A70094B80221A70084B0F221A70084B00221A70074B00221A7001231846BD469E
:4016000080BC70470082FF1F9282FF1F1D82FF1FFC81FF1F2082FF1F80B500AFFFF73CFF00BF80BD80B500AF0A4B1B78DBB29AB2094B1B889BB213449AB2074B1A80074BF2
:4016400000221A70012000F0EDF8054B03221A7000BF80BDFC81FF1FFE81FF1F0082FF1F1D82FF1F80B582B000AF124B04221A70114B80221A7000F0F5F8104BDB79DBB274
:401680009BB21B029AB20D4B9B79DBB29BB21343FB800B4B1B889BB2FA889A4202D2084AFB881380074B0B221A70012318460837BD4680BD0082FF1F9282FF1F0060004001
:4016C0000882FF1F1D82FF1F80B483B000AF0023BB71234B1B78DBB203F00F03DBB2023BFB71FB799AB21F4B1B889BB213449AB21C4B1A8018E01C4B5B681C49BA798A5CF9
:40170000D2B21A70184B5B680133174A5360BB790133BB71FB79013BFB71134B1B889BB2013B9AB2104B1A800F4B1B889BB2002B02D0FB79002BDED10D4AFB7913700D4B77
:401740001B78DBB283F07F03DB43DAB2094B1A70094B0B221A7000BF0C37BD4680BC704729600040FE81FF1F0882FF1F006000402082FF1F9282FF1F1D82FF1F80B500AF88
:40178000054B00221A70012000F04CF8034B03221A7000BF80BD00BF0082FF1F1D82FF1F80B400AF084B06221A70084B06221A70074B80221A70074B00221A7001231846D8
:4017C000BD4680BC704700BF0082FF1F1D82FF1F9282FF1F2082FF1F80B500AF0D4B1B78DBB2002B0AD00C4A0A4B1B78DBB263F07F03DBB21370074B00221A70074B002262
:401800001A70012000F00EF8054B03221A7000BF80BD00BF1E82FF1F086000400082FF1F1D82FF1F80B483B000AF0346FB710B4B9B68002B0CD0094B9B68FA791A70074BB9
:401840009B68074A128892B25A80044B00229A6000BF0C37BD4680BC704700BF0882FF1FFE81FF1F80B400AF094B00221A80094B9B68002B07D0074B9B6800221A70054B58
:401880009B6800225A8000BFBD4680BC704700BFFE81FF1F0882FF1F80B400AF0D4B01221A700D4B9B7C0D4B1B7BDBB203F00303012B08D0094BDB7BDBB283F07F03DB4357
:4018C000DAB2064BDA73054B01225A7300BFBD4680BC70470B600040FC5F00402482FF1F80B400AF0E4B02221A700E4B93F822300D4B1B7EDBB203F00303012B08D00A4BCF
:40190000DB7EDBB283F07F03DB43DAB2064BDA76054B01225A7600BFBD4680BC704700BF0B600040FC5F00402482FF1F80B400AF104B04221A70104B93F832300F4B93F8A5
:401940002430DBB203F00303012B0AD00B4B93F82730DBB283F07F03DB43DAB2074B83F82720064B012283F8252000BFBD4680BC704700BF0B600040FC5F00402482FF1F5D
:4019800080B400AF00BFBD4680BC704780B500AFFFF770FA00BF80BD80B500AF01F0CAF900BF80BD80B586B000AF0023FB759D4B1B78FB7100233B619B4B00221A8097F936
:4019C0000730002B80F20481964B5B78DBB20A2B00F21B8201A252F823F000BF271B00000B1E00000B1E00000B1E00000B1E00000B1E0000091A00000B1E00009B1B0000B9
:401A00000B1E0000B11B0000864BDB78DBB2012B0ED100F049FEB860BB685B68824A5360814B12221A80FFF79FFD0346FB75EEE17C4BDB78DBB2022B25D17A4B9B78DBB25E
:401A4000184600F009FEB860BB68002B00F0DF81BB685B68744A5360734B5B6803331B78DBB29BB21B029AB26F4B5B6802331B78DBB29BB213439AB26B4B1A80FFF774FDFF
:401A80000346FB75C3E1674BDB78DBB2032B45D10023FB73654B3B6109E03B691B78BB71BB793A6913443B61FB7B0133FB735D4B9B78DBB2FA7B9A4204D23B691B78DBB2B5
:401AC000002BEAD1574B9B78DBB2EE2B01D1584B3B61544B9B78DBB2002B0BD0514B9B78DAB2544B1B7C9A4204D1534800F0ACF9514B3B613B691B78DBB2002B00F08781DE
:401B00003B691B78DBB29AB2474B1A80464A3B695360FFF729FD0346FB7578E102F02CF90346FB7573E1FB7903F00303002B20D0022B00D030E03C4B02221A80394B1B793E
:401B4000DBB203F07F023D4913465B0013449B000B4402331B78DAB2394B1A70384B00225A70314B364A5A60FFF7FEFC0346FB7512E02D4B02221A80324B1B78DAB2304B7A
:401B80001A702F4B00225A70274B2D4A5A60FFF7EBFC0346FB7500BF40E1234B01221A80214B294A5A60FFF7DFFC0346FB7535E11D4B01221A801B4B1B79DBB21A46234B3E
:401BC0001344194A5360FFF7CFFC0346FB7525E1144B5B78DBB2013B0A2B00F21A8101A252F823F0EF1C0000131E00007D1D0000131E0000111C0000131E0000131E0000A5
:401C0000131E0000551C0000131E0000AB1C0000044B9B78DAB20E4B1A70FFF7C1FD0346FB75FBE0006000400882FF1FD4470000DC4800007C470000A482FF1F2482FF1F9F
:401C4000C081FF1F2182FF1F1F82FF1F9082FF1F1E82FF1F744B9B787B717B79002B06D07B79013BDBB2184600F0F6FCB8607B79002B02D0BB68002B03D17B79002B40F06D
:401C8000CA806A4B1B78DBB27A799A4208D0674A7B791370664B01221A70012000F0DCF9FFF77EFD0346FB75B5E000F055FE0346002B00F0B2805C4B1B793B715A4B1B793A
:401CC000DAB25C4B1A703B795B4AD35CDAB23B795A49CB5CDBB29A4204D0554B01221A7000F08CFBFFF75CFD0346FB7595E0FB7903F00303012B20D0012B0CD3022B00D086
:401D00003BE0494B9B78DBB2002B31D100F078FD0346FB752CE0444B9B78DBB2012B29D1474B1B78DBB223F00203DAB2444B1A70FFF736FD0346FB751CE03B4B1B79DBB2B4
:401D4000012B19D8384B9B78DBB2DB43DBB2364A1279D2B2114610463A4A125CD2B21340DAB2384B5A54FFF71BFD0346FB7503E000BF53E000BF51E000BF4FE0FB7903F0D5
:401D80000303012B20D0012B0CD3022B00D03BE0254B9B78DBB2002B31D100F0BDFC0346FB752CE0204B9B78DBB2012B29D1244B1B78DBB243F00203DAB2214B1A70FFF7C3
:401DC000EFFC0346FB751CE0174B1B79DBB2012B19D8154B9B78DBB2DB43DBB2124A1279D2B211461046174A125CD2B21340DAB2144B5A54FFF7D4FC0346FB7503E000BF80
:401E00000CE000BF0AE000BF08E000BF06E000BF04E000BF02E000BF00E000BFFB7D18461837BD4680BD00BF006000401F82FF1F1C82FF1F1482FF1F0482FF1F9082FF1F58
:401E40002182FF1F9482FF1FB0B58AB000AF7860324B07F114041D460FCD0FC42B682370002387F826307B68002B52D07B6822221A707B68013303221A7007F10C0318467E
:401E800001F012FA022387F827303EE097F827307A68134497F8262007F128010A4412F81C2C1209D2B207F128010A4412F8142C1A7097F8273001337A68134400221A7076
:401EC00097F8273002337A68134497F8262007F128010A4412F81C2C02F00F0207F128010A4412F8142C1A7097F8273003337A68134400221A7097F82630013387F82630C3
:401F000097F82730043387F8273097F82730212BBCD900BF2837BD46B0BD00BF6847000090B482B000AF0123FB7180E0464AFB791B0113440C221A70FA79444913465B00F3
:401F400013449B000B4405331B78DBB2002B1CD0FA793E4913465B0013449B000B4404331B78DBB25BB2002B07DA394AFB791B01134402330C221A700EE0354AFB791B01FE
:401F80001344023308221A7006E0314AFB791B011344023380221A702B48F979FA792B4C13465B0013449B00234406331B889BB2DAB20B01034406331A702348F979FA7941
:401FC000224C13465B0013449B00234406331B889BB21B0A9BB2DAB20B01034407331A701948F979FA79194C13465B0013449B00234406331B889BB2DAB20B010344043331
:402000001A701148F979FA79104C13465B0013449B00234406331B889BB21B0A9BB2DAB20B01034405331A70FB790133FB71FB79082B7FF67BAF074BFF221A7000BF0837DE
:40204000BD4690BC704700BF706000402482FF1FFC5F00400A60004080B58AB000AF0346FB7100237B84002387F8273050E097F82720B34913465B0013449B000B4400227B
:402080001A7097F82720AE4913465B0013449B000B44023300221A7097F82720A84913465B0013449B000B44033300221A7097F82720A34913465B0013449B000B44083363
:4020C00000221A8097F827209D4913465B0013449B000B440A3300221A7097F82720984913465B0013449B000B44013300221A7097F82720924913465B0013449B000B4458
:40210000053300221A7097F82730013387F8273097F82730082BAAD9FB79002B16D0002387F825300EE097F82530864A0021D15497F82530844A0021D15497F825300133BB
:4021400087F8253097F82530012BECD97F4B1B78DBB2002B00F04A810023FB767B4B1B78DBB2013BDBB2184600F076FA78617B695B683B613B6907331B7803F04003002BF7
:4021800008D0734B1B78DBB243F00103DAB2704B1A7007E06E4B1B78DBB223F00103DAB26B4B1A707B6908337B617B691B7887F82730012387F82530B6E07B695B68FB61E5
:4021C000002387F82630A3E097F82520FB699B7803F07F039A4240F0938097F82520584913465B0013449B000B4408331B889AB2FB699B889A420CD297F82520FB69988858
:402200004F4913465B0013449B000B44083302461A80FB691B781A464A4B9B5CDAB2FB695B789A426CD197F82520FB699878444913465B0013449B000B44043302461A7062
:4022400097F82520FB69D8783D4913465B0013449B000B4402461A70FB69DB7803F00303FB73FB699B785BB2002B1CDA97F82520FB7B012B01D1072000E00D203049134678
:402280005B0013449B000B44053302461A7097F825202B4913465B0013449B000B44013301221A701BE097F82520FB7B012B01D1052000E00920224913465B0013449B00D8
:4022C0000B44053302461A7097F825201C4913465B0013449B000B44013300221A70FB699B790A2B03D0FB699B79022B08D1FA7E97F825301946F869FEF774FF0346FB763B
:40230000FB690833FB6197F82630013387F8263097F8262097F827309A42FFF455AF97F82530013387F8253097F82530082B7FF644AF7B695B68FB61002387F8253020E0C1
:402340002482FF1F9082FF1F0482FF1F1F82FF1F2182FF1FFB699B7803F07F02FB691878244913465B0013449B000B440A3302461A70FB690833FB6197F82530013387F863
:40238000253097F8252097F827309A42E2D300F09DF90246184B1A6000237B84012387F827301DE097F82720124913465B0013449B000B4406337A8C1A8097F827200D498E
:4023C00013465B0013449B000B4408331B889AB27B8C13447B8497F82730013387F8273097F82730082BDDD9FFF79AFD00BF2837BD4680BD2482FF1F1882FF1F90B585B0C1
:4024000000AF8F4B1B78DBB2002B00F015818C4B1B78DBB2013BDBB2184600F01DF978607B6808337B607B681B78FB707B685B68BB60844B1B78BB700023FB73F7E0BB6893
:402440001B78BA789A4240F0EC80BB787E4AD35CDAB2BB685B789A4240F0E380BB689B7803F07F037B70BB68DB7803F003033B707A78764913465B0013449B000B44033378
:4024800000221A707A78BB689878704913465B0013449B000B44043302461A707A78BB68D8786A4913465B0013449B000B4402461A707A78BB689888644913465B001344C8
:4024C0009B000B44083302461A80BB689B785BB2002B1ADA7A783B78012B01D1072000E00D205A4913465B0013449B000B44053302461A707A78554913465B0013449B00C4
:402500000B44013301221A7019E07A783B78012B01D1052000E009204C4913465B0013449B000B44053302461A707A78474913465B0013449B000B44013300221A70444A28
:402540007B781B011344023301221A70404879787A783E4C13465B0013449B00234408331B889BB21B0A9BB2DAB20B0103441A70374879787A78354C13465B0013449B0082
:40258000234408331B889BB2DAB20B01034401331A70304879787A782C4C13465B0013449B00234406331B889BB2DAB20B01034406331A70274879787A78244C13465B00CB
:4025C00013449B00234406331B889BB21B0A9BB2DAB20B01034407331A701E4879787A781A4C13465B0013449B00234406331B889BB2DAB20B01034404331A701548797871
:402600007A78124C13465B0013449B00234406331B889BB21B0A9BB2DAB20B01034405331A70BB680833BB60FB7B0133FB73FA7BFB789A42FFF403AF00BF1437BD4690BDAD
:402640001F82FF1F1482FF1F9082FF1F2482FF1FFC5F00407060004080B485B000AF0346FB710F4B1B78DBB20E4ADB0013445B68FB60FB681033FB60FB681B78FA799A4213
:4026800002D30023FB6005E0FB79DB00FA6813445B68FB60FB6818461437BD4680BC7047FD81FF1FD448000080B400AF054B1B78DBB2054ADB0013445B681846BD4680BCCE
:4026C000704700BFFD81FF1FD448000080B584B000AF104B1B78DBB2013BDBB21846FFF7BBFFB860BB68002B0DD0BB685B681B79FB71FB790233DB00BA681344BB60BB68DE
:402700005B68FB6001E00023FB60FB6818461037BD4680BD1F82FF1F80B582B000AF0023FB71344B1B79DBB203F07F03BB71BB79002B5AD0BB79082B57D8BA79B9792E4835
:402740000B465B000B449B00034402331B78DBB243F00103D8B2284913465B0013449B000B44023302461A70BA79234913465B0013449B000B44033300221A70BA79B9791E
:402780001D480B465B000B449B00034401331B78DBB243F00203D8B2174913465B0013449B000B44013302461A70BA79124913465B0013449B000B4404331B78DBB25BB27F
:4027C000002B07DA0D4ABB791B01134402338D221A7006E0094ABB791B011344023389221A70FEF7DDFF0346FB71FB7918460837BD4680BD006000402482FF1FFC5F004041
:4028000080B582B000AF0023FB71504B1B79DBB203F07F03BB71BB79002B00F09280BB79082B00F28E80BA79B97949480B465B000B449B00034402331B78DBB223F001038F
:40284000D8B2434913465B0013449B000B44023302461A70BA793E4913465B0013449B000B44033300221A703A49BB793948BA79120102441278D2B202F07F02D2B21B01D0
:402880000B441A70BA79B97931480B465B000B449B00034401331B78DBB223F00203D8B22B4913465B0013449B000B44013302461A70BA79264913465B0013449B000B4488
:4028C00004331B78DBB25BB2002B1BDABA79204913465B0013449B000B4401331B78DBB2012B07D11B4ABB791B01134402330C221A7022E0174ABB791B01134402330D2204
:402900001A701AE0BA79124913465B0013449B000B4401331B78DBB2012B07D10D4ABB791B011344023308221A7006E0094ABB791B011344023309221A70FEF731FF034619
:40294000FB71FB7918460837BD4680BD006000402482FF1FFC5F004080B584B000AF0023FB73154B1B79BB73144B1B78DBB2013BDBB21846FFF770FEB860BB685B681B7934
:40298000FB71BA7BFB799A4202D9BB7B022B0ED8BB7BBA7B0A498A5CD1B20A4AD154BB7B054A9278D1B2064AD1540123FB73FB7B18461037BD4680BD006000401F82FF1F8F
:4029C0009082FF1F0482FF1F80B582B000AF0023FB710F4B1B78DBB25BB2002B12DA0C4B5B78DBB2012B00D00CE00A4B0A4A5A60094B1B789AB2074B1A80FEF7B5FD0346AF
:402A0000FB7100BFFB7918460837BD4680BD00BF006000400882FF1FF048000080B500AF064B1B78002B04D100F00AF8034B01221A7000F01BF800BF80BD00BFC281FF1F07
:402A400080B500AF074A074B1B78DBB243F00603DBB213700C2000F06BF8034B00221A8000BF80BD09590040A082FF1F80B582B000AF01F079F90346FB71254A244B1B785D
:402A8000DBB243F00203DBB21370224A214B1B78DBB243F00203DBB213701F4B1B78BB71BB7943F00203BB71BB7943F00103BB71194ABB791370194B18221A70184A184BA2
:402AC0001B78DBB243F04003DBB21370144A144B1B78DBB223F00303DBB21370114BC8221A70114B02221A70104A104B1B78DBB243F00803DBB213700A2000F075FBFB792F
:402B0000184601F035F900BF0837BD4680BD00BFAB430040BB4300400B5900400E5900400D59004008590040164600402F5B004080B584B000AF0346FB71FB790A2B07D06A
:402B40000C2B02D0082B06D008E0C223FB730BE08223FB7308E04223FB7305E0C223FB73002000F013FB00BF054AFB7B1370FB79184600F017F800BF1037BD4680BD00BF1C
:402B80000A59004080B400AF054A054B1B78DBB243F00103DBB2137000BFBD4680BC70470859004080B584B000AF0346FB71FB790A2B08D00C2B02D0082B08D00BE04FF4A3
:402BC0008053FB600DE04FF48063FB6009E04FF48073FB6005E00023FB60002000F0D6FA00BF0C4B00221A80FB6842F2107202FB03F303F6C413084A82FB0312D212DB1714
:402C0000D31A064A1360064B00221A8000BF1037BD4680BD9882FF1FAD8BDB689C82FF1F9A82FF1F90B585B002AF0446084611461A462346FB710346BB710B46BB801346BF
:402C40007B80104B01221A700E4B1878BA79F9790023019300230093012300F0ABF9094B1B787A88B988184600F04AF9054B1B780221184600F012F9024B1B7818460C3703
:402C8000BD4690BDEE80FF1F90B585B002AF0446084611461A462346FB710346BB710B46BB8013467B80104B00221A700E4B1878BA79F9790023019300230093002300F07F
:402CC00079F9094B1B787A88B988184600F018F9054B1B780221184600F0E0F8024B1B7818460C37BD4690BDEF80FF1F80B485B000AF7860054B1B68FB60FB6840337A6879
:402D00001A6000BF1437BD4680BC704708ED00E080B483B000AF0346FB71054AFB795B01DBB2137000BF0C37BD4680BC704700BF00E400E080B400AF054B1B78DBB203F089
:402D400040039B09DBB21846BD4680BC704700BF8F45004080B483B000AF134B7F221A70124B80221A707F23FB710CE0FB79DB0003F1804303F5F043FA79013AD2B21A70A9
:402D8000FB79013BFB71FB79002BEFD1FB79DB0003F1804303F5F04300221A7000BF0C37BD4680BC704700BFF180FF1FF080FF1F80B485B000AF03460A46FB711346BB7145
:402DC0000123FB60FB79172B2FD8BB79002B0ED0FB791A01184B1344FA791101164A0A441278D2B242F02002D2B21A700DE0FB791A01114B1344FA7911010F4A0A44127889
:402E0000D2B222F02002D2B21A70FB791A010A4B1344FA791101084A0A441278D2B242F00102D2B21A700023FB60FB6818461437BD4680BC704700BF1070004080B485B0B3
:402E400000AF0346FB710123FB60FB79172B1DD8FB791A01104B1344FA7911010E4A0A441279D2B242F00402D2B21A71FB791A01094B1344FA791101074A0A441278D2B296
:402E800042F00102D2B21A700023FB60FB6818461437BD4680BC70471070004080B485B000AF03460A46FB711346BB710123FB60FB79172B1BD8FB791A01104B13441B78F1
:402EC000DBB223F00E03FB72FB791A010B4B1344BA795200D2B252B202F00E0251B297F90B200A4352B2D2B21A700023FB60FB6818461437BD4680BC704700BF107000404D
:402F000080B485B000AF0346FB710B46BB8013467B800123FB60BB8841F6FF72934202D14FF40053BB807B8841F6FF72934202D14FF400537B80FB79172B17D8FB79DB0029
:402F400003F1804303F5EC430433BB60BB68BA881A80FB79DB0003F1804303F5EC430633BB60BB687A881A800023FB60FB6818461437BD4680BC704780B485B000AF034601
:402F80000A46FB711346BB710123FB60FB79172B07D8FB791A01064B1344BA795A720023FB60FB6818461437BD4680BC704700BF1070004090B484B000AF04460846114671
:402FC0001A462346FB710346BB710B467B7113463B710123FB60FB79172B34D8FB79DB0003F1804303F5EC43BA7902F07F02D1B27A79D201D2B20A43D2B21A70FB79DB005A
:4030000003F1804303F5EC433A7E1201D1B23A7902F00F02D2B20A43D2B25A70FB79DB0003F1804303F5EC433A7F02F00F02D2B29A70FB79DB0003F1804303F5EC430022C9
:40304000DA700023FB60FB6818461037BD4690BC704700BF80B582B000AFFF23FB7100F083FE0346BB71104B1B78182B12D90F4B1B78FB710C4B1B78013BDAB20A4B1A702B
:40308000FB79DB0003F1804303F5F0431B78DAB2064B1A70BB79184600F06AFEFB7918460837BD4680BD00BFF080FF1FF180FF1F90B484B000AF0446084611461A462346EF
:4030C000FB710346BB800B46BB711346FB700123FB6097F90730002B23DBBB8823F47F6323F00F039BB2002B1BD1FB79DB0003F1804303F5F043BB60BB68BA881A80FB79AC
:40310000DB0003F1804303F5F043BA799A70FB79DB0003F1804303F5F043FA78DA700023FB60FB6818461037BD4690BC704700BF80B485B000AF0346FB710B46BB801346AB
:403140007B800123FB6097F90730002B17DBFB79DB0003F1804303F5F0430433BB60BB68BA881A80FB79DB0003F1804303F5F0430633BB60BB687A881A800023FB60FB684A
:4031800018461437BD4680BC704700BF80B483B000AF0346FB7101BE00BF0C37BD4680BC704700BF80B582B000AF786008E00C4B1B68184600F0D0FD7B68A3F500437B600C
:4031C0007B68B3F5004FF2D8064B1B687A6802FB03F3184600F0C0FD00BF0837BD4680BD0481FF1FFC80FF1F80B582B000AF0346FB80FB88054A127802FB03F3184600F085
:40320000ABFD00BF0837BD4680BD00BF0081FF1F80B584B000AF03463960FB710F4B1B68FB60FB791F2B02D90020FFF7AFFFFB7903F01F0310339B00FA6813441B68BB6091
:40324000FB7903F01F0310339B00FA6813443A681A60BB6818461037BD4680BD08ED00E080B582B000AF03460A46FB711346BB71BB79072B02D90020FFF788FFFB791F2BF9
:4032800002D90020FFF782FFFB7903F01F0303F1604303F56443BA795201D2B21A7000BF0837BD4680BD00BF80B483B000AF7860264B1B78DBB21A467B681A60244B1B780E
:4032C000DBB21B027A6812681A437B681A60214B1B78DBB21B047A6812681A437B681A601D4B1B78DBB21B067A6812681A437B681A607B680433194A1278D2B21A60184B26
:403300001B78DBB21A027B6804337968043109680A431A60134B1B78DBB21A047B6804337968043109680A431A600F4B1B78DBB21A067B6804337968043109680A431A60E3
:4033400000BF0C37BD4680BC704700BF0301004904010049EC460040020100490101004900010049050100490601004980B500AF064B1B78002B04D100F00AF8034B0122DE
:403380001A7000F063F800BF80BD00BFC381FF1F80B582B000AF284A274B1B78DBB243F00203DBB21370254B1B78DBB223F07003FB71224AFB7943F01003DBB21370204A97
:4033C0001F4B1B78DBB223F03003DBB213701C4A1B4B1B78DBB243F03003DBB21370184A174B1B78DBB223F00F03DBB21370144A134B1B78DBB243F00F03DBB21370FF2022
:4034000000F048F8002000F055F8002000F062F80C4A0C4B1B78DBB243F00103DBB21370094A094B1B78DBB243F00103DBB2137000BF0837BD4680BD004F0040024F004015
:403440000B4F0040A3430040014F004080B400AF0D4A0D4B1B78DBB243F00103DBB213700A4A0A4B1B78DBB243F00103DBB21370074A074B1B78DBB243F00103DBB21370E9
:4034800000BFBD4680BC7047A3430040B3430040004F004080B483B000AF0346FB71044BFA7992B21A8000BF0C37BD4680BC7047044F004080B483B000AF0346FB71044B5C
:4034C000FA7992B21A8000BF0C37BD4680BC7047064F004080B483B000AF0346FB71044AFB79137000BF0C37BD4680BC704700BF034F004080B500AF064B1B78002B04D1CD
:4035000000F00AF8034B01221A7000F063F800BF80BD00BFC481FF1F80B582B000AF284A274B1B78DBB243F00203DBB21370254B1B78DBB223F07003FB71224AFB7943F03E
:403540001003DBB21370204A1F4B1B78DBB223F03003DBB213701C4A1B4B1B78DBB243F03003DBB21370184A174B1B78DBB223F00F03DBB21370144A134B1B78DBB243F054
:403580000F03DBB21370FF2000F048F8002000F055F8002000F062F80C4A0C4B1B78DBB243F00203DBB21370094A094B1B78DBB243F00103DBB2137000BF0837BD4680BD72
:4035C0000C4F00400E4F0040174F0040A34300400D4F004080B400AF0D4A0D4B1B78DBB243F00203DBB213700A4A0A4B1B78DBB243F00203DBB21370074A074B1B78DBB25D
:4036000043F00103DBB2137000BFBD4680BC7047A3430040B34300400C4F004080B483B000AF0346FB71044BFA7992B21A8000BF0C37BD4680BC7047104F004080B483B02E
:4036400000AF0346FB71044BFA7992B21A8000BF0C37BD4680BC7047124F004080B483B000AF0346FB71044AFB79137000BF0C37BD4680BC704700BF0F4F004080B485B0DF
:4036800000AF0346FB710B4B1B78DBB223F00203FB730849FB795B00DBB203F00203DAB2FB7B1343DBB20B7000BF1437BD4680BC704700BF2051004080B400AF00BFBD4690
:4036C00080BC704780B582B000AF0F2000F050F800F040F800F048FB0346FB71074A074B1B78DBB243F01003DBB21370FB79184600F03EFB00BF0837BD4680BD95640040BF
:4037000080B500AF00F000F94FF4004000F02AF9064B1B78002B04D1FFF7CEFF034B01221A70FFF7CFFF00BF80BD00BFC581FF1F80B582B000AF00F025F90346FB80FB8836
:40374000A3F500439BB2BB80B7F9043018460837BD4680BD80B400AF044B1B78DBB203F00F03DBB21846BD4680BC70476564004080B483B000AF0346FB71044AFB791370D4
:4037800000BF0C37BD4680BC704700BF8564004080B400AF00BFBD4680BC704780B582B000AF0F2000F050F800F040F800F0DCFA0346FB71074A074B1B78DBB243F0100368
:4037C000DBB21370FB79184600F0D2FA00BF0837BD4680BD9765004080B500AF00F06CF94FF4004000F096F9064B1B78002B04D1FFF7CEFF034B01221A70FFF7CFFF00BF51
:4038000080BD00BFC681FF1F80B582B000AF00F091F90346FB80FB88A3F500439BB2BB80B7F9043018460837BD4680BD80B400AF044B1B78DBB203F00F03DBB21846BD46E7
:4038400080BC70476765004080B483B000AF0346FB71044AFB79137000BF0C37BD4680BC704700BF8765004080B582B000AF1C4B1B78DBB223F00703FB71194AFB791370D6
:40388000174B1B78DBB223F00303FB71144AFB79137000F0B3F84FF4004000F08FF84FF4004000F05FF8002000F040F800F04EF84FF4004000F092F800F056FA0346BB711D
:4038C000084A084B1B78DBB243F01003DBB21370BB79184600F04CFA00BF0837BD4680BD726400409464004080B400AF054A054B1B78DBB263F07F03DBB2137000BFBD4610
:4039000080BC70477264004080B500AF064B1B78002B04D1FFF7A8FF034B01221A70FFF7E3FF00BF80BD00BFC781FF1F80B483B000AF0346FB71044AFB79137000BF0C3713
:40394000BD4680BC704700BF8464004080B400AF034B1B78DBB21846BD4680BC704700BF6464004080B483B000AF0346FB80044AFB88138000BF0C37BD4680BC704700BF09
:403980000C68004080B400AF044B1B78044B1B889BB21846BD4680BC704700BF066400408C68004080B400AF034B1B889BB21846BD4680BC704700BF8C68004080B483B08F
:4039C00000AF0346FB80044AFB88138000BF0C37BD4680BC704700BF4C68004080B483B000AF0346FB80044AFB88138000BF0C37BD4680BC704700BF6C68004080B500AF58
:403A000001E0FFF7CFFFFFF7A1FF034603F04003002BF6D100BF80BD80B582B000AF1C4B1B78DBB223F00703FB71194AFB791370174B1B78DBB223F00303FB71144AFB7985
:403A4000137000F0B3F84FF4004000F08FF84FF4004000F05FF8002000F040F800F04EF84FF4004000F092F800F07EF90346BB71084A084B1B78DBB243F01003DBB21370F2
:403A8000BB79184600F074F900BF0837BD4680BD776500409465004080B400AF054A054B1B78DBB263F07F03DBB2137000BFBD4680BC70477765004080B500AF064B1B7864
:403AC000002B04D1FFF7A8FF034B01221A70FFF7E3FF00BF80BD00BFC881FF1F80B483B000AF0346FB71044AFB79137000BF0C37BD4680BC704700BF8465004080B400AF61
:403B0000034B1B78DBB21846BD4680BC704700BF6465004080B483B000AF0346FB80044AFB88138000BF0C37BD4680BC704700BF086A004080B400AF044B1B78044B1B889D
:403B40009BB21846BD4680BC704700BF04650040886A004080B400AF034B1B889BB21846BD4680BC704700BF886A004080B483B000AF0346FB80044AFB88138000BF0C3764
:403B8000BD4680BC704700BF486A004080B483B000AF0346FB80044AFB88138000BF0C37BD4680BC704700BF686A004080B500AF01E0FFF7CFFFFFF7A1FF034603F04003B9
:403BC000002BF6D100BF80BD80B483B000AF0346FB71044AFB79137000BF0C37BD4680BC704700BF7D64004080B500AF224A224B1B78DBB203F00103DBB213701F4A1F4B38
:403C00001B78DBB223F00303DBB213701C4A1C4B1B78DBB223F03003DBB21370184A184B1B78DBB243F03003DBB21370144A144B1B78DBB223F00F03DBB21370104A104BD6
:403C40001B78DBB243F00F03DBB213700D4A0D4B1B78DBB243F00103DBB2137044F61F6000F058F844F61F6000F066F8002000F041F800BF80BD00BF184F00401A4F004065
:403C8000234F0040194F004080B400AF0D4A0D4B1B78DBB243F00403DBB213700A4A0A4B1B78DBB243F00403DBB21370074A074B1B78DBB243F00103DBB2137000BFBD46CF
:403CC00080BC7047A3430040B3430040184F004080B500AF064B1B78002B04D1FFF784FF034B01221A70FFF7CFFF00BF80BD00BFC981FF1F80B483B000AF0346FB71044A92
:403D0000FB79137000BF0C37BD4680BC704700BF1B4F004080B485B000AF0346FB80FB88FB81044AFB89138000BF1437BD4680BC704700BF1C4F004080B483B000AF034622
:403D4000FB80044AFB88138000BF0C37BD4680BC704700BF1E4F00400230800803D000BF01380046FCD17047EFF3108072B6704780F31088704700BF80B582B000AF0023A6
:403D8000BB711B4B1B78DBB203F00303012B02D0022B04D012E0164B1B79FB7111E0144B1B79DBB203F07F02124913465B0013449B000B440A331B78FB7102E00023FB7124
:403DC00000BFFB79022B0ED80B4B1A68FB7913441B78022B04D1FDF71BF90346BB7102E00023BB7100BFBB7918460837BD4680BD006000402482FF1F1882FF1F014B1868DF
:403E0000704700BF6881FF1F0E4B70B51E460E4C0025E41AA410A54204D056F8253098470135F8E700F094FD084B094C1E46E41AA4100025A54204D056F8253098470135C9
:403E4000F8E770BD5C4900005C4900005C4900006449000010B5431E0A44914204D011F8014B03F8014FF8E710BD03460244934202D003F8011BFAE7704700000EB400B5D7
:403E80004FF402719CB0ADF814106FF00041049107914FF6FF711DAB02900690084853F8042BADF81610006802A9019300F06CF8029B00221A701CB05DF804EB03B0704772
:403EC0006881FF1F034613F8012B002AFBD1181A013870472DE9F0478E6882469E420C46914698463ED88A8912F4906F3AD02568096902236F1A656905EB450595FBF3F5CC
:403F00007B1C43449D4238BF1D4653050FD5294600F040FB064698B13A462169FFF79AFFA38923F4906343F08003A38113E02A4600F08EFB064670B92169504600F0DEFADD
:403F40000C23CAF80030A3894FF0FF3043F04003A381BDE8F08726613E44266046466561ED1BA560464528BF464649463246206800F0A8FAA36800209B1BA36023681E44F2
:403F80002660BDE8F08700002DE9F04F9DB003938B8980461C060D4616460DD50B695BB9402100F0F7FA2860286118B90C23C8F80030CDE040236B610023099320238DF86C
:403FC0002930DFF89CB130238DF82A3037463C4614F8013B1BB9B7EB060910D003E0252BF9D02746F3E74B46324629464046FFF771FF013000F0A780099B4B4409933B78F5
:40400000002B00F0A08000234FF0FF3204930793059206938DF853301A930126052221784E4800F041FA671C049B38B14B4A3C46801A06FA00F018430490EFE7D90644BFA1
:4040400020228DF853201A0744BF2B228DF8532022782A2A03D0079A00210A200BE0039A111D12680391002A10DA524243F00200079204900BE027463B780134303B092B43
:4040800003D800FB02320121F5E701B107923B782E2B1ED17B782A2B0AD1039B02371A1D1B680392002BB8BF4FF0FF33059310E0002319460593781C0A2407463A780130C2
:4040C000303A092A03D804FB01210123F5E703B1059103223978224800F0E6F940B14023CBEB000003FA00F0049B013718430490397806221B487E1C8DF8281000F0D4F9C1
:4041000088B1194B33B9039B073323F007030833039314E003AB00932A46144B04A94046AFF3008007E003AB00932A460F4B04A9404600F093F8B0F1FF3F824603D0099B19
:404140005344099342E7AB895B0601D4099801E04FF0FF301DB0BDE8F08F00BF1A490000204900002449000000000000D53E00002DE9F04791461F460A698B68064693427D
:40418000B8BF1346C9F8003091F843200C46DDF8208012B10133C9F800302368990642BFD9F800300233C9F80030256815F0060510D104F1190A07E0012352463946304623
:4041C000C04701301AD00135E368D9F800209B1A9D42F1DB94F843302268003318BF012392060FD5E118302081F843005A1C94F845102244023382F8431003E04FF0FF3083
:40420000BDE8F08704F1430239463046C0470130F4D02268D9F80050E36802F00602042A08BF5D1B2269A3680CBF25EAE57500259342C4BF9B1AED184FF000091A344D45B1
:4042400009D00123224639463046C0470130D5D009F10109F3E70020BDE8F0872DE9F04317460A7E85B06E2A984606460C460C9B01F1430E00F0AE8011D8632A22D009D825
:40428000002A00F0BB80582A40F0CA8081F84520834955E0642A1ED0692A1CD0C0E0732A00F0B08009D86F2A2ED0702A40F0B8800A6842F020020A603EE0752A24D0782A79
:4042C0003AD0ADE01A6801F14205111D1960136884F84230A8E021681A6811F0800F02D0111D196008E011F0400F02F10401196002D0B2F9003000E01368002B3CDA2D227F
:404300005B4284F8432037E021681A6811F0800F02D0111D196007E011F0400F02F10401196001D0138800E01368227E5C496F2A14BF0A2208221BE078225A4984F8452047
:404340002268186812F0800F00F104051D6003D1550601D5038800E00368D00744BF42F0200222601BB9226822F0200222601022002084F8430001E049490A226568002DE2
:40438000A56008DB206820F0040020602BB9002D7DD175460CE0002B79D07546B3FBF2F002FB1033CB5C05F8013D03460028F5D1082A0BD12368DA0708D5236962689A42D2
:4043C000DEBF302305F8013C05F1FF35C5EB0E0323612EE008681A6810F0800F496903D0101D1860136808E010F0400F02F104001860136801D0198000E019600023236165
:40440000754616E01A68111D1960156800216268284600F049F808B1401B6060636804E004F1420584F8422001232361002384F84330CDF800803B4603AA21463046FFF7FE
:4044400097FE013002D14FF0FF3026E023692A4639463046C0470130F5D023689B0710D5002504F1190907E001234A4639463046C0470130E7D00135E368039A9B1A9D42C2
:40448000F2DBE068039B9842B8BF184605E00B7804F1420584F842308AE705B0BDE8F0832B4900003C49000010B5C9B202449042034605D01C7801308C42F8D1184610BDD4
:4044C000002010BD884210B501EB020301D8421E0BE09842FBD28118D21AD34204D013F8014D01F8014DF8E710BD994204D011F8014B02F8014FF8E710BD000038B5054698
:40450000002944D051F8043C0C1F002BB8BFE41800F0D4F81E4A1368114613B96360146030E0A3420DD92268A018834201BF18685B681218226063600C6023E0A24203D871
:4045400013465A68002AF9D118681918A1420BD12168014458188242196013D110685268014419605A600DE002D90C232B6009E021686018824201BF1068526809182160EF
:4045800062605C602846BDE8384000F098B838BDD081FF1F70B5CD1C25F0030508350C2D38BF0C25002D064601DBA94202D90C23336046E000F082F8234B1C681A4621465F
:4045C000A1B10B685B1B0ED40B2B03D90B60CC18CD501EE08C420BBF63684B681360636018BF0C4615E00C464968E9E7174C23681BB9304600F052F820602946304600F01E
:404600004DF8431C18D0C41C24F00304A0420DD12560304600F053F804F10B00231D20F00700C31A0ED05A42E25070BD211A304600F034F80130EBD10C233360304600F00E
:404640003EF8002070BD00BFD081FF1FCC81FF1FF8B5074615460E4621B91146BDE8F840FFF798BF1AB9FFF749FF2846F8BD00F027F885420ED929463846FFF78BFF044672
:4046800050B131462A46FFF7E5FB31463846FFF735FF01E03046F8BD2046F8BD38B5064C0023054608462360FCF71CF8431C02D1236803B12B6038BDC882FF1F70477047AA
:4046C00051F8040C0028BEBF091851F8043CC01804387047000000004D6F746F722031202D20737461727420636F756E743A2025642C20656E6420636F756E743A2025646F
:40470000200A00004D6F746F722032202D20737461727420636F756E743A2025642C20656E6420636F756E743A202564200A0000004F00403000405100403000000001404B
:40474000001000140140000800400140000A004C01400002105001401000000000500140B00F004810000000303132333435363738394142434445460000000012010002A2
:4047800002000008B40432F2010001028001000009024300020101C032090400000102020103052400100104240202052406000105240100010705810308000A09040100C3
:4047C000020A000004070582024000000705030240000000040309042C0343007900700072006500730073002000530065006D00690063006F006E006400750063007400BE
:404800006F007200100355005300420055004100520054003803430044004300200043006F006D006D0075006E00690063006100740069006F006E00200049006E00740098
:40484000650072006600610063006500260343004400430020004400610074006100200049006E007400650072006600610063006500000002030000000081030800020001
:404880000100820240000A000100030240000A00020A0000010000009047000003000000784800000000000000000000000000000000000000000000904800000100000059
:4048C0007C4700000000000000000000010000009448000001000000BC48000012034D00530046005400310030003000010000002800000000010400010000000000000004
:404900000001435955534200000030303030310000000000000000004300232D302B2000686C4C006566674546470030313233343536373839414243444546003031323365
:4049400034353637383961626364656600000000F8B500BFF8BC08BC9E4670474D000000CD070000F8B500BFF8BC08BC9E4670472900000088490000C880FF1FA800000074
:40498000600100000000000000000000D082FF1FFFFF000000C2010000000800C201000000080000A1200000000002000000FFFF807F0000030000000087930360EA000068
:4049C0003C00000000003075000000000000000000000000000000000000000000000000000000000000000018490000000000000000000000000000000000000000000075
:404A0000000000000000000000000000000000000000000000000000000000000000000000000000000000000881FF1F0000000000000000000000000000000000000000CF
:404A40000000000000000000000000000000000000000000000000000000000000000000000000000000000000000000000000000000000000000000000000000000000036
:404A800000000000000000000000000000000000000000000000000000000000000000000000000000000000000000000000000000000000000000000000000000000000F6
:404AC00000000000000000000000000000000000000000000000000000000000000000000000000000000000000000000000000000000000000000000000000000000000B6
:404B00000000000000000000000000000000000000000000000000000000000000000000000000000000000000000000000000000000000000000000000000000000000075
:020000040003F7
:0200000480007A
:4000000001450040084F00400A520040015B004005640040036500403B000140340101403D020140430301403A040140500501406E060140530701402308014046090140C0
:40004000550A0140560B01405F0C0140580D0140380E0140380F0140491401405815014041160140451701403C18014057190140361A01404D1B01400C4001401C410140B1
:4000800016420140154301400945014008460140064701401548014011490140124C0140084D014005500140045101407E0201200A270D20161B1950224B25402E4B006084
:4000C00001A0089009541108182019286004611C7C402F848338846F850F88078F72846F870F890F000F010C030204030520060C071F081009080A200B010C0A0E050F80F9
:400100001020110C121013011640181019071A201C0C1D101E031F20210B2280230424072740280529102A0A2B202C102D102E202F20303031403240333034803580360FD9
:40014000370F3A023B085608580459045B045D905F01D804D904DC11DF0100040389060908080A400B050C800E240F201050120213101581160219141A401BC82040210447
:4001800022822305280229142B402C802E0430503201332136103740384439083B113C023D013E1859405B106008630286048801C0CFC2EFC49FCACFCC3DCEEFD60CD80C78
:4001C000E60A03041504190123042F033301350237043F4052805804590D5B045C115F018110836085088604870189208A018B108C018D108F209202951096109720990CA1
:400200009A109B029D0C9F01A10BA201A304A408A507A802AB0FAF80B006B10FB208B340B401B530B610B780BB20BE54D418D604D804D904DB04DC09DD30DF010064060A02
:4002400008050A080C800E040F201008125815011601174019601B062158220126582A202B612C012F42310832A0361439AA3E213F1059016140634476407C20800883106F
:4002800088448B408D0191099248960697109A0A9C429E019F50A280A341A480A730AD40AE0CB540B610B740C0C7C2EEC49ECA9FCC6ECE8FD601D80DDE20E222E603E802CE
:4002C000EE0205020A040B020F101102140316081701180119081C081D02200323042B082D023004311032083306340135083602370138A03E143F10540F580459045B0486
:400300005F0581088301870F89078D0C8F01910C9302951098019E01A001A90BAB04AF30B201B320B510B70FBE04BF10D40FD804D904DB04DF0100200510070409090A486A
:400340000B010C010E090F8010801680184019181A011E20202821012301240826042701280429812F063001310832903604370139883B103DA23E084D804E01588059087B
:400380005B125C085D015EA061046220780879017B40848C860487208E1091A89242944495029605979099209C229E11A2C8A344A410A604A720AB10AC80AE21AF04C00290
:4003C000C2C7C418CA3DCCCFCEFED6FFD806DE02E220E440EA0A0608070F09730D9E0F60105411CF12A0133014F719FD1A071B021CA11E5220C02234247725942760283194
:400400002AC22D302FC932F033FF340F3F044063410449FF4AFF4BFF4DA04F015018580459045A045B045F016040628064406540668068406A806C406D206E8080A3825CF8
:40044000859487608A018F0F919E9360949695739668987F9CC59DCF9E3A9F30A0FEA1FDA201A302A40EA6F0AD30AFC9B0FFB5FFBE01BF10C063C104C50EC6C2C743C83D12
:40048000C9FFCAFFCBFFCDAFCE07CF01D018D203D302D804D904DA04DB04DD10DF01E040E280E440E540E680E840EA80EC40ED20EE800020028007100A0A0B100D800E649A
:4004C00010511104120115201628170119011E241F042304271028402A402B402E483285361037013840390C3A803B803DA03E24404043044680470449244D2050805108D7
:400500005220530268096C058A018B088C029128924294049608979899209A019B059C229D059E88A010A280A340A480A558A620A702A884AA01AB04AC04AE04AF02B21852
:40054000B480B710C02AC2F7C47CCA59CCABCE7AD0C3D224EA07EC20020806010A040C020F0110401280142016101A021B021C0420802240240128082C102E2030FF310220
:4005800037013A083E015602573C580459045B0E5C135D105F01D804D904DC11DF01001401020414050B060109220A010C100D200EE20F04118017551F05240225422640D7
:4005C00027402A022E402F08312133083509361038163C103D403E013F045F80640267826D406E266F11760177047C0883488D018F109380943496019748984199049C1841
:400600009D02A010A302A548A718A804AA10AD40B180B601C0FEC2FBC4F1CA31CCE7CEF7D610D880DE40E210ECC0004C0108021103220420093F0B800D150F2A1203141C1E
:40064000164217C0180919031A101B3C1C501E0C20102480253F274028142D042F11301F322033F034C0350F38203B083E0440424101450C46E0470B481949FF4AFF4BFF09
:400680004EF04F44500C580459045A045C335D035F0166C06A406B02850289018A019101940295029D02A002A501A804A902AD04AE08B001B101B204B302B408B602B7046D
:4006C000B880BE44BF44D401D804D904DB0EDC30DD10DF0102100340042008800A640D0810A815021601171019241A441E181F422008212022082402250127202A402B20CF
:400700002D102E402F24312032083640370539403A203B013D203E203F0440804150428043404810500852105D807C08800188418A148B408E048F1091E29228930594101B
:40074000951096059AC09B059C109D229F20A0A0A110A240A320A414A501A608A718AD03AE01AF40B340B740C04CC22FC4DECA7ACCD6CE6DD00DD610DE40E260E444EE0281
:4007800016011A021E02300232013E014034410642014405450E46C0480949FF4AFF4BFF4C624DA04EF04F41500C5608580459045A045B045C105D935F0166406702691099
:4007C0006A306B106D106E106F12824086C088038A148B138C138E0C8F0890139204940A9614996C9A089B039D319E809F0EA615AA20AB4CAC40AD31AE80AF46B00FB3305F
:40080000B410B50FB6E0B74AB908BA02BBA0BE50BF04C003C604C9FFCA07CBFFCC40CD20CEF0CF05D008D608D804D904DA04DB04DC33DD93DF01E040E1A8E240E3200028F4
:400840000240030208800AA40B010E020F281022120819801A081B021D021F0421442250281029202A842B022C012E092F0832503410350238A03C123E0241044440450102
:40088000460247044D904F0850F0511056205B405F4062406302654067016802694080108A208B048D04930494109550978098019A089B059CC09DC29E449F20A001A114DB
:4008C000A241A320A709AC01AE10AF08B421B503B60CC00FC2EFC407CAFCCCACCE2CD0D2D230D618D818E282E6C2E810EE10580459045C115F01800483088430850488CF01
:4009000089068A308C088D088F10903C910792C19360947C956196829706981099069B619EC39F10A020A321A502A60CA8FFA967AC04AD21AE08B0B0B140B23FB320B50755
:40094000B670B718B820B902BA0ABB20BE10D602D711D804D904DB04DC33DD30DF01001101020540066007040A080B800C600EA0110212141420155017021C0A1D011EA0C0
:400980001F0424022504260127042A182C602D90310232043308348035013610370438113B803C043D403E203F025F20670C6D206F2174A076207702840589028C84C0FA69
:4009C000C2FAC4FECAF6CCF3CEFDD620E28003040A080C030D020E041B032403250828012F083008310132043308340135043602370238A03E103F444016410249FF4AFF2F
:400A00004BFF4DA04F015018540F580459045A045B045F056040628064406540668068406A806C406D206E80C013C102C502C6C3C74EC83DC9FFCAFFCBFFCDAFCE07CF01A4
:400A4000D018D804D904DA04DC11DF01E040E280E440E540E680E840EA80EC40ED20EE8000900428062809040B100C090E080F10102411201440160419981B012040211033
:400A80002214230229082A402C402EA8303034213510360C38403A013F1040024140420443104422471049104C204D804E02544255285641581059405A085B026128780456
:400AC00080028284855088408C048E049038918092049404962098019C409E04A008A110A504A60AA701AB12B120B240B310C063C270C456CAFACCC4CE29D07CD204D60F7D
:400B0000D806DE02E006E201E402E688E808EC20050107040A010CA30DD10E5C0F08109611D11268130414FE157C1601180E19AD1AF01B101CC51E3A2302247F2F1D33033D
:400B400035E036FF371D39203E40580459045F0187088B808F809307940395619702980199049A029D609F04A157A501A702A937AD80AE03B10FB370B401B602B780B908BF
:400B8000BE50BF40D280D40FD804D904DB04DC01DF0102050410070108810A240D900E600F2010401108120A170819901F40204021402205241025D02708281029202B41B1
:400BC0002E402F403120328133083610370938103B443D803E084D204E0459905B0A734088088C948E0191209244930494449608971098119A089B019E40A290A348A5D0F8
:400C0000B029B405C0C3C2FFC42FCA9FCCEFCE5ED60FE208E401E608EA40EE120004030104040708080411021314150216041704180419041B021E04200426022A012D0200
:400C40002F0430013101331034023506360437083B205608580459045B045C015D905F01800183038401850388018903920195019702980199039E019F03A303AE01B102CD
:400C8000B401B501D401D604D804D904DB04DC11DD30DF010014010103400414050109200A410D280E0111801501171419201C041D011E401F402102221024202501262866
:400CC000270929012C202E082F02312833403628370138143A023C203E103F054203584159045A105C805F10634067058080821085228740882089488D208F4092049434BD
:400D0000958096019740984399049A019B549D019E02A010A140A201A302A521B008B108B380B540C07EC2EBC471CA11CCEECEC7D63FD831E002E210E406E668E890EC20C0
:400D4000EE120101030205031103150319032303250333013702580459045C115F018008822083028421850189028A018E028F0291029220942495029A089B019E049F08AF
:400D8000A020A304A422A702A820A902AE10B102B304B420B508B61FB701B880BE40BF40D608D804D904DB04DC11DD90DF010005040705410621070409280A010C400D089A
:400DC0000E060F801020110114021501160817081C081E011F80214424102528268027482A082BC02C602E20312935413718380439013C103D013F845F406580810883500F
:400E00008680874489048B808C018D80900491019204941095809601980299019A099B04A020A201A404A520AF10B004B308C0FCC2F7C4FCCAE3CCF7CEF3D610D810E2C059
:400E4000E401E6C0EC20EE80122016803021340236403B283E808608C430CCF0CE70E6400320062030103202360837805E01610867808020820284038B1097289A089C033E
:400E8000A220A420A640A720AF20C030CCF0D680D8C0E2C0E640EC10120817805280544060086408660888108D01960197889A089C109F80A220A508A648AA20C4C0D46051
:400EC000D8C0E82019011C80660872089001960197889A089D01A220A440A508A640A801AA80B040C630D880DC20EA80EE2001200B20220153018488C002C208C802D40175
:400F0000830197029C80A408AE01B310B520EA0C08800B400C089C80A408C20E03020408208080048601870490019302960197889901A220AE40B508B701C060C840E21014
:400F4000E480E610EE4053016001650186208B409001930297809901A220AF02B040D480D640D880E440E8101F2034015A825F04611064108110860187249008AF40B404AB
:400F8000C601CC01D401D603D803E8087004824090089680B011DC01E804EC04100B11011A031C0B1D0100AB01FF0203100A00000B010000000000000B0103000B000B013B
:400FC000030C0C0000E0E000001C1C001C0000004000060000000000C0000000000B0B0000F4F4000800140A0A00080000000000007B7B0038000000000100000000000057
:4010000000000000000000000000000000000000000000000000000000000000000000000000000000000000000000000000000000000000000000000000000000000000B0
:401040000000000000000000000000000000000000000000000000000000000000000000000000000000000000000000000000000000000000000000000000000000000070
:401080000000000000000000000000000000000000000000000000000000000000000000000000000000000000000000000000000000000000000000000000000000000030
:4010C00000000000000000000000000000000000000000000000000000000000000000000000000000000000000000000000000000000000000000000000000000000000F0
:0200000490006A
:0400000000004005B7
:0200000490105A
:04000000BC90ACAF55
:0200000490303A
:02000000726E1E
:0200000490402A
:4000000000000000000000000000000000000000000000000000000000000000000000000000000000000000000000000000000000000000000000000000000000000000C0
:400040000000000000000000000000000000000000000000000000000000000000000000000000000000000000000000000000000000000000000000000000000000000080
:400080000000000000000000000000000000000000000000000000000000000000000000000000000000000000000000000000000000000000000000000000000000000040
:4000C0000000000000000000000000000000000000000000000000000000000000000000000000000000000000000000000000000000000000000000000000000000000000
:0200000490501A
:0C00000000012E16106900012E3682D778
:00000001FF