:400000000080002011000000250700002507000080B500AF024A034B1B68136000F08CFBBC760040FA46004010B5054C237833B9044B13B10448AFF300800123237010BD38
:400040005081FF1F00000000B81E0000084B10B51BB108490848AFF300800848036803B910BD074B002BFBD0BDE81040184700BF000000005481FF1FB81E0000C880FF1F46
:400080000000000080B500AFC82001F077FA322001F086FB00BF80BD80B500AF7F2001F06DFA7F2001F07CFB00BF80BD80B582B000AF002000F0BEFC0346FB80012000F0BF
:4000C000B9FC0346BB80022000F0B4FC03467B80174B1B68092B20DCB7F9063040F6A202934202DD134B01221A60B7F9043040F6A202934202DD0F4B01225A60B7F90230B2
:4001000040F6A202934202DD0A4B01229A60084B1B680133064A136005E0074B01221A60034B00221A6000BF0837BD4680BD00BF9881FF1F8C81FF1F9C81FF1F80B500AFB6
:4001400000F068FC00BF80BD80B582B000AF62B6274B00221A7000F04FFD01F017FE01F081FB01F0D9FB234800F086FC224801F025FA00F037FC01F05DF901F06DFA002036
:4001800001F02EFBFFF788FF4FF4FA6001F01CF91A4B1B68012BFBD100F034F878607B68052B09D0072B0DD0002B11D1FFF774FF002001F015FB0DE0012001F011FBFFF79E
:4001C00061FF07E0FFF768FF002001F009FB01E0FFF762FF094B00221A60094B00221A60074B00225A60064B00229A60D0E700BFA081FF1F3D010000AD0000009C81FF1FB8
:400200008C81FF1F80B485B000AF0023FB6000237B600223BB6013E00E4ABB6852F823303B607B6883F002030A49BA6851F8222002FB03F3FA681344FB60BB68013BBB603D
:40024000BB68002BE8DAFB6818461437BD4680BC704700BF8C81FF1F80B582B000AF786039603A680021786801F01DFE00BF0837BD4680BD80B584B000AFF860B9607A60AB
:400280007A68B968F86801F003FE00BF1037BD4680BD00BF80B483B000AF0346FB71FEE780B487B000AF7860396000233B6100237B6127E07B699B007A6813441B68BB608E
:4002C000BB68FB73BB6823F0FF03BB6014E03B695B003A6813441B781A46BB68134419463B695B003A6813445B780B703B6901333B61FB7B013BFB73FB7B002BE7D17B694B
:4003000001337B617B692B2BD4D900BF1C37BD4680BC704780B582B000AF3F4B04221A803E4B18221A703E4B3A221A803D4B18221A703D4B3B221A803C4B18221A703C4BF5
:4003400081221A803B4B18221A703B4B00221A803A4B1B221A703A4B00221A80394B1B221A70394B06221A70384B52221A70384B384A1278D2B21A70374B40F619121A800B
:40038000364B41F251221A800023FB7019237B6014E0FB785B00DAB2314B1B78DBB203F00103DBB21343DBB203F00303FB704FF4F07001F031FD7B68013B7B607B68002B58
:4003C00002D0FB78032BE4D17B68002B02D10320FFF760FF234B4FF480721A80214B07221A70214B00221A70204B48221A701D4B00221A701E4B00221A701E4B02221A7069
:400400001D4A1D4B1B78DBB243F03F03DBB2137000BF0837BD4680BD80400040824000408440004086400040884000408A4000408C4000408E4000409040004092400040B0
:4004400094400040964000400043004000420040A14600400F0100492242004020420040254200400440004006400040084000400940004001400040A243004080B582B0B8
:4004800000AF244B1B78FB71234B1B78BB71234B1B787B71224AFB7903F00703DBB21370204AFB791B09DBB213701B4ABB7943F00303DBB21370194A7B7943F00303DBB207
:4004C0001370194B67221A70184B04221A70184B30221A70174B40221A70174B40221A70164B77221A70164B20221A70154B04221A700A2000F08AFF084A7B791370064A97
:40050000BB791370104B44221A7000BF0837BD4680BD00BFCF010049F8460040F94600406E5800406F5800400D5100401D510040FD5100400159004003590040205B0040CE
:40054000235B0040585B00407658004080B586B000AF72B6574B61221A70FFF7DBFE554B01221A70544A544B1B78DBB243F00403DBB213700023FB7513E0FA7D13465B0057
:4005800013445B004D4A13443B613B691A683B699B889BB219461046FFF75EFEFB7D0133FB75FB7D072BE8D90023FB751CE0FA7D13469B0013445B00414A1344FB60FB68EB
:4005C0001B68BB60FB685B687B60FB681A7A5B7A1B0213437B807B881A467968B868FFF749FEFB7D0133FB75FB7D012BDFD935494FF09040FFF754FE04213348FFF72CFE74
:40060000042232493248FFF735FE324B324A1A60324A324B1B78DBB243F00203DBB213702F4A2F4B1B78DBB243F00203DBB213702C4A2C4B1B78DBB243F04003DBB21370B4
:40064000294A294B1B78DBB243F01003DBB21370082226492648FFF70DFE082225492648FFF708FE0A2225492548FFF703FE082224492548FFF7FEFD0A2224492448FFF725
:40068000F9FD082223492448FFF7F4FD234A234B1B78DBB243F00803DBB21370FFF7EEFE0E2210491E48FFF7E5FD00BF1837BD4680BD00BF00480040E8460040BC1E00008C
:4006C000EC1E0000B000004800760040900F004808760040D8080140040404840350014013500140A0430040C2430040580F004802510040600F0048C2510040680F004841
:40070000F0510040740F0048125100407C0F004820510040880F00483251004022430040B043004080B500AF01F086FB03461B680C2B00D1FEE7FEE780B586B000AF224B51
:400740007B61224B3B61204B7B6135E03B691B68FB603B695B68BB603B699B683B6000237B600CE0FB681A68BB681A60BB680433BB60FB680433FB607B6804337B607A6845
:400780003B689A42EED13B69DB683B6000237B6008E0BB6800221A60BB680433BB607B6804337B607A683B689A42F2D13B6910333B617B69013B7B617B69002BC6D101F030
:4007C00041FBFFF7C1FCFEE701000000281F000080B582B000AF194B194A1A60194A194B1B6843F40073136000237B600FE07B68032B04D8144A7B6852F8233000E0134B29
:4008000013497A6841F822307B6801337B607B682F2BECD90F4B1B78DAB20F4B1A700F4B0B4A1A60FFF792FE00F0A6FB0C4B00221A6000BF0837BD4680BD00BF0CED00E095
:400840000004FA0514ED00E000000000250700000080FF1FBC760040C480FF1F08ED00E0C080FF1F80B500AF41F6FF734FF480420121022000F0F8FA03461A460A4B1A7083
:4008800041F6FF7341F6FF720121102000F01EFB03461A46054B1A70054800F049FB002000F058FB00BF80BDA881FF1FA981FF1F6D0A000080B582B000AF414B1B78184690
:4008C00000F0CEFB3F4B1B78184600F0C9FB3E4B1B78FF2B05D100F0CFFC03461A463A4B1A70394B1878384B1A780623102100F0F1FC354B1B78354A92B245F6A0311846E1
:4009000000F028FD2E4B1A782F4B1B781946104600F044FC2E4B1B78FF2B05D100F0ACFC03461A462A4B1A70294B1878284B1A780723102100F0CEFC254B1B78234A91B288
:40094000244A92B2184600F005FD1E4B1A78204B1B781946104600F021FC194B1B780121184600F037FB174B1B780121184600F031FB01F059FA0346FB71174A164B1B7842
:40098000DBB243F02003DBB21370FB79184601F04FFA124A114B1B78DBB243F00103DBB213700E4A0D4B1B78DBB243F00203DBB213700B4B01221A6000BF0837BD4680BDD0
:4009C000A881FF1FA981FF1FCC80FF1FAC81FF1FCD80FF1FC881FF1F926400407564004080E200E080B500AF084B1B68002B04D1FFF738FF054B01221A6000F041F9FFF75C
:400A000059FF034B1B7800BF80BD00BFA481FF1F6664004080B400AF054A054B1B78DBB243F00403DBB2137000BFBD4680BC70477564004080B483B000AF0346FB80FB885E
:400A4000C3F10703074A32F913309AB2064B1B881BB29BB2D31A9BB21BB218460C37BD4680BC7047C881FF1FDA81FF1F80B400AF00BFBD4680BC704780B582B000AF78609B
:400A800000F03CF8786800F009F8072000F018F800F028F800BF0837BD4680BD80B485B000AF7860054B1B68FB60FB6858337A681A6000BF1437BD4680BC704708ED00E08F
:400AC00080B483B000AF0346FB71054AFB795B01DBB2137000BF0C37BD4680BC704700BF06E400E080B400AF034B40221A6000BFBD4680BC704700BF00E100E080B400AF56
:400B0000034B40221A6000BFBD4680BC704700BF80E100E080B500AF214A214B1B78DBB203F00103DBB213701E4A1E4B1B78DBB223F00303DBB213701B4A1B4B1B78DBB2EF
:400B400023F03003DBB21370174A174B1B78DBB243F03003DBB21370134A134B1B78DBB223F00F03DBB213700F4A0F4B1B78DBB243F00F03DBB213700C4A0C4B1B78DBB2C1
:400B800043F00103DBB21370C72000F057F8C72000F066F8002000F041F800BF80BD00BF244F0040264F00402F4F0040254F004080B400AF0D4A0D4B1B78DBB243F00803C5
:400BC000DBB213700A4A0A4B1B78DBB243F00803DBB21370074A074B1B78DBB243F00103DBB2137000BFBD4680BC7047A3430040B3430040244F004080B500AF064B1B7838
:400C0000002B04D1FFF786FF034B01221A70FFF7CFFF00BF80BD00BFBC81FF1F80B483B000AF0346FB71044AFB79137000BF0C37BD4680BC704700BF274F004080B485B07E
:400C400000AF0346FB71FB79FB81044AFB89138000BF1437BD4680BC704700BF284F004080B483B000AF0346FB71044BFA7992B21A8000BF0C37BD4680BC70472A4F004029
:400C800080B500AF064B1B78002B04D100F00AF8034B01221A7000F01BF800BF80BD00BFBD81FF1F80B500AF074A074B1B78DBB243F00603DBB213700C2000F06BF8034BA5
:400CC00000221A8000BF80BD01590040E081FF1F80B582B000AF01F0A7F80346FB71254A244B1B78DBB243F00103DBB21370224A214B1B78DBB243F00103DBB213701F4BDA
:400D00001B78BB71BB7943F00203BB71BB7943F00103BB71194ABB791370194B18221A70184A184B1B78DBB243F04003DBB21370144A144B1B78DBB223F00303DBB2137012
:400D4000114BCE221A70114B02221A70104A104B1B78DBB243F00803DBB213700A2000F055FBFB79184601F063F800BF0837BD4680BD00BFAB430040BB43004003590040E3
:400D800006590040055900400059004014460040275B004080B584B000AF0346FB71FB790A2B07D00C2B02D0082B06D008E0C223FB730BE08223FB7308E04223FB7305E0C9
:400DC000C223FB73002000F0F3FA00BF054AFB7B1370FB79184600F007F800BF1037BD4680BD00BF0259004080B584B000AF0346FB71FB790A2B08D00C2B02D0082B08D0D9
:400E00000BE04FF48053FB600DE04FF48063FB6009E04FF48073FB6005E00023FB60002000F0C6FA00BF0C4B00221A80FB6842F2107202FB03F303F6C413084A82FB0312A9
:400E4000D212DB17D31A064A1360064B00221A8000BF1037BD4680BDD881FF1FAD8BDB68DC81FF1FDA81FF1F90B585B002AF0446084611461A462346FB710346BB710B469E
:400E8000BB8013467B80104B01221A700E4B1878BA79F9790023019300230093012300F09BF9094B1B787A88B988184600F03AF9054B1B780221184600F002F9024B1B781E
:400EC00018460C37BD4690BDCE80FF1F90B585B002AF0446084611461A462346FB710346BB710B46BB8013467B80104B00221A700E4B1878BA79F9790023019300230093EF
:400F0000002300F069F9094B1B787A88B988184600F008F9054B1B780221184600F0D0F8024B1B7818460C37BD4690BDCF80FF1F80B485B000AF7860054B1B68FB60FB68E8
:400F400040337A681A6000BF1437BD4680BC704708ED00E080B483B000AF0346FB71054AFB795B01DBB2137000BF0C37BD4680BC704700BF00E400E080B483B000AF134BE4
:400F80007F221A70124B80221A707F23FB710CE0FB79DB0003F1804303F5F043FA79013AD2B21A70FB79013BFB71FB79002BEFD1FB79DB0003F1804303F5F04300221A703E
:400FC00000BF0C37BD4680BC704700BFD180FF1FD080FF1F80B485B000AF03460A46FB711346BB710123FB60FB79172B2FD8BB79002B0ED0FB791A01184B1344FA79110174
:40100000164A0A441278D2B242F02002D2B21A700DE0FB791A01114B1344FA7911010F4A0A441278D2B222F02002D2B21A70FB791A010A4B1344FA791101084A0A441278FD
:40104000D2B242F00102D2B21A700023FB60FB6818461437BD4680BC704700BF1070004080B485B000AF0346FB710123FB60FB79172B1DD8FB791A01104B1344FA791101ED
:401080000E4A0A441279D2B242F00402D2B21A71FB791A01094B1344FA791101074A0A441278D2B242F00102D2B21A700023FB60FB6818461437BD4680BC70471070004045
:4010C00080B485B000AF03460A46FB711346BB710123FB60FB79172B1BD8FB791A01104B13441B78DBB223F00E03FB72FB791A010B4B1344BA795200D2B252B202F00E02E9
:4011000051B297F90B200A4352B2D2B21A700023FB60FB6818461437BD4680BC704700BF1070004080B485B000AF0346FB710B46BB8013467B800123FB60BB8841F6FF727C
:40114000934202D14FF40053BB807B8841F6FF72934202D14FF400537B80FB79172B17D8FB79DB0003F1804303F5EC430433BB60BB68BA881A80FB79DB0003F1804303F5F1
:40118000EC430633BB60BB687A881A800023FB60FB6818461437BD4680BC704780B485B000AF03460A46FB711346BB710123FB60FB79172B07D8FB791A01064B1344BA794D
:4011C0005A720023FB60FB6818461437BD4680BC704700BF1070004090B484B000AF0446084611461A462346FB710346BB710B467B7113463B710123FB60FB79172B34D8E1
:40120000FB79DB0003F1804303F5EC43BA7902F07F02D1B27A79D201D2B20A43D2B21A70FB79DB0003F1804303F5EC433A7E1201D1B23A7902F00F02D2B20A43D2B25A7063
:40124000FB79DB0003F1804303F5EC433A7F02F00F02D2B29A70FB79DB0003F1804303F5EC430022DA700023FB60FB6818461037BD4690BC704700BF80B582B000AFFF23DB
:40128000FB7100F0D1FD0346BB71104B1B78182B12D90F4B1B78FB710C4B1B78013BDAB20A4B1A70FB79DB0003F1804303F5F0431B78DAB2064B1A70BB79184600F0B8FD27
:4012C000FB7918460837BD4680BD00BFD080FF1FD180FF1F90B484B000AF0446084611461A462346FB710346BB800B46BB711346FB700123FB6097F90730002B23DBBB883F
:4013000023F47F6323F00F039BB2002B1BD1FB79DB0003F1804303F5F043BB60BB68BA881A80FB79DB0003F1804303F5F043BA799A70FB79DB0003F1804303F5F043FA78CF
:40134000DA700023FB60FB6818461037BD4690BC704700BF80B485B000AF0346FB710B46BB8013467B800123FB6097F90730002B17DBFB79DB0003F1804303F5F043043360
:40138000BB60BB68BA881A80FB79DB0003F1804303F5F0430633BB60BB687A881A800023FB60FB6818461437BD4680BC704700BF80B483B000AF0346FB7101BE00BF0C3704
:4013C000BD4680BC704700BF80B582B000AF786008E00C4B1B68184600F01EFD7B68A3F500437B607B68B3F5004FF2D8064B1B687A6802FB03F3184600F00EFD00BF0837E2
:40140000BD4680BDE480FF1FDC80FF1F80B582B000AF0346FB80FB88054A127802FB03F3184600F0F9FC00BF0837BD4680BD00BFE080FF1F80B500AF064B1B78002B04D1C1
:4014400000F00AF8034B01221A7000F063F800BF80BD00BFBE81FF1F80B582B000AF284A274B1B78DBB243F00203DBB21370254B1B78DBB223F07003FB71224AFB7943F025
:401480001003DBB21370204A1F4B1B78DBB223F03003DBB213701C4A1B4B1B78DBB243F03003DBB21370184A174B1B78DBB223F00F03DBB21370144A134B1B78DBB243F035
:4014C0000F03DBB21370FF2000F048F8142000F055F8002000F062F80C4A0C4B1B78DBB243F00103DBB21370094A094B1B78DBB243F00103DBB2137000BF0837BD4680BD40
:40150000004F0040024F00400B4F0040A3430040014F004080B400AF0D4A0D4B1B78DBB243F00103DBB213700A4A0A4B1B78DBB243F00103DBB21370074A074B1B78DBB26F
:4015400043F00103DBB2137000BFBD4680BC7047A3430040B3430040004F004080B483B000AF0346FB71044BFA7992B21A8000BF0C37BD4680BC7047044F004080B483B027
:4015800000AF0346FB71044BFA7992B21A8000BF0C37BD4680BC7047064F004080B483B000AF0346FB71044AFB79137000BF0C37BD4680BC704700BF034F004080B582B0DA
:4015C00000AF786000F03CF8786800F009F8072000F018F800F028F800BF0837BD4680BD80B485B000AF7860054B1B68FB60FB685C337A681A6000BF1437BD4680BC70478E
:4016000008ED00E080B483B000AF0346FB71054AFB795B01DBB2137000BF0C37BD4680BC704700BF07E400E080B400AF034B80221A6000BFBD4680BC704700BF00E100E0D7
:4016400080B400AF034B80221A6000BFBD4680BC704700BF80E100E080B500AF064B1B78002B04D100F00AF8034B01221A7000F063F800BF80BD00BFBF81FF1F80B582B0E8
:4016800000AF284A274B1B78DBB243F00203DBB21370254B1B78DBB223F07003FB71224AFB7943F01003DBB21370204A1F4B1B78DBB223F03003DBB213701C4A1B4B1B78CE
:4016C000DBB243F03003DBB21370184A174B1B78DBB223F00F03DBB21370144A134B1B78DBB243F00F03DBB21370FF2000F048F8002000F055F8002000F062F80C4A0C4BDA
:401700001B78DBB243F00203DBB21370094A094B1B78DBB243F00103DBB2137000BF0837BD4680BD0C4F00400E4F0040174F0040A34300400D4F004080B400AF0D4A0D4BC3
:401740001B78DBB243F00203DBB213700A4A0A4B1B78DBB243F00203DBB21370074A074B1B78DBB243F00103DBB2137000BFBD4680BC7047A3430040B34300400C4F00403A
:4017800080B483B000AF0346FB71044BFA7992B21A8000BF0C37BD4680BC7047104F004080B483B000AF0346FB71044BFA7992B21A8000BF0C37BD4680BC7047124F004023
:4017C00080B483B000AF0346FB71044AFB79137000BF0C37BD4680BC704700BF0F4F004080B485B000AF0346FB710B4B1B78DBB223F00203FB730849FB795B00DBB203F01B
:401800000203DAB2FB7B1343DBB20B7000BF1437BD4680BC704700BF2051004080B400AF00BFBD4680BC704780B582B000AF0F2000F03EF800F02EF800F0F6FA0346FB7125
:40184000074A074B1B78DBB243F01003DBB21370FB79184600F0ECFA00BF0837BD4680BD9D64004080B500AF00F0DCF84FF4004000F006F9064B1B78002B04D1FFF7CEFF67
:40188000034B01221A70FFF7CFFF00BF80BD00BFC081FF1F80B400AF044B1B78DBB203F00F03DBB21846BD4680BC70476D64004080B483B000AF0346FB71044AFB791370F6
:4018C00000BF0C37BD4680BC704700BF8D64004080B400AF00BFBD4680BC704780B582B000AF0F2000F03EF800F02EF800F09CFA0346FB71074A074B1B78DBB243F01003A3
:40190000DBB21370FB79184600F092FA00BF0837BD4680BD9C64004080B500AF00F04AF94FF4004000F074F9064B1B78002B04D1FFF7CEFF034B01221A70FFF7CFFF00BFAF
:4019400080BD00BFC181FF1F80B400AF044B1B78DBB203F00F03DBB21846BD4680BC70476C64004080B483B000AF0346FB71044AFB79137000BF0C37BD4680BC704700BFFC
:401980008C64004080B582B000AF1C4B1B78DBB223F00703FB71194AFB791370174B1B78DBB223F00303FB71144AFB79137000F0A3F84FF4004000F07FF84FF4004000F033
:4019C0005FF8002000F040F800F04EF84FF4004000F082F800F028FA0346BB71084A084B1B78DBB243F01003DBB21370BB79184600F01EFA00BF0837BD4680BD7764004090
:401A00009964004080B400AF054A054B1B78DBB263F07F03DBB2137000BFBD4680BC70477764004080B500AF064B1B78002B04D1FFF7A8FF034B01221A70FFF7E3FF00BF1B
:401A400080BD00BFC281FF1F80B483B000AF0346FB71044AFB79137000BF0C37BD4680BC704700BF8964004080B400AF034B1B78DBB21846BD4680BC704700BF69640040A4
:401A800080B483B000AF0346FB80044AFB88138000BF0C37BD4680BC704700BF1068004080B400AF034B1B889BB21846BD4680BC704700BF9068004080B483B000AF0346AE
:401AC000FB80044AFB88138000BF0C37BD4680BC704700BF5068004080B483B000AF0346FB80044AFB88138000BF0C37BD4680BC704700BF7068004080B500AF01E0FFF790
:401B0000CFFFFFF7B1FF034603F04003002BF6D100BF80BD80B582B000AF1C4B1B78DBB223F00703FB71194AFB791370174B1B78DBB223F00303FB71144AFB79137000F0F8
:401B4000A3F84FF4004000F07FF84FF4004000F05FF8002000F040F800F04EF84FF4004000F082F800F060F90346BB71084A084B1B78DBB243F01003DBB21370BB79184640
:401B800000F056F900BF0837BD4680BD7E6400409F64004080B400AF054A054B1B78DBB263F07F03DBB2137000BFBD4680BC70477E64004080B500AF064B1B78002B04D11D
:401BC000FFF7A8FF034B01221A70FFF7E3FF00BF80BD00BFC381FF1F80B483B000AF0346FB71044AFB79137000BF0C37BD4680BC704700BF8F64004080B400AF034B1B789A
:401C0000DBB21846BD4680BC704700BF6F64004080B483B000AF0346FB80044AFB88138000BF0C37BD4680BC704700BF1C68004080B400AF034B1B889BB21846BD4680BC7A
:401C4000704700BF9C68004080B483B000AF0346FB80044AFB88138000BF0C37BD4680BC704700BF5C68004080B483B000AF0346FB80044AFB88138000BF0C37BD4680BC32
:401C8000704700BF7C68004080B500AF01E0FFF7CFFFFFF7B1FF034603F04003002BF6D100BF80BD80B500AF224A224B1B78DBB203F00103DBB213701F4A1F4B1B78DBB217
:401CC00023F00303DBB213701C4A1C4B1B78DBB223F03003DBB21370184A184B1B78DBB243F03003DBB21370144A144B1B78DBB223F00F03DBB21370104A104B1B78DBB236
:401D000043F00F03DBB213700D4A0D4B1B78DBB243F00103DBB2137044F61F6000F058F844F61F6000F066F8002000F041F800BF80BD00BF184F00401A4F0040234F004032
:401D4000194F004080B400AF0D4A0D4B1B78DBB243F00403DBB213700A4A0A4B1B78DBB243F00403DBB21370074A074B1B78DBB243F00103DBB2137000BFBD4680BC7047ED
:401D8000A3430040B3430040184F004080B500AF064B1B78002B04D1FFF784FF034B01221A70FFF7CFFF00BF80BD00BFC481FF1F80B483B000AF0346FB71044AFB791370F2
:401DC00000BF0C37BD4680BC704700BF1B4F004080B485B000AF0346FB80FB88FB81044AFB89138000BF1437BD4680BC704700BF1C4F004080B483B000AF0346FB80044AB0
:401E0000FB88138000BF0C37BD4680BC704700BF1E4F0040000000000230800803D000BF01380046FCD17047EFF3108072B6704780F31088704700BF014B1868704700BFC5
:401E40004881FF1F0E4B70B51E460E4C0025E41AA410A54204D056F8253098470135F8E700F050F8084B094C1E46E41AA4100025A54204D056F8253098470135F8E770BD7C
:401E8000101F0000101F0000101F0000181F000010B5431E0A44914204D011F8014B03F8014FF8E710BD03460244934202D003F8011BFAE77047000000000000004F004083
:401EC000300040510040300000000140001000140140000480180140800300400140000A004C0140000210500140100000180140C80E0048800000500140480F00481000A9
:401F000043000000F8B500BFF8BC08BC9E4670474D000000D1070000F8B500BFF8BC08BC9E46704729000000381F0000C880FF1F880000009800000000000000FFFFFFFF39
:401F4000807F0000030000000087930360EA00003C000000000030750000000000000000000000000000000000000000000000000000000000000000001F000000000000F8
:401F80000000000000000000000000000000000000000000000000000000000000000000000000000000000000000000000000000000000000000000E880FF1F000000009B
:401FC00000000000000000000000000000000000000000000000000000000000000000000000000000000000000000000000000000000000000000000000000000000000E1
:4020000000000000000000000000000000000000000000000000000000000000000000000000000000000000000000000000000000000000000000000000000000000000A0
:402040000000000000000000000000000000000000000000000000000000000000000000000000000000000000000000000000000000000000000000000000000000000060
:402080000000000000000000000000000000000000000000000000000000000000000000000000000000000000000000000000000000000000000000000000000000000020
:020000040003F7
:0200000480007A
:4000000001450040084F00400C520040015B004006640040026500402B0001402C0101402E0201404303014030040140530501402B06014047070140620801404B090140F7
:400040004D0A01404A0B0140490C0140480D0140600E0140370F01403A14014052150140271601404C1701401A1801404A190140511A01404D1B01400C4001401B41014001
:400080001542014010430140024401400B4501400E4601400D4701401D4801400D490140104C01400B4D014006500140045101407E0201200A360D201636195022362540B2
:4000C0002E36006101430904100811081818192060406150781079307C4027848207896F8B388C0F8D0F8F6F870F8B720002020512081402160418041A021C021E14300848
:400100003210340636013A205608580459045B045C105D905F018204860888048E028F049002930298019B019E10A008A601B104B41FB502B701B820BE10D804D904DC1124
:40014000DF010102044005010601075408020A290D220E060F1014401606170919321A291F10240425032705284029082B202E84312234403509371038043A803B303C44C5
:400180003D023F10588060028920C0F8C2FFC4F0CA53CCF5CEFED608D80800400280040808010C021202142016101A011C042208260428102A202C802E4036FF3E405602B0
:4001C0005735580459045B0C5C105D105F01880C8A308C288E1492019430960C983CA002A41CAC14AE28B001B202B43CBE04D804D904DC10DF0101A00402068107180AA41A
:400200000C090D220E8911081282141415601640170518881A041B141E0229012B202C042E802F1031223304341035013644370138023B205D1066106C086D406E016F500B
:400240007502760977087F028284932099309B059E859F58A102A440A520A601A720A880AC40AD08AE02C0F3C2FEC4FDCA73CCF7CE05D620D820DE10E604EE0209300B0414
:400280000D010F02112213051501178219301B081D011F02211C252C27102B3C2F4031033340353C37803B025608580459045B045C015D905F0187018F049601A502A902AF
:4002C000B302B401B501B704B908BF04D207D306D804D904DB04DC11DD10DF01024003A404020704080809200B300C090D200F0210011280140816401F2022572308240AB4
:4003000025282680280229102B502C012E042F8832553410368438A03D403E083F124110432045084610588060026D106E206F1A8601872188108C108D808E04908091405D
:4003400093209402953096A0981199129A489B049D809E10A088A204A310A440A524A602A722AA80AC80B404B704C05EC2F6C459CAFFCC7FCEFCD608D808E208E412E6805C
:40038000EA480001040A06050C20140F18071A081C041E0122302A023020320C340336105401580C59045B0C5C115D105F01830185108B088D04910197089F02A308A5087B
:4003C000A908B103B304B508B710BF54D280D804D904DB04DC91DF0101040304054608010B200C800E24105012401340150217101C801D451E442002210122242A0A2B043A
:400400002D402F10301831013280332034503704382039823A043D043F804C014D404E014F405E4071027F02840185028D08900A9320980199029A449B14A080A210A322F1
:40044000A450A880A904AB40AE04AF08C0B6C2ECC45DCA57CC7BCE5FD610DE10E002E408E610E808EA060002059407600F0F159E1606176019731A021DFD1F0221CF233081
:40048000253027C92A01300433FF340236013E103F044023410149FF4AFF4BFF4DA04F0150185608580459045A045B045D905F016040628064406540668068406A806C4033
:4004C0006D206E80810C84018C088D088F0491029B03A003A20CA30CA403B002B101B201B302B408B508B604B704B80ABE14BF54C023C101C532C6C4C70EC81FC9FFCAFF07
:40050000CBFFCDAFCE07CF01D018D40FD804D904DA04DB04DF05E040E280E440E540E680E840EA80EC40ED20EE800180031005010E200F0410A0152019821A041B041C028B
:400540001D2121042291272029022A202B042D012F10307032813628375039423DC441A0422045E0462048A050405108521058105A855E80610862106402664068026980F9
:400580006A407A20870489048A01912593609401962097089B509CE09D409F24A140A258A401AB10AD01B240C015C260C44CCAC1CC75CE59D07ED61FD816DE02E408EA02FC
:4005C0000010010202600304040F0504070208100A200B010C0C0E031023121C18101A201D021E801F0C21022314240A260528052A0A2C073080310832403306340F3501E4
:40060000363037103A803B085608580459045B045D905F018157847F8501870289378F0795619601970298C59A3A9B089CFE9E01A0A3A160A25CA304A40EA504A6F0A896C2
:40064000AA68B370B6FFB70FB908BE40D418D604D804D904DB04DD30DF010002032A050406200710080109800B040E29120213181505168819211A021B681F80211522802C
:4006800023142540271029012D012F10328036083720390A3A103D843E214201434058A05C016180621065406788860887508E08910493409622973098019B489C409D24DF
:4006C0009E809F14A21EA302A7C0B004B101B202B344B402B748C02FC2EBC477CAC1CC68CEF7D68CD8BCE410E640E810EA0801400511070808FD09010A020B040CCF0D11B9
:400700000E300F041094126013401430152016C9191C1A0F20732302249E2660271D290D2B103140331D350336FF37203E403F41540F580459045B045F01817C84C186125C
:4007400087028B1D8CC08E24900192F299D19A079B089E08A101A304A4B7A640A884A9ADAA10AB10AC77ADD1AF04B0F0B1E0B303B40FB51DB902D40FD804D904DB04DF017A
:400780000008030204800520080109800A040C010E040F901212131015021708188019101A041B021D8020082101222623082504269D280429202A102B422F9832203502FA
:4007C0003714380839023B103C023D083E803F20584259045A205D815F2479047B108680900891049502960A971099829B209D30A001A404A603A702B180B308C0C5C27B71
:40080000C437CAEDCCE4CEF7D6FFE408E604EE02030204C5063A08FE0A010CA30D020E5C17031A011C0E1EF0207F230428962A68310134FF350237043E103F10402341060E
:4008400049FF4AFF4BFF4DA04F0150185280580459045A045B045F016040628064406540668068406A806C406D206E808303900899089B049C039D0EA001A30CA403A60C95
:40088000B004B101B201B308B408B504B602B702B888BE14BF54C023C106C52CC630C74EC83BC9FFCAFFCBFFCDAFCE07CF01D018D40FD804D904DA04DB04DF05E040E2808D
:4008C000E440E540E680E840EA80EC40ED20EE800008012003020A0A0E400F021040131014401502162018081C101E481F40204621202640276829022F4032043510374022
:4009000038423E024014430445204704480849104C084D024F06562A5D105E8A6608670470017E028916C007C293C43ACA81CC32CE89D066D224D6F0D860DE10E0200403FA
:40094000050708030B070C03110113061507160320012107220224022501260127062C032D052F02320133013402350437024005460449FF4A074BFF4C404D204EF04F0534
:4009800050085608580459045A045B045C115D935F01604061A86240632085018D0195019D01A501AB01AF01B301D804D904DC11DF010104020203140501071008040B2088
:4009C0000C100F801011124014041640170419041B102108224023082608281029802A402B402C142F023101320333063580370439043B203D043F8048015082594062803F
:400A000069106B01801283048401860887018880891091049202932094209680981199409A409B049D049E089F08A340A402A508A68AA716AA42AB01AD40C037C254C47DF7
:400A4000CA7BCC53CE56D208D608D808E004E60EE801EC21EE04580459045C115F018101830285038B0391039503A502A701AF03B302B701C025C103C50BC60EC70CC8155C
:400A8000C9FFCAFFCBFFCEF0CF44D00CD401D604D804D904DA04DB04DC11DD33DF01E6C0EA40EB02010402020304040A08110B300C110F90124016601704202023012810C2
:400AC0002A402B012E202F12300133043410380A39043B203D043F82400241404208430848024B045008514058025A085B6060807B0C8104870488808B088C088F30900AF9
:400B0000920A93209420958498119A409B449E0AA418A508A688A744AA20AB40AE08B204C037C27EC438CA7ACC23CED7D006D208D60FD801E002E260E680EE02810282C331
:400B4000841386048C108F03962C9E82A241A813AA08AC41AE82B0E0B101B20FB4E0B610B702BA08BE11BF40D804D904DC03DF01000201040301061007480A200B010E9075
:400B80000F02100211101240144017101A281B421D401E801F24210122402401260927182C202E222F02340236083760388039023E543F014440450247184E044F825610E0
:400BC0005F40670184408E028F209080918092409340940195029680970898029A409CA09D409F04A002C07DC2B5C45BCAF0CCF0CEF9D0E0D230D610D810E010E240E410DC
:400C0000EC20EE0200CA0108023403020413050F06E4090F0A350D050F0A128014131520166C174019D01AC81D031F0C2180231029D02C032D042E042F0130F0320F33C053
:400C400034A83530370F39283A2A3F04580459045C335F01800484308510870C88108C088D14907C911C92819302947C9682970398FF99099B109E0CA020A110A50CA68314
:400C8000A711A8CFAA30AC04AE08B0B0B23FB51FB640BA2ABE40D602D713D804D904DB04DC33DD30DF010004010202080641072809200A200B800E6A12021580162017128D
:400CC000180419131A201B2C1E7D2002212022A4270429112A402F60329835013620370439943A013B013C803F085A405B405E016D146F0174207602772A8110820886045A
:400D0000870889028A048B4091809301951496149A609B109D029E029F65A040A203A421A502A902B0A0B620B740C0FEC2FEC4F1CACDCCEECE5FD680E080E480E801EC21E6
:400D400012801680302033083408364039083B803E80C430CCF0CE703010320236083780500453025F1166208008950897809C089F40A282A640AB40AC20AE02AF08CCF0BB
:400D8000D4A0D6A0D880E620EA40EC80EE401208178087408B028E109302940897919C109E209FC0A280A648A706AB04AD04B701C4C0E210EA10EC201B041E108F0193029F
:400DC0009418961097119C109E209F40A280A640A704A810C630EC807008DC0103080B20560280208602A408A640AE40C002C208D6041B0227208C089C20A308A408A64001
:400E0000A702AF02B310C608C801E408EA0408200B400E804102440185089C20A640AF20B308C20ED006EA0400100740208065106B026E0871107302800488108B108D10B5
:400E40008E049302941897109C109F40A280A304AE60C060C840D880DAC0DC20E680EA10EE4056106308670286109302A304AE80B040D440D680D840E240EC1008100C40C4
:400E80005A80700474088E4099089C01AF40B102C203D401DC01DE04E008EC047508784088409908A80CB051DC01DE04E001EA05EC04100B11011A0A1B011C091D0100AB5C
:400EC00001FF0203100A00000000011000670200004604210008001000000208006101060006000000070460010400000002000001000061002100000118020700460420DD
:400F000022000008000054002504030006C0E0000AFFFFFF62A0F0410C00000000000800040404043393000100000000000040020010301000101012000000000000000078
:400F400000000000000000000B010000000000000301030109010100000000000067670000707000700000004000060000000030F0000000C00B0B00000404000800140ACA
:400F80000A00080000000000007B7B0038000000000100000000000000000000000000000000000000000000000000000000000000000000000000000000000000000000F0
:400FC00000000000000000000000000000000000000000000000000000000000000000000000000000000000000000000000000000000000000000000000000000000000F1
:4010000000000000000000000000000000000000000000000000000000000000000000000000000000000000000000000000000000000000000000000000000000000000B0
:401040000000000000000000000000000000000000000000000000000000000000000000000000000000000000000000000000000000000000000000000000000000000070
:401080000000000000000000000000000000000000000000000000000000000000000000000000000000000000000000000000000000000000000000000000000000000030
:0200000490006A
:0400000000004005B7
:0200000490105A
:04000000BC90ACAF55
:0200000490303A
:02000000DBB46F
:0200000490402A
:4000000000000000000000000000000000000000000000000000000000000000000000000000000000000000000000000000000000000000000000000000000000000000C0
:400040000000000000000000000000000000000000000000000000000000000000000000000000000000000000000000000000000000000000000000000000000000000080
:400080000000000000000000000000000000000000000000000000000000000000000000000000000000000000000000000000000000000000000000000000000000000040
:4000C0000000000000000000000000000000000000000000000000000000000000000000000000000000000000000000000000000000000000000000000000000000000000
:0200000490501A
:0C00000000012E16106900012E26EC1DD8
:00000001FF