:400000000080002011000000810700008107000080B500AF024A034B1B68136000F0E2FBBC760040FA46004010B5054C237833B9044B13B10448AFF300800123237010BD2A
:400040007081FF1F0000000044490000084B10B51BB108490848AFF300800848036803B910BD074B002BFBD0BDE81040184700BF000000007481FF1F44490000C880FF1F98
:400080000000000080B500AFC82003F0ADFA322003F0BCFB00BF80BD80B500AF7F2003F0A3FA7F2003F0B2FB00BF80BD80B582B000AF002000F014FD0346FB80012000F088
:4000C0000FFD0346BB80022000F00AFD03467B80BB8840F6A202934203D9012003F0B6FB02E0002003F0B2FB114B1B680133104A1360FB8840F6A202934202D90D4B012276
:400100001A600B4B1B68092B0EDD0A4B1B68002B02D1FFF7B7FF01E0FFF7BEFF054B00221A60034B00221A6000BF0837BD4680BDB081FF1FAC81FF1F80B400AF00BFBD46E4
:4001400080BC704780B5ADF59C4D8AB000AF002307F59C4202F126021380002307F59C4202F12402138003F037FC034607F59C4202F12202138003F0C3FB034607F59C42C8
:4001800002F12002138007F59C4303F12603B3F9002007F59C4303F12003B3F9003007F51C5000F128001838144903F09FFF07F59C4303F12403B3F9002007F59C4303F1B5
:4001C0002203B3F9003007F1280028380C4903F08DFF07F51C5303F12803183B184600F049F807F12803283B184600F043F800BF07F59C472837BD4680BD00BF48490000A2
:400200007449000080B500AF00F05AFC00BF80BD80B500AF62B6134B00221A7000F042FD03F03EFE03F054FB03F0BEFB0E4803F07BFE0E4800F076FC0D4803F0F5F900F0E9
:4002400027FC03F02DF903F03DFA002003F0FEFA0121002000F06AFD002003F09DFDFFF771FFFEE7B481FF1F3901000005020000AD00000080B582B000AF786000BF01F09D
:400280006BF80346002BFAD07B683F3300221A707B683E3321221A70786803F04BFF03469BB21946786801F021F800BF0837BD4680BD00BF80B582B000AF786039603A6859
:4002C0000021786803F009FF00BF0837BD4680BD80B584B000AFF860B9607A607A68B968F86803F0EFFE00BF1037BD4680BD00BF80B483B000AF0346FB71FEE780B487B0FE
:4003000000AF7860396000233B6100237B6127E07B699B007A6813441B68BB60BB68FB73BB6823F0FF03BB6014E03B695B003A6813441B781A46BB68134419463B695B00E7
:400340003A6813445B780B703B6901333B61FB7B013BFB73FB7B002BE7D17B6901337B617B692B2BD4D900BF1C37BD4680BC704780B582B000AF3F4B04221A803E4B182243
:400380001A703E4B3A221A803D4B18221A703D4B3B221A803C4B18221A703C4B81221A803B4B18221A703B4B00221A803A4B1B221A703A4B00221A80394B1B221A70394B72
:4003C00006221A70384B52221A70384B384A1278D2B21A70374B40F619121A80364B41F251221A800023FB7019237B6014E0FB785B00DAB2314B1B78DBB203F00103DBB2DC
:400400001343DBB203F00303FB704FF4F07003F0DBFD7B68013B7B607B68002B02D0FB78032BE4D17B68002B02D10320FFF760FF234B4FF480721A80214B07221A70214BB6
:4004400000221A70204B48221A701D4B00221A701E4B00221A701E4B02221A701D4A1D4B1B78DBB243F03F03DBB2137000BF0837BD4680BD80400040824000408440004079
:4004800086400040884000408A4000408C4000408E400040904000409240004094400040964000400043004000420040A14600400F0100492242004020420040254200404C
:4004C0000440004006400040084000400940004001400040A243004080B582B000AF244B1B78FB71234B1B78BB71234B1B787B71224AFB7903F00703DBB21370204AFB79D2
:400500001B09DBB213701B4ABB7943F00303DBB21370194A7B7943F00303DBB21370194B67221A70184B04221A70184B30221A70174B40221A70174B40221A70164B7722A6
:400540001A70164B20221A70154B04221A700A2002F0E4FE084A7B791370064ABB791370104B44221A7000BF0837BD4680BD00BFCF010049F8460040F94600406E58004082
:400580006F5800400D5100401D510040FD5100400159004003590040205B0040235B0040585B00407658004080B586B000AF72B6574B61221A70FFF7DBFE554B01221A709D
:4005C000544A544B1B78DBB243F00403DBB213700023FB7513E0FA7D13465B0013445B004D4A13443B613B691A683B699B889BB219461046FFF75EFEFB7D0133FB75FB7D92
:40060000072BE8D90023FB751CE0FA7D13469B0013445B00414A1344FB60FB681B68BB60FB685B687B60FB681A7A5B7A1B0213437B807B881A467968B868FFF749FEFB7D89
:400640000133FB75FB7D012BDFD935494FF09040FFF754FE04213348FFF72CFE042232493248FFF735FE324B324A1A60324A324B1B78DBB243F00203DBB213702F4A2F4BDA
:400680001B78DBB243F00203DBB213702C4A2C4B1B78DBB243F04003DBB21370294A294B1B78DBB243F01003DBB21370082226492648FFF70DFE082225492648FFF708FED8
:4006C0000A2225492548FFF703FE082224492548FFF7FEFD0A2224492448FFF7F9FD082223492448FFF7F4FD234A234B1B78DBB243F00803DBB21370FFF7EEFE0E22104979
:400700001E48FFF7E5FD00BF1837BD4680BD00BF00480040E8460040A0490000D0490000B000004800760040900F004808760040D80801400404048403500140135001403A
:40074000A0430040C2430040580F004802510040600F0048C2510040680F0048F0510040740F0048125100407C0F004820510040880F00483251004022430040B043004019
:4007800080B500AF03F072FC03461B680C2B00D1FEE7FEE780B584B000AF78600F4B1A687B6813441A460E4BD31A802B09DC0B4B1B68FB60094B1A687B681344074A136012
:4007C00007E003F053FC02460C2313604FF0FF33FB60FB6818461037BD4680BDCC80FF1FE082FF1F80B586B000AF224B7B61224B3B61204B7B6135E03B691B68FB603B69FA
:400800005B68BB603B699B683B6000237B600CE0FB681A68BB681A60BB680433BB60FB680433FB607B6804337B607A683B689A42EED13B69DB683B6000237B6008E0BB6822
:4008400000221A60BB680433BB607B6804337B607A683B689A42F2D13B6910333B617B69013B7B617B69002BC6D103F005FCFFF7CFFCFEE701000000F04B000080B582B0EC
:4008800000AF194B194A1A60194A194B1B6843F40073136000237B600FE07B68032B04D8144A7B6852F8233000E0134B13497A6841F822307B6801337B607B682F2BECD92E
:4008C0000F4B1B78DAB20F4B1A700F4B0B4A1A60FFF76AFE02F0FAFA0C4B00221A6000BF0837BD4680BD00BF0CED00E00004FA0514ED00E000000000810700000080FF1F5B
:40090000BC760040C480FF1F08ED00E0C080FF1F80B500AF41F6FF734FF480420121022002F03CFA03461A460A4B1A7041F6FF7341F6FF720121102002F062FA03461A4690
:40094000054B1A70054802F08DFA002002F09CFA00BF80BDBC81FF1FBD81FF1F190B000080B582B000AF414B1B78184602F022FB3F4B1B78184602F01DFB3E4B1B78FF2BEB
:4009800005D102F023FC03461A463A4B1A70394B1878384B1A780623102102F045FC354B1B78354A92B245F6A031184602F07CFC2E4B1A782F4B1B781946104602F098FBE6
:4009C0002E4B1B78FF2B05D102F000FC03461A462A4B1A70294B1878284B1A780723102102F022FC254B1B78234A91B2244A92B2184602F059FC1E4B1A78204B1B7819467F
:400A0000104602F075FB194B1B780121184602F08BFA174B1B780121184602F085FA03F0DBFA0346FB71174A164B1B78DBB243F02003DBB21370FB79184603F0D1FA124A79
:400A4000114B1B78DBB243F00103DBB213700E4A0D4B1B78DBB243F00203DBB213700B4B01221A6000BF0837BD4680BDBC81FF1FBD81FF1FD080FF1FC081FF1FD180FF1F77
:400A8000E881FF1F926400407564004080E200E080B500AF084B1B68002B04D1FFF738FF054B01221A6002F085F8FFF759FF034B1B7800BF80BD00BFB881FF1F6664004090
:400AC00080B400AF054A054B1B78DBB243F00403DBB2137000BFBD4680BC70477564004080B483B000AF0346FB80FB88C3F10703074A32F913309AB2064B1B881BB29BB208
:400B0000D31A9BB21BB218460C37BD4680BC7047E881FF1FAE82FF1F80B400AF00BFBD4680BC704780B582B000AF786000F03CF8786800F009F8072000F018F800F028F890
:400B400000BF0837BD4680BD80B485B000AF7860054B1B68FB60FB6858337A681A6000BF1437BD4680BC704708ED00E080B483B000AF0346FB71054AFB795B01DBB2137000
:400B800000BF0C37BD4680BC704700BF06E400E080B400AF034B40221A6000BFBD4680BC704700BF00E100E080B400AF034B40221A6000BFBD4680BC704700BF80E100E0B0
:400BC00080B500AF214A214B1B78DBB203F00103DBB213701E4A1E4B1B78DBB223F00303DBB213701B4A1B4B1B78DBB223F03003DBB21370174A174B1B78DBB243F030036F
:400C0000DBB21370134A134B1B78DBB223F00F03DBB213700F4A0F4B1B78DBB243F00F03DBB213700C4A0C4B1B78DBB243F00103DBB21370C72000F057F8C72000F066F8FD
:400C4000002000F041F800BF80BD00BF244F0040264F00402F4F0040254F004080B400AF0D4A0D4B1B78DBB243F00803DBB213700A4A0A4B1B78DBB243F00803DBB213707F
:400C8000074A074B1B78DBB243F00103DBB2137000BFBD4680BC7047A3430040B3430040244F004080B500AF064B1B78002B04D1FFF786FF034B01221A70FFF7CFFF00BFA5
:400CC00080BD00BFD081FF1F80B483B000AF0346FB71044AFB79137000BF0C37BD4680BC704700BF274F004080B485B000AF0346FB71FB79FB81044AFB89138000BF1437E0
:400D0000BD4680BC704700BF284F004080B483B000AF0346FB71044BFA7992B21A8000BF0C37BD4680BC70472A4F004080B582B000AF03460A46FB711346BB71094B1B78A4
:400D4000002B04D100F010F8064B01221A70BA79FB791146184600F0D9F800BF0837BD4680BD00BFD181FF1F80B582B000AF03F033F90346FB71544A534B1B78DBB243F07A
:400D80000103DBB21370514A504B1B78DBB243F00103DBB213704E4B01221A704D4B02221A704D4A4C4B1B78DBB203F07F03DBB21370002002F0B2FA484A484B1B78DBB220
:400DC00023F00603DBB21370454A454B1B78DBB223F02003DBB21370404A404B1B78DBB243F00103DBB21370012002F097FA282002F094FA3B4A3B4B1B78DBB203F07F03BA
:400E0000DBB21370374A374B1B78DBB223F04003DBB21370314A314B1B78DBB243F00203DBB21370022002F079FA2C4A2B4B1B78DBB243F00403DBB213702B4B00221A70BB
:400E40002A4B00221A70FB79184603F0C9F80721172002F09FFA2649172002F073FA0721182002F097FA2349182002F06BFA0721152002F08FFA2049152002F063FA072111
:400E8000012002F087FA1D49012002F05BFA0721022002F07FFA1A49022002F053FA0721032002F077FA1749032002F04BFA07210C2002F06FFA14490C2002F043FA00BFC9
:400EC0000837BD4680BD00BFA5430040B54300409D60004009600040106000409443004012600040F85100408460004085600040251B00000D140000191B0000311A000043
:400F0000791A0000C51A0000311B000080B582B000AF03460A46FB711346BB712E4AFB7913702E4B00221A702D4B00221A702D4B00221A702C4B00221A702C4B00221A7031
:400F40002B4B00221A702B4B00221A702A4B4FF400021A60284B4FF080721A60264B4FF400121A60244B02221A60234B04221A60214B08221A60BB79002B02D0012B09D03A
:400F800011E01E4A1D4B1B78DBB223F00103DBB2137011E0194A194B1B78DBB243F00103DBB2137008E0154A144B1B78DBB243F00103DBB2137000BF114B03221A70114BD7
:400FC00080221A70012002F0FFFF0F4B04221A7000BF0837BD4680BD1182FF1F1482FF1F3082FF1F3382FF1F2882FF1F3282FF1F3582FF1F1082FF1F00E100E009600040DB
:4010000028600040086000401260004080B400AF0F4B00221A700F4B00221A700E4B00221A700E4B00221A700D4B00221A700D4B00221A700C4B00221A700C4B03221A7084
:401040000B4B80221A7000BFBD4680BC704700BF1482FF1F3082FF1F3382FF1F2882FF1F3282FF1F3582FF1F1082FF1F286000400860004080B483B000AF0346FB71FA7956
:40108000064913465B0013449B000B4401331B78DBB218460C37BD4680BC70473882FF1FB0B485B000AF03463960FB711346BB80FB79002B6DD0FB79082B6AD8B988FA7986
:4010C000364813465B0013449B00034406331B889BB2C3F5007399420CD9FA792F4913465B0013449B000B4406331B889BB2C3F50073BB802A4CF979BB881B0A9BB2D8B2DB
:40110000FA79264D13465B0013449B002B4403331B78DBB20343DAB20B0123441A70204AFB79B988C9B21B01134401330A461A703B68002B13D00023FB810CE01948FB7963
:40114000FA8939680A4412781B01034408331A70FB890133FB81FA89BB889A42EED3FA790E4913465B0013449B000B44013300221A700B48F979FA79084C13465B0013447E
:401180009B00234405331B78DAB20B01034402331A7000BF1437BD46B0BC70473882FF1FFC5F00407060004080B582B000AF0023FB71314B1B79DBB2184600F067F80346D9
:4011C000BB712D4B1B78DBB25BB2002B15DA2A4B5B78DBB2212B00D048E0284B07221A80BA791346DB009B1A254A1344234A536000F086FA0346FB7138E01F4B5B78DBB2AC
:40120000202B02D0222B1AD030E01C4B07221A80BA791346DB009B1A194A1344174A5360BB79BA7917498A5CD2B242F00102D1B2144AD15400F0E2FA0346FB7116E0BB791F
:401240000D4A9278D2B291B20F4A22F81310BB79BA790C498A5CD2B242F00202D1B2094AD15400F069FB0346FB7100BFFB7918460837BD4680BD00BF006000401C82FF1F25
:40128000D480FF1FF881FF1F0C82FF1F80B485B000AF0346FB710023FB73FF23BB7317E0FB7B104AD35C7B737A7B0F4913465B0013449B000B440A331B78DBB2FA799A42F9
:4012C00003D1FB7BBB730223FB73FB7B0133FB73FB7B012BE4D9BB7B18461437BD4680BC704700BF0082FF1F3882FF1F80B584B000AF78600B467B80144B1B781A46144B73
:401300009B5CFB73FA7B134913465B0013449B000B4408331B889BB27A889A420CD9FA7B0C4913465B0013449B000B4408331B887B80002001F0E6FF7A88FB7B796818464F
:40134000FFF7AEFE00BF1037BD4680BDD281FF1FFC81FF1F3882FF1F80B500AF054B1B781A46054B9B5CDBB21846FFF783FE0346184680BDD281FF1FFC81FF1F80B485B078
:4013800000AF78600B46FB701346BB707B68DB7803F00303FB737B689B785BB2002B1ADAFB7B032B0AD0BB7803F001031449FA78CA54BB7843F00103BB701BE0BB789B08AC
:4013C000DBB203F001030F49FA78CA54BB7843F00403BB700EE0FB7B032B0BD0BB785B08DBB203F001030849FA78CA54BB7843F00203BB70BB7818461437BD4680BC704719
:40140000FC81FF1F0082FF1F0482FF1F80B582B000AF374B1B78BB71BB7903F01003002B62D00123FB7197F90630002B12DABB7903F00F03012B02D00023FB711CE000F0C0
:4014400061F82C4B1B78DBB25BB2002B14DA0023FB7111E0BB7903F04003002B02D000F095F809E0BB7903F02003002B02D000F0B3F801E00023FB71FB79002B34D01C4BAD
:401480001B78BB7197F90630002B2DDB1A4B1B78DAB21A4B1B78DBB21343BB71184ABB791370174B1B78DBB2BA799A421CD1114B1B78FB710E4B1B78DBB223F07F03BB71BD
:4014C000BB79002B0AD10A4B0A4A1278D2B21A70074B1B78DBB203F00F03FB71054B1B78DBB2FA799A42E2D100BF0837BD4680BD286000403182FF1FA682FF1F3482FF1F2B
:401500002960004080B582B000AF1D4B1B78FB711B4AFB7913701A4B1B78FB7197F90730002B03DA174AFB79137025E0022000F045FA154B1B78DBB203F06003202B08D02F
:40154000402B0BD0002B0ED100F0F8FA0346FB710CE002F049FD0346FB7107E001F000FB0346FB7102E00023FB7100BFFB79002B02D1044B03221A7000BF0837BD4680BD45
:40158000286000403182FF1F0060004080B500AF104B1B78DBB2062B19D801A252F823F0CF150000CF150000BD150000CF150000C3150000CF150000C915000000F0F8F879
:4015C00006E000F0A7F903E000F0D2F900E000BF00BF80BD1482FF1F80B500AF124B1B78DBB2062B1DD801A252F823F0231600002316000009160000231600000F16000012
:40160000231600001516000000F0D8F80AE000F027F907E0032000F0D1F9044B03221A7000E000BF00BF80BD1482FF1F3182FF1F80B483B000AF0023FB71294B1B78DBB271
:401640009AB2284B1B889BB213449AB2254B1A8015E02549FB79254A52681278D2B2CA54224B5B680133214A5360FB790133FB711E4B1B889BB2013B9AB21C4B1A801B4B04
:401680001B889BB2002B02D0FB79072BE1D9144B1B78DBB2082B02D0FB79002B0FD0144B1B78DBB283F07F03DB43DAB2104B1A70104B0F221A70104B02221A7005E00D4B7C
:4016C00002221A700C4B02221A700C4AFB791370034AFB79137000BF0C37BD4680BC70471082FF1F1282FF1F006000401C82FF1FA682FF1F3182FF1F1482FF1F3482FF1F51
:4017000080B582B000AF164B1B889BB2002B02D100F02EF81EE0134B02221A70124B00221A7000F06BF9114BDB79DBB29BB21B029AB20E4B9B79DBB29BB21343FB80084B69
:401740001B889BB2FA889A4202D2054AFB881380FFF76EFF012318460837BD4680BD00BF1C82FF1F1482FF1FA682FF1F0060004080B400AF094B02221A70094B80221A7004
:40178000084B0F221A70084B00221A70074B00221A7001231846BD4680BC70471482FF1FA682FF1F3182FF1F1082FF1F3482FF1F80B500AFFFF73CFF00BF80BD80B500AF62
:4017C0000A4B1B78DBB29AB2094B1B889BB213449AB2074B1A80074B00221A70012000F0EDF8054B03221A7000BF80BD1082FF1F1282FF1F1482FF1F3182FF1F80B582B018
:4018000000AF124B04221A70114B80221A7000F0F5F8104BDB79DBB29BB21B029AB20D4B9B79DBB29BB21343FB800B4B1B889BB2FA889A4202D2084AFB881380074B0B221F
:401840001A70012318460837BD4680BD1482FF1FA682FF1F006000401C82FF1F3182FF1F80B483B000AF0023BB71234B1B78DBB203F00F03DBB2023BFB71FB799AB21F4B5E
:401880001B889BB213449AB21C4B1A8018E01C4B5B681C49BA798A5CD2B21A70184B5B680133174A5360BB790133BB71FB79013BFB71134B1B889BB2013B9AB2104B1A80FD
:4018C0000F4B1B889BB2002B02D0FB79002BDED10D4AFB7913700D4B1B78DBB283F07F03DB43DAB2094B1A70094B0B221A7000BF0C37BD4680BC7047296000401282FF1F92
:401900001C82FF1F006000403482FF1FA682FF1F3182FF1F80B500AF054B00221A70012000F04CF8034B03221A7000BF80BD00BF1482FF1F3182FF1F80B400AF084B062290
:401940001A70084B06221A70074B80221A70074B00221A7001231846BD4680BC704700BF1482FF1F3182FF1FA682FF1F3482FF1F80B500AF0D4B1B78DBB2002B0AD00C4ACF
:401980000A4B1B78DBB263F07F03DBB21370074B00221A70074B00221A70012000F00EF8054B03221A7000BF80BD00BF3282FF1F086000401482FF1F3182FF1F80B483B09A
:4019C00000AF0346FB710B4B9B68002B0CD0094B9B68FA791A70074B9B68074A128892B25A80044B00229A6000BF0C37BD4680BC704700BF1C82FF1F1282FF1F80B400AFFE
:401A0000094B00221A80094B9B68002B07D0074B9B6800221A70054B9B6800225A8000BFBD4680BC704700BF1282FF1F1C82FF1F80B400AF0D4B01221A700D4B9B7C0D4B5C
:401A40001B7BDBB203F00303012B08D0094BDB7BDBB283F07F03DB43DAB2064BDA73054B01225A7300BFBD4680BC70470B600040FC5F00403882FF1F80B400AF0E4B02225F
:401A80001A700E4B93F822300D4B1B7EDBB203F00303012B08D00A4BDB7EDBB283F07F03DB43DAB2064BDA76054B01225A7600BFBD4680BC704700BF0B600040FC5F004073
:401AC0003882FF1F80B400AF104B04221A70104B93F832300F4B93F82430DBB203F00303012B0AD00B4B93F82730DBB283F07F03DB43DAB2074B83F82720064B012283F8AC
:401B0000252000BFBD4680BC704700BF0B600040FC5F00403882FF1F80B400AF00BFBD4680BC704780B500AFFFF770FA00BF80BD80B500AF01F0BAF900BF80BD80B586B007
:401B400000AF0023FB759D4B1B78FB7100233B619B4B00221A8097F90730002B80F20481964B5B78DBB20A2B00F21B8201A252F823F000BFBF1C0000A31F0000A31F0000CF
:401B8000A31F0000A31F0000A31F0000A11B0000A31F0000331D0000A31F0000491D0000864BDB78DBB2012B0ED100F049FEB860BB685B68824A5360814B12221A80FFF7E9
:401BC0009FFD0346FB75EEE17C4BDB78DBB2022B25D17A4B9B78DBB2184600F009FEB860BB68002B00F0DF81BB685B68744A5360734B5B6803331B78DBB29BB21B029AB2A3
:401C00006F4B5B6802331B78DBB29BB213439AB26B4B1A80FFF774FD0346FB75C3E1674BDB78DBB2032B45D10023FB73654B3B6109E03B691B78BB71BB793A6913443B6106
:401C4000FB7B0133FB735D4B9B78DBB2FA7B9A4204D23B691B78DBB2002BEAD1574B9B78DBB2EE2B01D1584B3B61544B9B78DBB2002B0BD0514B9B78DAB2544B1B7C9A4235
:401C800004D1534800F0ACF9514B3B613B691B78DBB2002B00F087813B691B78DBB29AB2474B1A80464A3B695360FFF729FD0346FB7578E102F098F90346FB7573E1FB79AB
:401CC00003F00303002B20D0022B00D030E03C4B02221A80394B1B79DBB203F07F023D4913465B0013449B000B4402331B78DAB2394B1A70384B00225A70314B364A5A6063
:401D0000FFF7FEFC0346FB7512E02D4B02221A80324B1B78DAB2304B1A702F4B00225A70274B2D4A5A60FFF7EBFC0346FB7500BF40E1234B01221A80214B294A5A60FFF7F8
:401D4000DFFC0346FB7535E11D4B01221A801B4B1B79DBB21A46234B1344194A5360FFF7CFFC0346FB7525E1144B5B78DBB2013B0A2B00F21A8101A252F823F0871E0000F0
:401D8000AB1F0000151F0000AB1F0000A91D0000AB1F0000AB1F0000AB1F0000ED1D0000AB1F0000431E0000044B9B78DAB20E4B1A70FFF7C1FD0346FB75FBE00060004049
:401DC0001C82FF1F504A0000584B0000F8490000B882FF1F3882FF1FD481FF1F3582FF1F3382FF1FA482FF1F3282FF1F744B9B787B717B79002B06D07B79013BDBB218467A
:401E000000F0F6FCB8607B79002B02D0BB68002B03D17B79002B40F0CA806A4B1B78DBB27A799A4208D0674A7B791370664B01221A70012000F0DCF9FFF77EFD0346FB75EA
:401E4000B5E000F055FE0346002B00F0B2805C4B1B793B715A4B1B79DAB25C4B1A703B795B4AD35CDAB23B795A49CB5CDBB29A4204D0554B01221A7000F08CFBFFF75CFD35
:401E80000346FB7595E0FB7903F00303012B20D0012B0CD3022B00D03BE0494B9B78DBB2002B31D100F078FD0346FB752CE0444B9B78DBB2012B29D1474B1B78DBB223F0A3
:401EC0000203DAB2444B1A70FFF736FD0346FB751CE03B4B1B79DBB2012B19D8384B9B78DBB2DB43DBB2364A1279D2B2114610463A4A125CD2B21340DAB2384B5A54FFF710
:401F00001BFD0346FB7503E000BF53E000BF51E000BF4FE0FB7903F00303012B20D0012B0CD3022B00D03BE0254B9B78DBB2002B31D100F0BDFC0346FB752CE0204B9B7848
:401F4000DBB2012B29D1244B1B78DBB243F00203DAB2214B1A70FFF7EFFC0346FB751CE0174B1B79DBB2012B19D8154B9B78DBB2DB43DBB2124A1279D2B211461046174A0B
:401F8000125CD2B21340DAB2144B5A54FFF7D4FC0346FB7503E000BF0CE000BF0AE000BF08E000BF06E000BF04E000BF02E000BF00E000BFFB7D18461837BD4680BD00BF7B
:401FC000006000403382FF1F3082FF1F2882FF1F1882FF1FA482FF1F3582FF1FA882FF1FB0B58AB000AF7860324B07F114041D460FCD0FC42B682370002387F826307B68F7
:40200000002B52D07B6822221A707B68013303221A7007F10C03184601F0E0F9022387F827303EE097F827307A68134497F8262007F128010A4412F81C2C1209D2B207F148
:4020400028010A4412F8142C1A7097F8273001337A68134400221A7097F8273002337A68134497F8262007F128010A4412F81C2C02F00F0207F128010A4412F8142C1A70E6
:4020800097F8273003337A68134400221A7097F82630013387F8263097F82730043387F8273097F82730212BBCD900BF2837BD46B0BD00BFE449000090B482B000AF0123B4
:4020C000FB7180E0464AFB791B0113440C221A70FA79444913465B0013449B000B4405331B78DBB2002B1CD0FA793E4913465B0013449B000B4404331B78DBB25BB2002B03
:4021000007DA394AFB791B01134402330C221A700EE0354AFB791B011344023308221A7006E0314AFB791B011344023380221A702B48F979FA792B4C13465B0013449B000C
:40214000234406331B889BB2DAB20B01034406331A702348F979FA79224C13465B0013449B00234406331B889BB21B0A9BB2DAB20B01034407331A701948F979FA79194C79
:4021800013465B0013449B00234406331B889BB2DAB20B01034404331A701148F979FA79104C13465B0013449B00234406331B889BB21B0A9BB2DAB20B01034405331A7066
:4021C000FB790133FB71FB79082B7FF67BAF074BFF221A7000BF0837BD4690BC704700BF706000403882FF1FFC5F00400A60004080B58AB000AF0346FB7100237B84002380
:4022000087F8273050E097F82720B34913465B0013449B000B4400221A7097F82720AE4913465B0013449B000B44023300221A7097F82720A84913465B0013449B000B44C6
:40224000033300221A7097F82720A34913465B0013449B000B44083300221A8097F827209D4913465B0013449B000B440A3300221A7097F82720984913465B0013449B00D7
:402280000B44013300221A7097F82720924913465B0013449B000B44053300221A7097F82730013387F8273097F82730082BAAD9FB79002B16D0002387F825300EE097F8E0
:4022C0002530864A0021D15497F82530844A0021D15497F82530013387F8253097F82530012BECD97F4B1B78DBB2002B00F04A810023FB767B4B1B78DBB2013BDBB2184649
:4023000000F076FA78617B695B683B613B6907331B7803F04003002B08D0734B1B78DBB243F00103DAB2704B1A7007E06E4B1B78DBB223F00103DAB26B4B1A707B690833CF
:402340007B617B691B7887F82730012387F82530B6E07B695B68FB61002387F82630A3E097F82520FB699B7803F07F039A4240F0938097F82520584913465B0013449B002E
:402380000B4408331B889AB2FB699B889A420CD297F82520FB6998884F4913465B0013449B000B44083302461A80FB691B781A464A4B9B5CDAB2FB695B789A426CD197F813
:4023C0002520FB699878444913465B0013449B000B44043302461A7097F82520FB69D8783D4913465B0013449B000B4402461A70FB69DB7803F00303FB73FB699B785BB222
:40240000002B1CDA97F82520FB7B012B01D1072000E00D20304913465B0013449B000B44053302461A7097F825202B4913465B0013449B000B44013301221A701BE097F8DF
:402440002520FB7B012B01D1052000E00920224913465B0013449B000B44053302461A7097F825201C4913465B0013449B000B44013300221A70FB699B790A2B03D0FB6919
:402480009B79022B08D1FA7E97F825301946F869FEF774FF0346FB76FB690833FB6197F82630013387F8263097F8262097F827309A42FFF455AF97F82530013387F8253061
:4024C00097F82530082B7FF644AF7B695B68FB61002387F8253020E03882FF1FA482FF1F1882FF1F3382FF1F3582FF1FFB699B7803F07F02FB691878244913465B00134490
:402500009B000B440A3302461A70FB690833FB6197F82530013387F8253097F8252097F827309A42E2D300F09DF90246184B1A6000237B84012387F827301DE097F82720D6
:40254000124913465B0013449B000B4406337A8C1A8097F827200D4913465B0013449B000B4408331B889AB27B8C13447B8497F82730013387F8273097F82730082BDDD9CB
:40258000FFF79AFD00BF2837BD4680BD3882FF1F2C82FF1F90B585B000AF8F4B1B78DBB2002B00F015818C4B1B78DBB2013BDBB2184600F01DF978607B6808337B607B68E0
:4025C0001B78FB707B685B68BB60844B1B78BB700023FB73F7E0BB681B78BA789A4240F0EC80BB787E4AD35CDAB2BB685B789A4240F0E380BB689B7803F07F037B70BB68F3
:40260000DB7803F003033B707A78764913465B0013449B000B44033300221A707A78BB689878704913465B0013449B000B44043302461A707A78BB68D8786A4913465B0073
:4026400013449B000B4402461A707A78BB689888644913465B0013449B000B44083302461A80BB689B785BB2002B1ADA7A783B78012B01D1072000E00D205A4913465B00C3
:4026800013449B000B44053302461A707A78554913465B0013449B000B44013301221A7019E07A783B78012B01D1052000E009204C4913465B0013449B000B440533024695
:4026C0001A707A78474913465B0013449B000B44013300221A70444A7B781B011344023301221A70404879787A783E4C13465B0013449B00234408331B889BB21B0A9BB284
:40270000DAB20B0103441A70374879787A78354C13465B0013449B00234408331B889BB2DAB20B01034401331A70304879787A782C4C13465B0013449B00234406331B88BC
:402740009BB2DAB20B01034406331A70274879787A78244C13465B0013449B00234406331B889BB21B0A9BB2DAB20B01034407331A701E4879787A781A4C13465B001344A3
:402780009B00234406331B889BB2DAB20B01034404331A70154879787A78124C13465B0013449B00234406331B889BB21B0A9BB2DAB20B01034405331A70BB680833BB60EE
:4027C000FB7B0133FB73FA7BFB789A42FFF403AF00BF1437BD4690BD3382FF1F2882FF1FA482FF1F3882FF1FFC5F00407060004080B485B000AF0346FB710F4B1B78DBB255
:402800000E4ADB0013445B68FB60FB681033FB60FB681B78FA799A4202D30023FB6005E0FB79DB00FA6813445B68FB60FB6818461437BD4680BC70471182FF1F504B0000FE
:4028400080B400AF054B1B78DBB2054ADB0013445B681846BD4680BC704700BF1182FF1F504B000080B584B000AF104B1B78DBB2013BDBB21846FFF7BBFFB860BB68002B92
:402880000DD0BB685B681B79FB71FB790233DB00BA681344BB60BB685B68FB6001E00023FB60FB6818461037BD4680BD3382FF1F80B582B000AF0023FB71344B1B79DBB23D
:4028C00003F07F03BB71BB79002B5AD0BB79082B57D8BA79B9792E480B465B000B449B00034402331B78DBB243F00103D8B2284913465B0013449B000B44023302461A70DD
:40290000BA79234913465B0013449B000B44033300221A70BA79B9791D480B465B000B449B00034401331B78DBB243F00203D8B2174913465B0013449B000B440133024693
:402940001A70BA79124913465B0013449B000B4404331B78DBB25BB2002B07DA0D4ABB791B01134402338D221A7006E0094ABB791B011344023389221A70FEF7DDFF03460A
:40298000FB71FB7918460837BD4680BD006000403882FF1FFC5F004080B582B000AF0023FB71504B1B79DBB203F07F03BB71BB79002B00F09280BB79082B00F28E80BA794A
:4029C000B97949480B465B000B449B00034402331B78DBB223F00103D8B2434913465B0013449B000B44023302461A70BA793E4913465B0013449B000B44033300221A7028
:402A00003A49BB793948BA79120102441278D2B202F07F02D2B21B010B441A70BA79B97931480B465B000B449B00034401331B78DBB223F00203D8B22B4913465B001344A8
:402A40009B000B44013302461A70BA79264913465B0013449B000B4404331B78DBB25BB2002B1BDABA79204913465B0013449B000B4401331B78DBB2012B07D11B4ABB79C9
:402A80001B01134402330C221A7022E0174ABB791B01134402330D221A701AE0BA79124913465B0013449B000B4401331B78DBB2012B07D10D4ABB791B011344023308228C
:402AC0001A7006E0094ABB791B011344023309221A70FEF731FF0346FB71FB7918460837BD4680BD006000403882FF1FFC5F004080B584B000AF0023FB73154B1B79BB7379
:402B0000144B1B78DBB2013BDBB21846FFF770FEB860BB685B681B79FB71BA7BFB799A4202D9BB7B022B0ED8BB7BBA7B0A498A5CD1B20A4AD154BB7B054A9278D1B2064AE2
:402B4000D1540123FB73FB7B18461037BD4680BD006000403382FF1FA482FF1F1882FF1F80B582B000AF0023FB710F4B1B78DBB25BB2002B12DA0C4B5B78DBB2012B00D0DE
:402B80000CE00A4B0A4A5A60094B1B789AB2074B1A80FEF7B5FD0346FB7100BFFB7918460837BD4680BD00BF006000401C82FF1F6C4B000080B500AF064B1B78002B04D1A1
:402BC00000F00AF8034B01221A7000F01BF800BF80BD00BFD681FF1F80B500AF074A074B1B78DBB243F00603DBB213700C2000F06BF8034B00221A8000BF80BD01590040A3
:402C0000B482FF1F80B582B000AF01F0E5F90346FB71254A244B1B78DBB243F00103DBB21370224A214B1B78DBB243F00103DBB213701F4B1B78BB71BB7943F00203BB7161
:402C4000BB7943F00103BB71194ABB791370194B18221A70184A184B1B78DBB243F04003DBB21370144A144B1B78DBB223F00303DBB21370114BCE221A70114B02221A702A
:402C8000104A104B1B78DBB243F00803DBB213700A2000F043FBFB79184601F0A1F900BF0837BD4680BD00BFAB430040BB4300400359004006590040055900400059004061
:402CC00014460040275B004080B584B000AF0346FB71FB790A2B07D00C2B02D0082B06D008E0C223FB730BE08223FB7308E04223FB7305E0C223FB73002000F003FB00BF20
:402D0000054AFB7B1370FB79184600F007F800BF1037BD4680BD00BF0259004080B584B000AF0346FB71FB790A2B08D00C2B02D0082B08D00BE04FF48053FB600DE04FF4FC
:402D40008063FB6009E04FF48073FB6005E00023FB60002000F0D6FA00BF0C4B00221A80FB6842F2107202FB03F303F6C413084A82FB0312D212DB17D31A064A1360064BEF
:402D800000221A8000BF1037BD4680BDAC82FF1FAD8BDB68B082FF1FAE82FF1F90B585B002AF0446084611461A462346FB710346BB710B46BB8013467B80104B01221A7000
:402DC0000E4B1878BA79F9790023019300230093012300F0ABF9094B1B787A88B988184600F04AF9054B1B780221184600F012F9024B1B7818460C37BD4690BDEE80FF1FA9
:402E000090B585B002AF0446084611461A462346FB710346BB710B46BB8013467B80104B00221A700E4B1878BA79F9790023019300230093002300F079F9094B1B787A887E
:402E4000B988184600F018F9054B1B780221184600F0E0F8024B1B7818460C37BD4690BDEF80FF1F80B485B000AF7860054B1B68FB60FB6840337A681A6000BF1437BD46CB
:402E800080BC704708ED00E080B483B000AF0346FB71054AFB795B01DBB2137000BF0C37BD4680BC704700BF00E400E080B400AF054B1B78DBB203F040039B09DBB21846BD
:402EC000BD4680BC704700BF8F45004080B483B000AF134B7F221A70124B80221A707F23FB710CE0FB79DB0003F1804303F5F043FA79013AD2B21A70FB79013BFB71FB796A
:402F0000002BEFD1FB79DB0003F1804303F5F04300221A7000BF0C37BD4680BC704700BFF180FF1FF080FF1F80B485B000AF03460A46FB711346BB710123FB60FB79172B1E
:402F40002FD8BB79002B0ED0FB791A01184B1344FA791101164A0A441278D2B242F02002D2B21A700DE0FB791A01114B1344FA7911010F4A0A441278D2B222F02002D2B200
:402F80001A70FB791A010A4B1344FA791101084A0A441278D2B242F00102D2B21A700023FB60FB6818461437BD4680BC704700BF1070004080B485B000AF0346FB710123E6
:402FC000FB60FB79172B1DD8FB791A01104B1344FA7911010E4A0A441279D2B242F00402D2B21A71FB791A01094B1344FA791101074A0A441278D2B242F00102D2B21A705A
:403000000023FB60FB6818461437BD4680BC70471070004080B485B000AF03460A46FB711346BB710123FB60FB79172B1BD8FB791A01104B13441B78DBB223F00E03FB7294
:40304000FB791A010B4B1344BA795200D2B252B202F00E0251B297F90B200A4352B2D2B21A700023FB60FB6818461437BD4680BC704700BF1070004080B485B000AF034688
:40308000FB710B46BB8013467B800123FB60BB8841F6FF72934202D14FF40053BB807B8841F6FF72934202D14FF400537B80FB79172B17D8FB79DB0003F1804303F5EC432B
:4030C0000433BB60BB68BA881A80FB79DB0003F1804303F5EC430633BB60BB687A881A800023FB60FB6818461437BD4680BC704780B485B000AF03460A46FB711346BB711D
:403100000123FB60FB79172B07D8FB791A01064B1344BA795A720023FB60FB6818461437BD4680BC704700BF1070004090B484B000AF0446084611461A462346FB710346B2
:40314000BB710B467B7113463B710123FB60FB79172B34D8FB79DB0003F1804303F5EC43BA7902F07F02D1B27A79D201D2B20A43D2B21A70FB79DB0003F1804303F5EC4378
:403180003A7E1201D1B23A7902F00F02D2B20A43D2B25A70FB79DB0003F1804303F5EC433A7F02F00F02D2B29A70FB79DB0003F1804303F5EC430022DA700023FB60FB68FB
:4031C00018461037BD4690BC704700BF80B582B000AFFF23FB7100F0FFFE0346BB71104B1B78182B12D90F4B1B78FB710C4B1B78013BDAB20A4B1A70FB79DB0003F1804353
:4032000003F5F0431B78DAB2064B1A70BB79184600F0E6FEFB7918460837BD4680BD00BFF080FF1FF180FF1F90B484B000AF0446084611461A462346FB710346BB800B46B6
:40324000BB711346FB700123FB6097F90730002B23DBBB8823F47F6323F00F039BB2002B1BD1FB79DB0003F1804303F5F043BB60BB68BA881A80FB79DB0003F1804303F5E1
:40328000F043BA799A70FB79DB0003F1804303F5F043FA78DA700023FB60FB6818461037BD4690BC704700BF80B485B000AF0346FB710B46BB8013467B800123FB6097F9AA
:4032C0000730002B17DBFB79DB0003F1804303F5F0430433BB60BB68BA881A80FB79DB0003F1804303F5F0430633BB60BB687A881A800023FB60FB6818461437BD4680BCEB
:40330000704700BF80B483B000AF0346FB7101BE00BF0C37BD4680BC704700BF80B582B000AF0346FB80FB88054A127802FB03F3184600F049FE00BF0837BD4680BD00BF1B
:403340000081FF1F80B584B000AF03463960FB710F4B1B68FB60FB791F2B02D90020FFF7D1FFFB7903F01F0310339B00FA6813441B68BB60FB7903F01F0310339B00FA680A
:4033800013443A681A60BB6818461037BD4680BD08ED00E080B582B000AF03460A46FB711346BB71BB79072B02D90020FFF7AAFFFB791F2B02D90020FFF7A4FFFB7903F064
:4033C0001F0303F1604303F56443BA795201D2B21A7000BF0837BD4680BD00BF80B483B000AF7860264B1B78DBB21A467B681A60244B1B78DBB21B027A6812681A437B6860
:403400001A60214B1B78DBB21B047A6812681A437B681A601D4B1B78DBB21B067A6812681A437B681A607B680433194A1278D2B21A60184B1B78DBB21A027B6804337968F3
:40344000043109680A431A60134B1B78DBB21A047B6804337968043109680A431A600F4B1B78DBB21A067B6804337968043109680A431A6000BF0C37BD4680BC704700BF22
:403480000301004904010049EC460040020100490101004900010049050100490601004980B500AF064B1B78002B04D100F00AF8034B01221A7000F063F800BF80BD00BFC4
:4034C000D781FF1F80B582B000AF284A274B1B78DBB243F00203DBB21370254B1B78DBB223F07003FB71224AFB7943F01003DBB21370204A1F4B1B78DBB223F03003DBB275
:4035000013701C4A1B4B1B78DBB243F03003DBB21370184A174B1B78DBB223F00F03DBB21370144A134B1B78DBB243F00F03DBB21370FF2000F048F8142000F055F800207C
:4035400000F062F80C4A0C4B1B78DBB243F00103DBB21370094A094B1B78DBB243F00103DBB2137000BF0837BD4680BD004F0040024F00400B4F0040A3430040014F004031
:4035800080B400AF0D4A0D4B1B78DBB243F00103DBB213700A4A0A4B1B78DBB243F00103DBB21370074A074B1B78DBB243F00103DBB2137000BFBD4680BC7047A34300401D
:4035C000B3430040004F004080B483B000AF0346FB71044BFA7992B21A8000BF0C37BD4680BC7047044F004080B483B000AF0346FB71044BFA7992B21A8000BF0C37BD46A0
:4036000080BC7047064F004080B483B000AF0346FB71044AFB79137000BF0C37BD4680BC704700BF034F004080B582B000AF786000F03CF8786800F009F8072000F018F89F
:4036400000F028F800BF0837BD4680BD80B485B000AF7860054B1B68FB60FB685C337A681A6000BF1437BD4680BC704708ED00E080B483B000AF0346FB71054AFB795B01D1
:40368000DBB2137000BF0C37BD4680BC704700BF07E400E080B400AF034B80221A6000BFBD4680BC704700BF00E100E080B400AF034B80221A6000BFBD4680BC704700BF35
:4036C00080E100E080B500AF064B1B78002B04D100F00AF8034B01221A7000F063F800BF80BD00BFD881FF1F80B582B000AF284A274B1B78DBB243F00203DBB21370254B85
:403700001B78DBB223F07003FB71224AFB7943F01003DBB21370204A1F4B1B78DBB223F03003DBB213701C4A1B4B1B78DBB243F03003DBB21370184A174B1B78DBB223F09E
:403740000F03DBB21370144A134B1B78DBB243F00F03DBB21370FF2000F048F8002000F055F8002000F062F80C4A0C4B1B78DBB243F00203DBB21370094A094B1B78DBB204
:4037800043F00103DBB2137000BF0837BD4680BD0C4F00400E4F0040174F0040A34300400D4F004080B400AF0D4A0D4B1B78DBB243F00203DBB213700A4A0A4B1B78DBB221
:4037C00043F00203DBB21370074A074B1B78DBB243F00103DBB2137000BFBD4680BC7047A3430040B34300400C4F004080B483B000AF0346FB71044BFA7992B21A8000BFA1
:403800000C37BD4680BC7047104F004080B483B000AF0346FB71044BFA7992B21A8000BF0C37BD4680BC7047124F004080B483B000AF0346FB71044AFB79137000BF0C379A
:40384000BD4680BC704700BF0F4F004080B485B000AF0346FB710B4B1B78DBB223F00203FB730849FB795B00DBB203F00203DAB2FB7B1343DBB20B7000BF1437BD4680BCDE
:40388000704700BF2051004080B400AF00BFBD4680BC704780B582B000AF0F2000F050F800F040F800F098FB0346FB71074A074B1B78DBB243F01003DBB21370FB79184681
:4038C00000F08EFB00BF0837BD4680BD9D64004080B500AF00F000F94FF4004000F02AF9064B1B78002B04D1FFF7CEFF034B01221A70FFF7CFFF00BF80BD00BFD981FF1FD4
:4039000080B582B000AF00F025F90346FB80FB88A3F500439BB2BB80B7F9043018460837BD4680BD80B400AF044B1B78DBB203F00F03DBB21846BD4680BC70476D640040AF
:4039400080B483B000AF0346FB71044AFB79137000BF0C37BD4680BC704700BF8D64004080B400AF00BFBD4680BC704780B582B000AF0F2000F050F800F040F800F02CFBFB
:403980000346FB71074A074B1B78DBB243F01003DBB21370FB79184600F022FB00BF0837BD4680BD9C64004080B500AF00F06CF94FF4004000F096F9064B1B78002B04D1BD
:4039C000FFF7CEFF034B01221A70FFF7CFFF00BF80BD00BFDA81FF1F80B582B000AF00F091F90346FB80FB88A3F500439BB2BB80B7F9043018460837BD4680BD80B400AF33
:403A0000044B1B78DBB203F00F03DBB21846BD4680BC70476C64004080B483B000AF0346FB71044AFB79137000BF0C37BD4680BC704700BF8C64004080B582B000AF1C4BAD
:403A40001B78DBB223F00703FB71194AFB791370174B1B78DBB223F00303FB71144AFB79137000F0B3F84FF4004000F08FF84FF4004000F05FF8002000F040F800F04EF80A
:403A80004FF4004000F092F800F0A6FA0346BB71084A084B1B78DBB243F01003DBB21370BB79184600F09CFA00BF0837BD4680BD776400409964004080B400AF054A054BB9
:403AC0001B78DBB263F07F03DBB2137000BFBD4680BC70477764004080B500AF064B1B78002B04D1FFF7A8FF034B01221A70FFF7E3FF00BF80BD00BFDB81FF1F80B483B01D
:403B000000AF0346FB71044AFB79137000BF0C37BD4680BC704700BF8964004080B400AF034B1B78DBB21846BD4680BC704700BF6964004080B483B000AF0346FB80044A5F
:403B4000FB88138000BF0C37BD4680BC704700BF1068004080B400AF044B1B78044B1B889BB21846BD4680BC704700BF086400409068004080B400AF034B1B889BB2184646
:403B8000BD4680BC704700BF9068004080B483B000AF0346FB80044AFB88138000BF0C37BD4680BC704700BF5068004080B483B000AF0346FB80044AFB88138000BF0C37EB
:403BC000BD4680BC704700BF7068004080B500AF01E0FFF7CFFFFFF7A1FF034603F04003002BF6D100BF80BD80B582B000AF1C4B1B78DBB223F00703FB71194AFB791370EC
:403C0000174B1B78DBB223F00303FB71144AFB79137000F0B3F84FF4004000F08FF84FF4004000F05FF8002000F040F800F04EF84FF4004000F092F800F0CEF90346BB7122
:403C4000084A084B1B78DBB243F01003DBB21370BB79184600F0C4F900BF0837BD4680BD7E6400409F64004080B400AF054A054B1B78DBB263F07F03DBB2137000BFBD46FE
:403C800080BC70477E64004080B500AF064B1B78002B04D1FFF7A8FF034B01221A70FFF7E3FF00BF80BD00BFDC81FF1F80B483B000AF0346FB71044AFB79137000BF0C376F
:403CC000BD4680BC704700BF8F64004080B400AF034B1B78DBB21846BD4680BC704700BF6F64004080B483B000AF0346FB80044AFB88138000BF0C37BD4680BC704700BF70
:403D00001C68004080B400AF044B1B78044B1B889BB21846BD4680BC704700BF0E6400409C68004080B400AF034B1B889BB21846BD4680BC704700BF9C68004080B483B0D3
:403D400000AF0346FB80044AFB88138000BF0C37BD4680BC704700BF5C68004080B483B000AF0346FB80044AFB88138000BF0C37BD4680BC704700BF7C68004080B500AFB4
:403D800001E0FFF7CFFFFFF7A1FF034603F04003002BF6D100BF80BD80B483B000AF0346FB71044AFB79137000BF0C37BD4680BC704700BF7964004080B500AF224A224BBA
:403DC0001B78DBB203F00103DBB213701F4A1F4B1B78DBB223F00303DBB213701C4A1C4B1B78DBB223F03003DBB21370184A184B1B78DBB243F03003DBB21370144A144B25
:403E00001B78DBB223F00F03DBB21370104A104B1B78DBB243F00F03DBB213700D4A0D4B1B78DBB243F00103DBB2137044F61F6000F058F844F61F6000F066F8002000F0DD
:403E400041F800BF80BD00BF184F00401A4F0040234F0040194F004080B400AF0D4A0D4B1B78DBB243F00403DBB213700A4A0A4B1B78DBB243F00403DBB21370074A074BF2
:403E80001B78DBB243F00103DBB2137000BFBD4680BC7047A3430040B3430040184F004080B500AF064B1B78002B04D1FFF784FF034B01221A70FFF7CFFF00BF80BD00BF28
:403EC000DD81FF1F80B483B000AF0346FB71044AFB79137000BF0C37BD4680BC704700BF1B4F004080B485B000AF0346FB80FB88FB81044AFB89138000BF1437BD4680BC4C
:403F0000704700BF1C4F004080B483B000AF0346FB80044AFB88138000BF0C37BD4680BC704700BF1E4F004080B582B000AF786000F03CF8786800F009F8072000F018F8B4
:403F400000F028F800BF0837BD4680BD80B485B000AF7860054B1B68FB60FB6860337A681A6000BF1437BD4680BC704708ED00E080B483B000AF0346FB71054AFB795B01C4
:403F8000DBB2137000BF0C37BD4680BC704700BF08E400E080B400AF034B4FF480721A6000BFBD4680BC704700E100E080B400AF034B4FF480721A6000BFBD4680BC704783
:403FC00080E100E0000000000230800803D000BF01380046FCD17047EFF3108072B6704780F31088704700BF80B582B000AF0023BB711B4B1B78DBB203F00303012B02D07D
:40400000022B04D012E0164B1B79FB7111E0144B1B79DBB203F07F02124913465B0013449B000B440A331B78FB7102E00023FB7100BFFB79022B0ED80B4B1A68FB79134461
:404040001B78022B04D1FDF7AFF80346BB7102E00023BB7100BFBB7918460837BD4680BD006000403882FF1F2C82FF1F014B1868704700BF6881FF1F0E4B70B51E460E4CD1
:404080000025E41AA410A54204D056F8253098470135F8E700F09AFD084B094C1E46E41AA4100025A54204D056F8253098470135F8E770BDD84B0000D84B0000D84B000085
:4040C000E04B000010B5431E0A44914204D011F8014B03F8014FF8E710BD03460244934202D003F8011BFAE7704700000EB400B54FF402719CB0ADF814106FF000410491D2
:4041000007914FF6FF711DAB02900690084853F8042BADF81610006802A9019300F06CF8029B00221A701CB05DF804EB03B070476881FF1F034613F8012B002AFBD1181A40
:40414000013870472DE9F0478E6882469E420C46914698463ED88A8912F4906F3AD02568096902236F1A656905EB450595FBF3F57B1C43449D4238BF1D4653050FD52946F6
:4041800000F040FB064698B13A462169FFF79AFFA38923F4906343F08003A38113E02A4600F08EFB064670B92169504600F0DEFA0C23CAF80030A3894FF0FF3043F040032C
:4041C000A381BDE8F08726613E44266046466561ED1BA560464528BF464649463246206800F0A8FAA36800209B1BA36023681E442660BDE8F08700002DE9F04F9DB00393C7
:404200008B8980461C060D4616460DD50B695BB9402100F0F7FA2860286118B90C23C8F80030CDE040236B610023099320238DF82930DFF89CB130238DF82A3037463C4615
:4042400014F8013B1BB9B7EB060910D003E0252BF9D02746F3E74B46324629464046FFF771FF013000F0A780099B4B4409933B78002B00F0A08000234FF0FF320493079321
:40428000059206938DF853301A930126052221784E4800F041FA671C049B38B14B4A3C46801A06FA00F018430490EFE7D90644BF20228DF853201A0744BF2B228DF853207B
:4042C00022782A2A03D0079A00210A200BE0039A111D12680391002A10DA524243F00200079204900BE027463B780134303B092B03D800FB02320121F5E701B107923B785E
:404300002E2B1ED17B782A2B0AD1039B02371A1D1B680392002BB8BF4FF0FF33059310E0002319460593781C0A2407463A780130303A092A03D804FB01210123F5E703B1F8
:40434000059103223978224800F0E6F940B14023CBEB000003FA00F0049B013718430490397806221B487E1C8DF8281000F0D4F988B1194B33B9039B073323F007030833D2
:40438000039314E003AB00932A46144B04A94046AFF3008007E003AB00932A460F4B04A9404600F093F8B0F1FF3F824603D0099B5344099342E7AB895B0601D4099801E008
:4043C0004FF0FF301DB0BDE8F08F00BF964B00009C4B0000A04B000000000000454100002DE9F04791461F460A698B6806469342B8BF1346C9F8003091F843200C46DDF882
:40440000208012B10133C9F800302368990642BFD9F800300233C9F80030256815F0060510D104F1190A07E00123524639463046C04701301AD00135E368D9F800209B1A2B
:404440009D42F1DB94F843302268003318BF012392060FD5E118302081F843005A1C94F845102244023382F8431003E04FF0FF30BDE8F08704F1430239463046C0470130C6
:40448000F4D02268D9F80050E36802F00602042A08BF5D1B2269A3680CBF25EAE57500259342C4BF9B1AED184FF000091A344D4509D00123224639463046C0470130D5D07B
:4044C00009F10109F3E70020BDE8F0872DE9F04317460A7E85B06E2A984606460C460C9B01F1430E00F0AE8011D8632A22D009D8002A00F0BB80582A40F0CA8081F84520AB
:40450000834955E0642A1ED0692A1CD0C0E0732A00F0B08009D86F2A2ED0702A40F0B8800A6842F020020A603EE0752A24D0782A3AD0ADE01A6801F14205111D19601368B1
:4045400084F84230A8E021681A6811F0800F02D0111D196008E011F0400F02F10401196002D0B2F9003000E01368002B3CDA2D225B4284F8432037E021681A6811F0800F42
:4045800002D0111D196007E011F0400F02F10401196001D0138800E01368227E5C496F2A14BF0A2208221BE078225A4984F845202268186812F0800F00F104051D6003D10D
:4045C000550601D5038800E00368D00744BF42F0200222601BB9226822F0200222601022002084F8430001E049490A226568002DA56008DB206820F0040020602BB9002D31
:404600007DD175460CE0002B79D07546B3FBF2F002FB1033CB5C05F8013D03460028F5D1082A0BD12368DA0708D5236962689A42DEBF302305F8013C05F1FF35C5EB0E034F
:4046400023612EE008681A6810F0800F496903D0101D1860136808E010F0400F02F104001860136801D0198000E0196000232361754616E01A68111D1960156800216268B5
:40468000284600F049F808B1401B6060636804E004F1420584F8422001232361002384F84330CDF800803B4603AA21463046FFF797FE013002D14FF0FF3026E023692A46B5
:4046C00039463046C0470130F5D023689B0710D5002504F1190907E001234A4639463046C0470130E7D00135E368039A9B1A9D42F2DBE068039B9842B8BF184605E00B787F
:4047000004F1420584F842308AE705B0BDE8F083A74B0000B84B000010B5C9B202449042034605D01C7801308C42F8D1184610BD002010BD884210B501EB020301D8421E79
:404740000BE09842FBD28118D21AD34204D013F8014D01F8014DF8E710BD994204D011F8014B02F8014FF8E710BD000038B50546002944D051F8043C0C1F002BB8BFE4182C
:4047800000F0D4F81E4A1368114613B96360146030E0A3420DD92268A018834201BF18685B681218226063600C6023E0A24203D813465A68002AF9D118681918A1420BD1FF
:4047C0002168014458188242196013D110685268014419605A600DE002D90C232B6009E021686018824201BF106852680918216062605C602846BDE8384000F098B838BDAE
:40480000E481FF1F70B5CD1C25F0030508350C2D38BF0C25002D064601DBA94202D90C23336046E000F082F8234B1C681A462146A1B10B685B1B0ED40B2B03D90B60CC1888
:40484000CD501EE08C420BBF63684B681360636018BF0C4615E00C464968E9E7174C23681BB9304600F052F820602946304600F04DF8431C18D0C41C24F00304A0420DD1D2
:404880002560304600F053F804F10B00231D20F00700C31A0ED05A42E25070BD211A304600F034F80130EBD10C233360304600F03EF8002070BD00BFE481FF1FE081FF1F8F
:4048C000F8B5074615460E4621B91146BDE8F840FFF798BF1AB9FFF749FF2846F8BD00F027F885420ED929463846FFF78BFF044650B131462A46FFF7E5FB31463846FFF763
:4049000035FF01E03046F8BD2046F8BD38B5064C0023054608462360FBF73CFF431C02D1236803B12B6038BDDC82FF1F7047704751F8040C0028BEBF091851F8043CC01816
:4049400004387047000000004D6F746F722031202D20737461727420636F756E743A2025642C20656E6420636F756E743A202564200A00004D6F746F722032202D2073748B
:4049800061727420636F756E743A2025642C20656E6420636F756E743A202564200A0000004F004030004051004030000000014000100014014000048018014080030040A5
:4049C0000140000A004C0140000210500140100000180140C80E0048800000500140480F004810003031323334353637383941424344454600000000120100020200000834
:404A0000B40432F2010001028001000009024300020101C032090400000102020103052400100104240202052406000105240100010705810308000A09040100020A00003E
:404A400004070582024000000705030240000000040309042C0343007900700072006500730073002000530065006D00690063006F006E0064007500630074006F00720066
:404A8000100355005300420055004100520054003803430044004300200043006F006D006D0075006E00690063006100740069006F006E00200049006E0074006500720020
:404AC0006600610063006500260343004400430020004400610074006100200049006E007400650072006600610063006500000002030000000081030800020001008202D1
:404B000040000A000100030240000A00020A0000010000000C4A000003000000F44A000000000000000000000000000000000000000000000C4B000001000000F84900009E
:404B4000000000000000000001000000104B000001000000384B000012034D00530046005400310030003000010000002800000000010400010000000000000000014359A9
:404B800055534200000030303030310000000000000000004300232D302B2000686C4C006566674546470030313233343536373839414243444546003031323334353637AA
:404BC000383961626364656600000000F8B500BFF8BC08BC9E4670474D0000007D080000F8B500BFF8BC08BC9E46704729000000004C0000C880FF1FA8000000700100002B
:404C000000000000E082FF1FFFFF000000C2010000000800C201000000080000A1200000000002000000FFFF807F0000030000000087930360EA00003C0000000000307555
:404C40000000000000000000000000000000000000000000000000000000000000000000944B00000000000000000000000000000000000000000000000000000000000055
:404C800000000000000000000000000000000000000000000000000000000000000000000881FF1F000000000000000000000000000000000000000000000000000000004D
:404CC00000000000000000000000000000000000000000000000000000000000000000000000000000000000000000000000000000000000000000000000000000000000B4
:404D00000000000000000000000000000000000000000000000000000000000000000000000000000000000000000000000000000000000000000000000000000000000073
:404D40000000000000000000000000000000000000000000000000000000000000000000000000000000000000000000000000000000000000000000000000000000000033
:404D800000000000000000000000000000000000000000000000000000000000000000000000000000000000000000000000000000000000000000000000000000000000F3
:020000040003F7
:0200000480007A
:4000000001450040084F00400C520040015B004006640040026500402B0001402C0101402E0201404303014030040140530501402B06014047070140620801404B090140F7
:400040004D0A01404A0B0140490C0140480D0140600E0140370F01403A14014052150140271601404C1701401A1801404A190140511A01404D1B01400C4001401B41014001
:400080001542014010430140024401400B4501400E4601400D4701401D4801400D490140104C01400B4D014006500140045101407E0201200A360D201636195022362540B2
:4000C0002E36006101430904100811081818192060406150781079307C4027848207896F8B388C0F8D0F8F6F870F8B720002020512081402160418041A021C021E14300848
:400100003210340636013A205608580459045B045C105D905F018204860888048E028F049002930298019B019E10A008A601B104B41FB502B701B820BE10D804D904DC1124
:40014000DF010102044005010601075408020A290D220E060F1014401606170919321A291F10240425032705284029082B202E84312234403509371038043A803B303C44C5
:400180003D023F10588060028920C0F8C2FFC4F0CA53CCF5CEFED608D80800400280040808010C021202142016101A011C042208260428102A202C802E4036FF3E405602B0
:4001C0005735580459045B0C5C105D105F01880C8A308C288E1492019430960C983CA002A41CAC14AE28B001B202B43CBE04D804D904DC10DF0101A00402068107180AA41A
:400200000C090D220E8911081282141415601640170518881A041B141E0229012B202C042E802F1031223304341035013644370138023B205D1066106C086D406E016F500B
:400240007502760977087F028284932099309B059E859F58A102A440A520A601A720A880AC40AD08AE02C0F3C2FEC4FDCA73CCF7CE05D620D820DE10E604EE0209300B0414
:400280000D010F02112213051501178219301B081D011F02211C252C27102B3C2F4031033340353C37803B025608580459045B045C015D905F0187018F049601A502A902AF
:4002C000B302B401B501B704B908BF04D207D306D804D904DB04DC11DD10DF01024003A404020704080809200B300C090D200F0210011280140816401F2022572308240AB4
:4003000025282680280229102B502C012E042F8832553410368438A03D403E083F124110432045084610588060026D106E206F1A8601872188108C108D808E04908091405D
:4003400093209402953096A0981199129A489B049D809E10A088A204A310A440A524A602A722AA80AC80B404B704C05EC2F6C459CAFFCC7FCEFCD608D808E208E412E6805C
:40038000EA480001040A06050C20140F18071A081C041E0122302A023020320C340336105401580C59045B0C5C115D105F01830185108B088D04910197089F02A308A5087B
:4003C000A908B103B304B508B710BF54D280D804D904DB04DC91DF0101040304054608010B200C800E24105012401340150217101C801D451E442002210122242A0A2B043A
:400400002D402F10301831013280332034503704382039823A043D043F804C014D404E014F405E4071027F02840185028D08900A9320980199029A449B14A080A210A322F1
:40044000A450A880A904AB40AE04AF08C0B6C2ECC45DCA57CC7BCE5FD610DE10E002E408E610E808EA060002059407600F0F159E1606176019731A021DFD1F0221CF233081
:40048000253027C92A01300433FF340236013E103F044023410149FF4AFF4BFF4DA04F0150185608580459045A045B045D905F016040628064406540668068406A806C4033
:4004C0006D206E80810C84018C088D088F0491029B03A003A20CA30CA403B002B101B201B302B408B508B604B704B80ABE14BF54C023C101C532C6C4C70EC81FC9FFCAFF07
:40050000CBFFCDAFCE07CF01D018D40FD804D904DA04DB04DF05E040E280E440E540E680E840EA80EC40ED20EE800180031005010E200F0410A0152019821A041B041C028B
:400540001D2121042291272029022A202B042D012F10307032813628375039423DC441A0422045E0462048A050405108521058105A855E80610862106402664068026980F9
:400580006A407A20870489048A01912593609401962097089B509CE09D409F24A140A258A401AB10AD01B240C015C260C44CCAC1CC75CE59D07ED61FD816DE02E408EA02FC
:4005C0000010010202600304040F0504070208100A200B010C0C0E031023121C18101A201D021E801F0C21022314240A260528052A0A2C073080310832403306340F3501E4
:40060000363037103A803B085608580459045B045D905F018157847F8501870289378F0795619601970298C59A3A9B089CFE9E01A0A3A160A25CA304A40EA504A6F0A896C2
:40064000AA68B370B6FFB70FB908BE40D418D604D804D904DB04DD30DF010002032A050406200710080109800B040E29120213181505168819211A021B681F80211522802C
:4006800023142540271029012D012F10328036083720390A3A103D843E214201434058A05C016180621065406788860887508E08910493409622973098019B489C409D24DF
:4006C0009E809F14A21EA302A7C0B004B101B202B344B402B748C02FC2EBC477CAC1CC68CEF7D68CD8BCE410E640E810EA0801400511070808FD09010A020B040CCF0D11B9
:400700000E300F041094126013401430152016C9191C1A0F20732302249E2660271D290D2B103140331D350336FF37203E403F41540F580459045B045F01817C84C186125C
:4007400087028B1D8CC08E24900192F299D19A079B089E08A101A304A4B7A640A884A9ADAA10AB10AC77ADD1AF04B0F0B1E0B303B40FB51DB902D40FD804D904DB04DF017A
:400780000008030204800520080109800A040C010E040F901212131015021708188019101A041B021D8020082101222623082504269D280429202A102B422F9832203502FA
:4007C0003714380839023B103C023D083E803F20584259045A205D815F2479047B108680900891049502960A971099829B209D30A001A404A603A702B180B308C0C5C27B71
:40080000C437CAEDCCE4CEF7D6FFE408E604EE02030204C5063A08FE0A010CA30D020E5C17031A011C0E1EF0207F230428962A68310134FF350237043E103F10402341060E
:4008400049FF4AFF4BFF4DA04F0150185280580459045A045B045F016040628064406540668068406A806C406D206E808303900899089B049C039D0EA001A30CA403A60C95
:40088000B004B101B201B308B408B504B602B702B888BE14BF54C023C106C52CC630C74EC83BC9FFCAFFCBFFCDAFCE07CF01D018D40FD804D904DA04DB04DF05E040E2808D
:4008C000E440E540E680E840EA80EC40ED20EE800008012003020A0A0E400F021040131014401502162018081C101E481F40204621202640276829022F4032043510374022
:4009000038423E024014430445204704480849104C084D024F06562A5D105E8A6608670470017E028916C007C293C43ACA81CC32CE89D066D224D6F0D860DE10E0200403FA
:40094000050708030B070C03110113061507160320012107220224022501260127062C032D052F02320133013402350437024005460449FF4A074BFF4C404D204EF04F0534
:4009800050085608580459045A045B045C115D935F01604061A86240632085018D0195019D01A501AB01AF01B301D804D904DC11DF010104020203140501071008040B2088
:4009C0000C100F801011124014041640170419041B102108224023082608281029802A402B402C142F023101320333063580370439043B203D043F8048015082594062803F
:400A000069106B01801283048401860887018880891091049202932094209680981199409A409B049D049E089F08A340A402A508A68AA716AA42AB01AD40C037C254C47DF7
:400A4000CA7BCC53CE56D208D608D808E004E60EE801EC21EE04580459045C115F018101830285038B0391039503A502A701AF03B302B701C025C103C50BC60EC70CC8155C
:400A8000C9FFCAFFCBFFCEF0CF44D00CD401D604D804D904DA04DB04DC11DD33DF01E6C0EA40EB02010402020304040A08110B300C110F90124016601704202023012810C2
:400AC0002A402B012E202F12300133043410380A39043B203D043F82400241404208430848024B045008514058025A085B6060807B0C8104870488808B088C088F30900AF9
:400B0000920A93209420958498119A409B449E0AA418A508A688A744AA20AB40AE08B204C037C27EC438CA7ACC23CED7D006D208D60FD801E002E260E680EE02810282C331
:400B4000841386048C108F03962C9E82A241A813AA08AC41AE82B0E0B101B20FB4E0B610B702BA08BE11BF40D804D904DC03DF01000201040301061007480A200B010E9075
:400B80000F02100211101240144017101A281B421D401E801F24210122402401260927182C202E222F02340236083760388039023E543F014440450247184E044F825610E0
:400BC0005F40670184408E028F209080918092409340940195029680970898029A409CA09D409F04A002C07DC2B5C45BCAF0CCF0CEF9D0E0D230D610D810E010E240E410DC
:400C0000EC20EE0200CA0108023403020413050F06E4090F0A350D050F0A128014131520166C174019D01AC81D031F0C2180231029D02C032D042E042F0130F0320F33C053
:400C400034A83530370F39283A2A3F04580459045C335F01800484308510870C88108C088D14907C911C92819302947C9682970398FF99099B109E0CA020A110A50CA68314
:400C8000A711A8CFAA30AC04AE08B0B0B23FB51FB640BA2ABE40D602D713D804D904DB04DC33DD30DF010004010202080641072809200A200B800E6A12021580162017128D
:400CC000180419131A201B2C1E7D2002212022A4270429112A402F60329835013620370439943A013B013C803F085A405B405E016D146F0174207602772A8110820886045A
:400D0000870889028A048B4091809301951496149A609B109D029E029F65A040A203A421A502A902B0A0B620B740C0FEC2FEC4F1CACDCCEECE5FD680E080E480E801EC21E6
:400D400012801680302033083408364039083B803E80C430CCF0CE703010320236083780500453025F1166208008950897809C089F40A282A640AB40AC20AE02AF08CCF0BB
:400D8000D4A0D6A0D880E620EA40EC80EE401208178087408B028E109302940897919C109E209FC0A280A648A706AB04AD04B701C4C0E210EA10EC201B041E108F0193029F
:400DC0009418961097119C109E209F40A280A640A704A810C630EC807008DC0103080B20560280208602A408A640AE40C002C208D6041B0227208C089C20A308A408A64001
:400E0000A702AF02B310C608C801E408EA0408200B400E804102440185089C20A640AF20B308C20ED006EA0400100740208065106B026E0871107302800488108B108D10B5
:400E40008E049302941897109C109F40A280A304AE60C060C840D880DAC0DC20E680EA10EE4056106308670286109302A304AE80B040D440D680D840E240EC1008100C40C4
:400E80005A80700474088E4099089C01AF40B102C203D401DC01DE04E008EC047508784088409908A80CB051DC01DE04E001EA05EC04100B11011A0A1B011C091D0100AB5C
:400EC00001FF0203100A00000000011000670200004604210008001000000208006101060006000000070460010400000002000001000061002100000118020700460420DD
:400F000022000008000054002504030006C0E0000AFFFFFF62A0F0410C00000000000800040404043393000100000000000040020010301000101012000000000000000078
:400F400000000000000000000B010000000000000301030109010100000000000067670000707000700000004000060000000030F0000000C00B0B00000404000800140ACA
:400F80000A00080000000000007B7B0038000000000100000000000000000000000000000000000000000000000000000000000000000000000000000000000000000000F0
:400FC00000000000000000000000000000000000000000000000000000000000000000000000000000000000000000000000000000000000000000000000000000000000F1
:4010000000000000000000000000000000000000000000000000000000000000000000000000000000000000000000000000000000000000000000000000000000000000B0
:401040000000000000000000000000000000000000000000000000000000000000000000000000000000000000000000000000000000000000000000000000000000000070
:401080000000000000000000000000000000000000000000000000000000000000000000000000000000000000000000000000000000000000000000000000000000000030
:0200000490006A
:0400000000004005B7
:0200000490105A
:04000000BC90ACAF55
:0200000490303A
:020000002ECB05
:0200000490402A
:4000000000000000000000000000000000000000000000000000000000000000000000000000000000000000000000000000000000000000000000000000000000000000C0
:400040000000000000000000000000000000000000000000000000000000000000000000000000000000000000000000000000000000000000000000000000000000000080
:400080000000000000000000000000000000000000000000000000000000000000000000000000000000000000000000000000000000000000000000000000000000000040
:4000C0000000000000000000000000000000000000000000000000000000000000000000000000000000000000000000000000000000000000000000000000000000000000
:0200000490501A
:0C00000000012E16106900012E373F345D
:00000001FF