:400000000080002011000000650300006503000008B5044B1A6803F53F5302331A6000F0A9F900BFFA46004010B5054C237833B9044B13B10448AFF300800123237010BD05
:400040004081FF1F0000000030090000084B10B51BB108490848AFF300800848036803B910BD074B002BFBD0BDE81040184700BF000000004481FF1F30090000C880FF1FA0
:400080000000000008B5012000F0D0FB50B100F0DFFBC0B200F098FA00F0D2F9C043C0B200F0C2F908BD00BF08B562B6054800F0EFFA00F05FFA00F0ABFB00F0D7FB00F0FD
:4000C000BBFAFEE785000000F0B40022174611E050F82760F3B226F0FF0608E001EB420511F812406D78A5550132013BDBB2002BF4D101371B2FEBD9F0BC704708B50A4647
:40010000002100F00CFC08BDF8B5184B1B78DBB2174E3478E4B2174F3D78EDB203F00701154A11701B090132137044F00303337045F003033B701022104B1A7080231049C5
:400140000B7001F2CC710B7001F287110A700D4A137020220C4B1A700A2000F07BF93D7034704422094B1A70F8BD00BFCF010049F8460040F94600406E5800400D51004006
:400180003D510040285B00402B5B00407658004008B500F0B9FB08BD38B5042225492648FFF7F6FF0622254B1A705222A3F580731A70234B1B78DBB2224A13700024224B21
:4001C0001C804FF4E16203F21E231A8041F25122023B1A8019250CE01C4B1B7803F0010343EA440404F003044FF4F07000F050FB013D0DB1032CEFD1134A0723137000230F
:4002000013490B704820023108701370053213700222104B1A7004220A331A700E4A137843F001031370013A137843F08003137038BD00BF400100480041004000430040C4
:400240000F010049A146004004400040254200400640004001400040A143004038B572B62E4A137843F00403137000240CE02C4D630019194A0011462A44084691882858BF
:40028000FFF73CFF0134E4B2072CF0D925494FF09040FFF719FF244A137843F0020313701032137843F002031370204C237843F040032370A2F58632513A137843F01003C4
:4002C000137008221A491B48FFF762FF0A221A491A48FFF75DFF082219491A48FFF758FF082219491948FFF753FF082218491948FFF74EFF184A137843F008031370174D40
:4003000061232B70FFF748FF81232B70FFF7FCFE0E2221461248FFF73BFF38BDE8460040340900007000004803500140A043004014010048025100401C010048F05100402C
:400340002801004812510040300100482251004038010048325100402243004000480040B043004008B500F0A3FA03680C2B00D1FEE7FEE708B5104E104D16E029686B6840
:40038000AC68002204E051F8040B43F8040B0432A242F8D1E868002203E0002143F8041B04328242F9D11035013E002EE6D100F085FAFFF779FEFEE7010000008C0900004A
:4003C00008B5104A104B1A60104A136843F40073136000230AE0032B03D80D4A52F8231000E00C490C4A42F8231001332F2BF2D90A4B1A780A4B1A70074A0A4B1A60FFF708
:400400002DFF08BD0004FA050CED00E014ED00E000000000650300000080FF1FBC760040C080FF1F08ED00E0044A137803F0FD03400000F002001843107070472051004022
:40044000024B1878C0F34000704700BF2151004001BE704708B5034B1B7A00FB03F000F017FA08BDCC80FF1F70B504460E46074B1D681F2802D90020FFF7EAFF04F01F047E
:40048000103455F8240045F8246070BD08ED00E038B504460D46072902D90020FFF7D8FF1F2C02D90020FFF7D3FF04F01F0000F1604000F564406D01EDB2057038BD00BFC1
:4004C000084A137843F0010313701032137843F00103137002F64D32137843F001031370704700BFA3430040014B1870704700BF034F0040014B1880704700BF044F0040BD
:40050000014B1880704700BF064F004008B5164A137803F0010313700232137803F0FC031370124B1A7802F0CF021A701A7842F030021A701A7802F0F0021A701A7842F0F6
:400540000F021A700A4A137843F00103137040F2DB50FFF7CFFF40F2DB50FFF7D1FF0820FFF7C2FF08BD00BF004F00400B4F0040014F004008B5054B1B7823B9FFF7C6FFB0
:400580000122024B1A70FFF79BFF08BD5C81FF1F054A137843F0040313701032137843F004031370704700BFA8430040054B1A7802F0FD021A701A7800F002001043187073
:4005C000704700BF28580040014B1870704700BF825B0040064B1B78C3F3810303F19243063393F82831DBB2024A1370704700BF285800400A46004008B5064B1A7802F0A6
:40060000F3021A701A7800F00C0010431870FFF7E1FF08BD2858004010B50024054B1C7001331C702046FFF7E7FF2046FFF7BEFF10BD00BF2858004008B5074B1B7823B9CD
:40064000FFF7EAFF0122044B1A70FFF7A1FF6420FFF7BAFF08BD00BF5D81FF1F014B1B681865704708ED00E04001C0B2014B1870704700BF04E400E01022014B1A6070470A
:4006800000E100E01022014B1A60704780E100E010B50446FFF7F6FF2046FFF7DFFF0720FFF7E2FFFFF7E8FF10BD00BF08B50A280FD00C2802D0082806D102E04FF480521C
:4006C00009E04FF4807206E00020FFF7C1FE002201E04FF480620021084B198042F2107303FB02F313F5806301D503F2FF73DB12034A13600022034B1A8008BD6081FF1F9F
:400700006481FF1F6281FF1F10B500F0C9F804461E4A137843F0020313701032137843F0020313701A3A137843F0010313701032137843F00103137002F5AA521A321378D5
:4007400043F0030313700422114B1A70013B1A7842F040021A701A7802F0FC021A70CE22053B1A700222A3F59753123B1A70094A137843F0080313700A20FFF76BFE012257
:40078000054B1A60204600F08FF810BDAB4300400E5900402F5B004080E200E010B504460A280DD00C2802D0082804D101E0C42207E0442205E00020FFF74AFEC42200E09E
:4007C0008422034B1A702046FFF770FF10BD00BF0A59004008B5102000F04EF807210020FFF756FE07490020FFF73EFE064A137843F0060313700C20FFF7D0FF0022034B2F
:400800001A8008BD69080000095900406881FF1F08B5054B1B7823B9FFF7DCFF0122024B1A70FFF771FF08BD5E81FF1F10B5074B1B7813F0010401D10028F8D024B1012066
:40084000FFF708FE014B1B78204610BD09590040034B1B78034A108800B2181A40B27047A25B00406281FF1F704700BF0122014B1A60704700E100E0034B1A7800F0F80098
:4008800010431870704700BF02410040000000000230800803D000BF01380046FCD17047EFF3108072B6704780F31088704700BF014B1868704700BF3C81FF1F0E4B70B5A8
:4008C0001E460E4C0025E41AA410A54204D056F8253098470135F8E700F046F8084B094C1E46E41AA4100025A54204D056F8253098470135F8E770BD740900007409000087
:40090000740900007C09000010B5431E0A44914204D011F8014B03F8014FF8E710BD03460244934202D003F8011BFAE77047000000000000004F00400C00405100403000CD
:40094000C0510040100000000140001000140140000800400140000A004C0140000200500140200043000000F8B500BFF8BC08BC9E4670474D000000C1030000F8B500BF5E
:40098000F8BC08BC9E46704729000000A0090000C880FF1F780000003000000000000000000000000000E02EC05D00001800000000366E010000000000000000000000005C
:4009C000000000000000000000000000000000000000000064090000000000000000000000000000000000000000000000000000000000000000000000000000000000008A
:400A00000000000000000000000000000000000000000000DC80FF1F000000000000000000000000000000000000000000000000000000000000000000000000000000003C
:400A40000000000000000000000000000000000000000000000000000000000000000000000000000000000000000000000000000000000000000000000000000000000076
:400A80000000000000000000000000000000000000000000000000000000000000000000000000000000000000000000000000000000000000000000000000000000000036
:400AC00000000000000000000000000000000000000000000000000000000000000000000000000000000000000000000000000000000000000000000000000000000000F6
:400B000000000000000000000000000000000000000000000000000000000000000000000000000000000000000000000000000000000000000000000000000000000000B5
:020000040003F7
:0200000480007A
:4000000001450040024F00400152004001010140010301400207014002090140040A0140010B0140010D0140010F0140011501400217014002190140011B014009400140C8
:40004000054101400642014005430140014401400245014002460140094701400548014002490140094C0140014D0140025101407E0201800A4B7C40E204E602E810EE081E
:40008000AF20E810B820BE10D804DF011F20E602E204EE02E220EE02E220EE02EE0230023220340236403B408002CCF0CE10E220840297409C02A660E64011026302974007
:4000C000A660C410D6409740A660AF01B501EE1082408480964096409C8008800B400E40901096409C80B410C20EE8088A209740A620AE40EE40AF40EE401C081F103810EF
:4001000088049010AF40C601CE08E204AF1000AB0103000000000000000014004000000000000000C0000000000B0B00000000000002020000000000000000000000800005
:400140001300180100000000000000000000000000000000000000000000000000000000000000000000000000000000000000000000000000000000000000000000000053
:40018000000000000000000000000000000000000000000000000000000000000000000000000000000000000000000000000000000000000000000000000000000000003F
:4001C00000000000000000000000000000000000000000000000000000000000000000000000000000000000000000000000000000000000000000000000000000000000FF
:4002000000000000000000000000000000000000000000000000000000000000000000000000000000000000000000000000000000000000000000000000000000000000BE
:40024000000000000000000000000000000000000000000000000000000000000000000000000000000000000000000000000000000000000000000000000000000000007E
:0200000490006A
:0400000000004005B7
:0200000490105A
:04000000BC90ACAF55
:0200000490303A
:02000000A481D9
:0200000490402A
:4000000000000000000000000000000000000000000000000000000000000000000000000000000000000000000000000000000000000000000000000000000000000000C0
:400040000000000000000000000000000000000000000000000000000000000000000000000000000000000000000000000000000000000000000000000000000000000080
:400080000000000000000000000000000000000000000000000000000000000000000000000000000000000000000000000000000000000000000000000000000000000040
:4000C0000000000000000000000000000000000000000000000000000000000000000000000000000000000000000000000000000000000000000000000000000000000000
:0200000490501A
:0C00000000012E16106900012E19B4EA50
:00000001FF