:4000000000800020110000008D0100008D01000008B5044B1A6803F53F5302331A6000F0B7F800BFFA46004010B5054C237833B9044B13B10448AFF300800123237010BDAC
:400040007881FF1F000000001C1B0000084B10B51BB108480849AFF300800848036803B910BD074B002BFBD0BDE81040184700BF000000001C1B00007C81FF1F0881FF1FF3
:400080000000000010B5044600F03AFD0028FBD0002384F83F30212384F83E30204601F034FD81B2204600F0E5FC10BD10B5044600F026FD0028FBD0204600F001FD10BDE6
:4000C00038B51D4B1B784BB900F072FB002832D000F084FC0122184B1A7038BD00F004FD48B300F019FD0D2801D00A280BD1124C638812490025CD54114801F0FEFC6580FF
:400100000123237138BD082801D07F2806D10A4B5B881BB1013B084A538038BD064B5B883F2B03D9212000F0CBFC38BD591C024A5180024AD05438BD9481FF1FA481FF1F65
:400140000482FF1F08B562B60020012100F0F8FA0A48FFF797FFFFF7B3FF094B1B79012BF9D10848FFF78EFF0748FFF78BFF0A20FFF79CFF0022024B1A71ECE70C81FF1FA9
:400180009481FF1F201B00000482FF1FFEE700BF08B5104E104D16E029686B68AC68002204E051F8040B43F8040B0432A242F8D1E868002203E0002143F8041B043282424E
:4001C000F9D11035013E002EE6D101F05DFCFFF7B9FFFEE701000000341D000008B5124A124B1A60124A136843F40073136000230AE0032B03D80F4A52F8231000E00E4996
:400200000E4A42F8231001332F2BF2D90C4B1A780C4B1A70094A0C4B1A6000F0A9F800220A4B1A6008BD00BF0004FA050CED00E014ED00E0000000008D0100000080FF1FC3
:40024000BC7600400481FF1F08ED00E00081FF1FF0B40022174611E050F82760F3B226F0FF0608E001EB420511F812406D78A5550132013BDBB2002BF4D10137182FEBD9CE
:40028000F0BC7047064B1B78DBB203F00701054A11701B09013213704422034B1A707047CF0100496E5800407658004008B50A46002101F01AFC08BD38B53322224B1A8060
:4002C000182202331A70062203F27E231A705222A3F580731A701D4B1B78DBB21C4A137000241C4B1C804FF4E16203F21E231A8041F25122023B1A8019250CE0164B1B78AB
:4003000003F0010343EA440404F003044FF4F07000F09AF8013D0DB1032CEFD10D4A0723137000230D490B7048200231087013700532137002220A4B1A700A4A137843F0E9
:400340000103137038BD00BF804000400F010049A146004004400040254200400640004001400040A243004008B501F0B3FB08BD38B572B6274A137843F004031370002458
:400380000CE0254963001A1952000A4423445B00C8589188FFF78AFF0134E4B2072CF0D94FF090401D49FFF753FF1D4A137843F0020313701032137843F002031370194C15
:4003C000237843F040032370A2F58632513A137843F010031370144814490A22FFF7C4FF134814490A22FFF7BFFF134A137843F008031370114D61232B70FFF75DFF8123D9
:400400002B70FFF73FFF0E4821460E22FFF7ACFF38BD00BFE8460040301B00006400004803500140A0430040F0510040F403004820510040000400482243004000480040A5
:40044000B0430040000000000230800803D000BF01380046FCD17047EFF3108072B6704780F31088704700BF01BE704708B5034B1B7A03FB00F0FFF7E7FF08BD4C81FF1F98
:4004800070B504460E46074B1D681F2802D90020FFF7EAFF04F01F04103455F8240045F8246070BD08ED00E038B504460D46072902D90020FFF7D8FF1F2C02D90020FFF734
:4004C000D3FF04F01F0000F1604000F564406D01EDB2057038BD00BF134B1B78DBB20360124A127843EA02230360114A127843EA024303600F4A127843EA026303600E4B50
:400500001B78DBB243600D4A127843EA022343600B4A127843EA024343600A4A127843EA02634360704700BF0301004904010049EC460040020100490101004900010049B7
:400540000501004906010049F8B5FFF785FF0746404A137843F0010313701032137843F00103137001263C4B1E700225943B1D7002F5E2521B32137803F07F031370002038
:40058000FFF774FF354C237803F0F9032370344A137803F0DF0313702378334323703046FFF764FF2820FFF761FF2E4B1A7802F07F021A701A7802F0BF021A7023782B43E2
:4005C00023702846FFF752FF237843F0040323700024254B1C7001331C703846FFF740FF17200721FFF760FF17202049FFF748FF18200721FFF758FF18201D49FFF740FFA7
:4006000015200721FFF750FF15201A49FFF738FF20460721FFF748FF20461749FFF730FF30460721FFF740FF30461449FFF728FF28460721FFF738FF28461149FFF720FF3A
:400640000C200721FFF730FF0C200E49FFF718FFF8BD00BFA54300409D6000409443004012600040F851004084600040B5100000850E0000B1100000F90F000031100000C0
:400680006D100000BD10000008B5214B18700023204A1370204A1370204A1370204A1370204A1370204A1370204A1370204B4FF400021A604FF080721A604FF400121A60FD
:4006C00001221A6002221A6004221A6011B1012906D00BE0174A137803F0FE0313700AE0144A137843F00103137004E0114A137843F00103137003220F4B1A708022203BF8
:400700001A700120FFF7A0FE04220C4B1A7008BD9D83FF1FA083FF1FBC83FF1FBF83FF1FB483FF1FBE83FF1FC183FF1F9C83FF1F00E100E00960004028600040126000403B
:4007400038B505460C46064B1B7823B9FFF7FCFE0122034B1A7028462146FFF795FF38BD9C81FF1F00230A4A13700A4A13700A4A13700A4A13700A4A13700A4A13700A4A34
:4007800013700322094B1A708022203B1A707047A083FF1FBC83FF1FBF83FF1FB483FF1FBE83FF1FC183FF1F9C83FF1F28600040014B1878704700BFBF83FF1F00EB40007F
:4007C0008000024B18444078704700BFC483FF1F431EDBB2072B0BD8064B00011A18185C00F00F00537843EA0020023880B2704700207047FC5F0040431EDBB2072B3BD863
:40080000F0B4074600EB40039B001C4C2344DB889BB2C3F500739A4207D900EB40039B002344DA88C2F5007292B200EB40039B00124C2344DB7843EA1223114D04012E19AC
:400840002B55D3B2737039B909E0CE5C3D010D4C665501339BB200E000239342F5D3430003449B00054A134400225A705A79D2B20001054B1A54F0BC704700BFC483FF1FC4
:40088000FC5F004078600040FE5F0040431EDBB2072B0BD8430003449B00054A134400225A705A79D2B20001024B1A54704700BFC483FF1FFE5F004070B5D9B1054614464F
:4008C0000E46C8B1082819D8FFF782FFA04203D22846FFF77DFF0446002305E02901094A525CF25401339BB2A342F7D32846FFF7CDFF04E0002402E0002400E00024204661
:4009000070BD00BF7860004010B4FF2400220EE00A4B9B5C03EB43039B0009490B449B78DBB2834201D1144602220132D2B2012AEED920465DF8044B704700BF8C83FF1FF5
:40094000CC83FF1F10B5204C2079FFF7DDFF237813F0800F0ED06378DBB2212B2FD11B4B07221A80C0EBC000194A1044586000F0F7FA10BD144B5B78DBB2202B02D0222BD5
:4009800010D01EE0114A07231380C0EBC00310490B4453600F4A135C43F00103135400F007FB10BD084B9B780B4A22F81030094A135C43F00203135400F092F910BD002075
:4009C00010BD002010BD00BF00600040A883FF1F5C81FF1F8483FF1F9883FF1F10B500241F4B1C701F4B1C705C700AE01E4B185DC0B2431EDBB2072B01D8FFF747FF0134F7
:400A0000E4B2012CF2D9194B1B7813F0FF0F1AD0154B1B7813F0FF0F17D0154B1B7813F0FF0F14D0114B1B78DBB2082B11D80E4B1B78DBB2082B0ED80D4B1B78DBB2082B8E
:400A40000BD8002010BD012010BD012010BD012010BD012010BD012010BD012010BD00BF9D81FF1F8483FF1F9083FF1F8883FF1F8C83FF1F70B506460D460E4B1B780E4A63
:400A8000D45CE4B204EB44039B000C4A13441B899BB28B4208D204EB44039B0013441D89ADB20020FFF7E0FC204631462A46FFF7A3FE70BD9D81FF1F8883FF1FC483FF1F60
:400AC00000B583B002A901F8010D054B1B78054AD05C0122FFF790FE03B05DF804FB00BF9D81FF1F8883FF1F08B5034B1B78034AD05CFFF763FE08BD9D81FF1F9083FF1F8C
:400B000008B5034B1B78034AD05CFFF757FE08BD9D81FF1F8883FF1F00B583B0064B1B78064AD05C0DF107010122FFF7C5FE9DF8070003B05DF804FB9D81FF1F9083FF1FEF
:400B4000C37803F0030390F9020000280FDA032B06D002F001030B48C15442F001020EE0C2F380030848C15442F0040207E0032B05D0C2F340030548C15442F0020210467B
:400B8000704700BF8883FF1F8C83FF1F9083FF1F1C4B19781C4A13880B449BB2138000230EE01A4A51680978C9B21948C1545168013151600133DBB21188013989B2118074
:400BC000124A128892B20AB1072BEAD90D4A1278D2B2082A00D05BB10E490A7882F080020A700F210C4A117002210C4A117004E0022209490A7009490A70094A1370014A8F
:400C0000137070479C83FF1F9E83FF1FA883FF1F006000403284FF1FBD83FF1FA083FF1FC083FF1F0222074B1A708022064B1A700F22064B1A700023054A1370054A1370F1
:400C400001207047A083FF1F3284FF1FBD83FF1F9C83FF1FC083FF1F08B5FFF799FF08BD10B4184B197801F00F010239C9B2164A13880B449BB21380002010E0134B5C68B0
:400C8000134A125CD2B222705A6801325A600130C0B20139C9B21A88013A92B21A800B4B1B889BB20BB10029E8D10A4B19700A4A137883F0800313700B22084B1A705DF818
:400CC000044B7047296000409E83FF1FA883FF1F00600040C083FF1F3284FF1FBD83FF1F0623064A1370064A13708022054B1A700022054B1A700120704700BFA083FF1F4B
:400D0000BD83FF1F3284FF1FC083FF1F064B9B6843B1054B9A6810709A6804490988518000229A60704700BFA883FF1F9E83FF1F08B5134B1A78D2B21A701B78DBB213F05D
:400D4000800F02D00F4A137008BD0220FFF7DEFF0D4B1B7803F06003202B05D0402B06D043B900F091FC06E000F062FE03E000F039FE00E0002010B90322024B1A7008BD97
:400D800028600040BD83FF1F0060004008B5084B1978084A13880B449BB213800022064B1A700120FFF7B2FF0322044B1A7008BD9C83FF1F9E83FF1FA083FF1FBD83FF1F0D
:400DC00008B50B4B1B78DBB2042B06D0062B07D0022B0BD1FFF7DAFF08BDFFF741FF08BD0320FFF793FF0322024B1A7008BD00BFA083FF1FBD83FF1F08B50022044B1A7099
:400E00000120FFF783FF0322024B1A7008BD00BFA083FF1FBD83FF1F08B50B4B1B7813F0FF0F07D0084A137843F0800307490B70002313700022064B1A700120FFF766FFEF
:400E40000322044B1A7008BDBE83FF1F08600040A083FF1FBD83FF1F08B5094B1B78DBB2042B06D0062B07D0022B07D1FFF7F4FE08BDFFF7C1FF08BDFFF7CEFF08BD00BF57
:400E8000A083FF1F08B5284B1B78DBB213F0100F48D013F0800F0CD003F00F03012B16D1FFF746FF214B1B7813F0800F11D1012312E013F0400F03D0FFF7CEFF01230BE026
:400EC00013F0200F07D0FFF77BFF012304E0002302E0002300E0002323B3134B1B7813F0800F1FD1124B1B78124A12781343124A13701278D2B29A4214D10C4B1B78DBB2AC
:400F0000094A127812F0800F07D1084B1B78DBB2054A1370137803F00F03044A1278D2B29342EAD108BD00BF28600040BD83FF1F3284FF1FC083FF1F296000400022064B8F
:400F40001A80064B9B682BB1044A916800230B7092685380704700BF9E83FF1FA883FF1F08B50F4B1B889BB213B9FFF75BFE15E002220C4B1A7000220B4B1A70FFF7DEFF06
:400F80000A4AD179937943EA0123054A128892B29A4201D9024A1380FFF7FAFD012008BDA883FF1FA083FF1F3284FF1F0060004008B504220B4B1A7080220B4B1A70FFF768
:400FC000BDFF0A4AD179937943EA0123084A128892B29A4201D9064A13800B22054B1A70012008BDA083FF1F3284FF1F00600040A883FF1FBD83FF1F0A4A137803F0FE0355
:401000001370094B9B7C094B1B7B03F00303012B04D0064AD37B83F08003D3730122034B5A7370470B600040FC5F0040C483FF1F0B4A137803F0FD0313700A4B93F82230DD
:40104000094B1B7E03F00303012B04D0064AD37E83F08003D3760122034B5A76704700BF0B600040FC5F0040C483FF1F0D4A137803F0FB0313700C4B93F832300B4B93F8CD
:40108000243003F00303012B06D0084A92F8273083F0800382F827300122044B83F82520704700BF0B600040FC5F0040C483FF1F704700BF08B5FFF755FB08BD08B500F0A9
:4010C000AFFC08BD70B588B0054603AC174E0FCE0FC43368237035B322232B7003236B7001A8FFF7F9F9002402231AE008AA224412F81C2C08A901EB121111F8141CE954A9
:40110000581C00212954981C02F00F0208AE324412F8142C2A54DA1CA9540134E4B20433DBB2212BE2D908B070BD00BF601B000010B401223DE0114613010C242148C4542A
:4011400002EB42039B00204803445B7913F0FF0F12D002EB42039B0003441B7913F0800F04D01001194B03449C700AE01001174B03440820987004E01001144B0344802047
:4011800098704B000B449B000F480344DC88E4B208010C4901448C71D888C0F30720C871D888C0B20871DB88C3F307234B710132D2B2082ABFD9FF22054B1A705DF8044BDD
:4011C000704700BF70600040C483FF1FFC5F00400A600040074B1B78074A02EBC30253681A7C824203D903EBC003586970470020704700BF9D83FF1FB01B0000F8B5404BE6
:401200001B7813F0FF0F79D03D4B18780138C0B2FFF7E0FF047AC2683A4B1878C0B200236AE01178814264D13749095CC9B25578A9425ED1917801F07F01D67806F00306FE
:40124000DFF8C8E04D000D44AD000EEB05074FF0000C87F803C092F802C087F804C092F803C00EF805C095883D8192F90250002D0DDA012E01D1072700E00D274D000D44BE
:40128000AD00224E35446F7101266E700CE0012E01D1052700E009274D000D44AD001B4E35446F7100266E70DFF868E00F010EEB07060125B57001FA05F529448900134DAE
:4012C00029440D89C5F307250EF807500D89EDB27570CE88F6B20E4D3D44AE71CE88C6F30726EE71CE88F6B22E71C988C1F30721697108320133DBB2A34292D3F8BD00BF9F
:40130000BF83FF1FB483FF1F3084FF1FC483FF1F70600040FC5F0040034B1A78034B03EBC2035868704700BF9D83FF1FB01B000008B5074B18780138C0B2FFF74BFF28B193
:401340004268127900EBC203586908BD002008BDBF83FF1F2DE9F84300220EE06D4E53009D18AD00741900217155A170E1702181A172617061710132D2B2082AEED940B915
:401380000AE000226449CA546449CA540133DBB200E00023012BF4D9614B1B7813F0FF0F00F0B5805E4B18780138C0B2FFF712FF80464368DB7913F0400F05D0594A137854
:4013C00043F00103137004E0564A137803F0FE03137098F808704FF0000901266CE0D8F80C50002464E0AB7803F07F039E425CD1314606EB46039B00464803441B899BB29F
:40140000A888834205D206EB46039B00414A134418812B784048C35CDBB26878834244D195F802C03B484B000B449B0000EB030E8EF804C095F803E000F803E0EB7803F011
:40144000030395F90200002811DA012B02D14FF0070C01E04FF00D0CDFF8B8E04B0058188000704480F805C00123437012E0012B02D14FF0050C01E04FF0090C25484FEAAB
:40148000410E0EEB01039B00034483F805C0194600234B70AB790A2B01D0022B05D1284631464A46FFF74CFB814608350134E4B2BC4298D30136F6B2082E90D9D8F80C0010
:4014C00000220CE0837803F07F0310F8084B03EB43039B0014490B449C700132D2B2BA42F0D3FFF725FF114B1860002001220AE0084C5300991889002144C8800B8918447D
:4015000080B20132D2B2082AF2D9FFF711FEBDE8F88300BFC483FF1F3084FF1FA483FF1FBF83FF1FC183FF1FCC83FF1FB883FF1F08B5154B1A7902F07F02531EDBB2072B8A
:4015400020D8530013449B0010490B44997841F0010199700021D970597841F0020159701B7913F0800F05D01201094B13448D229A7004E01201064B134489229A70FFF745
:40158000AFFB08BD002008BD00600040C483FF1FFC5F0040264B1B7903F07F035A1ED2B2072A43D810B55A001A44920021490A44917801F0FE0191700021D17019017F2495
:4015C0001D484454517801F0FD015170127912F0800F14D003EB4302920016490A445278D2B2012A05D11B0102461A440C23937019E01B01104A1A440D23937013E003EBDF
:40160000430292000B490A445278D2B2012A05D11B01094A1A440823937004E01B01064A1A4409239370FFF75BFB10BD0020704700600040C483FF1FFC5F004010B50E4B5C
:401640001C79E4B20D4B18780138C0B2FFF7C2FD43681B799C4201D9022C0AD8084A135DDBB208490B55044B9B78DBB21355012010BD002010BD00BF00600040BF83FF1FFF
:401680003084FF1FA483FF1F10B5964B1B78DBB20021954A118013F0800F00F0B380914A5278D2B20A2A00F27981DFE812F06F00770177017701770177010B007701980013
:4016C0007701A000874BDB78DBB2012B09D1FFF723FE4268844B5A6012221A80FFF740FC10BD804BDB78DBB2022B13D17D4B9878FFF770FD002800F0538142687A4B5A60F7
:401700005A68D1785A68927842EA01221A80FFF727FC10BD734BDB78DBB2032B05D032E00A7811440133DBB201E000236F496D4A9278D2B29A4203D90A7812F0FF0FEFD1AD
:40174000684B9B78DBB2EE2B00D16949654B9B7813F0FF0F0BD0634B9B78DBB2654A127C934204D1644C2046FFF7ACFC21460B7813F0FF0F00F016810B785B4A13805160F4
:40178000FFF7EEFB10BD00F053F910BD13F0030317D0022B40F0088153490B80514B1B7903F07F0303EB43039B00544A13449A78D2B2534B1A7000225A704B60FFF7D0FBF8
:4017C00010BD494902230B804E4B1A78D2B24C4B1A7000225A704B60FFF7C2FB10BD424B01221A80484A5A60FFF7BAFB10BD3E4A012313803B4B1B7944490B445360FFF707
:40180000AFFB10BD374A5278013A0A2A00F2CE80DFE812F04B00CC009700CC000B00CC00CC00CC001300CC0030002E4B9B78DBB2374A1370FFF754FA10BD2A4B9B7803F0CD
:40184000FF041BB1601EC0B2FFF7C4FC04B110B9002C40F0AD802C4B1B78DBB29C4206D0294B1C7001202B4B1870FFF773FDFFF737FA10BDFFF7E2FE002800F09B80194ABC
:401880001379DBB21279D2B223490A70234AD25C1E49C95CD3B28B4204D001221D4B1A70FFF7ACFCFFF71CFA10BD03F00303012B36D04BB1022B7FD10A4B9B7813F0FF0F24
:4018C0007CD1FFF767FE10BD064B9B78DBB2012B76D10C4A137803F0FD031370FFF700FA10BD00BF00600040A883FF1F181C00009C1B0000FC1C00003884FF1FC483FF1F11
:40190000A081FF1FC183FF1FBF83FF1F3084FF1FBE83FF1FBC83FF1FB483FF1FA483FF1F2D4B1B79DBB2012B4CD82B4B98781B79DBB22A49CA5C22EA0002CA54FFF7D0F96A
:4019400010BD03F00303012B17D04BB1022B3BD1214B9B7813F0FF0F38D1FFF7E9FD10BD1D4B9B78DBB2012B32D11D4A137843F002031370FFF7B4F910BD174B1B79DBB240
:40198000012B27D8144B98781B79DBB21349CA5C22EA0002CA54FFF7A3F910BD002010BD002010BD002010BD002010BD002010BD002010BD002010BD002010BD002010BD0A
:4019C000002010BD002010BD002010BD002010BD002010BD002010BD006000403484FF1FC183FF1F08B50B4B1B7813F0800F0CD0084B5B78DBB2012B09D1074B074A5A6057
:401A000012781A80FFF7ACFA08BD002008BD002008BD00BF00600040A883FF1F741B0000024B1878C0F38010704700BF8F45004008B5124B1B7803F00303012B02D0022BA5
:401A400004D00FE00D4B1B79DBB20CE00B4B1B7903F07F0303EB43039B00094A13449B78DBB200E00023074A1268D35C022B02D1FEF768FF08BD002008BD00BF0060004064
:401A8000CC83FF1FB883FF1F0E4B70B51E460E4C0025E41AA410A54204D056F8253098470135F8E700F034F9084B094C1E46E41AA4100025A54204D056F825309847013588
:401AC000F8E770BD1C1D00001C1D00001C1D0000241D000010B5431E0A44914204D011F8014B03F8014FF8E710BD03460244934202D003F8011BFAE77047034611F8012B24
:401B000003F8012B002AF9D17047034613F8012B002AFBD1181A01387047000000000000796F7520656E74657265643A20000000005100402000305100404000C05100407A
:401B4000100000000140001000140140000800400140000A004C0140000200500140200030313233343536373839414243444546000000002800000000010400010000000C
:401B80000000000000014359555342000000303030303100000000000000000012034D005300460054003100300030000100000001000000B81B000001000000FC1C0000DF
:401BC000000000000000000001000000D01B000001000000B81C000003000000FC1B00000000000000000000000000000000000000000000F81B0000020A00000000810367
:401C0000080002000100820240000A000100030240000A0002030000040309042C0343007900700072006500730073002000530065006D00690063006F006E006400750083
:401C4000630074006F007200100355005300420055004100520054003803430044004300200043006F006D006D0075006E00690063006100740069006F006E00200049008F
:401C80006E007400650072006600610063006500260343004400430020004400610074006100200049006E007400650072006600610063006500000009024300020101C08C
:401CC00032090400000102020103052400100104240202052406000105240100010705810308000A09040100020A00000407058202400000070503024000000012010002E5
:401D000002000008B40432F20100010280010000F8B500BFF8BC08BC9E4670474D000000DD010000F8B500BFF8BC08BC9E46704729000000481D00000881FF1F700000006A
:401D4000E8020000000000000000000055415254204C616220457865726369736520340A000000000000000000000000000000000000000000000000000000000000000058
:401D80000000000000000000000000000000E02EC05D00001800000000366E0100C2010000000800C201000000080000A120000000000200000000000000000000000000E2
:401DC00000000000000000000000000000000000000000000000000000000000000000000000000000000000000000000000000000000000000000000000000000000000E3
:401E000000000000000000000000000000000000000000000000000000000000000000000000000000000000000000000000000000000000000000000000000000000000A2
:401E40000000000000000000000000000000000000000000000000000000000000000000000000000000000000000000000000000000000000000000000000000000000062
:401E80000000000000000000000000000000000000000000000000000000000000000000000000000000000000000000000000000000000000000000000000000000000022
:020000040003F7
:0200000480007A
:4000000001450040045200400364004001010140010501404B0A0140420B0140460C0140380D01404B0E0140310F01400217014002190140084001400441014006420140CD
:40004000034301400244014008450140044601400447014004480140024C014003500140025101407E021008111814047C408B0F8C718E38E204E2080B0812011401150374
:40008000170C1D0A1F0420012503260127042A012B052D032F04330F36013B083E40580459045F0180398108820284198506862488278A188C3F91079601980899019B0669
:4000C0009D069E269F01A010A301A418A502A821A906AB01AD04B107B21FB438B508BA28BB02BF10C036C104C6B0C7ECC838C9FFCAFFCBFFCEF0CF44D00CD401D604D80456
:40010000D904DA04DB04DF01E6C0EA40EB020514074109080A800C200E23108C11081240140815041680170219801D141F0821082404274028242A442C202E812F08310876
:400140003240351037413B103C0A3D05430C450846404C0854015504560457205C245D81678087409280931098089B039C049D109F44A0ACA211A508A720B302B48CC0F041
:40018000C2ECC47ECAFECCBACEC4D0C0D220D6F0D88000160201040608110A060C041008140818021E012017241728083210340736083B803E0456025711580459045B04D4
:4001C0005F018201850188018F049301950199049C019D04A304A601A704A902AD04B104B303B601B880B908C065C101C202C404C50CC7E0C821C9FFCAFFCBFFCC62CDA03B
:40020000CEF0CF41D00CD804D904DA04DF01E640E702E910EA30EB10ED10EE10EF120120034005320620074209800C200E521010141017151A011C121D201E021F502201BD
:40024000231025802701281429022B02319938043B8041A043024801491452025C106E506F1074247620770292809603973099019D04A088A210A508A602A722C0FAC2F1A7
:40028000C474CA0FCC0FCE0AD00DD20CD620060807010A0C0B040E10100C12031401150316061D031E1020012102220E27042A03300F31033210370439023A023E043F41B3
:4002C0004004464049FF4A074BFF4C404D204EF04F05500854185604580459045A045B045F01604061A8624063208006820189098A028B108C08911C930295109605970C89
:4003000099109E039F03A10CA311A514A601AA06AF20B408B520B607B71FBA80BE10D804D904DF010110021204200511070109080A810C800D081088151819011A801B0490
:400340001D201F8021822690270129052FA230803108338435113680370438083B203D103F104102501C510452105A026180638883408D20C0D7C2ADC46ACAD3CCFACE268A
:40038000D001D601D80DEA02EE0AEA02EE0A3381364037083B808308CCF0CE10E22097809F01A640A780874097809F01A640A780E2109F01A640A7808C02E40200300140CA
:4003C00054026010A002C002D604D802B010B540EA02EE0108080B040F40C20EAE40AF81EA40EE50AC08AF4400010C010E0100EA010300004000000000000000C000000019
:400400000C00001E1A001800000000000000000000000000000000000000000000000000000000000000000000000000000000000000000000000000000000000000000060
:40044000000000000000000000000000000000000000000000000000000000000000000000000000000000000000000000000000000000000000000000000000000000007C
:40048000000000000000000000000000000000000000000000000000000000000000000000000000000000000000000000000000000000000000000000000000000000003C
:4004C00000000000000000000000000000000000000000000000000000000000000000000000000000000000000000000000000000000000000000000000000000000000FC
:4005000000000000000000000000000000000000000000000000000000000000000000000000000000000000000000000000000000000000000000000000000000000000BB
:0200000490006A
:0400000000004005B7
:0200000490105A
:04000000BC90ACAF55
:0200000490303A
:02000000B7FA4D
:0200000490402A
:4000000000000000000000000000000000000000000000000000000000000000000000000000000000000000000000000000000000000000000000000000000000000000C0
:400040000000000000000000000000000000000000000000000000000000000000000000000000000000000000000000000000000000000000000000000000000000000080
:400080000000000000000000000000000000000000000000000000000000000000000000000000000000000000000000000000000000000000000000000000000000000040
:4000C0000000000000000000000000000000000000000000000000000000000000000000000000000000000000000000000000000000000000000000000000000000000000
:0200000490501A
:0C00000000012E16106900012E21C863BB
:00000001FF